:020000040800F2
:10000000008001209D470008D13F0008D93F00082B
:10001000DB3F0008DD3F0008DF3F00080000000074
:10002000000000000000000000000000E13F0008A8
:10003000E33F000800000000E53F0008E73F00083C
:10004000ED470008ED470008ED470008ED470008C0
:10005000ED470008ED470008ED470008EF3F0008B6
:10006000ED470008ED470008ED470008ED470008A0
:10007000ED470008ED470008ED470008ED47000890
:10008000ED470008ED470008ED47000800000000BC
:10009000000000000000000000000000F93F000820
:1000A000054000081540000825400008ED470008FD
:1000B000ED470008ED470008ED470008ED47000850
:1000C000ED470008ED470008ED470008ED47000840
:1000D000ED470008ED470008ED470008000000006C
:1000E00035400008ED470008ED470008000000001B
:1000F000000000000000000000000000ED470008C4
:1001000000000000ED470008ED470008ED4700083B
:1001100000000000000000000000000000000000DF
:1001200049400008ED470008ED470008ED4700088A
:10013000ED47000800000000000000000000000083
:10014000000000000000000000000000ED47000873
:10015000ED470008ED470008ED470008ED470008AF
:10016000ED470008ED470008000000000000000017
:10017000000000000000000000000000000000007F
:1001800000000000ED470008000000000000000033
:04019000ED4700082F
:10019400034613F8012B002AFBD1181A01387047C3
:1001A40053B94AB9002908BF00281CBF4FF0FF31DA
:1001B4004FF0FF3000F00CB8ADF1080C6DE904CE3F
:1001C40004F060FBDDF804E0DDE9022304B07047CD
:1001D400704700BF10B5054C237833B9044B13B1F5
:1001E4000448AFF300800123237010BD40000020B9
:1001F40000000000444B000808B5034B1BB1034941
:100204000348AFF3008008BD000000004400002054
:10021400444B000838B50446006800F07EF82068B6
:1002240000F092F805460121206800F06CF8284699
:1002340038BD70B504460E4615460021006800F02E
:1002440062F846F08001206800F067F829462068CB
:1002540000F063F80121206800F055F870BD012B0F
:100264001BD9F8B505460C4617461E460021006802
:1002740000F049F82146286800F04FF8002405E012
:10028400286800F061F838550134E4B2B442F7D379
:100294000121286800F037F8F8BD704708B5FF223F
:1002A4001221FFF7C6FF08BD70B50446006800F0D0
:1002B40069F810B994F8170170BD04F117064FF4EA
:1002C40080720021304604F090FA10212046FFF796
:1002D400A1FF02460D212046FFF7ABFF637C63B903
:1002E400657D2B46324600212046FFF7B8FF84F88F
:1002F40017512046FFF7D2FFDCE713212046FFF712
:1003040089FF0546EDE708B5012914BF0022012243
:10031400018A406901F067FC08BD10B582B004464B
:100324008DF807100021FFF7EEFF4FF47A730122D6
:100334000DF10701A06903F00EFAA06903F017FCA0
:100344000128FAD102B010BD10B584B004460021D2
:100354008DF80F108DF80E10FFF7D5FF4FF47A7358
:10036400009301230DF10E020DF10F01A06903F0BA
:10037400D4FAA06903F0FBFB0128FAD19DF80E0022
:1003840004B010BD08B50189C06801F025FC01283E
:1003940014BF0020012008BD08B50349034800F03C
:1003A40033F8034B187008BD5C00002024000020C3
:1003B40060000020134B5B7A13BB10B5044603F0B6
:1003C400FF00104B93F809C05FFA8CFC4FF0000E4D
:1003D40003F80CE093F809C003EB8C0CCCF8044050
:1003E4005C7A1C4422725A7A541CE4B25C72303235
:1003F4000A703A234B702F238B7081F803E010BDF1
:10040400012070476400002008B50022FFF7D2FFE6
:1004140008BD0000064BA3FB0023DA08134602EBD9
:100424008202A0EB420040EA0310C0B2704700BF52
:10043400CDCCCCCC2DE9F0438BB0002405940694AC
:100444000794089409940194564B1A6B42F00402E1
:100454001A631A6B02F004020192019A02941A6B55
:1004640042F080021A631A6B02F080020292029A2E
:1004740003941A6B42F001021A631A6B02F0010230
:100484000392039A04941A6B42F002021A631B6BE0
:1004940003F002030493049B434F22464FF400519C
:1004A400384601F0A0FB414D01221021284601F0FD
:1004B4009AFBDFF8FC8001224FF48051404601F0A2
:1004C40092FB22464FF48061284601F08CFB4FF4E6
:1004D40000530593012606960794089405A9384607
:1004E40001F096FA4FF4404305934FF40419CDF804
:1004F4001890079605A9384601F08AFA022705974D
:10050400CDF81890079605A9284601F081FA08232A
:1005140005930694079605A9284601F079FA102355
:10052400059306960794089705A9284601F070FAE2
:100534004FF48053059306960794089705A94046FF
:1005440001F066FA4FF4007305934FF48813069391
:10055400079405A9284601F05BFA4FF480630593DC
:1005640006960794089405A9284601F051FA2246F4
:100574002146072001F06AF8072001F077F82246A7
:100584002146172001F062F8172001F06FF8224687
:100594002146282001F05AF8282001F067F80BB012
:1005A400BDE8F08300380240000802400000024029
:1005B4000004024000B583B000210191094B1A6B7D
:1005C40042F480021A631B6B03F480030193019BC2
:1005D4000A46382001F03AF8382001F047F803B011
:1005E4005DF804FB0038024008B564230322D021DF
:1005F4000448006802F0AAF908B9012008BD0020E7
:10060400FCE700BF0C00002008B501460A230122C4
:100614000348006802F09AF9B0FA80F0400908BD76
:10062400140000202DE9F0418CB00646464B93E8B7
:1006340007000CAB03E90700444A06AB07CA03C32F
:100644001A7000240B2C0EDC04EB4403032209A9CA
:100654003F48184404F0D1F808B10134F2E7E4B299
:100664000134E4B200E001240D20FFF7D3FE8DF83D
:1006740017004FF0FF38CDF80880012501950DF1E2
:10068400170700972B460022D021304602F0ACF821
:100694000320FFF7BFFE8DF81700CDF80880019501
:1006A40000972B462A46D021304602F09DF81220AE
:1006B400FFF7B0FE8DF81700CDF80880019500977C
:1006C4002B460222D021304602F08EF81420FFF788
:1006D400A1FE8DF81700CDF80880019500972B46F0
:1006E4000422D021304602F07FF82046FFF792FE24
:1006F4008DF81700CDF80880019500972B46052248
:10070400D021304602F070F81A20FFF783FE8DF8EE
:100714001700CDF80880019500972B460622D021BA
:10072400304602F061F8AB238DF81730CDF808801D
:10073400019500972B460722D021304602F054F849
:100744000CB0BDE8F08100BFF0520008FC52000874
:10075400C852000810B584B004465223ADF80C30DA
:1007640003A8FFF715FD4FF0FF33009383B203AAEC
:1007740021460348006801F0FDFD04B010BD00BF30
:1007840014000020F0B589B007460E460024642307
:100794000093112303AA3146124D286801F0A6FEE6
:1007A4009DF80C30FE2B06D10134E4B2142000F085
:1007B40055FD092CEBD99DF80C00012802D000202E
:1007C40009B0F0BDDDF80D40DDF81110DDF815209D
:1007D400DDF819303C607960BA60FB6000233B743B
:1007E400EEE700BF1400002010B5144601EB8101B0
:1007F4004900C0EBC00001F0FE01C0B200F0D6FC1D
:10080400054A012306CA204600F0B8FC034B1868C9
:1008140000F066FB10BD00BF0000002010000020A7
:1008240010B5044602680E4B9A4207D023680D4A5D
:1008340093420CD00C4A93420DD010BD4FF400519A
:100844000A4801F0D6F90A4B01221A70EEE7094A68
:1008540001211170EEE7084B01221A70EDE700BF89
:1008640000480140004401400040014000080240AB
:10087400820000207D0000207C00002038B50C4858
:10088400FFF712FD80B10446312800D93124094D07
:1008940022460949284603F0E7FF00232B55074B5E
:1008A4001C70074B01221A700148FFF7F7FC38BD92
:1008B40010010020DC00002027010020D9000020C6
:1008C4008500002038B50446B0F5007F08D0B4F5A3
:1008D400804F0CD0B4F5004F1FD0022C31D038BD5E
:1008E400224B9B7D032BF2D1FFF7C8FFEFE700F00B
:1008F400AFFC05461E4B1B68C31AB3F5FA7FE9D952
:100904004FF400511B4801F074F9194B1D60012389
:10091400194A1370194A1370DCE700F099FC054674
:10092400174B1B68C31AB3F5FA7FD6D94FF400519D
:10093400104801F05EF9124B1D60124B01221A702F
:10094400CBE700F085FC04460F4B1B68C31AB3F5D4
:10095400FA7FC4D94FF40051064801F04AF90A4B12
:100964001C600A4B01221A70B9E700BF1001002075
:100974007800002000080240890000208600002042
:1009840074000020880000207000002087000020F0
:1009940008B50A23012278210348006801F0D6FF34
:1009A400B0FA80F0400908BD1000002072B6FEE7DE
:1009B40008B50A480A4B03600A4B4360002383606E
:1009C400C3604FF48042026143618361C361036287
:1009D40001F0F2FB00B908BDFFF7E8FFC4040020F2
:1009E40000540040801A060008B50948094B03600A
:1009F40046F2A7134360002383604FF47A72C26007
:100A04000361836103F028FA00B908BDFFF7CEFF44
:100A1400280200200048014008B50A480A4B036038
:100A24000A4B436000238360C3604FF48042026139
:100A340043618361C361036201F0BEFB00B908BD79
:100A4400FFF7B4FF7004002000580040A0860100A6
:100A540008B50A480A4B03600A4B436000238360CD
:100A6400C3604FF48042026143618361C3610362E6
:100A740001F0A2FB00B908BDFFF798FF1C04002099
:100A8400005C0040A086010008B50D480D4B0360D2
:100A94004FF48273436000238360C3600361436146
:100AA4004FF4007282613822C2610362436283623E
:100AB4000A23C36202F0F0FD00B908BDFFF776FF18
:100AC400B80300200030014008B50D480D4B036009
:100AD4004FF48273436000238360C3600361436106
:100AE4004FF400728261C3610362436283620A232A
:100AF400C36202F0D1FD00B908BDFFF757FF00BF84
:100B0400600300200038004008B50948094B036021
:100B140046F2A71343600023836047F22F52C2605A
:100B24000361836103F098F900B908BDFFF73EFF44
:100B3400700200200044014000B585B000230093FA
:100B44000193029303930F480F4A026046F2A712DF
:100B54004260836041F28732C2600361836103F0C3
:100B64007BF950B94FF4805300936946054803F06C
:100B7400ACF920B905B05DF804FBFFF717FFFFF7E8
:100B840015FF00BFB80200200040014008B5074827
:100B9400074B03600623436040F6A663836001F0BD
:100BA4009FFF00B908BDFFF701FF00BF100400203C
:100BB4000030004000B585B00023009301930293F8
:100BC40003931448144A02604FF4803242608360F5
:100BD4000361037680F82030C362104A8262C360E6
:100BE4000122C26180F83030426100F0E5FB68B94F
:100BF40002230093012301930423029369460548C9
:100C040000F006FC20B905B05DF804FBFFF7CEFE4A
:100C1400FFF7CCFE18050020002001400100000F62
:100C240000B595B03022002108A803F0DEFD0023B2
:100C34000393049305930693079301931B4A116C42
:100C440041F080511164126C02F080520192019AB9
:100C5400029317490A6822F4404242F400420A60AF
:100C64000A6802F440420292029A092208924FF45E
:100C74008032099201220D920E9308A802F03AF9EB
:100C840080B90F2303930123049300210591069156
:100C9400079103A802F084FB30B902F027FB15B0DA
:100CA4005DF804FBFFF782FEFFF780FE0038024088
:100CB4000070004008B500F0A5FAFFF7B1FFFFF798
:100CC400B9FBFFF777FCFFF773FEFFF78DFEFFF725
:100CD400A3FEFFF7BDFEFFF7D7FEFFF75DFBFFF7AF
:100CE400F3FEFFF711FFFFF727FFFFF74FFFFFF7B3
:100CF40061FF40F2DC5000F0B1FAFFF749FE554BBA
:100D04001870002877D1FFF76FFC534B1870002838
:100D140076D1C220FFF778FC504C2070CC20FFF72E
:100D240073FC4F4B1870C420FFF76EFC4D4B1870CA
:100D3400CE20FFF769FC4C4B18704C4B186802F03E
:100D440049FF4FF47A7000F089FA494801F0F6FE41
:100D54002378002B59D1424B1B78002B59D1414B9E
:100D64001B78002B59D1404B1B78002B59D14FF4E1
:100D7400167000F073FA394B1B78002B55D1384BA1
:100D84001B78002B56D1374B1B78002B57D1364B91
:100D94001B78002B58D1374A00210846FFF724FD61
:100DA400354A01210020FFF71FFD344A02210020AB
:100DB400FFF71AFD324A03210020FFF715FD314ADF
:100DC40000210520FFF710FD2F4A01210520FFF720
:100DD4000BFD2E4A02210520FFF706FD2C4A0321B4
:100DE4000520FFF701FD4FF47A7000F037FA204830
:100DF40001F0A4FEF7E7274B186800F09BF882E7A0
:100E0400254B1868FFF70EFC83E7C220FFF7A2FC0E
:100E1400A1E7CC20FFF79EFCA1E7C420FFF79AFCD2
:100E2400A1E7CE20FFF796FCA1E7C2211548FFF702
:100E3400A9FCA4E7CC211448FFF7A4FCA3E7C42130
:100E44001248FFF79FFCA2E7CE211148FFF79AFC56
:100E5400A1E700BF8400002083000020810000205F
:100E6400800000207F0000207E0000200800002079
:100E740010040020085300080C5300081453000801
:100E840018530008C8000020B4000020A00000206F
:100E94008C000020100000200C00002000B587B05A
:100EA4008DF817100A230293012301930DF1170201
:100EB40000920022782101F097FC07B05DF804FB52
:100EC400002303E0FF21054AD1540133B3F5806FB9
:100ED40003D20028F6D10146F5E7704768050020E3
:100EE40030B585B0054600241DE0A4F15001C9B217
:100EF4002846FFF7D3FF00212846FFF7CFFF102134
:100F04002846FFF7CBFF6423029380230193084B09
:100F140003EBC4130093012340227821284601F0F7
:100F240063FC0134E4B2072CDFD905B030BD00BF47
:100F34006805002038B50446642000F08FF9AE211E
:100F44002046FFF7ABFF054620212046FFF7A6FF0A
:100F5400054410212046FFF7A1FF0544B021204697
:100F6400FFF79CFF0544C8212046FFF797FF05447F
:100F740000212046FFF792FF054410212046FFF789
:100F84008DFF054440212046FFF788FF0544812159
:100F94002046FFF783FF0544FF212046FFF77EFF2D
:100FA4000544A1212046FFF779FF0544A6212046E8
:100FB400FFF774FF0544A8212046FFF76FFF05449F
:100FC4003F212046FFF76AFF0544A4212046FFF78E
:100FD40065FF0544D3212046FFF760FF0544002147
:100FE4002046FFF75BFF0544D5212046FFF756FF57
:100FF4000544F0212046FFF751FF0544D92120463E
:10100400FFF74CFF054422212046FFF747FF054424
:10101400DA212046FFF742FF054412212046FFF75C
:101024003DFF0544DB212046FFF738FF054420211E
:101034002046FFF733FF05448D212046FFF72EFF9E
:10104400054414212046FFF729FF0544AF2120461B
:10105400FFF724FFE84201D0012038BD0020FFF74C
:101064002FFF2046FFF73CFF034B002018805880D9
:1010740001225A71F1E700BF6005002010F0800FD3
:1010840025D13F2923D810B4114B1B7913B1B2FADF
:1010940082F25209012A0FD0CB0800EBC3100D4C89
:1010A400225C01F0070101238B40DB435BB2134058
:1010B40023545DF8044B7047CB0800EBC310054C78
:1010C400235C01F007018A4013432354F1E770477E
:1010D40060050020680500202DE9F04782B08146B4
:1010E40002A800E906009846234B1B889DF800607F
:1010F40033447F2B3BDC204B5B889DF801A0534499
:101104003F2B36DC00251FE01B4B188859882944E7
:101114002044B8FA88F25209C9B2C0B2FFF7AEFF50
:101124000134A6420FD907FA04F313F4004FEBD0AD
:10113400114B18885988294420444246C9B2C0B288
:10114400FFF79CFFECE70135AA4508D9A9F1200374
:1011540003FB0A53019A32F813700024E1E7064AAC
:10116400138833441380484602B0BDE8F08700205A
:10117400FAE70020F8E700BF6005002030B583B02F
:10118400044602A800E906001D4600E00134207868
:1011940048B12B4602AA12E90600FFF79DFF02465A
:1011A40020788242F2D003B030BD0000014B188099
:1011B400598070476005002010B504460E4B1A781C
:1011C4004FF47A73B3FBF2F30C4A1068B0FBF3F0FC
:1011D40000F050FA68B90F2C01D901200AE000226E
:1011E40021464FF0FF3000F031FA054B1C6000201F
:1011F40000E0012010BD00BF1800002020000020E6
:101204001C00002008B50B4B1A6842F400721A60E7
:101214001A6842F480621A601A6842F480721A6092
:10122400032000F001FA0F20FFF7C6FF01F08CFC49
:10123400002008BD003C0240034A1168034B1B78A0
:101244000B441360704700BF680900201800002099
:10125400014B1868704700BF6809002038B5044680
:10126400FFF7F6FF0546B4F1FF3F02D0044B1B78AD
:101274001C44FFF7EDFF401BA042FAD338BD00BF6A
:10128400180000204A4B5A6822F440325A605A68C7
:1012940041680A435A600268536823F480735360B8
:1012A40002685368016943EA012353600268536882
:1012B40023F0407353600268536881680B435360A2
:1012C4000268936823F40063936002689368C168BA
:1012D4000B439360826A374B9A4257D002689368F3
:1012E40023F07063936002689368816A0B43936090
:1012F4000268936823F04053936002689368C16A5C
:101304000B4393600268936823F0020393600268BE
:101314009368017E43EA4103936090F82030002BE8
:101324003FD00268536843F4006353600268536813
:1013340023F46043536001684B68426A013A43EA0C
:1013440042334B600268D36A23F47003D3620168AA
:10135400CB6AC269013A43EA0253CB6202689368DA
:1013640023F4007393600268936890F8301043EAA2
:10137400412393600268936823F480639360026856
:101384009368416943EA81239360704702689368D4
:1013940023F0706393600268936823F04053936072
:1013A400B0E70268536823F400635360CAE700BFE0
:1013B400002301400100000F38B310B50446036C4C
:1013C40043B1236C13F0100F0BD00120002384F8D9
:1013D4003C3010BD01F0D4FB0023636484F83C303E
:1013E400EFE7236C23F4885323F0020343F0020352
:1013F40023642046FFF746FF00206064236C23F03B
:10140400030343F001032364E0E701207047000075
:1014140030B482B00022019290F83C20012A00F0FE
:10142400B6800346012280F83C200A68092A40D984
:101434000468E06892B202EB42021E3A4FF0070CD5
:101444000CFA02F220EA0202E2601C68E0680A88F0
:1014540002EB42021E3A8D6805FA02F20243E26090
:101464004A68062A3CD81C68606B02EB8202053A83
:101474004FF01F0C0CFA02F220EA020262631C68AD
:10148400606B4A6802EB8202053AB1F800C00CFABC
:1014940002F20243626318683E4A904250D01868D0
:1014A4003C4A904255D0002083F83C0002B030BC46
:1014B40070470468206992B202EB42024FF0070CB5
:1014C4000CFA02F220EA020222611C6820690A88EE
:1014D40002EB42028D6805FA02F202432261BFE781
:1014E4000C2A16D81D68286B02EB8202233A1F24AB
:1014F40004FA02F220EA02022A631D68286B4A6891
:1015040002EB8202233A0C8804FA02F202432A63B1
:10151400C1E71D68E86A02EB8202413A1F2404FA1B
:1015240002F220EA0202EA621D68E86A4A6802EBF3
:101534008202413A0C8804FA02F20243EA62AAE700
:101544000A68122AABD11448426842F4800242600D
:10155400A5E70A68103A012AA5D80F48426842F460
:10156400000242600A68102A9DD10C4A12680C4994
:10157400A1FB0212920C02EB82025200019202E0E1
:10158400019A013A0192019A002AF9D18BE70220CB
:101594008CE700BF00200140002301402000002010
:1015A40083DE1B43002807DB00F01F0240090123F0
:1015B4009340024A42F82030704700BF00E100E047
:1015C400002808DB0901C9B200F1604000F5614060
:1015D40080F80013704700F00F000901C9B2014BF5
:1015E4001954704714ED00E000B500F00700C0F195
:1015F400070CBCF1040F28BF4FF0040C031D062B8D
:101604000FD9C31E4FF0FF3E0EFA0CF021EA000181
:1016140099400EFA03FE22EA0E0241EA02005DF846
:1016240004FB0023EEE70000074AD36823F4E063D9
:101634001B041B0C000200F4E060034343F0BF638F
:1016440043F40033D360704700ED00E010B5044666
:10165400054BD868C0F30220FFF7C6FF01462046B9
:10166400FFF7AEFF10BD00BF00ED00E008B5FFF7C7
:1016740099FF08BD0138B0F1807F0BD24FF0E02311
:101684005861054AF02182F823100020986107224E
:101694001A6170470120704700ED00E010B4036840
:1016A400D9B210390A4AA2FB01421209094CA25CC0
:1016B400C2655F2907D96FF3090304338365806D1D
:1016C4005DF8044B70476FF309038365F7E700BFC8
:1016D400ABAAAAAA20530008836A826992B9012B93
:1016E4000AD0022B02D00BB100207047C36A13F05A
:1016F400807F28D100207047C36AB3F1C07F24D013
:1017040000207047B2F5005F09D0022B25D9032BC6
:1017140025D1C36A13F0807F23D100207047032BA7
:1017240003D8DFE803F01404140A00207047C36AE6
:1017340013F0807F0DD100207047C36AB3F1C07FDE
:1017440009D0002070470120704701207047012014
:101754007047012070470120704701207047002026
:10176400704701207047000070B50446FFF770FD14
:10177400002C5BD00546022384F83530002384F81E
:1017840034302268136823F00103136023681A6855
:1017940012F0010F0AD0FFF75BFD431B052BF5D9AF
:1017A40020236365032084F8350070BD1A6820493E
:1017B40011406268A0680243E06802432069024362
:1017C40060690243A0690243E0690243206A02435C
:1017D4000A43616A04291ED01A602668756925F0D7
:1017E4000705636A1D43042B07D1A36A1D43E36AFB
:1017F4001BB12046FFF770FF90B975612046FFF7D3
:101804004DFFE26D3F239340836000206065012318
:1018140084F83530C9E7E16A206B01430A43DBE70A
:1018240040236365012084F83500BEE70120BCE74E
:101834003F8010F0F0B583B0044600230193724B4F
:101844001D68724BA3FB0535AD0A876D3E68C26DFA
:1018540008239340334210D003681A6812F0040F2F
:101864000BD01A6822F004021A60C26D0823934058
:10187400BB60436D43F001034365E26D0123934074
:10188400334209D02268526912F0800F04D0BB6041
:10189400636D43F002036365E26D042393403342B6
:1018A40009D02268126812F0020F04D0BB60636D85
:1018B40043F004036365E26D10239340334224D064
:1018C4002268126812F0080F1FD0BB6023681A68E0
:1018D40012F4802F0DD01B6813F4002F04D1236C55
:1018E4009BB12046984710E0A36C73B120469847FB
:1018F4000BE01A6812F4807F03D11A6822F0080200
:101904001A60236C0BB120469847E26D2023934064
:10191400334255D02268126812F0100F50D0BB60C9
:1019240094F83530DBB2052B0ED023681A6812F414
:10193400802F33D01B6813F4002F2AD1636C002B43
:101944003ED0204698473BE02268136823F01603F4
:1019540013602268536923F080035361236CA3B19D
:101964002268136823F008031360E26D3F23934059
:10197400BB60012384F83530002384F83430236DB0
:10198400002B3FD0204698473CE0A36C002BE7D1C6
:10199400EBE7E36BA3B12046984711E01A6812F411
:1019A400807F09D11A6822F010021A60012384F89A
:1019B4003530002384F83430E36B0BB1204698476C
:1019C400636DFBB1636D13F0010F17D0052384F829
:1019D40035302268136823F001031360019B01333F
:1019E4000193AB4204D823681B6813F0010FF5D1AF
:1019F400012384F83530002384F83430E36C0BB1D0
:101A04002046984703B0F0BD20000020B5814E1B4E
:101A140000230F2B00F2D78070B582B065E0856893
:101A24004FEA430E032404FA0EF425EA0405CC68B5
:101A340004FA0EF42C438460446824EA02044A68DD
:101A4400C2F300129A40224342605CE0DC0808348E
:101A540050F8242003F00705AD004FF00F0E0EFAE6
:101A640005FE22EA0E0E0A69AA4042EA0E0240F876
:101A740024205CE0042200E0002202FA0EF22A4351
:101A84000234514D45F82420504A94686FEA0C0200
:101A940024EA0C054E6816F4801F01D04CEA0405B4
:101AA4004A4CA560E46802EA04054E6816F4001F77
:101AB40001D04CEA0405454CE560646802EA04057B
:101AC4004E6816F4003F01D04CEA04053F4C6560B3
:101AD400246822404D6815F4803F01D04CEA04028A
:101AE4003A4C226001330F2B6BD801229A400C68C8
:101AF40004EA020C32EA0404F4D14C6804F003044E
:101B0400013C012C8BD94A6802F00302032A09D054
:101B1400C4685D000322AA4024EA02048A68AA4039
:101B24002243C2604A6802F00302022A8ED004688B
:101B34004FEA430E032202FA0EF224EA02044A6830
:101B440002F0030202FA0EF2224302604A6812F41F
:101B5400403FC7D0002201921D4A546C44F4804493
:101B64005464526C02F480420192019A9C08A51CB0
:101B7400154A52F8255003F0030E4FEA8E0E0F2239
:101B840002FA0EF225EA0205124A90423FF474AFBB
:101B940002F5806290420ED002F5806290420CD031
:101BA40002F5806290420AD002F5806290423FF4CE
:101BB40061AF072261E701225FE702225DE70322AA
:101BC4005BE702B070BD704700380140003C014043
:101BD40000380240000002400369194201D001208C
:101BE4007047002070470AB1816170470904816120
:101BF4007047436901EA030221EA030141EA024111
:101C04008161704708B5054B5B69034200D108BD8B
:101C1400024B5861FEF756FEF9E700BF003C014055
:101C240003685A6912F4806F01D1002070476FF481
:101C340080625A6100230363202280F83D2080F8EB
:101C44003E30026C42F00402026480F83C30012011
:101C540070472DE9F04106460C46174698463BE08E
:101C6400FFF7F6FA069BC01A404502D8B8F1000FF8
:101C740032D1012D18D033689B6924EA03039BB247
:101C8400B3FA83F35B099F4226D1002333632022F6
:101C940086F83D2086F83E30326C42F020023264F1
:101CA40086F83C30012027E033685B6924EA0303AB
:101CB4009BB2B3FA83F35B09E5E733685B6924EA13
:101CC400030C1FFA8CFCBCFA8CFC4FEA5C1C6745C5
:101CD40011D1B8F1FF3FC3D1C4F30745012DECD0B6
:101CE40033689B6924EA030C1FFA8CFCBCFA8CFC55
:101CF4004FEA5C1CEBE70020BDE8F0812DE9F843D6
:101D040005460E469046994653E01A6842F400721E
:101D14001A602B686FF480625A6100232B632022BF
:101D240085F83D2085F83E302A6C42F004022A648E
:101D340085F83C3001204AE0FFF78AFAA0EB09005D
:101D4400404502D8B8F1000F33D1012F17D02B68CA
:101D54009B6926EA03039BB2003B18BF012343B3EC
:101D640000232B63202285F83D2085F83E302A6C21
:101D740042F020022A6485F83C30012027E02B68D9
:101D84005B6926EA03039BB2003B18BF0123E6E725
:101D94002B689C6926EA0404A4B2003C18BF012401
:101DA400A4B12B685A6912F4806FAED1B8F1FF3F29
:101DB400C2D1C6F30747012FEAD12B685C6926EA32
:101DC4000404A4B2003C18BF0124E9E70020BDE8E4
:101DD400F8830000F0B583B004460D4616461F464E
:101DE400C36A082B0DD0012B0BD013F5803F08D00C
:101DF400036B122B0AD10268136843F480731360D7
:101E040004E02268136843F4807313600097334638
:101E140000224FF001112046FFF71BFF80B9236910
:101E2400B3F5804F16D1236805F0FE051D613B46CE
:101E3400324613492046FFF761FFF8B903B0F0BDFD
:101E440023681B6813F4807F02D04FF4007323646B
:101E54000320F3E7EB11226803F0060343F0F003D9
:101E640013613B46324607492046FFF747FF18B93E
:101E74002368EDB21D61DAE70120DFE70120DDE729
:101E840002000100080001002DE9F04184B004467D
:101E94000D4616461F46C26A01680B6843F4806308
:101EA4000B60082A0DD0012A0BD012F5803F08D010
:101EB400036B112B0AD10268136843F48073136017
:101EC40004E02268136843F4807313600097334678
:101ED40000224FF001112046FFF7BBFE98B9236999
:101EE400B3F5804F19D1236845F00105EDB21D61AA
:101EF4003B4632462A492046FFF700FF00284CD1D2
:101F040004B0BDE8F08123681B6813F4807F02D01D
:101F14004FF4007323640320F2E74FEAE51808F056
:101F24000608236848F0F0021A613B4632461D4910
:101F34002046FFF7E3FE08B10120E1E72368EDB294
:101F44001D613B46324616492046FFF7D7FE08B1CD
:101F54000120D5E700220392236859690391996906
:101F640003910399196841F480711960009733460D
:101F74004FF001112046FFF76CFE20B9226848F0AB
:101F8400F1031361B4E723681B6813F4807F02D064
:101F94004FF4007323640320B2E70120B0E700BFCD
:101FA400020001000800010070B504460D46164603
:101FB40023685B6913F0800F21D12046FFF730FEC0
:101FC400F8B9B5F1FF3FF3D0FFF742F9801BA842FF
:101FD40001D8002DECD123685B6913F0800FE7D1A1
:101FE40000232363202284F83D2084F83E30226CB1
:101FF40042F02002226484F83C30012000E00020FA
:1020040070BD0120FCE700002DE9F04385B00446D3
:102014000D4691461F46DDF830800D9E0368196811
:1020240041F4807119600096434600224FF001117B
:10203400FFF70FFE60B9236805F0FE051D61334606
:10204400424626492046FFF759FE68B1012008E0C0
:1020540023681B6813F4807F02D04FF40073236459
:10206400032005B0BDE8F0830023039323685A6975
:1020740003929B690393039B324641462046FFF734
:1020840093FF30B9012F0FD123685FFA89F61E61DF
:10209400E7E7236C042B01D00120E2E722681368F0
:1020A40043F400731360F7E723684FEA19221A61B7
:1020B400324641462046FFF777FF20B923685FFA8E
:1020C40089F61E61CDE7236C042B01D00120C8E7FB
:1020D4002268136843F400731360F7E702000100F9
:1020E40070B504460D46164623685B6913F0040F69
:1020F40021D12046FFF794FDF8B9B5F1FF3FF3D0A5
:10210400FFF7A6F8801BA84201D8002DECD1236864
:102114005B6913F0040FE7D100232363202284F8C2
:102124003D2084F83E30226C42F02002226484F880
:102134003C30012000E0002070BD0120FCE770B5B8
:1021440004460D46164614E06FF010025A6100234F
:102154002363202284F83D2084F83E30226C2264DC
:1021640084F83C30012025E023685B6913F0400FBC
:1021740010D02368586910F0400F1AD1586910F034
:10218400100FE1D1FFF764F8801BA842ECD8002DB2
:10219400EFD1E9E700232363202284F83D2084F86B
:1021A4003E30226C42F02002226484F83C3001204C
:1021B40000E0002070BD0000002800F0CC8070B565
:1021C400044690F83D30002B77D0242384F83D302A
:1021D4002268136823F0010313602268136843F430
:1021E400004313602268136823F40043136001F072
:1021F4008DF962685A4B9A4264D85A4B98428CBF04
:1022040000230123002B40F0A8805749A1FB003193
:102214008B0C25686A6822F03F0242EA91426A60A8
:1022240021680A6A22F03F0266684D4DAE424FD8DB
:10223400013313430B622168CA6922F44F4222F02E
:10224400FF026568464B9D424CD8431E6D00B3FBAC
:10225400F5F3013340F6FC70034278D0C3F30B036B
:102264001A43CA6121680B6823F0C003E269206A3B
:10227400024313430B6021688B6823F4034323F068
:10228400FF032269E068024313438B602168CB6833
:1022940023F0FF036269A06902431343CB60226801
:1022A400136843F00103136000202064202384F8A2
:1022B4003D30206384F83E0070BD80F83C3000F06F
:1022C40093FC82E7294B98428CBF0023012399E7B2
:1022D4004FF4967505FB03F3254DA5FB03539B09AA
:1022E4000133A6E7A668BEB9431E05EB450CB3FB54
:1022F400FCF30133C3F30B03B3FA83F35B0943BB6E
:10230400C6B9431E05EB4505B3FBF5F30133C3F32F
:102314000B0343F40043A3E7431E05EB850C0CEBCE
:102324008C0CB3FBFCF30133C3F30B03B3FA83F359
:102334005B09E4E7431E05EB850505EB8505B3FB67
:10234400F5F30133C3F30B0343F4404388E7042359
:1023540086E7012384E7012070470120ACE700BF32
:10236400A08601007F841E0083DE1B43FF083D001E
:10237400D34D62102DE9F04385B004460F469146D3
:1023840098460C9EFEF764FF054694F83D00C0B2E3
:10239400202804D00227384605B0BDE8F083009514
:1023A400192301224F492046FFF753FC002840F02F
:1023B400928094F83C30012B00F08F80012384F844
:1023C4003C3023681A6812F0010F03D11A6842F0F6
:1023D40001021A602268136823F400631360212346
:1023E40084F83D30102384F83E3000232364C4F87D
:1023F4002490A4F82A80638D23853B4BE3622B460B
:10240400324639462046FFF7E5FC0746002866D1E8
:102414000023039323685A6903929B690393039BE4
:1024240011E0236C042B01D00127B4E72268136860
:1024340043F400731360F7E72A4631462046FFF75A
:102444004FFE00282ED1238D002B36D02A4631464C
:102454002046FFF7A9FD0028E3D1626A23681278B9
:102464001A61606A431C6362618D89B2013989B261
:102474006185238D013B9BB223852268516911F04C
:10248400040FD9D0002BD7D043781361636A01338A
:102494006362638D9BB2013B9BB26385238D013BD9
:1024A4002385C9E7236C042B01D0012773E7226835
:1024B400136843F400731360F7E72268136843F466
:1024C40000731360202384F83D30002384F83E30E9
:1024D40084F83C305FE702275DE702275BE70127CA
:1024E40059E700BF020010000000FFFF2DE9F04390
:1024F40087B004460F46914698460E9EFEF7A8FE06
:10250400054694F83D00C0B2202804D0022738467E
:1025140007B0BDE8F08300951923012289492046BC
:10252400FFF797FB002840F04F8194F83C30012BD3
:1025340000F04C81012384F83C3023681A6812F0BF
:10254400010F03D11A6842F001021A60226813686D
:1025540023F400631360222384F83D30102384F8AD
:102564003E3000232364C4F82490A4F82A80638DA9
:102574002385754BE3622B46324639462046FFF7E6
:1025840083FC0746002840F02381238D5BB9029326
:1025940023685A6902929A690292029A1A6842F46A
:1025A40000721A607AE0012B0FD0022B1FD0226830
:1025B400136843F4806313600023059323685A6906
:1025C40005929B690593059B68E02268136823F4D0
:1025D400806313600023039323685A6903929A6902
:1025E4000392039A1A6842F400721A6056E0226851
:1025F400136823F4806313602268136843F4006350
:1026040013600023049323685A6904929B6904931A
:10261400049B43E02A4631462046FFF790FD0028FC
:1026240040F0D88023681A69636A1A70636A0133B8
:102634006362238D013B2385638D9BB2013B9BB277
:1026440063852BE000953346002240492046FFF77E
:1026540000FB002840F0C0802268136843F4007334
:10266400136023681A69636A1A70626A531C63628E
:10267400238D013B2385638D9BB2013B9BB2638514
:1026840023681B695370636A01336362238D013BC2
:102694002385638D9BB2013B9BB26385218D002909
:1026A40000F08980032953D80129B3D00229C9D065
:1026B40000953346002225492046FFF7CAFA002830
:1026C40040F08C802268136823F4806313602368CD
:1026D4001A69636A1A70636A01336362238D013B6A
:1026E4002385618D89B2013989B2618500953346AC
:1026F400002216492046FFF7ACFA002870D1226860
:10270400136843F40073136023681A69636A1A70C8
:10271400626A531C6362238D013B2385638D9BB2E4
:10272400013B9BB2638523681B695370636A013361
:102734006362238D013B2385638D9BB2013B9BB276
:102744006385ABE7020010000000FFFF04000100F6
:102754002A4631462046FFF7F2FC002842D123687E
:102764001A69636A1A70636A01336362228D013ADB
:1027740092B22285638D9BB2013B9BB26385236831
:10278400596911F0040F89D0032A0FD023681A69FC
:10279400636A1A70636A01336362238D013B238584
:1027A400638D9BB2013B9BB2638577E71A6822F481
:1027B40080621A60EAE7202384F83D30002384F81D
:1027C4003E3084F83C30A2E60227A0E602279EE6CB
:1027D40001279CE601279AE6012798E6012796E659
:1027E400012794E6012792E62DE9F04383B00446DD
:1027F4000F46904699460C9EFEF72AFD054694F82E
:102804003D00C0B2202803D0022003B0BDE8F0830D
:102814000095192301224B492046FFF71AFA002894
:1028240040F0898094F83C30012B00F0868001232D
:1028340084F83C3023681A6812F0010F03D11A6837
:1028440042F001021A602268136823F400631360E3
:10285400212384F83D30402384F83E300023236450
:102864000A9B6362BDF82C306385638D2385364BE8
:10287400E362019500964B46424639462046FFF7EF
:10288400C3FB00285BD1238D002B35D02A4631466B
:102894002046FFF789FB20BB626A236812781A611D
:1028A400626A531C6362218D013989B22185638D6B
:1028B4009BB2013B9BB263852368586910F0040FF7
:1028C400E1D00029DFD052781A61636A0133636270
:1028D400238D013B2385638D9BB2013B9BB26385B2
:1028E400D1E7236C042B01D001208EE72268136802
:1028F40043F400731360F7E72A4631462046FFF796
:10290400EFFB50B1236C042B01D001207DE722683A
:10291400136843F400731360F7E72268136843F401
:1029240000731360202384F83D30002384F83E3084
:1029340084F83C3069E7022067E7022065E701205C
:1029440063E700BF020010000000FFFF2DE9F04321
:1029540085B00446884691461D46FEF779FC94F8F6
:102964003D30DBB2202B03D0022005B0BDE8F0835C
:10297400064600901923012257492046FFF769F9BA
:10298400002840F0A08094F83C30012B00F09D809A
:10299400012384F83C3023681A6812F0010F03D134
:1029A4001A6842F001021A602268136823F4006373
:1029B4001360242384F83D3000272764474BE362E7
:1029C40040E023681B6813F4807F02D04FF4007347
:1029D40023640320C9E7A02384F83D3022685369A7
:1029E400C3F340035269C2F3802294F83DC05FFAF6
:1029F4008CFCBCF1A00F09D043B93AB9FEF728FC0E
:102A0400801BA842E7D8002DE8D1E4E7202384F80E
:102A14003D3023685A6912F0020F31D11A6842F42A
:102A240000721A6023686FF480625A610096192359
:102A3400012229492046FFF70CF9002849D1013722
:102A44004F4538D22268136843F4807313600096AC
:102A54002B4600224FF001112046FFF7FAF8002818
:102A6400AFD1236808F0FE021A61FEF7F1FB0646B7
:102A740022685369C3F340035269C2F38022B4E766
:102A84001A6842F400721A600023039323685A6997
:102A940003929B690393039B0096192301220E4919
:102AA4002046FFF7D6F890B9202384F83D30002360
:102AB40084F83C3059E7202384F83D30002384F81F
:102AC4003C30012051E702204FE702204DE701206E
:102AD4004BE7012049E700BF020010000000FFFFA0
:102AE40050B338B5044603684CF6CC421A60036808
:102AF40045F255521A60036842685A600368826856
:102B04009A60FEF7A5FB05462368DA6812F0030F06
:102B14000DD0FEF79DFB401B41F601039842F3D90B
:102B24002368DB6813F0030FEED0032003E04AF6BA
:102B3400AA221A60002038BD0120704703684AF6B3
:102B4400AA221A600020704782B0002100910B4B2A
:102B54005A6C42F480425A645A6C02F480420092E5
:102B6400009A01911A6C42F080521A641B6C03F0B3
:102B740080530193019B02B0704700BF00380240AC
:102B840000B589B000230393049305930693079338
:102B9400026803F1804303F590339A4202D009B0EE
:102BA4005DF804FB0021019103F58C335A6C42F467
:102BB40080725A645A6C02F480720192019A0291F2
:102BC4001A6B42F001021A631B6B03F001030293B8
:102BD400029B042303930323049303A90148FEF7F0
:102BE40017FFDCE7000002402DE9F0418CB0002320
:102BF4000793089309930A930B9303684D4A9342EE
:102C040008D04D4A934228D04C4A934258D00CB035
:102C1400BDE8F08100250095494C236B43F0020385
:102C24002363236B03F002030093009BC0230793E9
:102C34001223089303230A9304230B9307A94148FF
:102C4400FEF7E6FE0195236C43F400132364236C22
:102C540003F400130193019BD9E700250295384C36
:102C6400236B43F002032363236B03F002030293F9
:102C7400029B4FF4806307934FF01208CDF8208035
:102C840003270A9704230B932E4E07A93046FEF719
:102C9400BFFE08230793CDF8208009950A970923DE
:102CA4000B9307A93046FEF7B3FE0395236C43F458
:102CB40080032364236C03F480030393039BA6E73C
:102CC400002504951E4C236B43F001032363236BFF
:102CD40003F001030493049B0595236B43F0020363
:102CE4002363236B03F002030593059B4FF4807366
:102CF40007931227089703260A9604230B9307A920
:102D04001148FEF785FE10230793089709950A9644
:102D140009230B9307A90B48FEF77AFE0695236C4B
:102D240043F400032364236C03F400030693069B1B
:102D34006DE700BF0054004000580040005C0040B4
:102D440000380240000402400000024030B58BB05D
:102D54000023059306930793089309930368344A61
:102D6400934204D0334A93423ED00BB030BD044664
:102D740000250195304B5A6C42F480525A645A6CC7
:102D840002F480520192019A02951A6B42F00102F8
:102D94001A631B6B03F001030293029BE023059368
:102DA40002230693032308930523099305A92348C3
:102DB400FEF72EFE2248234B03604FF0C0634360AE
:102DC4008560C5604FF48063036145618561C561B9
:102DD40005624562FEF7C8FC18B9194BE3649C63AD
:102DE400C3E7FDF7E3FDF8E700210391124B1A6CEA
:102DF40042F480421A641A6C02F480420392039AE9
:102E040004911A6B42F002021A631B6B03F0020373
:102E14000493049B4FF46043059302230693032316
:102E240008930523099305A90748FEF7F1FD9CE7DC
:102E340000300140003800400038024000000240E9
:102E440000030020106402400004024000B585B075
:102E54000368244A934208D0234A934219D0234A50
:102E640093422AD005B05DF804FB00210191204B68
:102E74005A6C42F480325A645B6C03F480330193DD
:102E8400019B0A461820FEF7E1FB1820FEF7EEFB33
:102E9400E8E700210291164B5A6C42F400325A645E
:102EA4005B6C03F400330293029B0A461920FEF77D
:102EB400CDFB1920FEF7DAFBD4E7002103910C4B7C
:102EC4005A6C42F480225A645B6C03F480230393AB
:102ED400039B0A461A20FEF7B9FB1A20FEF7C6FB2D
:102EE400C0E700BF004001400044014000480140E9
:102EF40000380240002800F0E08170B582B004463A
:102F0400036813F0010F3BD09F4B9B6803F00C0345
:102F1400042B2CD09C4B9B6803F00C03082B21D072
:102F24006368B3F5803F4FD0B3F5A02F52D0964BD2
:102F34001A6822F480321A601A6822F480221A6015
:102F44006368002B50D0FEF783F905468E4B1B684F
:102F540013F4003F14D1FEF77BF9401B6428F5D924
:102F64000320B1E1884B5B6813F4800FD8D0864B03
:102F74001B6813F4003F03D06368002B00F09F81AB
:102F8400236813F0020F54D07F4B9B6813F00C0F8F
:102F94003ED07D4B9B6803F00C03082B33D0E368D1
:102FA400002B68D0794B01221A60FEF751F90546CF
:102FB400754B1B6813F0020F54D1FEF749F9401BFF
:102FC4000228F5D903207FE16F4A136843F4803364
:102FD4001360B5E76C4B1A6842F480221A601A68D1
:102FE40042F480321A60ABE7FEF732F90546664BCD
:102FF4001B6813F4003FC3D0FEF72AF9401B642872
:10300400F5D9032060E1604B5B6813F4800FC6D1EF
:103014005D4B1B6813F0020F03D0E368012B40F0F3
:103024005081594A136823F0F803216943EAC10324
:103034001360236813F0080F42D063696BB3534BDA
:103044000122C3F8802EFEF703F905464E4B5B6F51
:1030540013F0020F34D1FEF7FBF8401B0228F5D918
:10306400032031E1484A136823F0F803216943EA55
:10307400C1031360DDE7454B00221A60FEF7E8F850
:103084000546414B1B6813F0020FD2D0FEF7E0F85F
:10309400401B0228F5D9032016E13C4B0022C3F85B
:1030A400802EFEF7D5F80546374B5B6F13F0020F01
:1030B40006D0FEF7CDF8401B0228F5D9032003E122
:1030C400236813F0040F77D02F4B1B6C13F0805F31
:1030D40033D1002301932C4B1A6C42F080521A64B2
:1030E4001B6C03F080530193019B0125284B1B6843
:1030F40013F4807F23D0A368012B34D0052B38D060
:10310400214B1A6F22F001021A671A6F22F004028F
:103114001A67A368002B3DD0FEF79AF806461A4BAF
:103124001B6F13F0020F46D1FEF792F8801B41F299
:1031340088339842F3D90320C6E00025D6E7144A21
:10314400136843F480731360FEF782F80646104B4D
:103154001B6813F4807FCED1FEF77AF8801B022817
:10316400F5D90320B0E0084A136F43F00103136755
:10317400CFE7054B1A6F42F004021A671A6F42F048
:1031840001021A67C5E700BF003802400000474249
:1031940000700040FEF75CF80646524B1B6F13F0BC
:1031A400020F08D0FEF754F8801B41F2883398428E
:1031B400F3D9032088E0EDB9A369002B00F08380E4
:1031C400484A926802F00C02082A51D0022B17D008
:1031D400454B00221A66FEF73BF80446414B1B6838
:1031E40013F0007F42D0FEF733F8001B0228F5D914
:1031F400032069E03B4A136C23F080531364DBE73C
:10320400394B00221A66FEF723F80546354B1B6836
:1032140013F0007F06D0FEF71BF8401B0228F5D9F7
:10322400032051E0E369226A1343626A43EA82138A
:10323400A26A5208013A43EA0243E26A43EA026399
:10324400284A5360284B01221A66FEF701F8044607
:10325400244B1B6813F0007F06D1FDF7F9FF001B18
:103264000228F5D903202FE000202DE000202BE0D8
:10327400012B2BD01B4B5B6803F48001E269914264
:1032840026D103F03F02216A8A4223D1616A47F6BC
:10329400C0721A40B2EB811F1ED103F44031A26AFE
:1032A4005208013AB1EB024F18D103F07063E26A9D
:1032B400B3EB026F14D1002006E001207047012017
:1032C40002E0012000E0002002B070BD0120FBE715
:1032D4000120F9E70120F7E70120F5E70120F3E7F2
:1032E4000120F1E70038024000004742014B01226F
:1032F400DA6470470000474208B5264B9B6803F028
:103304000C03042B41D0082B41D1224B5A6802F004
:103314003F025B6813F4800F12D01E4B5968C1F34F
:1033240088111D480023A1FB0001FCF739FF194B4C
:103334005B68C3F3014301335B00B0FBF3F008BDEA
:10334400144B5868C0F388104FEA401CBCEB000CC7
:103354006EEB0E0E4FEA8E1343EA9C634FEA8C1118
:10336400B1EB0C0163EB0E03DB0043EA5173C900BC
:1033740011EB000C43F10003990200234FEA8C2067
:1033840041EA9C51FCF70CFFD1E70348D7E7034817
:10339400D5E700BF0038024040787D010024F400E6
:1033A400002800F09B8070B50D4604464F4B1B6807
:1033B40003F007038B4208D2CBB24C4A1370136854
:1033C40003F007038B4240F08B80236813F0020F55
:1033D40017D013F0040F04D0454A936843F4E05324
:1033E4009360236813F0080F04D0414A936843F4B0
:1033F400604393603E4A936823F0F003A1680B4353
:103404009360236813F0010F32D06368012B21D03D
:103414009A1E012A25D9364A126812F0020F61D089
:1034240033498A6822F0030213438B60FDF710FFCF
:1034340006462F4B9B6803F00C036268B3EB820FC4
:1034440016D0FDF705FF801B41F288339842F0D96E
:10345400032042E0264A126812F4003FE0D1012022
:103464003BE0234A126812F0007FD9D1012034E0F6
:103474001E4B1B6803F00703AB4207D9EAB21B4B90
:103484001A701B6803F00703AB422DD1236813F0B5
:10349400040F06D0164A936823F4E053E1680B4303
:1034A4009360236813F0080F07D0114A936823F43C
:1034B4006043216943EAC1039360FFF71DFF0C4B8E
:1034C4009B68C3F303130B4AD35CD8400A4B1860C0
:1034D4000A4B1868FDF770FE002070BD012070478C
:1034E4000120FAE70120F8E70120F6E7003C02405A
:1034F4000038024030530008200000201C00002047
:10350400014B1868704700BF2000002008B5FFF782
:10351400F7FF044B9B68C3F38223034AD35CD84070
:1035240008BD00BF0038024028530008704700005F
:1035340008B5064BDB6813F0800F00D108BDFFF718
:10354400F5FF024B80229A73F8E700BF003802406F
:103554002DE9F04782B00546884617461E46FDF71A
:1035640077FE0A9B1B1A03EB0609FDF771FE8246E0
:10357400284B1B68C3F3CB3309FB03F301932B687C
:103584009C6838EA04040CBF01230023BB423DD0ED
:10359400B6F1FF3FF3D0FDF75BFEA0EB0A00484510
:1035A40003D2019B73BB9946E9E72A68536823F069
:1035B400E00353606B68B3F5827F0BD0AB6AB3F55D
:1035C400005F14D0012385F85130002385F8503072
:1035D40003201CE0AB68B3F5004F02D0B3F5806F55
:1035E400ECD12A68136823F040031360E6E72A68E5
:1035F400136823F4005313602A68136843F40053D8
:103604001360DFE7019B013B0193B8E7002002B0A0
:10361400BDE8F0872000002070B584B004460D4654
:10362400164600920B4601220221FFF791FFD0B902
:10363400174B1B68174AA2FB03235B0D4FF47A72E6
:1036440002FB03F303936368B3F5827F11D0039BFA
:103654003BB1039B013B039323689B6813F0800FEA
:10366400F5D104B070BD636D43F02003636503209E
:10367400F7E700962B46002280212046FFF768FFDB
:103684000028EED0636D43F0200363650320E8E770
:1036940020000020819F5E1600285AD010B50446F1
:1036A400436A33B94368B3F5827F05D00023C3610D
:1036B40002E00023036143610023A36294F85130C4
:1036C400002B40D0022384F851302268136823F081
:1036D40040031360636803F48273A26802F4044233
:1036E4001343E26802F400621343226902F0020207
:1036F4001343626902F001021343A26902F40072E7
:103704001343E26902F038021343226A02F0800292
:103714001343A26A02F40052216813430B60638BC3
:1037240003F00403626A02F01002216813434B6041
:103734002268D36923F40063D36100206065012308
:1037440084F8513010BD84F850302046FFF7FEFA5B
:10375400B8E7012070472DE9F04383B00446894659
:1037640090461D46FDF774FD94F85160F6B2012EA3
:1037740040F0CC800746B9F1000F00F0C880B8F1E2
:10378400000F00F0C48094F85030012B00F0C38087
:10379400012384F85030032384F8513000236365F7
:1037A400C4F83090A4F83480A4F83680A363A387C7
:1037B400E38763642364A368B3F5004F1ED02368D2
:1037C4001A6812F0400F03D11A6842F040021A60DE
:1037D400E368B3F5006F1CD0636813B1B8F1010F4F
:1037E4005FD1226B236812781A73236B013323632E
:1037F400E38E9BB2013B9BB2E38652E022681368DE
:1038040023F0400313602268136843F48043136079
:10381400D5E7636813B1B8F1010F15D1226B2368A2
:103824001288DA60236B02332363E38E9BB2013B7D
:103834009BB2E38608E0FDF70BFDC01BA84202D350
:10384400B5F1FF3F15D1A5B1E38E9BB2002B42D059
:1038540023689A6812F0020FEDD0226B1288DA60A6
:10386400236B02332363E38E9BB2013B9BB2E3865B
:10387400EAE7012384F85130002384F8503003260A
:1038840045E0226B12781A73236B01332363B4F877
:1038940036C01FFA8CFC0CF1FF3C1FFA8CFCA4F818
:1038A40036C0E38E9BB2B3B123689A6812F0020F5C
:1038B400E7D1FDF7CDFCC01BA84202D3B5F1FF3F11
:1038C40001D1002DEDD1012384F85130002384F877
:1038D400503003261BE03A4629462046FFF79CFE5B
:1038E40008B120236365A36833B901932368DA68B8
:1038F40001929B680193019B012384F851300023BA
:1039040084F85030636D13B9002600E00226304677
:1039140003B0BDE8F0830226F9E72DE9F04383B054
:103924000446884691461F460A9DFDF791FC0646CB
:1039340094F85130DBB26268012B0AD0B2F5827F71
:1039440040F00581A268002A40F00581042B40F074
:103954000481B8F1000F00F00281B9F1000F00F00A
:103964000081002F00F0FF8094F85030012B00F00C
:10397400FC80012384F8503094F85130DBB2042BDE
:1039840002D0052384F8513000236365C4F83890CD
:10399400E787A787C4F83080E786A7862364636433
:1039A40023681A6812F0400F03D11A6842F04002EB
:1039B4001A60E368B3F5006F11D063680BB1012F8F
:1039C4000BD1226B236812781A73236B01332363A0
:1039D400E38E9BB2013B9BB2E386012771E06368EF
:1039E4000BB1012F0BD1226B23681288DA60236B91
:1039F40002332363E38E9BB2013B9BB2E386012730
:103A04001BE023689A6812F0010F0ED0E28F92B285
:103A14005AB1DA68A36B1A80A36B0233A363E38FF2
:103A24009BB2013B9BB2E3870127FDF711FC801B8E
:103A3400A84202D3B5F1FF3F1ED1E38E9BB21BB95E
:103A4400E38F9BB2002B62D023689A6812F0020FB6
:103A5400D7D0E28E92B2002AD3D0002FD1D0226BDD
:103A64001288DA60236B02332363E38E9BB2013B3B
:103A74009BB2E3860027C4E7012384F85130002376
:103A840084F85030032063E023689A6812F0010F31
:103A94000ED0E28F92B25AB1DA68A36B1A70A36B9C
:103AA4000133A363E38F9BB2013B9BB2E3870127FE
:103AB400FDF7CEFB831BAB4202D3B5F1FF3F1ED112
:103AC400EDB1E38E9BB213B9E38F9BB2FBB12368D4
:103AD4009A6812F0020FD7D0E28E92B2002AD3D0A5
:103AE400002FD1D0226B12781A73236B0133236316
:103AF400E38E9BB2013B9BB2E3860027C4E701231C
:103B040084F85130002384F85030032020E03246FA
:103B140029462046FFF780FD90B9A36833B9019385
:103B24002368DA6801929B680193019B012384F85E
:103B34005130002384F85030636D4BB1012007E00D
:103B440020236365002384F85030012000E0022024
:103B540003B0BDE8F0830220FAE70220F8E7012071
:103B6400F6E70120F4E70120F2E70220F0E790F8FD
:103B74005100704710B4036A046A24F0010404621B
:103B8400846924F0F00C4CEA021223F00A030B437C
:103B9400826103625DF8044B704710B4036A046ADF
:103BA40024F010040462846924F4704C4CEA023258
:103BB40023F0A00343EA0113826103625DF8044B1E
:103BC4007047836823F070030B4343F0070383605B
:103BD4007047000090F83D30DBB2012B2FD1022357
:103BE40080F83D300268D36843F00103D360036872
:103BF400154A934218D0B3F1804F15D0A2F57C42F8
:103C0400934211D002F5806293420DD002F5806296
:103C1400934209D002F59A32934205D01A6842F0D1
:103C240001021A60002070479A6802F00702062A0F
:103C340007D01A6842F001021A6000207047012080
:103C440070470020704700BF000001407047704774
:103C54007047704770B504460368DE681D6915F047
:103C6400020F10D016F0020F0DD06FF002021A618D
:103C74000123037703689B6913F0030F5ED0FFF7FA
:103C8400E6FF0023237715F0040F12D016F0040F7B
:103C94000FD023686FF004021A610223237723688C
:103CA4009B6913F4407F4FD02046FFF7D0FF0023D9
:103CB400237715F0080F12D016F0080F0FD02368E1
:103CC4006FF008021A61042323772368DB6913F079
:103CD400030F40D02046FFF7BAFF0023237715F0E7
:103CE400100F12D016F0100F0FD023686FF01002CF
:103CF4001A61082323772368DB6913F4407F31D0EA
:103D04002046FFF7A4FF0023237715F0010F02D00C
:103D140016F0010F2DD115F0800F02D016F0800F90
:103D24002FD115F0400F02D016F0400F31D115F00D
:103D3400200F02D016F0200F33D170BDFFF786FF9D
:103D44002046FFF785FF9CE72046FFF77FFF2046CC
:103D5400FFF77EFFABE72046FFF778FF2046FFF72B
:103D640077FFBAE72046FFF771FF2046FFF770FFA1
:103D7400C9E723686FF001021A612046FCF750FD81
:103D8400C9E723686FF080021A61204600F01DF92C
:103D9400C7E723686FF040021A612046FFF759FF16
:103DA400C5E723686FF020021A61204600F00CF981
:103DB400C3E700000368274A90420ED0B0F1804F59
:103DC4000BD0A2F57C42904207D002F5806290426B
:103DD40003D002F58062904203D123F070034A6855
:103DE40013431C4A90421AD0B0F1804F17D0A2F569
:103DF4007C42904213D002F5806290420FD002F5CB
:103E0400806290420BD002F59A32904207D002F5BC
:103E14008062904203D002F58062904203D123F481
:103E24004073CA68134323F080034A6913438A68C2
:103E3400C2620A688262074A904207D0026842F06E
:103E44000402026001224261036070470A6902634E
:103E5400F4E700BF0000014040B310B5044690F8F9
:103E64003D30F3B1022384F83D30214651F8040B70
:103E7400FFF7A0FF012384F8463084F83E3084F82D
:103E84003F3084F8403084F8413084F8423084F87C
:103E9400433084F8443084F8453084F83D300020C1
:103EA40010BD80F83C30FEF7D1FFDBE701207047FE
:103EB40010B4846824F47F4C42EA03220A4342EAA1
:103EC4000C0282605DF8044B704790F83C30012B83
:103ED40078D010B50446012380F83C30022380F8E2
:103EE4003D300268936823F47F4323F077039360A3
:103EF4000B68602B4CD023D8402B54D011D8202BE6
:103F040003D00AD80BB1102B05D119462068FFF74E
:103F140058FE002028E0012026E0302BF5D00120B7
:103F240022E0502B0AD1CA6849680068FFF722FED4
:103F340050212068FFF745FE002015E0012013E022
:103F4400B3F5805F3AD0B3F5005F14D0702B37D14E
:103F5400CB684A6889680068FFF7AAFF22689368FB
:103F640043F0770393600020012384F83D3000235D
:103F740084F83C3010BDCB684A6889680068FFF754
:103F840097FF2268936843F4804393600020EBE733
:103F9400CA6849680068FFF700FE60212068FFF7DF
:103FA40010FE0020E0E7CA6849680068FFF7E2FDF8
:103FB40040212068FFF705FE0020D5E70020D3E765
:103FC4000120D1E7022070477047704708B5FFF71A
:103FD400AFFAFEE7FEE7FEE7FEE7FEE7704770474D
:103FE400704708B5FDF728F908BD08B50220FDF7AC
:103FF40009FE08BD08B54FF40070FDF703FE08BDC7
:1040040008B50248FFF726FE08BD00BFB80200202D
:1040140008B50248FFF71EFE08BD00BF700200206D
:1040240008B50248FFF716FE08BD00BF28020020AD
:1040340008B54FF48040FDF7E5FD4FF40040FDF76F
:10404400E1FD08BD08B50248FDF7F4FB08BD00BF5B
:1040540000030020034AD2F8883043F47003C2F806
:104064008830704700ED00E008B500F025F908BD80
:1040740008B500F0D7F908BD08B500F0DDF908BDB2
:1040840008B500F01FFA08BD08B500F073FA08BDC2
:1040940000B587B08DF80F003223009301230DF192
:1040A40017020DF10F010448FFF737FC9DF81700C4
:1040B40007B05DF804FB00BFB803002070B50646E6
:1040C400FDF7C6F80546FF20FFF7E2FF0446FF2888
:1040D40004D0FDF7BDF8401BB042F4D3FF2C14BF4D
:1040E4000020012070BD70B506460D46002404E092
:1040F400FF20FFF7CDFF30550134AC42F8D370BD3B
:1041040008B5012210210348FDF76DFDFF20FFF7DC
:10411400BFFF08BD0000024010B50022102109486D
:10412400FDF761FDFF20FFF7B3FF4FF4FA70FFF7CF
:10413400C5FF10B10124204610BD0446FFF7E0FF7F
:10414400F9E700BF0000024038B504460D4610F000
:10415400800F1DD10C2C04D0FFF7D2FFFFF7DCFF3A
:10416400B0B344F04000FFF793FF280EFFF790FF31
:10417400C5F30740FFF78CFFC5F30720FFF788FF5F
:10418400E8B2FFF785FF64B1082C1BD0012009E0D9
:1041940000F07F0400213720FFF7D6FF0128D9D98A
:1041A4000FE09520FFF774FF0C2C0DD00A24FF209C
:1041B400FFF76EFF10F0800F03D0631E13F0FF04AF
:1041C400F5D138BD8720EDE7FF20FFF761FFEDE76C
:1041D400FF20F6E708B54FF0FF338AB201460248E4
:1041E400FFF7B9FA08BD00BFB803002038B505468B
:1041F4000C464FF4FA70FFF761FF00B938BD204652
:10420400FFF746FFFD2C01D10120F7E74FF40071C1
:104214002846FFF7DFFFFF20FFF73AFFFF20FFF7F5
:1042240037FFFF20FFF734FF00F01F00052801D1FE
:104234000120E3E70020E1E710B50446FDF708F8A4
:10424400024B1860024B1C6010BD00BF70090020B7
:104254006C09002008B5FCF7FBFF054B1B68C01A6E
:10426400044B1B6898422CBF0020012008BD00BFEE
:10427400700900206C09002070B505460E46C82060
:10428400FFF7DAFFFF20FFF703FF0446FF2803D1FF
:10429400FFF7E0FF0028F5D1FE2C01D0002070BD0F
:1042A40031462846FFF71FFFFF20FFF7F1FEFF20EE
:1042B400FFF7EEFE0120F2E7002840F0AB80564BFA
:1042C4001B7813F0020F09D170B582B0534B1A68F2
:1042D400136843F0380313600A2408E04E4B18783F
:1042E400C0B27047FF20FFF7D3FE013CE4B2002CBC
:1042F400F8D100210846FFF727FF0546012817D00B
:10430400474B1C70FFF7FCFE002C7FD0434B1A6810
:10431400136823F0380343F0100313603E4A137804
:1043240003F0FE0313703C4B1878C0B202B070BDAA
:104334004FF47A70FFF780FF4FF4D5710820FFF730
:1043440003FF01283ED1254609E0FF20FFF7A0FE28
:1043540005F108036B4403F8040C0135EDB2032D99
:10436400F3D99DF80630012BCAD19DF80730AA2B4A
:10437400C6D1FFF76FFF30B14FF08041A920FFF79E
:10438400E3FE0028F5D1FFF765FF08B90446B7E757
:1043940000213A20FFF7D8FE054650B1B0E7FF20D0
:1043A400FFF776FE05F108036B4403F8040C0135AE
:1043B400EDB2032DF3D99DF8043013F0400F23D050
:1043C4000C249DE70021A920FFF7BEFE01280ED989
:1043D4002E46FFF73FFF28B100212846FFF7B4FE21
:1043E4000028F6D1FFF736FF20B9044688E70226F5
:1043F400A925EEE74FF400711020FFF7A5FE002871
:104404007FF47EAF34467BE7042479E7024B012234
:104414001A7088E70120704738000020B803002094
:104424007409002018B9034B1878C0B270470120F2
:10443400704700BF38000020002839D138B50D4638
:104444001C46002B36D01D4B1B7813F0010F33D1C3
:104454001B4B1B7813F0080F00D15202012C18D00B
:1044640011461220FFF770FE68B94FF40071284618
:10447400FFF702FF18B105F50075013CF5D10021E5
:104484000C20FFF761FEFFF73BFE201E18BF012042
:1044940038BD11461120FFF757FE0028F3D14FF421
:1044A40000712846FFF7E8FE0028ECD00024EAE774
:1044B400042070470420EBE70320E9E738000020DC
:1044C40074090020002848D170B50D4616461C46D4
:1044D400002B44D0254B1B7813F0010F41D1234B03
:1044E4001B7813F0040F3ED1214B1B7813F0080FF7
:1044F40000D15602012C1BD013F0060F26D13146F1
:104504001920FFF721FE68B9FC212846FFF76EFE4B
:1045140018B105F50075013CF6D1FD210020FFF727
:1045240065FEC0B1FFF7ECFD201E18BF012070BD71
:1045340031461820FFF708FE0028F3D1FE21284653
:10454400FFF754FE0028EDD00024EBE72146972026
:10455400FFF7FAFDD3E70124E4E7042070470420C1
:10456400E5E70320E3E70220E1E700BF380000208D
:104574007409002070B584B0002840F004810D4611
:104584001646834B1B7813F0010F40F0FE8004297C
:1045940000F2ED80DFE811F005000C00EB005400A0
:1045A400AF00FFF7B9FD002840F0E380012406E0E6
:1045B40000210920FFF7C8FD044628B12C46FFF767
:1045C4009FFD204604B070BD10216846FFF754FEDD
:1045D400002800F0D0809DF800309B09012B1FD0EB
:1045E4009DF8052002F00F029DF80A3002EBD31269
:1045F4009DF809305B0003F006031A449DF8081087
:104604009DF807309B0003EB91139DF80610890277
:1046140001F440610B440133073A93403360CEE721
:104624009DF809309DF8082003EB02239DF807202C
:10463400120402F47C12134401339B023360BEE77C
:10464400544B1B7813F0040F20D000218D20FFF76A
:104654007BFD08B10124B2E7FF20FFF719FD10210B
:104664006846FFF709FE78B90124A8E7FF20FFF7A1
:104674000FFD013CE4B2002CF8D19DF80A20120988
:104684001023934033609AE73024F4E70021092093
:10469400FFF75AFD054608B1012490E7102168464A
:1046A400FFF7EAFD002868D03A4B1C7814F00204A6
:1046B40011D09DF80A305B0003F07E039DF80B20B7
:1046C40003EBD21301339DF80D209209013A934074
:1046D40033602C4673E79DF80A20C2F384029DF8E8
:1046E4000B10CB0003F0180303EB5113013302FB4F
:1046F4000333336063E7274B1B7813F0060F01D1B4
:1047040001245CE76A460B21FFF734FFB8BB9DF830
:1047140000309B0904D19DF80A3013F0400F30D0CB
:10472400316874681B4B1B7813F0080F01D14902E0
:1047340064022020FFF708FD08B101243FE7214669
:104744002120FFF701FD08B1012438E700212620CC
:10475400FFF7FAFC044608B1012430E747F2305071
:10476400FFF7ACFC00287FF42AAF012427E70424D8
:1047740025E72C4623E72C4621E701241FE70124E3
:104784001DE701241BE704241BE7032419E700BFEA
:104794003800002074090020DFF834D0FFF75AFCF9
:1047A4000C480D490D4A002302E0D458C450043388
:1047B400C4188C42F9D30A4A0A4C002301E013605E
:1047C4000432A242FBD300F02BF8FCF773FA7047D3
:1047D40000800120000000203C000020505300080D
:1047E4004000002078090020FEE70244034693427B
:1047F40000D1704703F8011BF9E710B56AB101391C
:10480400841810F8012B11F8013F9A4203D1A042F9
:1048140001D0002AF5D1D01A10BD1046FCE70000E3
:1048240070B50D4D0D4C641BA4100026A64209D191
:104834000B4D0C4C00F084F9641BA4100026A64216
:1048440005D170BD55F8043B98470136EEE755F89D
:10485400043B98470136F2E74853000848530008E0
:10486400485300084C5300080A44914200F1FF33B6
:1048740000D1704710B511F8014B03F8014F914274
:10488400F9D110BD2DE9F047089D0E4604460F46A8
:10489400002B4AD194468C45B2FA82F260D942B1D7
:1048A400C2F12003974020FA03F30CFA02FC1F43E1
:1048B40094404FEA1C4E1FFA8CF6B7FBFEF1230C12
:1048C4000EFB117743EA074301FB06F098420AD92D
:1048D4001CEB030301F1FF3780F01581984240F28D
:1048E4001281023963441B1AA4B2B3FBFEF00EFB1F
:1048F400103344EA034400FB06F6A6420AD91CEB33
:10490400040400F1FF3380F00081A64240F2FD80F0
:104914006444023840EA0140A41B00211DB1D44084
:104924000023C5E90043BDE8F0878B4205D90DB1EA
:10493400C5E9000100210846F5E7B3FA83F100292F
:1049440046D1B34202D3824200F2F580841A66EB68
:10495400030201201746002DE5D0C5E90047E2E730
:10496400002A40F09380A1EB0C034FEA1C471FFA86
:104974008CFE0121B3FBF7F607FB1630230C43EA48
:1049840000430EFB06F0984208D91CEB030306F122
:10499400FF3802D2984200F2D08046461B1AA4B2D5
:1049A400B3FBF7F007FB103344EA03440EFB00FEAD
:1049B400A64508D91CEB040400F1FF3302D2A64536
:1049C40000F2B6801846A4EB0E0440EA0640A5E7C0
:1049D400C1F120078B4022FA07FC4CEA030C06FACB
:1049E40001FE20FA07F426FA07F344EA0E0400FA5B
:1049F40001F84FEA1C404FEA1449B3FBF0FE1FFADA
:104A04008CF600FB1E3349EA03430EFB06F9994575
:104A140002FA01F20BD91CEB03030EF1FF3A80F00A
:104A24008580994540F28280AEF1020E6344A3EB87
:104A34000909A4B2B9FBF0F300FB139944EA094451
:104A440003FB06F6A64208D91CEB040403F1FF306D
:104A540068D2A64266D9023B644443EA0E40A41BD2
:104A6400A0FB02E6B4427346B14652D34FD05DB1C7
:104A7400B8EB030264EB090404FA07F722FA01F322
:104A84001F43CC40C5E9007400214CE7C2F120016A
:104A940020FA01F30CFA02FC26FA01F196403343A2
:104AA4004FEA1C471FFA8CFEB1FBF7F007FB101608
:104AB400190C41EA064100FB0EF68E4204FA02F498
:104AC40008D91CEB010100F1FF382DD28E422BD9FD
:104AD40002386144891B9BB2B1FBF7F607FB161140
:104AE40043EA014306FB0EF1994208D91CEB030388
:104AF40006F1FF3814D2994212D9023E63445B1A7C
:104B040046EA004136E73946EDE6184602E7F04545
:104B1400ADD2BEEB020366EB0C060138B146A6E744
:104B24004646ECE7034698E74046D3E7D6467EE799
:104B34006444023847E708460DE7023E63442DE724
:104B4400F8B500BFF8BC08BC9E467047F8B500BF76
:084B5400F8BC08BC9E46704746
:104B5C000000000000000000000000000000000049
:104B6C0000000000001000100010001000100010D9
:104B7C0000000010000000000028002800280000A1
:104B8C0000000000000000000000000000240024D1
:104B9C00007C00240048007C004800480000000015
:104BAC0000380054005000380014005400540038F1
:104BBC000010000000200054005800300028005461
:104BCC00001400080000000000100028002800104D
:104BDC0000340048004800340000000000100010B1
:104BEC0000100000000000000000000000000000A9
:104BFC0000080010002000200020002000200020D1
:104C0C000010000800200010000800080008000830
:104C1C0000080008001000200010003800100028C8
:104C2C000000000000000000000000000000000078
:104C3C0000100010007C00100010000000000000AC
:104C4C000000000000000000000000000000001048
:104C5C0000100010000000000000000000000038F0
:104C6C000000000000000000000000000000000038
:104C7C000000000000000010000000000008000808
:104C8C000010001000100010002000200000000098
:104C9C0000380044004400540044004400440038F0
:104CAC000000000000100030005000100010001038
:104CBC000010001000000000003800440044000404
:104CCC00000800100020007C0000000000380044A8
:104CDC000004001800040004004400380000000028
:104CEC0000080018002800280048007C0008000874
:104CFC0000000000007C004000400078000400042C
:104D0C0000440038000000000038004400400078E7
:104D1C00004400440044003800000000007C000403
:104D2C0000080010001000200020002000000000EF
:104D3C00003800440044003800440044004400386B
:104D4C00000000000038004400440044003C000413
:104D5C0000440038000000000000000000100000BB
:104D6C000000000000000010000000000000000027
:104D7C0000000010000000000000001000100010E7
:104D8C0000000000000C003000400030000C00005F
:104D9C0000000000000000000000007C0000007C0F
:104DAC00000000000000000000000000006000187F
:104DBC0000040018006000000000000000380044EF
:104DCC00000400080010001000000010000000009B
:104DDC0000380044004C0054005C00400040003897
:104DEC000000000000100028002800280028007C8B
:104DFC0000440044000000000078004400440078A7
:104E0C0000440044004400780000000000380044D6
:104E1C00004000400040004000440038000000000A
:104E2C0000700048004400440044004400480070F6
:104E3C0000000000007C00400040007C004000406E
:104E4C000040007C00000000007C00400040007826
:104E5C0000400040004000400000000000380044CA
:104E6C0000400040005C004400440038000000009A
:104E7C00004400440044007C0044004400440044CE
:104E8C00000000000038001000100010001000108E
:104E9C0000100038000000000004000400040004AE
:104EAC0000040004004400380000000000440048E6
:104EBC000050006000500048004800440000000012
:104ECC000040004000400040004000400040007C9A
:104EDC00000000000044006C006C005400440044CE
:104EEC0000440044000000000044006400640054CE
:104EFC000054004C004C00440000000000380044FA
:104F0C000044004400440044004400380000000009
:104F1C000078004400440044007800400040004009
:104F2C0000000000003800440044004400440044E9
:104F3C000054003800040000007800440044004491
:104F4C00007800480048004400000000003800448D
:104F5C00004000300008000400440038000000004D
:104F6C00007C001000100010001000100010001049
:104F7C00000000000044004400440044004400448D
:104F8C0000440038000000000044004400440028A5
:104F9C00002800280010001000000000004400440D
:104FAC00005400540054006C00280028000000003D
:104FBC00004400280028001000100028002800449D
:104FCC0000000000004400440028002800100010DD
:104FDC000010001000000000007C0004000800100D
:104FEC00001000200040007C0000000000180010A1
:104FFC00001000100010001000100010001000181D
:10500C000020002000100010001000100008000804
:10501C000000000000300010001000100010001004
:10502C000010001000100030001000280028004470
:10503C000000000000000000000000000000000064
:10504C00000000000000000000000000000000FE56
:10505C000020001000000000000000000000000014
:10506C00000000000000000000380044003C004438
:10507C00004C003400000000004000400058006468
:10508C0000440044006400580000000000000000D0
:10509C00003800440040004000440038000000008C
:1050AC00000400040034004C00440044004C003464
:1050BC00000000000000000000380044007C0040AC
:1050CC000044003800000000000C0010007C0010B0
:1050DC000010001000100010000000000000000084
:1050EC000034004C00440044004C003400040078B0
:1050FC000040004000580064004400440044004458
:10510C0000000000001000000070001000100010E3
:10511C0000100010000000000010000000700010D3
:10512C000010001000100010001000E000400040C3
:10513C00004800500060005000480044000000008F
:10514C000070001000100010001000100010001073
:10515C0000000000000000000078005400540054CF
:10516C0000540054000000000000000000580064CF
:10517C000044004400440044000000000000000013
:10518C000038004400440044004400380000000093
:10519C000000000000580064004400440064005803
:1051AC0000400040000000000034004C004400446B
:1051BC00004C00340004000400000000005800649F
:1051CC0000400040004000400000000000000000D3
:1051DC000038004400300008004400380000000093
:1051EC000020002000780020002000200020001863
:1051FC000000000000000000004400440044004493
:10520C00004C00340000000000000000004400448A
:10521C0000280028002800100000000000000000FA
:10522C00005400540054006C0028002800000000BA
:10523C00000000000044002800100010002800446A
:10524C00000000000000000000440044002800287A
:10525C00001000100010006000000000007C00082E
:10526C00001000200040007C00000000001800101E
:10527C00001000100020002000100010001000187A
:10528C000010001000100010001000100010001092
:10529C000010001000300010001000100008000872
:1052AC00001000100010003000000000000000741E
:1052BC00004C000000000000000000004A616E4637
:1052CC0065624D61724170724D61794A756E4A75B5
:1052DC006C4175675365704F63744E6F76446563AC
:1052EC00000000004D61792032302032303236001F
:1052FC0031383A30333A313300000000444F31003A
:10530C005254443100000000444F32005254443295
:10531C000000000000061016000610160000000029
:10532C00010203040000000000000000010203045D
:04533C00060708094F
:0853400054AEFF7F01000000E4
:04534800FD0100085B
:04534C00D90100087B
:10535000070A00005C4B00082802002070040020AF
:10536000C40400201C040020010000001000000004
:105370000024F4006D400008754000087D400008DE
:0C538000854000088D400008010000007E
:040000050800479D0B
:00000001FF
