:020000040800F2
:1000000000800120ED40000821390008293900084E
:100010002B3900082D3900082F3900080000000096
:10002000000000000000000000000000313900085E
:10003000333900080000000035390008373900085E
:100040003D4100083D4100083D4100083D41000898
:100050003D4100083D4100083D4100083F3900088E
:100060003D4100083D4100083D4100083D41000878
:100070003D4100083D4100083D4100083D41000868
:100080003D4100083D4100083D41000800000000DE
:1000900000000000000000000000000049390008D6
:1000A0005539000865390008753900083D410008D8
:1000B0003D4100083D4100083D4100083D41000828
:1000C0003D4100083D4100083D4100083D41000818
:1000D0003D4100083D4100083D410008000000008E
:1000E000853900083D4100083D410008000000003E
:1000F0000000000000000000000000003D4100087A
:10010000000000003D4100083D4100083D4100085D
:1001100000000000000000000000000000000000DF
:10012000993900083D4100083D4100083D41000863
:100130003D41000800000000000000000000000039
:100140000000000000000000000000003D41000829
:100150003D4100083D4100083D4100083D41000887
:100160003D4100083D410008000000000000000083
:10017000000000000000000000000000000000007F
:10018000000000003D4100080000000000000000E9
:040190003D410008E5
:10019800034613F8012B002AFBD1181A01387047BF
:1001A80053B94AB9002908BF00281CBF4FF0FF31D6
:1001B8004FF0FF3000F00CB8ADF1080C6DE904CE3B
:1001C80004F006F8DDF804E0DDE9022304B0704726
:1001D800704700BF10B5054C237833B9044B13B1F1
:1001E8000448AFF300800123237010BD30000020C5
:1001F800000000009444000808B5034B1BB10349F4
:100208000348AFF3008008BD000000003400002060
:100218009444000838B50446006800F0F3F92068F3
:1002280000F007FA05460121206800F0D6F92846B3
:1002380038BD70B504460E4615460021006800F02A
:10024800CCF946F08001206800F0DCF929462068E6
:1002580000F0D8F90121206800F0BFF970BD012B2A
:100268001BD9F8B505460C4617461E4600210068FE
:1002780000F0B3F92146286800F0C4F9002405E02D
:10028800286800F0D6F938550134E4B2B442F7D3FF
:100298000121286800F0A1F9F8BD7047012B1CD98D
:1002A800F8B505460C4617461E460021006800F0C2
:1002B80094F944F08001286800F0A4F9002405E0CE
:1002C800395D286800F09EF90134E4B2B442F7D3EE
:1002D8000121286800F081F9F8BD704710B504467F
:1002E80089220121FFF7A5FF0123A37510BD10B5D1
:1002F800044608220121FFF79CFF0023A37510BDC7
:1003080008B588220121FFF794FF08BD30B583B0F6
:100318000446FFF7ECFF0F2000F0A9F92046FFF78D
:10032800EFFFA568E368D904554A0023E80441EAC9
:100338005531FFF735FFC0F307438DF80430C0F39C
:1003480007238DF805308DF80600032301AA06213E
:100358002046FFF7A3FF122239212046FFF769FF45
:10036800237C484AD25C09212046FFF762FF0B2212
:1003780011462046FFF75DFF23220C212046FFF798
:1003880058FF637C404AD35C062B42D0A37C3F4A8B
:10039800D25C1201D2B2E37C3D49CB5C5B00DBB29C
:1003A8001A4402F0FE021D212046FFF742FF637C3B
:1003B800354AD25C1201D2B2237D3649CB5C9B0010
:1003C800DBB21A4402F0FC021E212046FFF731FF7F
:1003D800042226212046FFF72CFF08221F21204651
:1003E800FFF727FF002220212046FFF722FF0822DF
:1003F80021212046FFF71DFF012241212046FFF75A
:1004080018FF002384F817312046FFF767FF03B071
:1004180030BDA37C1D4AD25C1201D2B2E37C1C49D8
:10042800CB5C5B00DBB21A44D2B20132D2B21D21DE
:100438002046FFF7FEFE637C134AD25C1201D2B25B
:10044800237D1449CB5C9B00DBB21A44D2B2033241
:10045800D2B21E212046FFF7ECFE31212046FFF7DD
:10046800D9FE00F0F80242F0050231212046FFF7DC
:10047800E0FE0C2237212046FFF7DBFEA8E700BF8D
:100488000048E801C8440008C0440008B444000813
:10049800B0440008AC44000808B5FF221221FFF759
:1004A800C8FE08BD70B505460E4614464175FFF7EF
:1004B8002DFF84224D212846FFF7BBFEFF22242171
:1004C8002846FFF7B6FE012240212846FFF7B1FE75
:1004D8003F2211212846FFF7ACFE2846FFF7DCFF34
:1004E800324622212846FFF7A4FE0F212846FFF7AF
:1004F80091FE02460D212846FFF79BFE8D22012121
:100508002846FFF796FE002385F8173106E00323F7
:10051800AB75012070BD012000F0A9F8182128460C
:10052800FFF778FE10F0040FF1D1013CF3D12868F1
:1005380000F0A1F82846FFF7E9FE0020EAE770B5C9
:100548000446006800F0ADF810B994F8170170BDC2
:1005580004F117064FF480720021304603F0EBFDDA
:1005680010212046FFF756FE02460D212046FFF7D0
:1005780060FE637C63B9657D2B46324600212046C8
:10058800FFF76DFE84F817512046FFF785FFDCE77B
:1005980013212046FFF73EFE0546EDE770B50446F9
:1005A80016461D46006800F022F8A660E5609DF832
:1005B800103023749DF8143063749DF81830A374B8
:1005C8009DF81C30E3749DF8203023759DF8243085
:1005D80063752046FFF79AFE70BD08B5012914BF60
:1005E80000220122018A406901F005FB08BD10B50F
:1005F80004460121FFF7F1FF01222188606801F01C
:10060800FAFA10BD10B582B004468DF80710002123
:10061800FFF7E3FF4FF47A7301220DF10701A06998
:1006280002F03FFDA06902F048FF0128FAD102B0AC
:1006380010BD10B584B0044600218DF80F108DF858
:100648000E10FFF7CAFF4FF47A73009301230DF1E0
:100658000E020DF10F01A06902F005FEA06902F07B
:100668002CFF0128FAD19DF80E0004B010BD08B582
:1006780000F0FCFD08BD10B504460121FFF7ADFFF1
:1006880000222188606801F0B6FA0120FFF7EFFF29
:1006980001222188606801F0AEFA6420FFF7E7FFC5
:1006A80010BD08B50189C06801F09EFA012814BF81
:1006B8000020012008BD000008B50349034800F0E8
:1006C80033F8034B187008BD4C00002018000020B8
:1006D80050000020134B5B7A13BB10B5044603F09F
:1006E800FF00104B93F809C05FFA8CFC4FF0000E26
:1006F80003F80CE093F809C003EB8C0CCCF8044029
:100708005C7A1C4422725A7A541CE4B25C7230320D
:100718000A703A234B702F238B7081F803E010BDC9
:10072800012070475400002008B50022FFF7D2FFCF
:1007380008BD00002DE9F0438BB000240594069411
:100748000794089409940194564B1A6B42F00402DA
:100758001A631A6B02F004020192019A02941A6B4E
:1007680042F080021A631A6B02F080020292029A27
:1007780003941A6B42F001021A631A6B02F0010229
:100788000392039A04941A6B42F002021A631B6BD9
:1007980003F002030493049B434F22464FF4005195
:1007A800384601F028FA414D01221021284601F06F
:1007B80022FADFF8FC8001224FF48051404601F014
:1007C8001AFA22464FF48061284601F014FA4FF4D1
:1007D80000530593012606960794089405A9384600
:1007E80001F01EF94FF4404305934FF40419CDF876
:1007F8001890079605A9384601F012F902270597BF
:10080800CDF81890079605A9284601F009F908239C
:1008180005930694079605A9284601F001F91023C7
:10082800059306960794089705A9284601F0F8F855
:100838004FF48053059306960794089705A94046F8
:1008480001F0EEF84FF4007305934FF48813069304
:10085800079405A9284601F0E3F84FF4806305934F
:1008680006960794089405A9284601F0D9F8224667
:100878002146072000F0F2FE072000F0FFFE224686
:100888002146172000F0EAFE172000F0F7FE224666
:100898002146282000F0E2FE282000F0EFFE0BB0F1
:1008A800BDE8F08300380240000802400000024022
:1008B8000004024000B583B000210191094B1A6B76
:1008C80042F480021A631B6B03F480030193019BBB
:1008D8000A46382000F0C2FE382000F0CFFE03B0F0
:1008E8005DF804FB0038024008B54FF4FA62642151
:1008F8000148FFF7D7FD08BDB000002010B5044639
:1009080002680E4B9A4207D023680D4A93420CD0D6
:100918000C4A93420DD010BD4FF400510A4801F023
:1009280070F90A4B01221A70EEE7094A0121117089
:10093800EEE7084B01221A70EDE700BF00480140BE
:100948000044014000400140000802406E000020C1
:100958006D0000206C00002000B587B0642305936B
:100968000023049303930723029304230193012391
:10097800009306A3D3E900230348FFF70FFEFFF710
:10098800B3FF07B05DF804FBB0000020D8B9D11957
:100998000000000010B5094C002201212046FFF795
:1009A80048FC0A2000F062FC42212046FFF732FC96
:1009B800122814BF0020012010BD00BFB000002085
:1009C80070B50646FFF7E4FBC5B26B1EDBB2632BBE
:1009D80001D9002070BD274C87224D212046FFF702
:1009E80028FC002224212046FFF723FC4122402135
:1009F8002046FFF71EFC2046FFF74EFDF722112187
:100A08002046FFF716FC2A4622212046FFF711FC54
:100A18000E212046FFF7FEFB02460D212046FFF778
:100A280008FC0223A3752B46324600212046FFF717
:100A380035FC8B2201212046FFF7FBFB00F010FC60
:100A480000F6B8340B4B1868FFF72BFE28B900F0F6
:100A580007FCA042F6D90020BCE7064C2046FFF769
:100A68001BFD892201212046FFF7E3FB0120A07529
:100A7800B0E700BFB000002010B5FFF7A1FF0446A3
:100A8800FFF732FF204610BD38B50C48FFF757FD79
:100A980080B10446312800D93124094D224609493C
:100AA800284603F087FB00232B55074B1C70074B88
:100AB80001221A700148FFF7EFFC38BDB000002092
:100AC80078000020C7000020760000207000002079
:100AD80038B50446B0F5007F08D0B4F5804F0CD087
:100AE800B4F5004F1FD0022C31D038BD224B9B7D6E
:100AF800032BF2D1FFF7C8FFEFE700F0B1FB054683
:100B08001E4B1B68C31AB3F5FA7FE9D94FF400519D
:100B18001B4801F076F8194B1D600123194A137020
:100B2800194A1370DCE700F09BFB0546174B1B685E
:100B3800C31AB3F5FA7FD6D94FF40051104801F023
:100B480060F8124B1D60124B01221A70CBE700F0BF
:100B580087FB04460F4B1B68C31AB3F5FA7FC4D949
:100B68004FF40051064801F04CF80A4B1C600A4B40
:100B780001221A70B9E700BFB00000206800002009
:100B88000008024075000020720000206400002068
:100B980074000020600000207300002008B50A23BC
:100BA800012278210348006801F076FBB0FA80F052
:100BB800400908BD0800002072B6FEE708B50A48DB
:100BC8000A4B03600A4B436000238360C3604FF401
:100BD8008042026143618361C361036201F0CCF921
:100BE80000B908BDFFF7E8FF80040020005400406A
:100BF800801A060008B50948094B036046F2A71396
:100C08004360002383604FF47A72C260036183619A
:100C180002F0C8FD00B908BDFFF7CEFFE4010020CF
:100C28000048014008B50A480A4B03600A4B436074
:100C380000238360C3604FF4804202614361836193
:100C4800C361036201F098F900B908BDFFF7B4FF6A
:100C58002C04002000580040A086010008B50A486E
:100C68000A4B03600A4B436000238360C3604FF460
:100C78008042026143618361C361036201F07CF9D0
:100C880000B908BDFFF798FFD8030020005C0040BA
:100C9800A086010008B50D480D4B03604FF4827320
:100CA800436000238360C360036143614FF40072B3
:100CB80082613822C2610362436283620A23C3628B
:100CC80002F090F900B908BDFFF776FF7403002021
:100CD8000030014008B50D480D4B03604FF4827396
:100CE800436000238360C360036143614FF4007273
:100CF8008261C3610362436283620A23C36202F0B2
:100D080071F900B908BDFFF757FF00BF1C030020A9
:100D18000038004008B50948094B036046F2A7139C
:100D280043600023836047F22F52C26003618361EE
:100D380002F038FD00B908BDFFF73EFF2C02002085
:100D48000044014000B585B000230093019302934D
:100D580003930F480F4A026046F2A712426083606D
:100D680041F28732C2600361836102F01BFD50B912
:100D78004FF4805300936946054802F04CFD20B9B2
:100D880005B05DF804FBFFF717FFFFF715FF00BF7D
:100D9800740200200040014008B50748074B036073
:100DA8000623436040F6A663836001F03FFB00B969
:100DB80008BDFFF701FF00BFCC0300200030004052
:100DC80000B585B000230093019302930393144860
:100DD800144A02604FF480324260836003610376F4
:100DE80080F82030C362104A8262C3600122C26167
:100DF80080F83030426100F0E7FA68B902230093C6
:100E080001230193042302936946054800F008FB77
:100E180020B905B05DF804FBFFF7CEFEFFF7CCFE66
:100E2800D4040020002001400100000F00B595B057
:100E38003022002108A803F07EF9002303930493CD
:100E480005930693079301931B4A116C41F0805157
:100E58001164126C02F080520192019A02931749B0
:100E68000A6822F4404242F400420A600A6802F426
:100E780040420292029A092208924FF48032099263
:100E880001220D920E9308A801F0DAFC80B90F2315
:100E9800039301230493002105910691079103A868
:100EA80001F024FF30B901F0C7FE15B05DF804FB6E
:100EB800FFF782FEFFF780FE003802400070004016
:100EC80008B500F0A7F9FFF7B1FFFFF733FCFFF70C
:100ED800F1FCFFF773FEFFF78DFEFFF7A3FEFFF7A8
:100EE800BDFEFFF7D7FEFFF7E7FBFFF7F3FEFFF7BF
:100EF80011FFFFF727FFFFF74FFFFFF761FF40F2F2
:100F0800DC5000F0B3F92A4C2A4BE3604FF400722E
:100F1800A260294A62614FF48052226163604FF4F3
:100F280080632360254B1B68A361254B1C6020460A
:100F3800FFF75DFB2046FFF79EFB642000F096F963
:100F4800FFF728FD1F4B187080B9FFF727FE1E4BCF
:100F5800187070B91D4B186802F0E2FA4FF47A70F5
:100F680000F084F91A4801F08FFA0AE0FFF7F4FC60
:100F7800EBE7184B186800F083F8EBE7144801F02A
:100F880083FA4FF47A7000F071F9134B1B78002B39
:100F9800F4D00C4B1B78002BF0D008220F491048D6
:100FA80003F0D1F80028E9D10E48FFF765FDE5E721
:100FB800C801002000000240000402400400002094
:100FC800B0000020710000206F0000200000002009
:100FD800CC0300200800002070000020CC4400084A
:100FE80078000020D844000800B587B08DF81710A5
:100FF8000A230293012301930DF1170200920022A4
:10100800782101F097F807B05DF804FB002303E0AE
:10101800FF21054AD1540133B3F5806F03D200286C
:10102800F6D10146F5E770472405002030B585B0B4
:10103800054600241DE0A4F15001C9B22846FFF777
:10104800D3FF00212846FFF7CFFF10212846FFF7DE
:10105800CBFF6423029380230193084B03EBC41353
:101068000093012340227821284601F063F80134D7
:10107800E4B2072CDFD905B030BD00BF240500203D
:1010880038B50446642000F0F1F8AE212046FFF799
:10109800ABFF054620212046FFF7A6FF0544102197
:1010A8002046FFF7A1FF0544B0212046FFF79CFF2B
:1010B8000544C8212046FFF797FF05440021204634
:1010C800FFF792FF054410212046FFF78DFF0544E6
:1010D80040212046FFF788FF054481212046FFF77D
:1010E80083FF0544FF212046FFF77EFF0544A12129
:1010F8002046FFF779FF0544A6212046FFF774FF35
:101108000544A8212046FFF76FFF05443F212046EC
:10111800FFF76AFF0544A4212046FFF765FF054451
:10112800D3212046FFF760FF054400212046FFF742
:101138005BFF0544D5212046FFF756FF0544F02103
:101148002046FFF751FF0544D9212046FFF74CFF01
:10115800054422212046FFF747FF0544DA212046AF
:10116800FFF742FF054412212046FFF73DFF0544E3
:10117800DB212046FFF738FF054420212046FFF7F2
:1011880033FF05448D212046FFF72EFF0544142127
:101198002046FFF729FF0544AF212046FFF724FF2B
:1011A800E84201D0012038BD0020FFF72FFF20467C
:1011B800FFF73CFF034B00201880588001225A712A
:1011C800F1E700BF1C05002010B504460E4B1A7845
:1011D8004FF47A73B3FBF2F30C4A1068B0FBF3F0E8
:1011E80000F050FA68B90F2C01D901200AE000225A
:1011F80021464FF0FF3000F031FA054B1C6000200B
:1012080000E0012010BD00BF0C00002014000020E9
:101218001000002008B50B4B1A6842F400721A60DF
:101228001A6842F480621A601A6842F480721A607E
:10123800032000F001FA0F20FFF7C6FF01F02AF99A
:10124800002008BD003C0240034A1168034B1B788C
:101258000B441360704700BF240900200C000020D5
:10126800014B1868704700BF2409002038B50446B0
:10127800FFF7F6FF0546B4F1FF3F02D0044B1B7899
:101288001C44FFF7EDFF401BA042FAD338BD00BF56
:101298000C0000204A4B5A6822F440325A605A68BF
:1012A80041680A435A600268536823F480735360A4
:1012B80002685368016943EA01235360026853686E
:1012C80023F0407353600268536881680B4353608E
:1012D8000268936823F40063936002689368C168A6
:1012E8000B439360826A374B9A4257D002689368DF
:1012F80023F07063936002689368816A0B4393607C
:101308000268936823F04053936002689368C16A47
:101318000B4393600268936823F0020393600268AA
:101328009368017E43EA4103936090F82030002BD4
:101338003FD00268536843F40063536002685368FF
:1013480023F46043536001684B68426A013A43EAF8
:1013580042334B600268D36A23F47003D362016896
:10136800CB6AC269013A43EA0253CB6202689368C6
:1013780023F4007393600268936890F8301043EA8E
:10138800412393600268936823F480639360026842
:101398009368416943EA81239360704702689368C0
:1013A80023F0706393600268936823F0405393605E
:1013B800B0E70268536823F400635360CAE700BFCC
:1013C800002301400100000F38B310B50446036C38
:1013D80043B1236C13F0100F0BD00120002384F8C5
:1013E8003C3010BD01F072F80023636484F83C308F
:1013F800EFE7236C23F4885323F0020343F002033E
:1014080023642046FFF746FF00206064236C23F026
:10141800030343F001032364E0E701207047000061
:1014280030B482B00022019290F83C20012A00F0EA
:10143800B6800346012280F83C200A68092A40D970
:101448000468E06892B202EB42021E3A4FF0070CC1
:101458000CFA02F220EA0202E2601C68E0680A88DC
:1014680002EB42021E3A8D6805FA02F20243E2607C
:101478004A68062A3CD81C68606B02EB8202053A6F
:101488004FF01F0C0CFA02F220EA020262631C6899
:10149800606B4A6802EB8202053AB1F800C00CFAA8
:1014A80002F20243626318683E4A904250D01868BC
:1014B8003C4A904255D0002083F83C0002B030BC32
:1014C80070470468206992B202EB42024FF0070CA1
:1014D8000CFA02F220EA020222611C6820690A88DA
:1014E80002EB42028D6805FA02F202432261BFE76D
:1014F8000C2A16D81D68286B02EB8202233A1F2497
:1015080004FA02F220EA02022A631D68286B4A687C
:1015180002EB8202233A0C8804FA02F202432A639D
:10152800C1E71D68E86A02EB8202413A1F2404FA07
:1015380002F220EA0202EA621D68E86A4A6802EBDF
:101548008202413A0C8804FA02F20243EA62AAE7EC
:101558000A68122AABD11448426842F480024260F9
:10156800A5E70A68103A012AA5D80F48426842F44C
:10157800000242600A68102A9DD10C4A12680C4980
:10158800A1FB0212920C02EB82025200019202E0CD
:10159800019A013A0192019A002AF9D18BE70220B7
:1015A8008CE700BF00200140002301401400002008
:1015B80083DE1B43002807DB00F01F0240090123DC
:1015C8009340024A42F82030704700BF00E100E033
:1015D800002808DB0901C9B200F1604000F561404C
:1015E80080F80013704700F00F000901C9B2014BE1
:1015F8001954704714ED00E000B500F00700C0F181
:10160800070CBCF1040F28BF4FF0040C031D062B78
:101618000FD9C31E4FF0FF3E0EFA0CF021EA00016D
:1016280099400EFA03FE22EA0E0241EA02005DF832
:1016380004FB0023EEE70000074AD36823F4E063C5
:101648001B041B0C000200F4E060034343F0BF637B
:1016580043F40033D360704700ED00E010B5044652
:10166800054BD868C0F30220FFF7C6FF01462046A5
:10167800FFF7AEFF10BD00BF00ED00E008B5FFF7B3
:1016880099FF08BD0138B0F1807F0BD24FF0E023FD
:101698005861054AF02182F823100020986107223A
:1016A8001A6170470120704700ED00E010B403682C
:1016B800D9B210390A4AA2FB01421209094CA25CAC
:1016C800C2655F2907D96FF3090304338365806D09
:1016D8005DF8044B70476FF309038365F7E700BFB4
:1016E800ABAAAAAAE4440008836A826992B9012BCA
:1016F8000AD0022B02D00BB100207047C36A13F046
:10170800807F28D100207047C36AB3F1C07F24D0FE
:1017180000207047B2F5005F09D0022B25D9032BB2
:1017280025D1C36A13F0807F23D100207047032B93
:1017380003D8DFE803F01404140A00207047C36AD2
:1017480013F0807F0DD100207047C36AB3F1C07FCA
:1017580009D0002070470120704701207047012000
:101768007047012070470120704701207047002012
:10177800704701207047000070B50446FFF770FD00
:10178800002C5BD00546022384F83530002384F80A
:1017980034302268136823F00103136023681A6841
:1017A80012F0010F0AD0FFF75BFD431B052BF5D99B
:1017B80020236365032084F8350070BD1A6820492A
:1017C80011406268A0680243E0680243206902434E
:1017D80060690243A0690243E0690243206A024348
:1017E8000A43616A04291ED01A602668756925F0C3
:1017F8000705636A1D43042B07D1A36A1D43E36AE7
:101808001BB12046FFF770FF90B975612046FFF7BE
:101818004DFFE26D3F239340836000206065012304
:1018280084F83530C9E7E16A206B01430A43DBE7F6
:1018380040236365012084F83500BEE70120BCE73A
:101848003F8010F0F0B583B0044600230193724B3B
:101858001D68724BA3FB0535AD0A876D3E68C26DE6
:1018680008239340334210D003681A6812F0040F1B
:101878000BD01A6822F004021A60C26D0823934044
:10188800BB60436D43F001034365E26D0123934060
:10189800334209D02268526912F0800F04D0BB602D
:1018A800636D43F002036365E26D042393403342A2
:1018B80009D02268126812F0020F04D0BB60636D71
:1018C80043F004036365E26D10239340334224D050
:1018D8002268126812F0080F1FD0BB6023681A68CC
:1018E80012F4802F0DD01B6813F4002F04D1236C41
:1018F8009BB12046984710E0A36C73B120469847E7
:101908000BE01A6812F4807F03D11A6822F00802EB
:101918001A60236C0BB120469847E26D2023934050
:10192800334255D02268126812F0100F50D0BB60B5
:1019380094F83530DBB2052B0ED023681A6812F400
:10194800802F33D01B6813F4002F2AD1636C002B2F
:101958003ED0204698473BE02268136823F01603E0
:1019680013602268536923F080035361236CA3B189
:101978002268136823F008031360E26D3F23934045
:10198800BB60012384F83530002384F83430236D9C
:10199800002B3FD0204698473CE0A36C002BE7D1B2
:1019A800EBE7E36BA3B12046984711E01A6812F4FD
:1019B800807F09D11A6822F010021A60012384F886
:1019C8003530002384F83430E36B0BB12046984758
:1019D800636DFBB1636D13F0010F17D0052384F815
:1019E80035302268136823F001031360019B01332B
:1019F8000193AB4204D823681B6813F0010FF5D19B
:101A0800012384F83530002384F83430E36C0BB1BB
:101A18002046984703B0F0BD14000020B5814E1B46
:101A280000230F2B00F2D78070B582B065E085687F
:101A38004FEA430E032404FA0EF425EA0405CC68A1
:101A480004FA0EF42C438460446824EA02044A68C9
:101A5800C2F300129A40224342605CE0DC0808347A
:101A680050F8242003F00705AD004FF00F0E0EFAD2
:101A780005FE22EA0E0E0A69AA4042EA0E0240F862
:101A880024205CE0042200E0002202FA0EF22A433D
:101A98000234514D45F82420504A94686FEA0C02EC
:101AA80024EA0C054E6816F4801F01D04CEA0405A0
:101AB8004A4CA560E46802EA04054E6816F4001F63
:101AC80001D04CEA0405454CE560646802EA040567
:101AD8004E6816F4003F01D04CEA04053F4C65609F
:101AE800246822404D6815F4803F01D04CEA040276
:101AF8003A4C226001330F2B6BD801229A400C68B4
:101B080004EA020C32EA0404F4D14C6804F0030439
:101B1800013C012C8BD94A6802F00302032A09D040
:101B2800C4685D000322AA4024EA02048A68AA4025
:101B38002243C2604A6802F00302022A8ED0046877
:101B48004FEA430E032202FA0EF224EA02044A681C
:101B580002F0030202FA0EF2224302604A6812F40B
:101B6800403FC7D0002201921D4A546C44F480447F
:101B78005464526C02F480420192019A9C08A51C9C
:101B8800154A52F8255003F0030E4FEA8E0E0F2225
:101B980002FA0EF225EA0205124A90423FF474AFA7
:101BA80002F5806290420ED002F5806290420CD01D
:101BB80002F5806290420AD002F5806290423FF4BA
:101BC80061AF072261E701225FE702225DE7032296
:101BD8005BE702B070BD704700380140003C01402F
:101BE80000380240000002400369194201D0012078
:101BF8007047002070470AB181617047090481610C
:101C08007047436901EA030221EA030141EA0241FC
:101C18008161704708B5054B5B69034200D108BD77
:101C2800024B5861FEF754FFF9E700BF003C014042
:101C380003685A6912F4806F01D1002070476FF46D
:101C480080625A6100230363202280F83D2080F8D7
:101C58003E30026C42F00402026480F83C300120FD
:101C680070472DE9F04106460C46174698463BE07A
:101C7800FFF7F6FA069BC01A404502D8B8F1000FE4
:101C880032D1012D18D033689B6924EA03039BB233
:101C9800B3FA83F35B099F4226D1002333632022E2
:101CA80086F83D2086F83E30326C42F020023264DD
:101CB80086F83C30012027E033685B6924EA030397
:101CC8009BB2B3FA83F35B09E5E733685B6924EAFF
:101CD800030C1FFA8CFCBCFA8CFC4FEA5C1C6745B1
:101CE80011D1B8F1FF3FC3D1C4F30745012DECD0A2
:101CF80033689B6924EA030C1FFA8CFCBCFA8CFC41
:101D08004FEA5C1CEBE70020BDE8F0812DE9F843C1
:101D180005460E469046994653E01A6842F400720A
:101D28001A602B686FF480625A6100232B632022AB
:101D380085F83D2085F83E302A6C42F004022A647A
:101D480085F83C3001204AE0FFF78AFAA0EB090049
:101D5800404502D8B8F1000F33D1012F17D02B68B6
:101D68009B6926EA03039BB2003B18BF012343B3D8
:101D780000232B63202285F83D2085F83E302A6C0D
:101D880042F020022A6485F83C30012027E02B68C5
:101D98005B6926EA03039BB2003B18BF0123E6E711
:101DA8002B689C6926EA0404A4B2003C18BF0124ED
:101DB800A4B12B685A6912F4806FAED1B8F1FF3F15
:101DC800C2D1C6F30747012FEAD12B685C6926EA1E
:101DD8000404A4B2003C18BF0124E9E70020BDE8D0
:101DE800F88370B504460D46164623685B6913F000
:101DF800800F21D12046FFF71BFFF8B9B5F1FF3F4F
:101E0800F3D0FFF72DFA801BA84201D8002DECD1A2
:101E180023685B6913F0800FE7D100232363202236
:101E280084F83D2084F83E30226C42F0200222647F
:101E380084F83C30012000E0002070BD0120FCE760
:101E48002DE9F04385B004460D4691461F46DDF85E
:101E580030800D9E0368196841F4807119600096FE
:101E6800434600224FF00111FFF7FBFE60B92368DB
:101E780005F0FE051D613346424626492046FFF718
:101E880045FF68B1012008E023681B6813F4807FD0
:101E980002D04FF400732364032005B0BDE8F0833B
:101EA8000023039323685A6903929B690393039B56
:101EB800324641462046FFF794FF30B9012F0FD133
:101EC80023685FFA89F61E61E7E7236C042B01D0CB
:101ED8000120E2E72268136843F400731360F7E710
:101EE80023684FEA19221A61324641462046FFF715
:101EF80078FF20B923685FFA89F61E61CDE7236C65
:101F0800042B01D00120C8E72268136843F400734A
:101F18001360F7E70200010070B504460D46164647
:101F280023685B6913F0040F21D12046FFF780FE78
:101F3800F8B9B5F1FF3FF3D0FFF792F9801BA8423B
:101F480001D8002DECD123685B6913F0040FE7D1A9
:101F580000232363202284F83D2084F83E30226C3D
:101F680042F02002226484F83C30012000E0002086
:101F780070BD0120FCE70000002800F0CC8070B59F
:101F8800044690F83D30002B77D0242384F83D3068
:101F98002268136823F0010313602268136843F46E
:101FA800004313602268136823F40043136000F0B1
:101FB80053FF62685A4B9A4264D85A4B98428CBF76
:101FC80000230123002B40F0A8805749A1FB0031D2
:101FD8008B0C25686A6822F03F0242EA91426A60E7
:101FE80021680A6A22F03F0266684D4DAE424FD81A
:101FF800013313430B622168CA6922F44F4222F06D
:10200800FF026568464B9D424CD8431E6D00B3FBEA
:10201800F5F3013340F6FC70034278D0C3F30B03A9
:102028001A43CA6121680B6823F0C003E269206A79
:10203800024313430B6021688B6823F4034323F0A6
:10204800FF032269E068024313438B602168CB6871
:1020580023F0FF036269A06902431343CB6022683F
:10206800136843F00103136000202064202384F8E0
:102078003D30206384F83E0070BD80F83C3000F0AD
:1020880059FA82E7294B98428CBF0023012399E72C
:102098004FF4967505FB03F3254DA5FB03539B09E8
:1020A8000133A6E7A668BEB9431E05EB450CB3FB92
:1020B800FCF30133C3F30B03B3FA83F35B0943BBAC
:1020C800C6B9431E05EB4505B3FBF5F30133C3F36E
:1020D8000B0343F40043A3E7431E05EB850C0CEB0D
:1020E8008C0CB3FBFCF30133C3F30B03B3FA83F398
:1020F8005B09E4E7431E05EB850505EB8505B3FBA6
:10210800F5F30133C3F30B0343F4404388E7042397
:1021180086E7012384E7012070470120ACE700BF70
:10212800A08601007F841E0083DE1B43FF083D005C
:10213800D34D62102DE9F04383B004460F46904614
:1021480099460C9EFFF78CF8054694F83D00C0B2FE
:10215800202803D0022003B0BDE8F083009519239E
:1021680001224B492046FFF77CFD002840F089807A
:1021780094F83C30012B00F08680012384F83C3031
:1021880023681A6812F0010F03D11A6842F001029D
:102198001A602268136823F400631360212384F80B
:1021A8003D30402384F83E30002323640A9B636259
:1021B800BDF82C306385638D2385364BE36201952A
:1021C80000964B46424639462046FFF739FE00281E
:1021D8005BD1238D002B35D02A4631462046FFF7A8
:1021E80000FE20BB626A236812781A61626A531C77
:1021F8006362218D013989B22185638D9BB2013BD0
:102208009BB263852368586910F0040FE1D0002958
:10221800DFD052781A61636A01336362238D013B10
:102228002385638D9BB2013B9BB26385D1E7236C09
:10223800042B01D001208EE72268136843F4007351
:102248001360F7E72A4631462046FFF765FE50B18E
:10225800236C042B01D001207DE72268136843F426
:1022680000731360F7E72268136843F40073136080
:10227800202384F83D30002384F83E3084F83C3035
:1022880069E7022067E7022065E7012063E700BFEE
:10229800020010000000FFFF2DE9F04385B004465E
:1022A800884691461D46FEF7DBFF94F83D30DBB2C9
:1022B800202B03D0022005B0BDE8F083064600902D
:1022C8001923012257492046FFF7CBFC002840F08C
:1022D800A08094F83C30012B00F09D80012384F805
:1022E8003C3023681A6812F0010F03D11A6842F0D3
:1022F80001021A602268136823F400631360242320
:1023080084F83D3000272764474BE36240E02368A8
:102318001B6813F4807F02D04FF4007323640320FA
:10232800C9E7A02384F83D3022685369C3F340030A
:102338005269C2F3802294F83DC05FFA8CFCBCF16C
:10234800A00F09D043B93AB9FEF78AFF801BA8420B
:10235800E7D8002DE8D1E4E7202384F83D3023684E
:102368005A6912F0020F31D11A6842F400721A60E9
:1023780023686FF480625A61009619230122294963
:102388002046FFF76EFC002849D101374F4538D267
:102398002268136843F48073136000962B4600226A
:1023A8004FF001112046FFF75CFC0028AFD12368ED
:1023B80008F0FE021A61FEF753FF064622685369C9
:1023C800C3F340035269C2F38022B4E71A6842F4A7
:1023D80000721A600023039323685A6903929B6969
:1023E8000393039B0096192301220E492046FFF709
:1023F80038FC90B9202384F83D30002384F83C3021
:1024080059E7202384F83D30002384F83C3001202C
:1024180051E702204FE702204DE701204BE701205A
:1024280049E700BF020010000000FFFF50B338B5B5
:10243800044603684CF6CC421A60036845F25552CC
:102448001A60036842685A60036882689A60FEF7F7
:1024580007FF05462368DA6812F0030F0DD0FEF770
:10246800FFFE401B41F601039842F3D92368DB685D
:1024780013F0030FEED0032003E04AF6AA221A60F5
:10248800002038BD0120704703684AF6AA221A6066
:102498000020704782B0002100910B4B5A6C42F427
:1024A80080425A645A6C02F480420092009A019168
:1024B8001A6C42F080521A641B6C03F0805301932B
:1024C800019B02B0704700BF0038024000B589B0D8
:1024D800002303930493059306930793026803F17B
:1024E800804303F590339A4202D009B05DF804FBAB
:1024F8000021019103F58C335A6C42F480725A64BE
:102508005A6C02F480720192019A02911A6B42F09D
:1025180001021A631B6B03F001030293029B04235D
:1025280003930323049303A90148FFF779FADCE72F
:10253800000002402DE9F0418CB000230793089376
:1025480009930A930B9303684D4A934208D04D4A66
:10255800934228D04C4A934258D00CB0BDE8F08141
:1025680000250095494C236B43F002032363236B3A
:1025780003F002030093009BC023079312230893E0
:1025880003230A9304230B9307A94148FFF748FA4A
:102598000195236C43F400132364236C03F40013A4
:1025A8000193019BD9E700250295384C236B43F032
:1025B80002032363236B03F002030293029B4FF48D
:1025C800806307934FF01208CDF8208003270A97FD
:1025D80004230B932E4E07A93046FFF721FA082350
:1025E8000793CDF8208009950A9709230B9307A92B
:1025F8003046FFF715FA0395236C43F480032364F0
:10260800236C03F480030393039BA6E7002504953A
:102618001E4C236B43F001032363236B03F0010378
:102628000493049B0595236B43F002032363236BF8
:1026380003F002030593059B4FF480730793122759
:10264800089703260A9604230B9307A91148FFF756
:10265800E7F910230793089709950A9609230B931E
:1026680007A90B48FFF7DCF90695236C43F4000330
:102678002364236C03F400030693069B6DE700BFF5
:102688000054004000580040005C00400038024000
:10269800000402400000024030B58BB000230593CF
:1026A80006930793089309930368344A934204D026
:1026B800334A93423ED00BB030BD04460025019505
:1026C800304B5A6C42F480525A645A6C02F480526D
:1026D8000192019A02951A6B42F001021A631B6B70
:1026E80003F001030293029BE02305930223069360
:1026F800032308930523099305A92348FFF790F9B5
:102708002248234B03604FF0C06343608560C56077
:102718004FF48063036145618561C5610562456267
:10272800FFF72AF818B9194BE3649C63C3E7FEF76F
:1027380043FAF8E700210391124B1A6C42F48042E5
:102748001A641A6C02F480420392039A04911A6B79
:1027580042F002021A631B6B03F002030493049B0A
:102768004FF460430593022306930323089305233C
:10277800099305A90748FFF753F99CE70030014082
:10278800003800400038024000000240BC0200202F
:10279800106402400004024000B585B00368244A72
:1027A800934208D0234A934219D0234A93422AD00D
:1027B80005B05DF804FB00210191204B5A6C42F4EE
:1027C80080325A645B6C03F480330193019B0A46A0
:1027D8001820FEF743FF1820FEF750FFE8E7002116
:1027E8000291164B5A6C42F400325A645B6C03F443
:1027F80000330293029B0A461920FEF72FFF192087
:10280800FEF73CFFD4E7002103910C4B5A6C42F4CD
:1028180080225A645B6C03F480230393039B0A466B
:102828001A20FEF71BFF1A20FEF728FFC0E700BF9B
:102838000040014000440140004801400038024087
:10284800002800F0E08170B582B00446036813F0F8
:10285800010F3BD09F4B9B6803F00C03042B2CD03B
:102868009C4B9B6803F00C03082B21D06368B3F5DD
:10287800803F4FD0B3F5A02F52D0964B1A6822F460
:1028880080321A601A6822F480221A606368002B6A
:1028980050D0FEF7E5FC05468E4B1B6813F4003F4D
:1028A80014D1FEF7DDFC401B6428F5D90320B1E103
:1028B800884B5B6813F4800FD8D0864B1B6813F4E1
:1028C800003F03D06368002B00F09F81236813F05A
:1028D800020F54D07F4B9B6813F00C0F3ED07D4BFA
:1028E8009B6803F00C03082B33D0E368002B68D0F7
:1028F800794B01221A60FEF7B3FC0546754B1B683D
:1029080013F0020F54D1FEF7ABFC401B0228F5D997
:1029180003207FE16F4A136843F480331360B5E7FF
:102928006C4B1A6842F480221A601A6842F48032AA
:102938001A60ABE7FEF794FC0546664B1B6813F478
:10294800003FC3D0FEF78CFC401B6428F5D9032058
:1029580060E1604B5B6813F4800FC6D15D4B1B6868
:1029680013F0020F03D0E368012B40F05081594A5D
:10297800136823F0F803216943EAC103136023684D
:1029880013F0080F42D063696BB3534B0122C3F8AD
:10299800802EFEF765FC05464E4B5B6F13F0020F69
:1029A80034D1FEF75DFC401B0228F5D9032031E144
:1029B800484A136823F0F803216943EAC103136006
:1029C800DDE7454B00221A60FEF74AFC0546414BFD
:1029D8001B6813F0020FD2D0FEF742FC401B0228FE
:1029E800F5D9032016E13C4B0022C3F8802EFEF7F0
:1029F80037FC0546374B5B6F13F0020F06D0FEF726
:102A08002FFC401B0228F5D9032003E1236813F0AB
:102A1800040F77D02F4B1B6C13F0805F33D100234A
:102A280001932C4B1A6C42F080521A641B6C03F011
:102A380080530193019B0125284B1B6813F4807F69
:102A480023D0A368012B34D0052B38D0214B1A6F23
:102A580022F001021A671A6F22F004021A67A368AB
:102A6800002B3DD0FEF7FCFB06461A4B1B6F13F0FC
:102A7800020F46D1FEF7F4FB801B41F288339842DF
:102A8800F3D90320C6E00025D6E7144A136843F4B7
:102A980080731360FEF7E4FB0646104B1B6813F4C3
:102AA800807FCED1FEF7DCFB801B0228F5D90320FE
:102AB800B0E0084A136F43F001031367CFE7054BF3
:102AC8001A6F42F004021A671A6F42F001021A677D
:102AD800C5E700BF003802400000474200700040D0
:102AE800FEF7BEFB0646524B1B6F13F0020F08D0D1
:102AF800FEF7B6FB801B41F288339842F3D90320D6
:102B080088E0EDB9A369002B00F08380484A9268F9
:102B180002F00C02082A51D0022B17D0454B002294
:102B28001A66FEF79DFB0446414B1B6813F0007FB5
:102B380042D0FEF795FB001B0228F5D9032069E077
:102B48003B4A136C23F080531364DBE7394B0022B4
:102B58001A66FEF785FB0546354B1B6813F0007FA8
:102B680006D0FEF77DFB401B0228F5D9032051E073
:102B7800E369226A1343626A43EA8213A26A52082B
:102B8800013A43EA0243E26A43EA0263284A53608D
:102B9800284B01221A66FEF763FB0446244B1B6888
:102BA80013F0007F06D1FEF75BFB001B0228F5D966
:102BB80003202FE000202DE000202BE0012B2BD05C
:102BC8001B4B5B6803F48001E269914226D103F054
:102BD8003F02216A8A4223D1616A47F6C0721A40CD
:102BE800B2EB811F1ED103F44031A26A5208013AA8
:102BF800B1EB024F18D103F07063E26AB3EB026FD6
:102C080014D1002006E001207047012002E00120D5
:102C180000E0002002B070BD0120FBE70120F9E7C9
:102C28000120F7E70120F5E70120F3E70120F1E7AC
:102C38000038024000004742014B0122DA64704725
:102C48000000474208B5264B9B6803F00C03042B91
:102C580041D0082B41D1224B5A6802F03F025B68F1
:102C680013F4800F12D01E4B5968C1F388111D4808
:102C78000023A1FB0001FDF793FA194B5B68C3F32E
:102C8800014301335B00B0FBF3F008BD144B5868F7
:102C9800C0F388104FEA401CBCEB000C6EEB0E0E24
:102CA8004FEA8E1343EA9C634FEA8C11B1EB0C0197
:102CB80063EB0E03DB0043EA5173C90011EB000C10
:102CC80043F10003990200234FEA8C2041EA9C510A
:102CD800FDF766FAD1E70348D7E70348D5E700BF11
:102CE8000038024040787D010024F400002800F0FC
:102CF8009B8070B50D4604464F4B1B6803F00703D5
:102D08008B4208D2CBB24C4A1370136803F0070306
:102D18008B4240F08B80236813F0020F17D013F01A
:102D2800040F04D0454A936843F4E0539360236842
:102D380013F0080F04D0414A936843F4604393604A
:102D48003E4A936823F0F003A1680B43936023681D
:102D580013F0010F32D06368012B21D09A1E012A8B
:102D680025D9364A126812F0020F61D033498A68B1
:102D780022F0030213438B60FEF772FA06462F4BCC
:102D88009B6803F00C036268B3EB820F16D0FEF762
:102D980067FA801B41F288339842F0D9032042E059
:102DA800264A126812F4003FE0D101203BE0234A92
:102DB800126812F0007FD9D1012034E01E4B1B6845
:102DC80003F00703AB4207D9EAB21B4B1A701B6822
:102DD80003F00703AB422DD1236813F0040F06D08C
:102DE800164A936823F4E053E1680B439360236821
:102DF80013F0080F07D0114A936823F46043216940
:102E080043EAC1039360FFF71DFF0C4B9B68C3F3B4
:102E180003130B4AD35CD8400A4B18600A4B186856
:102E2800FEF7D2F9002070BD012070470120FAE7B3
:102E38000120F8E70120F6E7003C02400038024094
:102E4800F44400081400002010000020014B18680A
:102E5800704700BF1400002008B5FFF7F7FF044BC8
:102E68009B68C3F38223034AD35CD84008BD00BFE4
:102E780000380240EC4400087047000008B5064BD3
:102E8800DB6813F0800F00D108BDFFF7F5FF024B98
:102E980080229A73F8E700BF003802402DE9F04716
:102EA80082B00546884617461E46FEF7D9F90A9BA2
:102EB8001B1A03EB0609FEF7D3F98246284B1B6859
:102EC800C3F3CB3309FB03F301932B689C6838EAFF
:102ED80004040CBF01230023BB423DD0B6F1FF3FE1
:102EE800F3D0FEF7BDF9A0EB0A00484503D2019BD9
:102EF80073BB9946E9E72A68536823F0E0035360F7
:102F08006B68B3F5827F0BD0AB6AB3F5005F14D062
:102F1800012385F85130002385F8503003201CE048
:102F2800AB68B3F5004F02D0B3F5806FECD12A68D7
:102F3800136823F040031360E6E72A68136823F454
:102F4800005313602A68136843F400531360DFE7E3
:102F5800019B013B0193B8E7002002B0BDE8F08770
:102F68001400002070B584B004460D461646009241
:102F78000B4601220221FFF791FFD0B9174B1B68BE
:102F8800174AA2FB03235B0D4FF47A7202FB03F38B
:102F980003936368B3F5827F11D0039B3BB1039B16
:102FA800013B039323689B6813F0800FF5D104B0AD
:102FB80070BD636D43F0200363650320F7E7009657
:102FC8002B46002280212046FFF768FF0028EED01C
:102FD800636D43F0200363650320E8E714000020D5
:102FE800819F5E1600285AD010B50446436A33B94B
:102FF8004368B3F5827F05D00023C36102E0002354
:10300800036143610023A36294F85130002B40D040
:10301800022384F851302268136823F040031360B8
:10302800636803F48273A26802F404421343E268FB
:1030380002F400621343226902F002021343626938
:1030480002F001021343A26902F400721343E26919
:1030580002F038021343226A02F080021343A26A84
:1030680002F40052216813430B60638B03F00403DE
:10307800626A02F01002216813434B602268D36928
:1030880023F40063D36100206065012384F8513084
:1030980010BD84F850302046FFF7FEFAB8E701204B
:1030A80070472DE9F04383B00446894690461D4693
:1030B800FEF7D6F894F85160F6B2012E40F0CC80B5
:1030C8000746B9F1000F00F0C880B8F1000F00F012
:1030D800C48094F85030012B00F0C380012384F899
:1030E8005030032384F8513000236365C4F83090CE
:1030F800A4F83480A4F83680A363A387E3876364C5
:103108002364A368B3F5004F1ED023681A6812F031
:10311800400F03D11A6842F040021A60E368B3F521
:10312800006F1CD0636813B1B8F1010F5FD1226B37
:10313800236812781A73236B01332363E38E9BB2DF
:10314800013B9BB2E38652E02268136823F04003F8
:1031580013602268136843F480431360D5E76368FB
:1031680013B1B8F1010F15D1226B23681288DA6008
:10317800236B02332363E38E9BB2013B9BB2E3864E
:1031880008E0FEF76DF8C01BA84202D3B5F1FF3F77
:1031980015D1A5B1E38E9BB2002B42D023689A6863
:1031A80012F0020FEDD0226B1288DA60236B023323
:1031B8002363E38E9BB2013B9BB2E386EAE70123DC
:1031C80084F85130002384F85030032645E0226B00
:1031D80012781A73236B01332363B4F836C01FFACD
:1031E8008CFC0CF1FF3C1FFA8CFCA4F836C0E38E73
:1031F8009BB2B3B123689A6812F0020FE7D1FEF7C9
:103208002FF8C01BA84202D3B5F1FF3F01D1002D12
:10321800EDD1012384F85130002384F8503003267F
:103228001BE03A4629462046FFF79CFE08B12023BA
:103238006365A36833B901932368DA6801929B68D0
:103248000193019B012384F85130002384F8503006
:10325800636D13B9002600E00226304603B0BDE8CE
:10326800F0830226F9E72DE9F04383B00446884647
:1032780091461F460A9DFDF7F3FF064694F8513024
:10328800DBB26268012B0AD0B2F5827F40F005817B
:10329800A268002A40F00581042B40F00481B8F1AF
:1032A800000F00F00281B9F1000F00F00081002F3B
:1032B80000F0FF8094F85030012B00F0FC800123CF
:1032C80084F8503094F85130DBB2042B02D0052337
:1032D80084F8513000236365C4F83890E787A787DE
:1032E800C4F83080E786A7862364636423681A6875
:1032F80012F0400F03D11A6842F040021A60E368E6
:10330800B3F5006F11D063680BB1012F0BD1226B9D
:10331800236812781A73236B01332363E38E9BB2FD
:10332800013B9BB2E386012771E063680BB1012F73
:103338000BD1226B23681288DA60236B0233236374
:10334800E38E9BB2013B9BB2E38601271BE0236817
:103358009A6812F0010F0ED0E28F92B25AB1DA6871
:10336800A36B1A80A36B0233A363E38F9BB2013B69
:103378009BB2E3870127FDF773FF801BA84202D3A6
:10338800B5F1FF3F1ED1E38E9BB21BB9E38F9BB211
:10339800002B62D023689A6812F0020FD7D0E28E11
:1033A80092B2002AD3D0002FD1D0226B1288DA60D3
:1033B800236B02332363E38E9BB2013B9BB2E3860C
:1033C8000027C4E7012384F85130002384F85030E3
:1033D800032063E023689A6812F0010F0ED0E28F91
:1033E80092B25AB1DA68A36B1A70A36B0133A36364
:1033F800E38F9BB2013B9BB2E3870127FDF730FFC8
:10340800831BAB4202D3B5F1FF3F1ED1EDB1E38E72
:103418009BB213B9E38F9BB2FBB123689A6812F091
:10342800020FD7D0E28E92B2002AD3D0002FD1D08B
:10343800226B12781A73236B01332363E38E9BB2DA
:10344800013B9BB2E3860027C4E7012384F851308F
:10345800002384F85030032020E0324629462046D5
:10346800FFF780FD90B9A36833B901932368DA6840
:1034780001929B680193019B012384F8513000233A
:1034880084F85030636D4BB1012007E02023636559
:10349800002384F85030012000E0022003B0BDE88A
:1034A800F0830220FAE70220F8E70120F6E701207E
:1034B800F4E70120F2E70220F0E790F851007047A6
:1034C80010B4036A046A24F001040462846924F0D5
:1034D800F00C4CEA021223F00A030B4382610362E8
:1034E8005DF8044B704710B4036A046A24F01004B2
:1034F8000462846924F4704C4CEA023223F0A0037D
:1035080043EA0113826103625DF8044B70478368E4
:1035180023F070030B4343F00703836070470000F8
:1035280090F83D30DBB2012B2FD1022380F83D30DB
:103538000268D36843F00103D3600368154A9342D5
:1035480018D0B3F1804F15D0A2F57C42934211D028
:1035580002F5806293420DD002F58062934209D051
:1035680002F59A32934205D01A6842F001021A60B5
:10357800002070479A6802F00702062A07D01A68E6
:1035880042F001021A6000207047012070470020B5
:10359800704700BF00000140704770477047704790
:1035A80070B504460368DE681D6915F0020F10D077
:1035B80016F0020F0DD06FF002021A610123037793
:1035C80003689B6913F0030F5ED0FFF7E6FF002343
:1035D800237715F0040F12D016F0040F0FD02368CC
:1035E8006FF004021A610223237723689B6913F49E
:1035F800407F4FD02046FFF7D0FF0023237715F0F8
:10360800080F12D016F0080F0FD023686FF00802C9
:103618001A61042323772368DB6913F0030F40D072
:103628002046FFF7BAFF0023237715F0100F12D0BA
:1036380016F0100F0FD023686FF010021A610823DC
:1036480023772368DB6913F4407F31D02046FFF7E6
:10365800A4FF0023237715F0010F02D016F0010F05
:103668002DD115F0800F02D016F0800F2FD115F054
:10367800400F02D016F0400F31D115F0200F02D0C4
:1036880016F0200F33D170BDFFF786FF2046FFF7F5
:1036980085FF9CE72046FFF77FFF2046FFF77EFF68
:1036A800ABE72046FFF778FF2046FFF777FFBAE73A
:1036B8002046FFF771FF2046FFF770FFC9E7236830
:1036C8006FF001021A612046FDF718F9C9E723686F
:1036D8006FF080021A61204600F01DF9C7E72368E1
:1036E8006FF040021A612046FFF759FFC5E72368CB
:1036F8006FF020021A61204600F00CF9C3E70000C1
:103708000368274A90420ED0B0F1804F0BD0A2F543
:103718007C42904207D002F58062904203D002F5C5
:103728008062904203D123F070034A6813431C4A15
:1037380090421AD0B0F1804F17D0A2F57C42904247
:1037480013D002F5806290420FD002F58062904259
:103758000BD002F59A32904207D002F5806290426F
:1037680003D002F58062904203D123F44073CA6803
:10377800134323F080034A6913438A68C2620A68C4
:103788008262074A904207D0026842F0040202604F
:1037980001224261036070470A690263F4E700BFCF
:1037A8000000014040B310B5044690F83D30F3B135
:1037B800022384F83D30214651F8040BFFF7A0FF9F
:1037C800012384F8463084F83E3084F83F3084F88A
:1037D800403084F8413084F8423084F8433084F82B
:1037E800443084F8453084F83D30002010BD80F81E
:1037F8003C30FEF7D1FFDBE70120704710B4846846
:1038080024F47F4C42EA03220A4342EA0C02826013
:103818005DF8044B704790F83C30012B78D010B518
:103828000446012380F83C30022380F83D300268CA
:10383800936823F47F4323F0770393600B68602B2E
:103848004CD023D8402B54D011D8202B03D00AD8E1
:103858000BB1102B05D119462068FFF758FE002040
:1038680028E0012026E0302BF5D0012022E0502B63
:103878000AD1CA6849680068FFF722FE502120680B
:10388800FFF745FE002015E0012013E0B3F5805F47
:103898003AD0B3F5005F14D0702B37D1CB684A68A3
:1038A80089680068FFF7AAFF2268936843F07703E6
:1038B80093600020012384F83D30002384F83C30D5
:1038C80010BDCB684A6889680068FFF797FF2268CF
:1038D800936843F4804393600020EBE7CA68496823
:1038E8000068FFF700FE60212068FFF710FE002047
:1038F800E0E7CA6849680068FFF7E2FD40212068F0
:10390800FFF705FE0020D5E70020D3E70120D1E727
:10391800022070477047704708B5FFF7AFFAFEE717
:10392800FEE7FEE7FEE7FEE770477047704708B519
:10393800FDF78AFC08BD08B50220FEF76BF908BD43
:1039480008B54FF40070FEF765F908BD08B50248E0
:10395800FFF726FE08BD00BF7402002008B5024824
:10396800FFF71EFE08BD00BF2C02002008B5024864
:10397800FFF716FE08BD00BFE401002008B54FF4AC
:103988008040FEF747F94FF40040FEF743F908BDC1
:1039980008B50248FDF756FF08BD00BFBC0200206D
:1039A800034AD2F8883043F47003C2F8883070476D
:1039B80000ED00E008B500F025F908BD08B500F0F5
:1039C800D7F908BD08B500F0DDF908BD08B500F065
:1039D8001FFA08BD08B500F073FA08BD00B587B036
:1039E8008DF80F003223009301230DF117020DF11A
:1039F8000F010448FFF737FC9DF8170007B05DF882
:103A080004FB00BF7403002070B50646FDF728FCD0
:103A18000546FF20FFF7E2FF0446FF2804D0FDF724
:103A28001FFC401BB042F4D3FF2C14BF0020012020
:103A380070BD70B506460D46002404E0FF20FFF770
:103A4800CDFF30550134AC42F8D370BD08B5012222
:103A580010210348FEF7CFF8FF20FFF7BFFF08BD8E
:103A68000000024010B5002210210948FEF7C3F8F3
:103A7800FF20FFF7B3FF4FF4FA70FFF7C5FF10B14F
:103A88000124204610BD0446FFF7E0FFF9E700BF18
:103A98000000024038B504460D4610F0800F1DD1D5
:103AA8000C2C04D0FFF7D2FFFFF7DCFFB0B344F0D3
:103AB8004000FFF793FF280EFFF790FFC5F307407C
:103AC800FFF78CFFC5F30720FFF788FFE8B2FFF781
:103AD80085FF64B1082C1BD0012009E000F07F04A9
:103AE80000213720FFF7D6FF0128D9D90FE095200C
:103AF800FFF774FF0C2C0DD00A24FF20FFF76EFF90
:103B080010F0800F03D0631E13F0FF04F5D138BD09
:103B18008720EDE7FF20FFF761FFEDE7FF20F6E7DD
:103B280008B54FF0FF338AB201460248FFF7B9FAE9
:103B380008BD00BF7403002038B505460C464FF495
:103B4800FA70FFF761FF00B938BD2046FFF746FF5E
:103B5800FD2C01D10120F7E74FF400712846FFF74B
:103B6800DFFFFF20FFF73AFFFF20FFF737FFFF20B7
:103B7800FFF734FF00F01F00052801D10120E3E71B
:103B88000020E1E710B50446FDF76AFB024B186018
:103B9800024B1C6010BD00BF2C0900202809002022
:103BA80008B5FDF75DFB054B1B68C01A044B1B6885
:103BB80098422CBF0020012008BD00BF2C0900201E
:103BC8002809002070B505460E46C820FFF7DAFF21
:103BD800FF20FFF703FF0446FF2803D1FFF7E0FFAC
:103BE8000028F5D1FE2C01D0002070BD31462846B2
:103BF800FFF71FFFFF20FFF7F1FEFF20FFF7EEFEA4
:103C08000120F2E7002840F0AB80564B1B7813F0F8
:103C1800020F09D170B582B0534B1A68136843F08C
:103C2800380313600A2408E04E4B1878C0B2704776
:103C3800FF20FFF7D3FE013CE4B2002CF8D10021AD
:103C48000846FFF727FF0546012817D0474B1C7089
:103C5800FFF7FCFE002C7FD0434B1A68136823F053
:103C6800380343F0100313603E4A137803F0FE0351
:103C780013703C4B1878C0B202B070BD4FF47A7024
:103C8800FFF780FF4FF4D5710820FFF703FF0128E5
:103C98003ED1254609E0FF20FFF7A0FE05F1080305
:103CA8006B4403F8040C0135EDB2032DF3D99DF8EC
:103CB8000630012BCAD19DF80730AA2BC6D1FFF7D1
:103CC8006FFF30B14FF08041A920FFF7E3FE0028D5
:103CD800F5D1FFF765FF08B90446B7E700213A2098
:103CE800FFF7D8FE054650B1B0E7FF20FFF776FE94
:103CF80005F108036B4403F8040C0135EDB2032DFC
:103D0800F3D99DF8043013F0400F23D00C249DE71D
:103D18000021A920FFF7BEFE01280ED92E46FFF785
:103D28003FFF28B100212846FFF7B4FE0028F6D14E
:103D3800FFF736FF20B9044688E70226A925EEE7F3
:103D48004FF400711020FFF7A5FE00287FF47EAF26
:103D580034467BE7042479E7024B01221A7088E78E
:103D6800012070472C000020740300203009002037
:103D780018B9034B1878C0B270470120704700BFCC
:103D88002C000020002839D138B50D461C46002BE0
:103D980036D01D4B1B7813F0010F33D11B4B1B780A
:103DA80013F0080F00D15202012C18D0114612202E
:103DB800FFF770FE68B94FF400712846FFF702FF5D
:103DC80018B105F50075013CF5D100210C20FFF76D
:103DD80061FEFFF73BFE201E18BF012038BD1146CB
:103DE8001120FFF757FE0028F3D14FF40071284641
:103DF800FFF7E8FE0028ECD00024EAE7042070472B
:103E08000420EBE70320E9E72C000020300900201C
:103E1800002848D170B50D4616461C46002B44D0E4
:103E2800254B1B7813F0010F41D1234B1B7813F05E
:103E3800040F3ED1214B1B7813F0080F00D1560216
:103E4800012C1BD013F0060F26D131461920FFF79D
:103E580021FE68B9FC212846FFF76EFE18B105F56A
:103E68000075013CF6D1FD210020FFF765FEC0B1C9
:103E7800FFF7ECFD201E18BF012070BD3146182049
:103E8800FFF708FE0028F3D1FE212846FFF754FE6D
:103E98000028EDD00024EBE721469720FFF7FAFD34
:103EA800D3E70124E4E7042070470420E5E7032072
:103EB800E3E70220E1E700BF2C00002030090020E2
:103EC80070B584B0002840F004810D461646834B37
:103ED8001B7813F0010F40F0FE80042900F2ED80FA
:103EE800DFE811F005000C00EB005400AF00FFF70D
:103EF800B9FD002840F0E380012406E000210920F4
:103F0800FFF7C8FD044628B12C46FFF79FFD204661
:103F180004B070BD10216846FFF754FE002800F079
:103F2800D0809DF800309B09012B1FD09DF80520FB
:103F380002F00F029DF80A3002EBD3129DF8093007
:103F48005B0003F006031A449DF808109DF807303B
:103F58009B0003EB91139DF80610890201F4406160
:103F68000B440133073A93403360CEE79DF809309C
:103F78009DF8082003EB02239DF80720120402F4A1
:103F88007C12134401339B023360BEE7544B1B7809
:103F980013F0040F20D000218D20FFF77BFD08B11E
:103FA8000124B2E7FF20FFF719FD10216846FFF74B
:103FB80009FE78B90124A8E7FF20FFF70FFD013CAF
:103FC800E4B2002CF8D19DF80A201209102393407E
:103FD80033609AE73024F4E700210920FFF75AFDFF
:103FE800054608B1012490E710216846FFF7EAFD6D
:103FF800002868D03A4B1C7814F0020411D09DF8C0
:104008000A305B0003F07E039DF80B2003EBD2130C
:1040180001339DF80D209209013A934033602C46F4
:1040280073E79DF80A20C2F384029DF80B10CB00B9
:1040380003F0180303EB5113013302FB033333601E
:1040480063E7274B1B7813F0060F01D101245CE7C7
:104058006A460B21FFF734FFB8BB9DF800309B0977
:1040680004D19DF80A3013F0400F30D031687468DD
:104078001B4B1B7813F0080F01D149026402202062
:10408800FFF708FD08B101243FE721462120FFF78B
:1040980001FD08B1012438E700212620FFF7FAFCCA
:1040A800044608B1012430E747F23050FFF7ACFC72
:1040B80000287FF42AAF012427E7042425E72C46AB
:1040C80023E72C4621E701241FE701241DE70124EB
:1040D8001BE704241BE7032419E700BF2C0000207A
:1040E80030090020DFF834D0FFF75AFC0C480D499E
:1040F8000D4A002302E0D458C4500433C4188C423B
:10410800F9D30A4A0A4C002301E013600432A242A0
:10411800FBD300F02BF8FCF7D3FE7047008001209A
:104128000000002030000020144500083000002066
:1041380034090020FEE702440346934200D1704749
:1041480003F8011BF9E710B56AB10139841810F8B2
:10415800012B11F8013F9A4203D1A04201D0002A55
:10416800F5D1D01A10BD1046FCE7000070B50D4D12
:104178000D4C641BA4100026A64209D10B4D0C4C13
:1041880000F084F9641BA4100026A64205D170BD76
:1041980055F8043B98470136EEE755F8043B984735
:1041A8000136F2E70C4500080C4500080C450008EC
:1041B800104500080A44914200F1FF3300D17047CE
:1041C80010B511F8014B03F8014F9142F9D110BD18
:1041D8002DE9F047089D0E4604460F46002B4AD1AC
:1041E80094468C45B2FA82F260D942B1C2F12003FA
:1041F800974020FA03F30CFA02FC1F4394404FEA5D
:104208001C4E1FFA8CF6B7FBFEF1230C0EFB117740
:1042180043EA074301FB06F098420AD91CEB030363
:1042280001F1FF3780F01581984240F2128102397E
:1042380063441B1AA4B2B3FBFEF00EFB103344EA2E
:10424800034400FB06F6A6420AD91CEB040400F15D
:10425800FF3380F00081A64240F2FD8064440238BA
:1042680040EA0140A41B00211DB1D4400023C5E948
:104278000043BDE8F0878B4205D90DB1C5E90001BF
:1042880000210846F5E7B3FA83F1002946D1B34285
:1042980002D3824200F2F580841A66EB0302012001
:1042A8001746002DE5D0C5E90047E2E7002A40F0AF
:1042B8009380A1EB0C034FEA1C471FFA8CFE0121E7
:1042C800B3FBF7F607FB1630230C43EA00430EFB5B
:1042D80006F0984208D91CEB030306F1FF3802D216
:1042E800984200F2D08046461B1AA4B2B3FBF7F0FE
:1042F80007FB103344EA03440EFB00FEA64508D929
:104308001CEB040400F1FF3302D2A64500F2B6808C
:104318001846A4EB0E0440EA0640A5E7C1F12007C1
:104328008B4022FA07FC4CEA030C06FA01FE20FA3D
:1043380007F426FA07F344EA0E0400FA01F84FEAF4
:104348001C404FEA1449B3FBF0FE1FFA8CF600FB41
:104358001E3349EA03430EFB06F9994502FA01F2B6
:104368000BD91CEB03030EF1FF3A80F085809945C9
:1043780040F28280AEF1020E6344A3EB0909A4B2B5
:10438800B9FBF0F300FB139944EA094403FB06F672
:10439800A64208D91CEB040403F1FF3068D2A642F8
:1043A80066D9023B644443EA0E40A41BA0FB02E624
:1043B800B4427346B14652D34FD05DB1B8EB030255
:1043C80064EB090404FA07F722FA01F31F43CC400F
:1043D800C5E9007400214CE7C2F1200120FA01F37D
:1043E8000CFA02FC26FA01F1964033434FEA1C47C7
:1043F8001FFA8CFEB1FBF7F007FB1016190C41EA07
:10440800064100FB0EF68E4204FA02F408D91CEBB2
:10441800010100F1FF382DD28E422BD902386144B8
:10442800891B9BB2B1FBF7F607FB161143EA014360
:1044380006FB0EF1994208D91CEB030306F1FF387D
:1044480014D2994212D9023E63445B1A46EA0041EB
:1044580036E73946EDE6184602E7F045ADD2BEEB41
:10446800020366EB0C060138B146A6E74646ECE7C0
:10447800034698E74046D3E7D6467EE764440238C9
:1044880047E708460DE7023E63442DE7F8B500BF4D
:10449800F8BC08BC9E467047F8B500BFF8BC08BC1D
:0444A8009E46704775
:1044AC0001000000010203040001020304050607D9
:1044BC0008090000060708090A0B0C00FFFCF9F6B6
:1044CC00434D443A53594E430000000053796E63F8
:1044DC005F41434B0000000000061016000610164A
:1044EC0000000000010203040000000000000000B6
:0844FC00010203040607080990
:0845040094BCFF7F01000000E0
:04450C0001020008A0
:04451000DD010008C1
:10451400E40100201C0300208004002001000000AE
:10452400100000000024F400BD390008C53900085B
:10453400CD390008D5390008DD3900080100000034
:04000005080040EDC2
:00000001FF
