:020000040800F2
:10000000008001204D5800088150000889500008E8
:100010008B5000088D5000088F5000080000000031
:1000200000000000000000000000000091500008E7
:1000300093500008000000009550000897500008F9
:100040009D5800089D5800089D5800089D580008BC
:100050009D5800089D5800089D5800089F500008B2
:100060009D5800089D5800089D5800089D5800089C
:100070009D5800089D5800089D5800089D5800088C
:100080009D5800089D5800089D5800080000000079
:10009000000000000000000000000000A95000085F
:1000A000B5500008C5500008D55000089D580008FC
:1000B0009D5800089D5800089D5800089D5800084C
:1000C0009D5800089D5800089D5800089D5800083C
:1000D0009D5800089D5800089D5800080000000029
:1000E000E55000089D5800089D58000800000000D9
:1000F0000000000000000000000000009D58000803
:10010000000000009D5800089D5800089D580008F8
:1001100000000000000000000000000000000000DF
:10012000F95000089D5800089D5800089D58000887
:100130009D580008000000000000000000000000C2
:100140000000000000000000000000009D580008B2
:100150009D5800089D5800089D5800089D580008AB
:100160009D5800089D580008000000000000000095
:10017000000000000000000000000000000000007F
:10018000000000009D580008000000000000000072
:040190009D5800086E
:1001940053B94AB9002908BF00281CBF4FF0FF31EA
:1001A4004FF0FF3000F00CB8ADF1080C6DE904CE4F
:1001B40005F0C0FBDDF804E0DDE9022304B070477C
:1001C400704700BF10B5054C237833B9044B13B105
:1001D4000448AFF300800123237010BD30000020D9
:1001E40000000000F45B000808B5034B1BB1034991
:1001F4000348AFF3008008BD000000003400002075
:10020400F45B000838B50446006800F07EF8206806
:1002140000F092F805460121206800F06CF82846A9
:1002240038BD70B504460E4615460021006800F03E
:1002340062F846F08001206800F067F829462068DB
:1002440000F063F80121206800F055F870BD012B1F
:100254001BD9F8B505460C4617461E460021006812
:1002640000F049F82146286800F04FF8002405E022
:10027400286800F061F838550134E4B2B442F7D389
:100284000121286800F037F8F8BD704708B5FF224F
:100294001221FFF7C6FF08BD70B50446006800F0E0
:1002A40069F810B994F8170170BD04F117064FF4FA
:1002B40080720021304605F0F0FA10212046FFF745
:1002C400A1FF02460D212046FFF7ABFF637C63B913
:1002D400657D2B46324600212046FFF7B8FF84F89F
:1002E40017512046FFF7D2FFDCE713212046FFF722
:1002F40089FF0546EDE708B5012914BF0022012254
:10030400018A406903F029F808BD10B582B004469B
:100314008DF807100021FFF7EEFF4FF47A730122E6
:100324000DF10701A06904F06EFAA06904F077FCEE
:100334000128FAD102B010BD10B584B004460021E2
:100344008DF80F108DF80E10FFF7D5FF4FF47A7368
:10035400009301230DF10E020DF10F01A06904F0C9
:1003640034FBA06904F05BFC0128FAD19DF80E006F
:1003740004B010BD08B50189C06802F0E7FF012888
:1003840014BF0020012008BD7F2817D931B1FF28F0
:1003940013D880380A4B33F81000704700237F2BA2
:1003A40007D8074A32F81320824202D001339BB2A5
:1003B400F5E703F18000C0B270470020704700BF2A
:1003C400BC5E0008B0F5805F07D2234B1A88002A70
:1003D40041D090423FD310B506E0204BF6E7734678
:1003E4001A88DAB1904219D303F1040E5B88190A12
:1003F400DBB203EB020C604504DB0029EFD10EEB0A
:100404004303EDE7082909D8DFE801F005090F12D5
:1004140015181B1E2100841A3EF8140010BD831AFF
:1004240003F00103C01A80B2F8E7103880B2F5E790
:10043400203880B2F2E7303880B2EFE71A3880B261
:10044400ECE7083080B2E9E7503880B2E6E7A0F57F
:10045400E35080B2E2E77047C85C00080C5C000817
:1004640008B5044B03EB8002526852680344187ABF
:10047400904708BD7C020020094B1B5C73B910B582
:100484000446074B03EB8002526812680344187A4F
:10049400904710B9024B01221A5510BD0020704735
:1004A4007C02002038B5044C04EB80056D68AD680F
:1004B4000444207AA84738BD7C02002038B5044C97
:1004C40004EB80056D68ED680444207AA84738BDC4
:1004D4007C02002010B5044B03EB8004646824699B
:1004E4000344187AA04710BD7C02002008B50349D4
:1004F400034801F0BBFC034B187008BD4C000020FE
:100504001800002050000020002070474278007836
:1005140040EA02207047C378827842EA0322437893
:1005240043EA0223007840EA032070470170090A75
:10053400417070470170C1F307234370C1F307434F
:100544008370090EC1707047944632B10A78013144
:1005540002700130BCF1010CF8D170470170013018
:10056400013AFBD1704784469CF800000CF1010C61
:100574000B780131C01A013A01D00028F4D0704739
:10058400034600E00133187808B18842FAD1704775
:1005940030B400252B4601E001250133012B15D889
:1005A4001A01174CA258002AF6D00468A242F4D1CA
:1005B400134A02EB0312546882689442EDD1104A44
:1005C40002EB0312946842699442E6D1022B0AD0EA
:1005D400A1B90B4A02EB03139B89B3F5807F0BD0BF
:1005E400002030BC70472DB9022901D01220F8E751
:1005F4000020F6E70020F4E71020F2E71020F0E7EF
:1006040054020020002000E00130012804D8030136
:10061400034AD358002BF7D1023818BF0120704782
:100624005402002070B4002300E00133012B13D8DE
:100634001A01234CA45802689442F6D1204A02EBD2
:100644000312546882689442EFD11D4A02EB0312EC
:10065400946842699442E8D1022B08D0F9B1184A4F
:1006640002EB031292894ABB4FF480721DE000230F
:10067400012B05D81A01124CA2580AB10133F7E72D
:10068400022B19D00E4D1C0105EB031206682E51E6
:10069400846854604069906000209081DEE7084AD5
:1006A40002EB03129289013292B2054901EB031164
:1006B4008A81581C70BC70470020FBE70020F9E7D2
:1006C400540200200138012815D80D4B03EB001308
:1006D4009B89B3F5807F03D043B1013B9BB200E01B
:1006E4000023074A02EB0012938133B9030100206F
:1006F400034AD0507047022070470020704700BF63
:1007040054020020002303E05DF8044B70470133DA
:10071400012B11D81A0109498A588242F7D110B421
:100724001A0100248C500133012BEDD81A0103491E
:100734008A588242F7D1F3E7704700BF5402002081
:1007440002398369023B8B4204D94389C06A01FBA5
:1007540003007047002070470268C36A0433490AE3
:100764005289B1FBF2F101E0091A0833186818B193
:100774008142F9D258680844704770B506460D4660
:1007840001F11A00FFF7C2FE3378032B00D070BDCD
:10079400044605F11400FFF7B9FE44EA0040F6E709
:1007A40070B506460C46154691B204F11A00FFF7DF
:1007B400BDFE3378032B00D070BD290C04F1140066
:1007C400FFF7B4FEF8E700002DE9F84380460F4632
:1007D40091464B730F23CB7200240C73214607F10F
:1007E4001A00FFF7A3FE09F1FF3606EB460306EBFA
:1007F4008306254602E001340C2C11D84FF6FF7312
:100804009D4202D038F8165001360C4B185D29462B
:100814003844FFF78BFE002DEDD14FF6FF75EAE764
:100824004FF6FF739D4202D038F816300BB949F0E9
:10083400400987F80090BDE8F88300BF34600008E1
:1008440070B582B0054616461C460B22FFF77CFEA7
:10085400052C11D807231FE001310F290CD803F010
:10086400010C0CEB44045B0814F4803FF4D084F4D2
:10087400883484F02104EFE73388002BEAD0023671
:100884000021EAE75A1E08336B4403F8081C2109C7
:100894000F2C0AD913460C4604F00F0202F1300162
:1008A4003929EFD902F13701ECE77E2102F108037F
:1008B4006B4403F8081C002300E00133934209D27F
:1008C400E95C2029F9D105E02020591CE8540729C6
:1008D40009D80B46072AF7D802F10801694411F830
:1008E400080C0132F1E702B070BD01464FF00B0C69
:1008F4000020C30143EA50030A78013152FA83F31A
:10090400D8B2BCF1010CF4D170470146006838B18B
:10091400024613781F2B06D93A2B04D00132F8E78C
:100924004FF0FF3070473A2B01D00020704710B4CD
:10093400034613F8010B3038092808D89A4202D02C
:100944004FF0FF3005E038B901320A6001E04FF0A2
:10095400FF305DF8044B70474FF0FF30F9E738B5CE
:100964000D46044698B103689BB11A78A2B18188F8
:10097400DA88914203D0092000242C6038BD5878CD
:10098400FFF76EFD10F0010009D12468F5E7092096
:10099400F3E71C460920F0E709200024EDE70920CD
:1009A4000024EAE72DE9F041C57815B92846BDE8E9
:1009B400F0810446076B00F1340801233A464146AE
:1009C4004078FFF77BFD0546A0B90023E370636A16
:1009D400FB1AE2699342E9D2A67808E0E3691F446E
:1009E40001233A4641466078FFF768FD013E012E37
:1009F400F4D8DBE70125D9E770B5036B8B4202D14C
:100A04000026304670BD04460D46FFF7CBFF064670
:100A14000028F6D101232A4604F134016078FFF757
:100A240041FD10B101264FF0FF352563E9E70000D1
:100A340038B504460023C3704FF0FF330363FFF758
:100A4400DBFF30BB054604F23220FFF75FFD4AF6B8
:100A5400552398421FD194F83430E92B07D0636BA7
:100A640003F0FF130D4A934201D0022514E004F170
:100A74006A00FFF750FD20F07F40094B98420BD0ED
:100A840004F18600FFF747FD064B984204D0022587
:100A940002E0042500E00325284638BDEB00900061
:100AA40046415400464154332DE9F04F85B00D467C
:100AB400164600230B60FFF728FF071EC0F246818D
:100AC400B64B53F82740002C00F045812C6006F00B
:100AD400FE06237873B16078FFF7C2FC10F00105BD
:100AE40008D1002E00F0338110F0040F00F02F81A4
:100AF4000A252CE100232370F8B26070FFF7BCFCD8
:100B040010F0010540F029811EB110F0040F40F0EF
:100B1400268100212046FFF78BFF02287ED0002784
:100B2400042800F01E81012800F21D8104F13F0019
:100B3400FFF7ECFCB0F5007F40F0178104F14A00A8
:100B4400FFF7E4FC064620B904F15800FFF7E3FC84
:100B54000646E66194F84420A270531EDBB2012BD2
:100B640000F2058106FB02F894F84190A4F80A907B
:100B7400B9F1000F00F0FD8009F1FF3319EA030F0A
:100B840040F0F98004F14500FFF7C0FC8246208163
:100B940010F00F0F40F0F18004F14700FFF7B6FCAE
:100BA400834620B904F15400FFF7B5FC834604F1F1
:100BB4004200FFF7ABFC0246002800F0E08000EBA7
:100BC400080303EB1A139B45C0F0DB80ABEB030B6C
:100BD400BBFBF9F1CB45C0F0D6804FF6F5708142EE
:100BE40034D840F6F57081426AD94FF0020B2FE0F9
:100BF400002004AB03EB860343F8100C0136032EEC
:100C04000ED804F13400330103F5DF73184403797B
:100C1400002BEDD00830FFF77EFCEAE70026EEE774
:100C240000260AE039462046FFF702FF01287FF636
:100C340077AF0136032E3FF673AF04AB03EB8603A5
:100C440053F8107C002FEDD10320F2E74FF0030B93
:100C540001F10209C4F8189027623A4462623B44E5
:100C6400E362BBF1030F2ED0BAF1000F00F09180C4
:100C74004244A262BBF1020F36D009EB490309F0EA
:100C8400010909EB530909F2FF19B6EB592FC0F01A
:100C940082804FF0FF336361236180232371BBF1B2
:100CA400030F24D084F800B03D4A138801339BB26B
:100CB4001380E3803B4BE3602046FFF723FD46E0CF
:100CC4004FF0010BC4E704F15E00FFF71FFC00289E
:100CD4005BD1BAF1000F5AD104F16000FFF71BFC9D
:100CE400A0624FEA8909CEE74FEA4909CBE704F14C
:100CF4006400FFF70BFC0128D4D1791C2046FFF7D0
:100D04007BFE0028CED10023237104F23220FFF7AA
:100D1400FDFB4AF655239842C4D104F13400FFF791
:100D2400FAFB214B9842BDD104F50670FFF7F3FBA3
:100D34001E4B9842B6D104F50770FFF7ECFB6061D7
:100D440004F50870FFF7E7FB2061ABE70B252846A5
:100D540005B0BDE8F08F0C25F9E70325F7E70A2570
:100D6400F5E70125F3E70D25F1E70D25EFE70D255F
:100D7400EDE70D25EBE70D25E9E70D25E7E70D2563
:100D8400E5E70D25E3E70D25E1E70D25DFE70D2573
:100D9400DDE70D25DBE70D25D9E700BF780200204C
:100DA4007402002054000020525261417272416169
:100DB4002DE9F047012975D907460C461646836983
:100DC4008B4273D90378022B3ED0032B4FD0012BD7
:100DD4006ED101EB5108416A01EB5821FFF70CFE7B
:100DE400054600285FD107F1340A08F10109C8F368
:100DF400080814F001041DD01AF8083003F00F039A
:100E040043EA0613DBB20AF808300123FB70796A5F
:100E140001EB59213846FFF7EFFD0546002842D182
:100E2400C9F3080944B1C6F307130AF809300123CA
:100E3400FB7038E0F3B2E6E71AF80930C6F3032290
:100E440023F00F031343F0E7416A01EB1421FFF78A
:100E5400D3FD054638BB07F13400640004F4FF7485
:100E6400B1B22044FFF762FB0123FB701BE0416A2F
:100E740001EBD411FFF7C0FD0546A0B926F070467A
:100E840007F13403A40004F4FE741C442046FFF765
:100E940042FB00F0704131432046FFF74BFB012336
:100EA400FB7000E002252846BDE8F0870225FAE73A
:100EB4000225F8E7F8B50568012954D90C46AB6951
:100EC4008B4252D92B78022B2BD0032B39D0012BF8
:100ED4004DD101EB5106696A01EB56212846FFF713
:100EE4008BFD10B14FF0FF303EE0771CC6F30806CF
:100EF4002E4496F83460696A01EB57212846FFF7BF
:100F04007BFDB0BBC7F308072F4497F8343046EA9B
:100F1400032014F0010F01D0000925E0C0F30B00F9
:100F240022E0696A01EB14212846FFF765FD18BB2E
:100F340005F13400640004F4FF742044FFF7E6FA7A
:100F440012E0696A01EBD4112846FFF755FDB0B9E8
:100F540005F13400A40004F4FE742044FFF7DBFA26
:100F640020F0704000E00120F8BD0120FCE70120E2
:100F7400FAE74FF0FF30F7E74FF0FF30F4E74FF0B8
:100F8400FF30F1E72DE9F041D0F80080B1F5001F02
:100F94003FD207460E4611F01F0F3DD141618468D0
:100FA400E4B998F80030022B01D9D8F82840ACB93C
:100FB400B8F80830B3EB561F30D9D8F82830FB61A5
:100FC400BC61FB6993B303EB5623FB6108F134085E
:100FD400C6F308014144396200201BE0B8F80A5006
:100FE4006D02AE420FD321463846FFF763FF044635
:100FF400B0F1FF3F14D0012814D9D8F81830834237
:1010040012D9761BEDE721464046FFF799FBF861BC
:10101400D6E70220BDE8F0810220FBE70220F9E7D1
:101024000120F7E70220F5E70220F3E70220F1E7C9
:101034002DE9F041054606680F4651B9D6F81080EF
:10104400B8F1000F12D0B369434511D84FF001082D
:101054000EE0FFF72FFF0346012847D9B0F1FF3F09
:1010640049D0B269824246D8B84601E04FF001083F
:1010740044460CE021462846FFF71CFF034678B19E
:10108400012838D0B0F1FF3F35D0444532D0013487
:10109400B369A342EED8B8F1010F29D90224E9E7D4
:1010A4004FF0FF3221463046FFF782FE0346B0B9C7
:1010B40077B9A3B934617269B369023B9A4201D822
:1010C400013A7261337943F001033371234612E02C
:1010D400224639463046FFF76BFE0346E9E7012B0B
:1010E40001D0012307E04FF0FF3304E0012302E0C5
:1010F400002300E000231846BDE8F081F8B50C4653
:10110400056801292ED906461146AB69A3422BD99D
:101114004AB14FF0FF322846FFF74AFE074610B1A6
:1011240023E0A24221D9274621463046FFF7C2FEDA
:101134000446E0B101281CD0B0F1FF3F1BD00022CF
:1011440039462846FFF734FE074670B96B69AA6929
:10115400911E8B42E5D201336B612B7943F001037D
:101164002B71DEE7022700E002273846F8BD00278E
:10117400FBE70227F9E70127F7E72DE9F0470668BF
:101184004569C369002B6CD0044688462035B5F503
:10119400001F68D2C5F308073FB90133C3618169F1
:1011A40079B93389B3EB551F07D9656106F1340367
:1011B4003B4423620020BDE8F0870023C361042080
:1011C400F9E77389013B13EA5529EED1FFF772FE63
:1011D4008246012849D9B0F1FF3F48D0B369834220
:1011E40037D8B8F1000F11D0A1692046FFF720FFCE
:1011F400824600283DD001283DD0B0F1FF3F3CD0CD
:101204003046FFF7CFFB28B10120D4E70023E36188
:101214000420D0E74FF40072002106F13400FFF7F8
:101224009DF951463046FFF78BFA3063738999452F
:101234000BD20123F3703046FFF7B4FBF8B909F180
:101244000109336B01333363F0E7336BA3EB090319
:101254003363C4F818A051463046FFF771FAE061D1
:10126400A3E70420A7E70420A5E70220A3E70120C1
:10127400A1E707209FE702209DE701209BE70120CB
:1012840099E7F8B504460E4607680021FFF77AFE91
:101294000246C0B9002508E00135B54213D001214A
:1012A4002046FFF76AFF024668B9E1693846FFF74E
:1012B400A3FB024638B9236A1B78E52BECD0002B3C
:1012C400EAD00025EBE7042A01D01046F8BD072236
:1012D400FBE700002DE9F04F83B007468A46D1F8BA
:1012E40000900368DD680024234612E0013619F8F3
:1012F40006302F2BFAD05C2BF8D04E44CAF800608D
:101304001F2823D84FF0040824E025F81480013462
:1013140033465E1C19F803001F28EED92F28E6D0A7
:101324005C28E4D0FE2C00F2DF800121FFF72CF8CA
:101334008046002800F0DA807F28E6D801466D4810
:10134400FFF71EF90028E0D0062085E04FF00008E2
:1013540000E0013C44B104F10043013B35F8133093
:10136400202BF6D02E2BF4D0002325F81430002C9B
:1013740000F0BE800B22202107F12400FFF7EEF8D5
:10138400002300E0013335F81320202AFAD02E2A56
:10139400F8D01BB148F0030800E0013C6CB104F143
:1013A4000042013A35F812202E2AF6D14FF0080BEC
:1013B4004FF0000ACDF804A00AE0A2464FF0080B53
:1013C4000022019204E04C450BD048F003084B4640
:1013D40003F1010935F81360FEB1202EF5D02E2E4D
:1013E400F1D0DA4510D24C450ED07F2E44D8002ED1
:1013F4004FD148F003085F2607EB0A0383F8246003
:101404004B460AF1010AE3E7BBF10B0F27D04C4529
:1014140001D048F003084C4524D297F82430E52B3A
:1014240053D0BBF1080F54D0019B03F00C020C2ADB
:1014340003D003F00303032B01D148F0020818F092
:10144400020F06D1019B03F00303012B46D0042AAB
:1014540047D087F82F80002003B0BDE8F08F48F014
:101464000308DAE7019B9B00DBB2019323464FF0AC
:101474000B0B4FF0080AABE700213046FEF784FF60
:10148400064618B1A0F180061B4B9E5D48F0020889
:10149400ADE731461948FFF773F80028A9D1A6F142
:1014A40041039BB2192B04D8019B43F0020301931F
:1014B400A2E7A6F161039BB2192B9DD8019B43F0CF
:1014C40001030193203EB6B296E7052387F8243042
:1014D400A7E7019B9B00DBB20193A5E748F0100846
:1014E400B5E748F00808B4E70620B5E70620B3E7F7
:1014F4000620B1E7BC5F000844600008C85F00082C
:101504002DE9F04781460F4601F11A00FEF7FEFF70
:10151400C8BB3E7806F03F06013E06EB460306EBE9
:1015240083064FF00108002506E000202CE04FF66A
:10153400FF7398422AD101350C2D18D8174B585DEA
:101544003844FEF7E3FF0446B8F1000FEFD0FE2E57
:10155400EBD8FEF737FF804606F1010A39F816008A
:10156400FEF730FF8045E0D1A0465646E3E73B78DE
:1015740013F0400F0CD0B8F1000F0BD039F816302F
:1015840053B9012000E00020BDE8F0870020FBE70C
:101594000120F9E70120F7E70020F5E734600008AF
:1015A4002DE9F8430446D0F800800021FFF7EAFC57
:1015B4000646002864D14FF0FF3323634FF0FF0940
:1015C4004F460AE04FF0FF332363FF2700212046F4
:1015D400FFF7D3FD0646002852D1E1694046FFF7E4
:1015E4000BFA064600284BD1256A2B78002B46D0EF
:1015F400EA7A02F03F01A171E52BE3D012F0080F63
:1016040014D00F29DED194F82F2012F0400FDDD131
:1016140013F0400F06D095F80D9003F0BF036269F4
:1016240022631F46BB421AD0FF27CFE70F29EAD017
:1016340027B92846FFF759F9484521D094F82F30A7
:1016440013F0010F06D10B2204F124012846FEF702
:101654008AFFA8B14FF0FF332363FF27B6E76B7B04
:101664004B4501D0FF27B1E72946D8F80C00FFF716
:1016740047FF10B1013FFFB2A8E7FF27A6E7042602
:101684003046BDE8F88330B583B00446019105685F
:1016940001E001330193019B1A782F2AF9D05C2AC7
:1016A400F7D00022A2601B781F2B1ED901A9204667
:1016B400FFF710FE034600BB2046FFF771FF94F8C6
:1016C4002F200346E0B912F0040F16D1A37913F0CA
:1016D400100F1CD005F134016369C3F308031944E6
:1016E4002846FFF74AF8A060E0E7802384F82F300B
:1016F40011462046FFF746FC0346184603B030BDAA
:101704000428FAD112F0040FF7D10523F5E70523D5
:10171400F3E700002DE9F04385B0066890F82F3018
:1017240013F0A00F40F08A800746002400E0013443
:10173400F36833F81430002BF9D107F124080C2294
:10174400414601A8FEF700FF9DF80F3013F0010F8A
:101754001CD0402387F82F30012500E00135632D8C
:101764000BD82B46F26801A94046FFF769F83846C2
:10177400FFF716FF81460028F0D0642D64D0B9F13C
:10178400040F5DD19DF80F3087F82F309DF80F308E
:1017940013F0020F06D00C342D4BA3FB0434A40821
:1017A400013400E0012421463846FFF76AFD8146F2
:1017B400002845D1013C1CD1B9F1000F40D1F96991
:1017C4003046FFF719F98146002839D1202200213B
:1017D400386AFEF7C3FE0B224146386AFEF7B4FEB0
:1017E40097F82F303A6A03F0180313730123F37048
:1017F40026E07969A1EB44113846FFF7C3FB814623
:10180400F0B94046FFF771F80546F9693046FFF72D
:10181400F3F881460028CFD12B46E2B2396AF0684A
:10182400FEF7D2FF0123F37000213846FFF7A5FC31
:1018340081460028C0D1013CE7D1BDE74FF006093D
:10184400484605B0BDE8F0834FF00709F8E700BF4C
:101854004FECC44E70B50446FFF7A4F8054648B9EA
:101864002378032B08D0002211466078FEF732FE5D
:1018740000B10125284670BD2379012BF3D104F171
:1018840034064FF4007200213046FEF767FE4AF634
:10189400552104F23220FEF749FE0F493046FEF787
:1018A40049FE0E4904F50670FEF744FE616904F52D
:1018B4000770FEF73FFE216904F50870FEF73AFE53
:1018C400226A01322263012331466078FEF7F6FD75
:1018D40000232371C7E700BF525261417272416114
:1018E40070B584B0019000911646039103A8FFF7E8
:1018F4000CF8041E1CDB104B53F8245025B1284669
:10190400FEF700FF00232B70019B0BB100221A701D
:10191400019B094A42F8243063B1012E02D0002011
:1019240004B070BD002201A96846FFF7BDF8F7E7CF
:101934000B20F5E70020F3E7780200202DE9F043BF
:1019440091B00191002800F005811446064602F08A
:101954003F073A4602A901A8FFF7A6F8054628B1B1
:1019640000233360284611B0BDE8F083029B039343
:10197400019903A8FFF787FE054660B99DF93B303E
:10198400002B52DB14F03E0F14BF0121002103A8E9
:10199400FEF7FEFD054614F01C0F5CD0002D50D060
:1019A400042D44D047F00807002DD9D117F0080FB3
:1019B40061D0FEF7A9FD044601460B980E30FEF7F0
:1019C400B9FD21460B981630FEF7B4FD0B9B20227F
:1019D400DA72DDF80880DDF82C9049464046FEF7BF
:1019E400CCFE0446002249464046FEF7D9FE0021BB
:1019F4000B981C30FEF79EFD029B0122DA70002C2E
:101A040039D0029BD3F830800022214603A8FFF787
:101A140075FB05460028A3D141460298FEF7ECFF6A
:101A24000546013C029B1C6125E00625B3E7FEF751
:101A3400E9FD08B91225B5E703A8FFF76BFE0546D3
:101A4400B0E79DF8123013F0110F13D114F0040F06
:101A5400AAD0082584E7002D82D19DF8123013F016
:101A6400100F73D114F0020F05D013F0010F02D040
:101A7400072575E70725002D7FF472AF17F0080FCF
:101A840001D047F04007029B1B6B73620B9BB36250
:101A9400012F94BF0021012103A8FEF7C3FD30618B
:101AA40008B902255CE7029CDDF82C8041462046FB
:101AB400FEF763FEB06008F11C00FEF72CFDF06039
:101AC4000021F1623460E388B38037757175316247
:101AD400B16106F130084FF400724046FEF73EFD56
:101AE40017F0200F2ED0F46864B3B461029B5F89B1
:101AF4007F02B16801E00225E41B65B9BC420AD942
:101B04003046FFF7D7F901460128F4D9B0F1FF3F79
:101B1400F2D10125F0E7F161002D7FF421AFC4F388
:101B240008037BB1029F3846FEF70AFE08B9022576
:101B340016E700EB54223262012341467878FEF71F
:101B4400B1FC28B9002D3FF40DAF09E7042507E7E0
:101B5400012505E7092505E72DE9F04F85B0044681
:101B64000E46154698460023C8F8003003A9FEF730
:101B7400F6FE0190002849D1637D0193002B45D1E5
:101B8400237D13F0020F00F0E280A369EB42C0F062
:101B9400B080DD43ADE0E36A002B3BD02046FEF786
:101BA400DBFD002800F0CE80012838D0B0F1FF3FE3
:101BB4003CD0E061A36803B9A06094F91430002B11
:101BC4003BDBDDF80CB0E1695846FEF7B9FD814610
:101BD400002847D0B9444FEA552AB5F5007F5DD3B4
:101BE40007EB0A03BBF80A20934201D9A2EB070AC8
:101BF40053464A4631469BF80100FEF75FFCC0B3EA
:101C04004FF0010A84F815A0CDF804A0019805B09E
:101C1400BDE8F08FE1692046FFF70AFAC1E74FF00B
:101C2400020A84F815A0CDF804A0EFE74FF0010AEA
:101C340084F815A0CDF804A0E8E70123226A04F192
:101C4400300103984078FEF739FC20B9237D03F076
:101C54007F032375B5E74FF0010A84F815A0CDF88A
:101C640004A0D3E74FF0020A84F815A0CDF804A02D
:101C7400CCE7216AA1EB0901514502D34FEA4A2777
:101C840028E04FF4007206EB412104F13000FEF726
:101C94005BFC237D03F07F032375EFE7236A4B4549
:101CA40003D0A269E3689A423BD3C4F82090A369A5
:101CB400C3F30803C3F50077BD4200D22F4604F1F5
:101CC40030003A4631461844FEF73EFC237D63F06B
:101CD4007F0323753E44A3693B44A361E2689342B6
:101CE40038BF1346E360D8F800303B44C8F80030EE
:101CF400ED1B3DB3A169C1F30803002BD7D1039BAE
:101D04005F89013F17EA51277FF457AF00297FF419
:101D140042AFA06800287FF447AF2046FFF788F958
:101D24003FE701234A4604F130019BF80100FEF726
:101D3400B9FB0028B9D04FF0010A84F815A0CDF8FA
:101D440004A063E7237D43F0400323755EE7072384
:101D540001935BE770B582B0044601A9FEF7FFFD6D
:101D640070B9237D13F0400F0AD013F0800F09D10E
:101D7400FEF7CAFB0546616A0198FEF73DFE78B19D
:101D840002B070BD0123226A04F130010198407849
:101D9400FEF794FB40BB237D03F07F032375E7E745
:101DA400A66AF37A43F02003F372A26831462068EE
:101DB400FEF7F6FCE16806F11C00FEF7BBFB2946C2
:101DC40006F11600FEF7B6FB002106F11200FEF73D
:101DD400ADFB019B0122DA700198FFF73BFD237DE7
:101DE40023F040032375CBE70120C9E710B582B087
:101DF4000446FFF7AFFF08B102B010BD01A92046A9
:101E0400FEF7ADFD0028F7D12069FEF75BFC002842
:101E1400F2D12060F0E70000134B5B7A13BB10B5DE
:101E2400044603F0FF00104B93F809C05FFA8CFCE2
:101E34004FF0000E03F80CE093F809C003EB8C0C90
:101E4400CCF804405C7A1C4422725A7A541CE4B2E2
:101E54005C7230320A703A234B702F238B7081F8F6
:101E640003E010BD012070477C02002008B5002269
:101E7400FFF7D2FF08BD0000064BA3FB0023DA08DE
:101E8400134602EB8202A0EB420040EA0310C0B208
:101E9400704700BFCDCCCCCC2DE9F0438BB00024EF
:101EA400059406940794089409940194564B1A6B6C
:101EB40042F004021A631A6B02F004020192019ABE
:101EC40002941A6B42F080021A631A6B02F08002C9
:101ED4000292029A03941A6B42F001021A631A6B7B
:101EE40002F001020392039A04941A6B42F0020274
:101EF4001A631B6B03F002030493049B434F2246B3
:101F04004FF40051384601F028FA414D01221021C6
:101F1400284601F022FADFF8FC8001224FF48051B8
:101F2400404601F01AFA22464FF48061284601F037
:101F340014FA4FF400530593012606960794089467
:101F440005A9384601F01EF94FF4404305934FF4B8
:101F54000419CDF81890079605A9384601F012F92E
:101F640002270597CDF81890079605A9284601F091
:101F740009F9082305930694079605A9284601F054
:101F840001F91023059306960794089705A9284696
:101F940001F0F8F84FF480530593069607940897D8
:101FA40005A9404601F0EEF84FF4007305934FF491
:101FB40088130693079405A9284601F0E3F84FF423
:101FC4008063059306960794089405A9284601F0B2
:101FD400D9F822462146072000F0F2FE072000F03F
:101FE400FFFE22462146172000F0EAFE172000F0EB
:101FF400F7FE22462146282000F0E2FE282000F0C9
:10200400EFFE0BB0BDE8F083003802400008024048
:10201400000002400004024000B583B00021019199
:10202400094B1A6B42F480021A631B6B03F480039E
:102034000193019B0A46382000F0C2FE382000F0CC
:10204400CFFE03B05DF804FB0038024008B56423FA
:102054000322D0210448006801F0D0FC08B9012013
:1020640008BD0020FCE700BF040000202DE9F0417A
:102074008CB00646464B93E807000CAB03E9070017
:10208400444A06AB07CA03C31A7000240B2C0EDCA7
:1020940004EB4403032209A93F48184403F005FC58
:1020A40008B10134F2E7E4B20134E4B200E00124FF
:1020B4003A20FFF7E1FE8DF817004FF0FF38CDF816
:1020C4000880012501950DF1170700972B46002282
:1020D400D021304601F0E0FB3920FFF7CDFE8DF82A
:1020E4001700CDF80880019500972B462A46D02189
:1020F400304601F0D1FB1120FFF7BEFE8DF817002A
:10210400CDF80880019500972B460222D021304655
:1021140001F0C2FB1420FFF7AFFE8DF81700CDF8D5
:102124000880019500972B460422D021304601F007
:10213400B3FB2046FFF7A0FE8DF81700CDF808800A
:10214400019500972B460522D021304601F0A4FBCF
:102154001A20FFF791FE8DF81700CDF8088001953D
:1021640000972B460622D021304601F095FBAB2385
:102174008DF81730CDF80880019500972B4607227B
:10218400D021304601F088FB0CB0BDE8F08100BFDF
:10219400F85F000804600008D05F000808B5082153
:1021A400014801F0D3F808BD0000024010B5044610
:1021B40002680E4B9A4207D023680D4A93420CD012
:1021C4000C4A93420DD010BD4FF400510A4801F05F
:1021D400CAF80A4B01221A70EEE7094A012111706C
:1021E400EEE7084B01221A70EDE700BF00480140FA
:1021F40000440140004001400008024097020020D2
:10220400950200209402002038B50C48FEF744F8EB
:1022140080B10446312800D93124094D22460949A8
:10222400284603F079FB00232B55074B1C70074B02
:1022340001221A700148FEF729F838BDD80200209F
:10224400A0020020EF0200209F0200209A0200203A
:1022540038B50446B0F5007F08D0B4F5804F0CD0F3
:10226400B4F5004F1FD0022C31D038BD224B9B7DDA
:10227400032BF2D1FFF7C8FFEFE700F0A3FB0546FD
:102284001E4B1B68C31AB3F5FA7FE9D94FF400510A
:102294001B4801F068F8194B1D600123194A13709B
:1022A400194A1370DCE700F08DFB0546174B1B68D9
:1022B400C31AB3F5FA7FD6D94FF40051104801F090
:1022C40052F8124B1D60124B01221A70CBE700F03A
:1022D40079FB04460F4B1B68C31AB3F5FA7FC4D9C4
:1022E4004FF40051064801F03EF80A4B1C600A4BBB
:1022F40001221A70B9E700BFD80200209002002022
:10230400000802409E0200209B0200208C02002054
:102314009D020020880200209C02002008B50A23A8
:10232400012278210348006801F068FBB0FA80F0CC
:10233400400908BD0800002072B6FEE708B50A4847
:102344000A4B03600A4B436000238360C3604FF46D
:102354008042026143618361C361036201F0BEF99B
:1023640000B908BDFFF7E8FF8C06002000540040C8
:10237400801A060008B50948094B036046F2A71302
:102384004360002383604FF47A72C2600361836107
:1023940002F0BAFD00B908BDFFF7CEFFF00300203C
:1023A4000048014008B50A480A4B03600A4B4360E1
:1023B40000238360C3604FF4804202614361836100
:1023C400C361036201F08AF900B908BDFFF7B4FFE5
:1023D4003806002000580040A086010008B50A48CD
:1023E4000A4B03600A4B436000238360C3604FF4CD
:1023F4008042026143618361C361036201F06EF94B
:1024040000B908BDFFF798FFE4050020005C004018
:10241400A086010008B50D480D4B03604FF482738C
:10242400436000238360C360036143614FF400721F
:1024340082613822C2610362436283620A23C362F7
:1024440002F082F900B908BDFFF776FF800500208D
:102454000030014008B50D480D4B03604FF4827302
:10246400436000238360C360036143614FF40072DF
:102474008261C3610362436283620A23C36202F01E
:1024840063F900B908BDFFF757FF00BF2805002016
:102494000038004008B50948094B036046F2A71309
:1024A40043600023836047F22F52C260036183615B
:1024B40002F02AFD00B908BDFFF73EFF38040020F2
:1024C4000044014000B585B00023009301930293BA
:1024D40003930F480F4A026046F2A71242608360DA
:1024E40041F28732C2600361836102F00DFD50B98D
:1024F4004FF4805300936946054802F03EFD20B92D
:1025040005B05DF804FBFFF717FFFFF715FF00BFE9
:10251400800400200040014008B50748074B0360D1
:102524000623436040F6A663836001F031FB00B9E3
:1025340008BDFFF701FF00BFD805002000300040B0
:1025440000B585B0002300930193029303931448CC
:10255400144A02604FF48032426083600361037660
:1025640080F82030C362104A8262C3600122C261D3
:1025740080F83030426100F0D9FA68B90223009340
:1025840001230193042302936946054800F0FAFAF3
:1025940020B905B05DF804FBFFF7CEFEFFF7CCFED3
:1025A400E0060020002001400100000F00B595B0B6
:1025B4003022002108A803F070F900230393049348
:1025C40005930693079301931B4A116C41F08051C4
:1025D4001164126C02F080520192019A029317491D
:1025E4000A6822F4404242F400420A600A6802F493
:1025F40040420292029A092208924FF480320992D0
:1026040001220D920E9308A801F0CCFC80B90F238F
:10261400039301230493002105910691079103A8D4
:1026240001F016FF30B901F0B9FE15B05DF804FBF6
:10263400FFF782FEFFF780FE003802400070004082
:1026440010B5ADF5916D00F097F9FFF7AFFFFFF707
:1026540023FCFFF7E1FCFFF771FEFFF78BFEFFF7AA
:10266400A1FEFFF7BBFEFFF7D5FEFDF73FFFFFF727
:10267400F1FEFFF70FFFFFF725FFFFF74DFFFFF711
:102684005FFF40F2DC5000F0A3F9FFF747FE254B53
:10269400187080B9FFF7DAFC234B187080B9FFF784
:1026A4007DFD224B187050B30122214995A8FFF7F4
:1026B40017F950B1FEE71F4B186800F093F8E9E7EB
:1026C4001D4B1868FFF7D2FCE9E71A221B4909A839
:1026D400FFF734F90DF1040C194C0FCCACE80F00E2
:1026E40023682CF8023B1B0C8CF800306B46132239
:1026F40001A909A8FFF730FA09A8FFF777FB114BE6
:10270400186802F0BFFA4FF47A7000F061F90E48CD
:1027140001F06CFA4FF47A7000F05AF90A4801F0AB
:1027240065FAF7E79902002098020020960200203B
:102734000C6000080800002004000020106000085D
:102744001C60000800000020D805002000B587B0F8
:102754008DF817100A230293012301930DF1170238
:1027640000920022782101F097F807B05DF804FB8D
:10277400002303E0FF21054AD1540133B3F5806FF0
:1027840003D20028F6D10146F5E770473007002050
:1027940030B585B0054600241DE0A4F15001C9B24E
:1027A4002846FFF7D3FF00212846FFF7CFFF10216B
:1027B4002846FFF7CBFF6423029380230193084B41
:1027C40003EBC4130093012340227821284601F02F
:1027D40063F80134E4B2072CDFD905B030BD00BF83
:1027E4003007002038B50446642000F0F1F8AE212B
:1027F4002046FFF7ABFF054620212046FFF7A6FF42
:10280400054410212046FFF7A1FF0544B0212046CE
:10281400FFF79CFF0544C8212046FFF797FF0544B6
:1028240000212046FFF792FF054410212046FFF7C0
:102834008DFF054440212046FFF788FF0544812190
:102844002046FFF783FF0544FF212046FFF77EFF64
:102854000544A1212046FFF779FF0544A62120461F
:10286400FFF774FF0544A8212046FFF76FFF0544D6
:102874003F212046FFF76AFF0544A4212046FFF7C5
:1028840065FF0544D3212046FFF760FF054400217E
:102894002046FFF75BFF0544D5212046FFF756FF8E
:1028A4000544F0212046FFF751FF0544D921204675
:1028B400FFF74CFF054422212046FFF747FF05445C
:1028C400DA212046FFF742FF054412212046FFF794
:1028D4003DFF0544DB212046FFF738FF0544202156
:1028E4002046FFF733FF05448D212046FFF72EFFD6
:1028F400054414212046FFF729FF0544AF21204653
:10290400FFF724FFE84201D0012038BD0020FFF783
:102914002FFF2046FFF73CFF034B00201880588010
:1029240001225A71F1E700BF2807002010B50446C0
:102934000E4B1A784FF47A73B3FBF2F30C4A106817
:10294400B0FBF3F000F050FA68B90F2C01D9012064
:102954000AE0002221464FF0FF3000F031FA054B27
:102964001C60002000E0012010BD00BF0C0000200E
:10297400140000201000002008B50B4B1A6842F424
:1029840000721A601A6842F480621A601A6842F48B
:1029940080721A60032000F001FA0F20FFF7C6FFCF
:1029A40001F02AF9002008BD003C0240034A1168E6
:1029B400034B1B780B441360704700BF300B00209F
:1029C4000C000020014B1868704700BF300B00203A
:1029D40038B50446FFF7F6FF0546B4F1FF3F02D0D1
:1029E400044B1B781C44FFF7EDFF401BA042FAD3B5
:1029F40038BD00BF0C0000204A4B5A6822F4403214
:102A04005A605A6841680A435A600268536823F45A
:102A14008073536002685368016943EA0123536079
:102A24000268536823F040735360026853688168F6
:102A34000B4353600268936823F400639360026855
:102A44009368C1680B439360826A374B9A4257D0AC
:102A54000268936823F07063936002689368816AE4
:102A64000B4393600268936823F0405393600268B9
:102A74009368C16A0B4393600268936823F002036E
:102A8400936002689368017E43EA4103936090F87F
:102A94002030002B3FD00268536843F40063536036
:102AA4000268536823F46043536001684B68426AC8
:102AB400013A43EA42334B600268D36A23F4700359
:102AC400D3620168CB6AC269013A43EA0253CB621A
:102AD4000268936823F4007393600268936890F823
:102AE400301043EA412393600268936823F48063BF
:102AF400936002689368416943EA81239360704755
:102B04000268936823F0706393600268936823F00B
:102B140040539360B0E70268536823F40063536042
:102B2400CAE700BF002301400100000F38B310B50D
:102B34000446036C43B1236C13F0100F0BD0012037
:102B4400002384F83C3010BD01F072F80023636464
:102B540084F83C30EFE7236C23F4885323F002031A
:102B640043F0020323642046FFF746FF002060641D
:102B7400236C23F0030343F001032364E0E7012003
:102B84007047000030B482B00022019290F83C20DB
:102B9400012A00F0B6800346012280F83C200A682E
:102BA400092A40D90468E06892B202EB42021E3A54
:102BB4004FF0070C0CFA02F220EA0202E2601C68F1
:102BC400E0680A8802EB42021E3A8D6805FA02F2B6
:102BD4000243E2604A68062A3CD81C68606B02EB38
:102BE4008202053A4FF01F0C0CFA02F220EA0202AC
:102BF40062631C68606B4A6802EB8202053AB1F8B2
:102C040000C00CFA02F20243626318683E4A904222
:102C140050D018683C4A904255D0002083F83C00BC
:102C240002B030BC70470468206992B202EB4202E1
:102C34004FF0070C0CFA02F220EA020222611C682F
:102C440020690A8802EB42028D6805FA02F2024307
:102C54002261BFE70C2A16D81D68286B02EB82029A
:102C6400233A1F2404FA02F220EA02022A631D68AE
:102C7400286B4A6802EB8202233A0C8804FA02F2B7
:102C840002432A63C1E71D68E86A02EB8202413A03
:102C94001F2404FA02F220EA0202EA621D68E86ACA
:102CA4004A6802EB8202413A0C8804FA02F20243B7
:102CB400EA62AAE70A68122AABD11448426842F4CD
:102CC40080024260A5E70A68103A012AA5D80F4895
:102CD400426842F4000242600A68102A9DD10C4AFC
:102CE40012680C49A1FB0212920C02EB8202520000
:102CF400019202E0019A013A0192019A002AF9D163
:102D04008BE702208CE700BF002001400023014034
:102D14001400002083DE1B43002807DB00F01F02A1
:102D2400400901239340024A42F82030704700BF13
:102D340000E100E0002808DB0901C9B200F16040AD
:102D440000F5614080F80013704700F00F0009019E
:102D5400C9B2014B1954704714ED00E000B500F0FE
:102D64000700C0F1070CBCF1040F28BF4FF0040C9E
:102D7400031D062B0FD9C31E4FF0FF3E0EFA0CF0B5
:102D840021EA000199400EFA03FE22EA0E0241EA0A
:102D940002005DF804FB0023EEE70000074AD36855
:102DA40023F4E0631B041B0C000200F4E060034303
:102DB40043F0BF6343F40033D360704700ED00E099
:102DC40010B50446054BD868C0F30220FFF7C6FFD0
:102DD40001462046FFF7AEFF10BD00BF00ED00E046
:102DE40008B5FFF799FF08BD0138B0F1807F0BD219
:102DF4004FF0E0235861054AF02182F823100020A7
:102E0400986107221A6170470120704700ED00E0C5
:102E140010B40368D9B210390A4AA2FB014212095C
:102E2400094CA25CC2655F2907D96FF30903043317
:102E34008365806D5DF8044B70476FF30903836508
:102E4400F7E700BFABAAAAAAC4600008836A826934
:102E540092B9012B0AD0022B02D00BB1002070478B
:102E6400C36A13F0807F28D100207047C36AB3F18E
:102E7400C07F24D000207047B2F5005F09D0022B38
:102E840025D9032B25D1C36A13F0807F23D10020D9
:102E94007047032B03D8DFE803F01404140A00205E
:102EA4007047C36A13F0807F0DD100207047C36A56
:102EB400B3F1C07F09D00020704701207047012082
:102EC400704701207047012070470120704701209E
:102ED40070470020704701207047000070B5044619
:102EE400FFF770FD002C5BD00546022384F83530D3
:102EF400002384F834302268136823F0010313603C
:102F040023681A6812F0010F0AD0FFF75BFD431B18
:102F1400052BF5D920236365032084F8350070BDA3
:102F24001A68204911406268A0680243E0680243BD
:102F34002069024360690243A0690243E0690243D5
:102F4400206A02430A43616A04291ED01A60266873
:102F5400756925F00705636A1D43042B07D1A36A2D
:102F64001D43E36A1BB12046FFF770FF90B97561FA
:102F74002046FFF74DFFE26D3F239340836000201E
:102F84006065012384F83530C9E7E16A206B0143A9
:102F94000A43DBE740236365012084F83500BEE77C
:102FA4000120BCE73F8010F0F0B583B00446002355
:102FB4000193724B1D68724BA3FB0535AD0A876DF7
:102FC4003E68C26D08239340334210D003681A68E8
:102FD40012F0040F0BD01A6822F004021A60C26DBA
:102FE40008239340BB60436D43F001034365E26DE6
:102FF40001239340334209D02268526912F0800FB2
:1030040004D0BB60636D43F002036365E26D042387
:103014009340334209D02268126812F0020F04D0A0
:10302400BB60636D43F004036365E26D102393405A
:10303400334224D02268126812F0080F1FD0BB60FC
:1030440023681A6812F4802F0DD01B6813F4002F24
:1030540004D1236C9BB12046984710E0A36C73B154
:10306400204698470BE01A6812F4807F03D11A684F
:1030740022F008021A60236C0BB120469847E26DD7
:1030840020239340334255D02268126812F0100F67
:1030940050D0BB6094F83530DBB2052B0ED02368DA
:1030A4001A6812F4802F33D01B6813F4002F2AD12E
:1030B400636C002B3ED0204698473BE0226813689F
:1030C40023F0160313602268536923F080035361CD
:1030D400236CA3B12268136823F008031360E26D24
:1030E4003F239340BB60012384F83530002384F8E8
:1030F4003430236D002B3FD0204698473CE0A36C2E
:10310400002BE7D1EBE7E36BA3B12046984711E02E
:103114001A6812F4807F09D11A6822F010021A602A
:10312400012384F83530002384F83430E36B0BB189
:1031340020469847636DFBB1636D13F0010F17D000
:10314400052384F835302268136823F001031360E3
:10315400019B01330193AB4204D823681B6813F02D
:10316400010FF5D1012384F83530002384F834307D
:10317400E36C0BB12046984703B0F0BD1400002067
:10318400B5814E1B00230F2B00F2D78070B582B09F
:1031940065E085684FEA430E032404FA0EF425EA39
:1031A4000405CC6804FA0EF42C438460446824EAD1
:1031B40002044A68C2F300129A40224342605CE06F
:1031C400DC08083450F8242003F00705AD004FF064
:1031D4000F0E0EFA05FE22EA0E0E0A69AA4042EA12
:1031E4000E0240F824205CE0042200E0002202FAEF
:1031F4000EF22A430234514D45F82420504A946873
:103204006FEA0C0224EA0C054E6816F4801F01D004
:103214004CEA04054A4CA560E46802EA04054E68D9
:1032240016F4001F01D04CEA0405454CE5606468BF
:1032340002EA04054E6816F4003F01D04CEA040586
:103244003F4C6560246822404D6815F4803F01D0EE
:103254004CEA04023A4C226001330F2B6BD8012252
:103264009A400C6804EA020C32EA0404F4D14C6873
:1032740004F00304013C012C8BD94A6802F00302D8
:10328400032A09D0C4685D000322AA4024EA020488
:103294008A68AA402243C2604A6802F00302022AF2
:1032A4008ED004684FEA430E032202FA0EF224EA97
:1032B40002044A6802F0030202FA0EF22243026098
:1032C4004A6812F4403FC7D0002201921D4A546C50
:1032D40044F480445464526C02F480420192019A92
:1032E4009C08A51C154A52F8255003F0030E4FEA1A
:1032F4008E0E0F2202FA0EF225EA0205124A9042BD
:103304003FF474AF02F5806290420ED002F5806201
:1033140090420CD002F5806290420AD002F580629D
:1033240090423FF461AF072261E701225FE7022286
:103334005DE703225BE702B070BD704700380140CF
:10334400003C014000380240000002400369194279
:1033540001D001207047002070470AB18161704795
:10336400090481617047436901EA030221EA030108
:1033740041EA02418161704708B5054B5B6903422C
:1033840000D108BD024B5861FEF762FFF9E700BFA8
:10339400003C014003685A6912F4806F01D1002097
:1033A40070476FF480625A6100230363202280F81F
:1033B4003D2080F83E30026C42F00402026480F842
:1033C4003C30012070472DE9F04106460C46174673
:1033D40098463BE0FFF7F6FA069BC01A404502D830
:1033E400B8F1000F32D1012D18D033689B6924EA5B
:1033F40003039BB2B3FA83F35B099F4226D10023F4
:103404003363202286F83D2086F83E30326C42F049
:103414002002326486F83C30012027E033685B697F
:1034240024EA03039BB2B3FA83F35B09E5E7336849
:103434005B6924EA030C1FFA8CFCBCFA8CFC4FEA8F
:103444005C1C674511D1B8F1FF3FC3D1C4F30745F4
:10345400012DECD033689B6924EA030C1FFA8CFC21
:10346400BCFA8CFC4FEA5C1CEBE70020BDE8F08161
:103474002DE9F84305460E469046994653E01A68EE
:1034840042F400721A602B686FF480625A61002360
:103494002B63202285F83D2085F83E302A6C42F0CB
:1034A40004022A6485F83C3001204AE0FFF78AFAD6
:1034B400A0EB0900404502D8B8F1000F33D1012F29
:1034C40017D02B689B6926EA03039BB2003B18BF05
:1034D400012343B300232B63202285F83D2085F884
:1034E4003E302A6C42F020022A6485F83C300120E8
:1034F40027E02B685B6926EA03039BB2003B18BFF5
:103504000123E6E72B689C6926EA0404A4B2003C84
:1035140018BF0124A4B12B685A6912F4806FAED18C
:10352400B8F1FF3FC2D1C6F30747012FEAD12B6898
:103534005C6926EA0404A4B2003C18BF0124E9E74C
:103544000020BDE8F88370B504460D46164623688E
:103554005B6913F0800F21D12046FFF71BFFF8B9F8
:10356400B5F1FF3FF3D0FFF72DFA801BA84201D835
:10357400002DECD123685B6913F0800FE7D10023A1
:103584002363202284F83D2084F83E30226C42F0EC
:103594002002226484F83C30012000E0002070BD49
:1035A4000120FCE72DE9F04385B004460D46914621
:1035B4001F46DDF830800D9E0368196841F4807160
:1035C40019600096434600224FF00111FFF7FBFEFD
:1035D40060B9236805F0FE051D613346424626495D
:1035E4002046FFF745FF68B1012008E023681B6807
:1035F40013F4807F02D04FF400732364032005B0DA
:10360400BDE8F0830023039323685A6903929B69FE
:103614000393039B324641462046FFF794FF30B99B
:10362400012F0FD123685FFA89F61E61E7E7236C47
:10363400042B01D00120E2E72268136843F40073ED
:103644001360F7E723684FEA19221A6132464146AC
:103654002046FFF778FF20B923685FFA89F61E61D8
:10366400CDE7236C042B01D00120C8E7226813683E
:1036740043F400731360F7E70200010070B50446D9
:103684000D46164623685B6913F0040F21D12046CA
:10369400FFF780FEF8B9B5F1FF3FF3D0FFF792F9D9
:1036A400801BA84201D8002DECD123685B6913F07C
:1036B400040FE7D100232363202284F83D2084F8FB
:1036C4003E30226C42F02002226484F83C30012017
:1036D40000E0002070BD0120FCE70000002800F09D
:1036E400CC8070B5044690F83D30002B77D024236D
:1036F40084F83D302268136823F0010313602268C4
:10370400136843F4004313602268136823F40043EE
:10371400136000F053FF62685A4B9A4264D85A4BC4
:1037240098428CBF00230123002B40F0A880574906
:10373400A1FB00318B0C25686A6822F03F0242EA43
:1037440091426A6021680A6A22F03F0266684D4D20
:10375400AE424FD8013313430B622168CA6922F485
:103764004F4222F0FF026568464B9D424CD8431EEF
:103774006D00B3FBF5F3013340F6FC70034278D0DF
:10378400C3F30B031A43CA6121680B6823F0C00317
:10379400E269206A024313430B6021688B6823F4B7
:1037A400034323F0FF032269E068024313438B6061
:1037B4002168CB6823F0FF036269A06902431343C5
:1037C400CB602268136843F0010313600020206477
:1037D400202384F83D30206384F83E0070BD80F8D7
:1037E4003C3000F059FA82E7294B98428CBF002301
:1037F400012399E74FF4967505FB03F3254DA5FBCB
:1038040003539B090133A6E7A668BEB9431E05EB23
:10381400450CB3FBFCF30133C3F30B03B3FA83F39B
:103824005B0943BBC6B9431E05EB4505B3FBF5F382
:103834000133C3F30B0343F40043A3E7431E05EB37
:10384400850C0CEB8C0CB3FBFCF30133C3F30B03BF
:10385400B3FA83F35B09E4E7431E05EB850505EB47
:103864008505B3FBF5F30133C3F30B0343F4404382
:1038740088E7042386E7012384E7012070470120B9
:10388400ACE700BFA08601007F841E0083DE1B43DB
:10389400FF083D00D34D62102DE9F04383B0044688
:1038A4000F46904699460C9EFFF78CF8054694F80F
:1038B4003D00C0B2202803D0022003B0BDE8F0834D
:1038C4000095192301224B492046FFF77CFD00286F
:1038D40040F0898094F83C30012B00F0868001236D
:1038E40084F83C3023681A6812F0010F03D11A6877
:1038F40042F001021A602268136823F40063136023
:10390400212384F83D30402384F83E30002323648F
:103914000A9B6362BDF82C306385638D2385364B27
:10392400E362019500964B46424639462046FFF72E
:1039340039FE00285BD1238D002B35D02A46314631
:103944002046FFF700FE20BB626A236812781A61E2
:10395400626A531C6362218D013989B22185638DAA
:103964009BB2013B9BB263852368586910F0040F36
:10397400E1D00029DFD052781A61636A01336362AF
:10398400238D013B2385638D9BB2013B9BB26385F1
:10399400D1E7236C042B01D001208EE72268136841
:1039A40043F400731360F7E72A4631462046FFF7D5
:1039B40065FE50B1236C042B01D001207DE7226801
:1039C400136843F400731360F7E72268136843F441
:1039D40000731360202384F83D30002384F83E30C4
:1039E40084F83C3069E7022067E7022065E701209C
:1039F40063E700BF020010000000FFFF2DE9F04361
:103A040085B00446884691461D46FEF7DBFF94F8D0
:103A14003D30DBB2202B03D0022005B0BDE8F0839B
:103A2400064600901923012257492046FFF7CBFC94
:103A3400002840F0A08094F83C30012B00F09D80D9
:103A4400012384F83C3023681A6812F0010F03D173
:103A54001A6842F001021A602268136823F40063B2
:103A64001360242384F83D3000272764474BE36226
:103A740040E023681B6813F4807F02D04FF4007386
:103A840023640320C9E7A02384F83D3022685369E6
:103A9400C3F340035269C2F3802294F83DC05FFA35
:103AA4008CFCBCF1A00F09D043B93AB9FEF78AFFE8
:103AB400801BA842E7D8002DE8D1E4E7202384F84E
:103AC4003D3023685A6912F0020F31D11A6842F46A
:103AD40000721A6023686FF480625A610096192399
:103AE400012229492046FFF76EFC002849D10137FD
:103AF4004F4538D22268136843F4807313600096EC
:103B04002B4600224FF001112046FFF75CFC0028F1
:103B1400AFD1236808F0FE021A61FEF753FF064690
:103B240022685369C3F340035269C2F38022B4E7A5
:103B34001A6842F400721A600023039323685A69D6
:103B440003929B690393039B0096192301220E4958
:103B54002046FFF738FC90B9202384F83D30002339
:103B640084F83C3059E7202384F83D30002384F85E
:103B74003C30012051E702204FE702204DE70120AD
:103B84004BE7012049E700BF020010000000FFFFDF
:103B940050B338B5044603684CF6CC421A60036847
:103BA40045F255521A60036842685A600368826895
:103BB4009A60FEF707FF05462368DA6812F0030FE0
:103BC4000DD0FEF7FFFE401B41F601039842F3D9E6
:103BD4002368DB6813F0030FEED0032003E04AF6FA
:103BE400AA221A60002038BD0120704703684AF6F3
:103BF400AA221A600020704782B0002100910B4B6A
:103C04005A6C42F480425A645A6C02F48042009224
:103C1400009A01911A6C42F080521A641B6C03F0F2
:103C240080530193019B02B0704700BF00380240EB
:103C340000B589B000230393049305930693079377
:103C4400026803F1804303F590339A4202D009B02D
:103C54005DF804FB0021019103F58C335A6C42F4A6
:103C640080725A645A6C02F480720192019A029131
:103C74001A6B42F001021A631B6B03F001030293F7
:103C8400029B042303930323049303A90148FFF72E
:103C940079FADCE7000002402DE9F0418CB0002302
:103CA4000793089309930A930B9303684D4A93422D
:103CB40008D04D4A934228D04C4A934258D00CB075
:103CC400BDE8F08100250095494C236B43F00203C5
:103CD4002363236B03F002030093009BC023079329
:103CE4001223089303230A9304230B9307A941483F
:103CF400FFF748FA0195236C43F400132364236C03
:103D040003F400130193019BD9E700250295384C75
:103D1400236B43F002032363236B03F00203029338
:103D2400029B4FF4806307934FF01208CDF8208074
:103D340003270A9704230B932E4E07A93046FFF757
:103D440021FA08230793CDF8208009950A970923BF
:103D54000B9307A93046FFF715FA0395236C43F438
:103D640080032364236C03F480030393039BA6E77B
:103D7400002504951E4C236B43F001032363236B3E
:103D840003F001030493049B0595236B43F00203A2
:103D94002363236B03F002030593059B4FF48073A5
:103DA40007931227089703260A9604230B9307A95F
:103DB4001148FFF7E7F910230793089709950A9626
:103DC40009230B9307A90B48FFF7DCF90695236C2D
:103DD40043F400032364236C03F400030693069B5B
:103DE4006DE700BF0054004000580040005C0040F4
:103DF40000380240000402400000024030B58BB09D
:103E04000023059306930793089309930368344AA0
:103E1400934204D0334A93423ED00BB030BD0446A3
:103E240000250195304B5A6C42F480525A645A6C06
:103E340002F480520192019A02951A6B42F0010237
:103E44001A631B6B03F001030293029BE0230593A7
:103E540002230693032308930523099305A9234802
:103E6400FFF790F92248234B03604FF0C06343608F
:103E74008560C5604FF48063036145618561C561F8
:103E840005624562FFF72AF818B9194BE3649C638D
:103E9400C3E7FEF751FAF8E700210391124B1A6CBD
:103EA40042F480421A641A6C02F480420392039A28
:103EB40004911A6B42F002021A631B6B03F00203B3
:103EC4000493049B4FF46043059302230693032356
:103ED40008930523099305A90748FFF753F99CE7BD
:103EE4000030014000380040003802400000024029
:103EF400C8040020106402400004024000B585B0EC
:103F04000368244A934208D0234A934219D0234A8F
:103F140093422AD005B05DF804FB00210191204BA7
:103F24005A6C42F480325A645B6C03F4803301931C
:103F3400019B0A461820FEF743FF1820FEF750FFA6
:103F4400E8E700210291164B5A6C42F400325A649D
:103F54005B6C03F400330293029B0A461920FEF7BC
:103F64002FFF1920FEF73CFFD4E7002103910C4BEF
:103F74005A6C42F480225A645B6C03F480230393EA
:103F8400039B0A461A20FEF71BFF1A20FEF728FFA0
:103F9400C0E700BF00400140004401400048014028
:103FA40000380240002800F0E08170B582B0044679
:103FB400036813F0010F3BD09F4B9B6803F00C0385
:103FC400042B2CD09C4B9B6803F00C03082B21D0B2
:103FD4006368B3F5803F4FD0B3F5A02F52D0964B12
:103FE4001A6822F480321A601A6822F480221A6055
:103FF4006368002B50D0FEF7E5FC05468E4B1B682A
:1040040013F4003F14D1FEF7DDFC401B6428F5D9FE
:104014000320B1E1884B5B6813F4800FD8D0864B42
:104024001B6813F4003F03D06368002B00F09F81EA
:10403400236813F0020F54D07F4B9B6813F00C0FCE
:104044003ED07D4B9B6803F00C03082B33D0E36810
:10405400002B68D0794B01221A60FEF7B3FC0546A9
:10406400754B1B6813F0020F54D1FEF7ABFC401BD9
:104074000228F5D903207FE16F4A136843F48033A3
:104084001360B5E76C4B1A6842F480221A601A6810
:1040940042F480321A60ABE7FEF794FC0546664BA7
:1040A4001B6813F4003FC3D0FEF78CFC401B64284C
:1040B400F5D9032060E1604B5B6813F4800FC6D12F
:1040C4005D4B1B6813F0020F03D0E368012B40F033
:1040D4005081594A136823F0F803216943EAC10364
:1040E4001360236813F0080F42D063696BB3534B1A
:1040F4000122C3F8802EFEF765FC05464E4B5B6F2C
:1041040013F0020F34D1FEF75DFC401B0228F5D9F1
:10411400032031E1484A136823F0F803216943EA94
:10412400C1031360DDE7454B00221A60FEF74AFC29
:104134000546414B1B6813F0020FD2D0FEF742FC38
:10414400401B0228F5D9032016E13C4B0022C3F89A
:10415400802EFEF737FC0546374B5B6F13F0020FDA
:1041640006D0FEF72FFC401B0228F5D9032003E1FB
:10417400236813F0040F77D02F4B1B6C13F0805F70
:1041840033D1002301932C4B1A6C42F080521A64F1
:104194001B6C03F080530193019B0125284B1B6882
:1041A40013F4807F23D0A368012B34D0052B38D09F
:1041B400214B1A6F22F001021A671A6F22F00402CF
:1041C4001A67A368002B3DD0FEF7FCFB06461A4B8A
:1041D4001B6F13F0020F46D1FEF7F4FB801B41F274
:1041E40088339842F3D90320C6E00025D6E7144A61
:1041F400136843F480731360FEF7E4FB0646104B28
:104204001B6813F4807FCED1FEF7DCFB801B0228F1
:10421400F5D90320B0E0084A136F43F00103136794
:10422400CFE7054B1A6F42F004021A671A6F42F087
:1042340001021A67C5E700BF003802400000474288
:1042440000700040FEF7BEFB0646524B1B6F13F096
:10425400020F08D0FEF7B6FB801B41F28833984268
:10426400F3D9032088E0EDB9A369002B00F0838023
:10427400484A926802F00C02082A51D0022B17D047
:10428400454B00221A66FEF79DFB0446414B1B6812
:1042940013F0007F42D0FEF795FB001B0228F5D9EE
:1042A400032069E03B4A136C23F080531364DBE77B
:1042B400394B00221A66FEF785FB0546354B1B6811
:1042C40013F0007F06D0FEF77DFB401B0228F5D9D2
:1042D400032051E0E369226A1343626A43EA8213CA
:1042E400A26A5208013A43EA0243E26A43EA0263D9
:1042F400284A5360284B01221A66FEF763FB0446E2
:10430400244B1B6813F0007F06D1FEF75BFB001BF8
:104314000228F5D903202FE000202DE000202BE017
:10432400012B2BD01B4B5B6803F48001E2699142A3
:1043340026D103F03F02216A8A4223D1616A47F6FB
:10434400C0721A40B2EB811F1ED103F44031A26A3D
:104354005208013AB1EB024F18D103F07063E26ADC
:10436400B3EB026F14D1002006E001207047012056
:1043740002E0012000E0002002B070BD0120FBE754
:104384000120F9E70120F7E70120F5E70120F3E731
:104394000120F1E70038024000004742014B0122AE
:1043A400DA6470470000474208B5264B9B6803F067
:1043B4000C03042B41D0082B41D1224B5A6802F044
:1043C4003F025B6813F4800F12D01E4B5968C1F38F
:1043D40088111D480023A1FB0001FBF7D9FE194BEE
:1043E4005B68C3F3014301335B00B0FBF3F008BD2A
:1043F400144B5868C0F388104FEA401CBCEB000C07
:104404006EEB0E0E4FEA8E1343EA9C634FEA8C1157
:10441400B1EB0C0163EB0E03DB0043EA5173C900FB
:1044240011EB000C43F10003990200234FEA8C20A6
:1044340041EA9C51FBF7ACFED1E70348D7E70348B8
:10444400D5E700BF0038024040787D010024F40025
:10445400002800F09B8070B50D4604464F4B1B6846
:1044640003F007038B4208D2CBB24C4A1370136893
:1044740003F007038B4240F08B80236813F0020F94
:1044840017D013F0040F04D0454A936843F4E05363
:104494009360236813F0080F04D0414A936843F4EF
:1044A400604393603E4A936823F0F003A1680B4392
:1044B4009360236813F0010F32D06368012B21D07D
:1044C4009A1E012A25D9364A126812F0020F61D0C9
:1044D40033498A6822F0030213438B60FEF772FAB1
:1044E40006462F4B9B6803F00C036268B3EB820F04
:1044F40016D0FEF767FA801B41F288339842F0D950
:10450400032042E0264A126812F4003FE0D1012061
:104514003BE0234A126812F0007FD9D1012034E035
:104524001E4B1B6803F00703AB4207D9EAB21B4BCF
:104534001A701B6803F00703AB422DD1236813F0F4
:10454400040F06D0164A936823F4E053E1680B4342
:104554009360236813F0080F07D0114A936823F47B
:104564006043216943EAC1039360FFF71DFF0C4BCD
:104574009B68C3F303130B4AD35CD8400A4B1860FF
:104584000A4B1868FEF7D2F9002070BD012070476D
:104594000120FAE70120F8E70120F6E7003C024099
:1045A40000380240D46000081400002010000020ED
:1045B400014B1868704700BF1400002008B5FFF7CE
:1045C400F7FF044B9B68C3F38223034AD35CD840B0
:1045D40008BD00BF00380240CC60000870470000EE
:1045E40008B5064BDB6813F0800F00D108BDFFF758
:1045F400F5FF024B80229A73F8E700BF00380240AF
:104604002DE9F04782B00546884617461E46FEF758
:10461400D9F90A9B1B1A03EB0609FEF7D3F9824664
:10462400284B1B68C3F3CB3309FB03F301932B68BB
:104634009C6838EA04040CBF01230023BB423DD02C
:10464400B6F1FF3FF3D0FEF7BDF9A0EB0A004845F1
:1046540003D2019B73BB9946E9E72A68536823F0A8
:10466400E00353606B68B3F5827F0BD0AB6AB3F59C
:10467400005F14D0012385F85130002385F85030B1
:1046840003201CE0AB68B3F5004F02D0B3F5806F94
:10469400ECD12A68136823F040031360E6E72A6824
:1046A400136823F4005313602A68136843F4005317
:1046B4001360DFE7019B013B0193B8E7002002B0E0
:1046C400BDE8F0871400002070B584B004460D46A0
:1046D400164600920B4601220221FFF791FFD0B942
:1046E400174B1B68174AA2FB03235B0D4FF47A7226
:1046F40002FB03F303936368B3F5827F11D0039B3A
:104704003BB1039B013B039323689B6813F0800F29
:10471400F5D104B070BD636D43F0200363650320DD
:10472400F7E700962B46002280212046FFF768FF1A
:104734000028EED0636D43F0200363650320E8E7AF
:1047440014000020819F5E1600285AD010B504463C
:10475400436A33B94368B3F5827F05D00023C3614C
:1047640002E00023036143610023A36294F8513003
:10477400002B40D0022384F851302268136823F0C0
:1047840040031360636803F48273A26802F4044272
:104794001343E26802F400621343226902F0020246
:1047A4001343626902F001021343A26902F4007226
:1047B4001343E26902F038021343226A02F08002D2
:1047C4001343A26A02F40052216813430B60638B03
:1047D40003F00403626A02F01002216813434B6081
:1047E4002268D36923F40063D36100206065012348
:1047F40084F8513010BD84F850302046FFF7FEFA9B
:10480400B8E7012070472DE9F04383B00446894698
:1048140090461D46FEF7D6F894F85160F6B2012E84
:1048240040F0CC800746B9F1000F00F0C880B8F121
:10483400000F00F0C48094F85030012B00F0C380C6
:10484400012384F85030032384F851300023636536
:10485400C4F83090A4F83480A4F83680A363A38706
:10486400E38763642364A368B3F5004F1ED0236811
:104874001A6812F0400F03D11A6842F040021A601D
:10488400E368B3F5006F1CD0636813B1B8F1010F8E
:104894005FD1226B236812781A73236B013323636D
:1048A400E38E9BB2013B9BB2E38652E0226813681D
:1048B40023F0400313602268136843F480431360B9
:1048C400D5E7636813B1B8F1010F15D1226B2368E2
:1048D4001288DA60236B02332363E38E9BB2013BBD
:1048E4009BB2E38608E0FEF76DF8C01BA84202D332
:1048F400B5F1FF3F15D1A5B1E38E9BB2002B42D099
:1049040023689A6812F0020FEDD0226B1288DA60E5
:10491400236B02332363E38E9BB2013B9BB2E3869A
:10492400EAE7012384F85130002384F85030032649
:1049340045E0226B12781A73236B01332363B4F8B6
:1049440036C01FFA8CFC0CF1FF3C1FFA8CFCA4F857
:1049540036C0E38E9BB2B3B123689A6812F0020F9B
:10496400E7D1FEF72FF8C01BA84202D3B5F1FF3FF1
:1049740001D1002DEDD1012384F85130002384F8B6
:10498400503003261BE03A4629462046FFF79CFE9A
:1049940008B120236365A36833B901932368DA68F7
:1049A40001929B680193019B012384F851300023F9
:1049B40084F85030636D13B9002600E002263046B7
:1049C40003B0BDE8F0830226F9E72DE9F04383B094
:1049D4000446884691461F460A9DFDF7F3FF0646A6
:1049E40094F85130DBB26268012B0AD0B2F5827FB1
:1049F40040F00581A268002A40F00581042B40F0B4
:104A04000481B8F1000F00F00281B9F1000F00F049
:104A14000081002F00F0FF8094F85030012B00F04B
:104A2400FC80012384F8503094F85130DBB2042B1D
:104A340002D0052384F8513000236365C4F838900C
:104A4400E787A787C4F83080E786A7862364636472
:104A540023681A6812F0400F03D11A6842F040022A
:104A64001A60E368B3F5006F11D063680BB1012FCE
:104A74000BD1226B236812781A73236B01332363DF
:104A8400E38E9BB2013B9BB2E386012771E063682E
:104A94000BB1012F0BD1226B23681288DA60236BD0
:104AA40002332363E38E9BB2013B9BB2E38601276F
:104AB4001BE023689A6812F0010F0ED0E28F92B2C5
:104AC4005AB1DA68A36B1A80A36B0233A363E38F32
:104AD4009BB2013B9BB2E3870127FDF773FF801B69
:104AE400A84202D3B5F1FF3F1ED1E38E9BB21BB99E
:104AF400E38F9BB2002B62D023689A6812F0020FF6
:104B0400D7D0E28E92B2002AD3D0002FD1D0226B1C
:104B14001288DA60236B02332363E38E9BB2013B7A
:104B24009BB2E3860027C4E7012384F851300023B5
:104B340084F85030032063E023689A6812F0010F70
:104B44000ED0E28F92B25AB1DA68A36B1A70A36BDB
:104B54000133A363E38F9BB2013B9BB2E38701273D
:104B6400FDF730FF831BAB4202D3B5F1FF3F1ED1EB
:104B7400EDB1E38E9BB213B9E38F9BB2FBB1236813
:104B84009A6812F0020FD7D0E28E92B2002AD3D0E4
:104B9400002FD1D0226B12781A73236B0133236355
:104BA400E38E9BB2013B9BB2E3860027C4E701235B
:104BB40084F85130002384F85030032020E032463A
:104BC40029462046FFF780FD90B9A36833B90193C5
:104BD4002368DA6801929B680193019B012384F89E
:104BE4005130002384F85030636D4BB1012007E04D
:104BF40020236365002384F85030012000E0022064
:104C040003B0BDE8F0830220FAE70220F8E70120B0
:104C1400F6E70120F4E70120F2E70220F0E790F83C
:104C24005100704710B4036A046A24F0010404625A
:104C3400846924F0F00C4CEA021223F00A030B43BB
:104C4400826103625DF8044B704710B4036A046A1E
:104C540024F010040462846924F4704C4CEA023297
:104C640023F0A00343EA0113826103625DF8044B5D
:104C74007047836823F070030B4343F0070383609A
:104C84007047000090F83D30DBB2012B2FD1022396
:104C940080F83D300268D36843F00103D3600368B1
:104CA400154A934218D0B3F1804F15D0A2F57C4237
:104CB400934211D002F5806293420DD002F58062D6
:104CC400934209D002F59A32934205D01A6842F011
:104CD40001021A60002070479A6802F00702062A4F
:104CE40007D01A6842F001021A60002070470120C0
:104CF40070470020704700BF0000014070477047B4
:104D04007047704770B504460368DE681D6915F086
:104D1400020F10D016F0020F0DD06FF002021A61CC
:104D24000123037703689B6913F0030F5ED0FFF739
:104D3400E6FF0023237715F0040F12D016F0040FBA
:104D44000FD023686FF004021A61022323772368CB
:104D54009B6913F4407F4FD02046FFF7D0FF002318
:104D6400237715F0080F12D016F0080F0FD0236820
:104D74006FF008021A61042323772368DB6913F0B8
:104D8400030F40D02046FFF7BAFF0023237715F026
:104D9400100F12D016F0100F0FD023686FF010020E
:104DA4001A61082323772368DB6913F4407F31D029
:104DB4002046FFF7A4FF0023237715F0010F02D04C
:104DC40016F0010F2DD115F0800F02D016F0800FD0
:104DD4002FD115F0400F02D016F0400F31D115F04D
:104DE400200F02D016F0200F33D170BDFFF786FFDD
:104DF4002046FFF785FF9CE72046FFF77FFF20460C
:104E0400FFF77EFFABE72046FFF778FF2046FFF76A
:104E140077FFBAE72046FFF771FF2046FFF770FFE0
:104E2400C9E723686FF001021A612046FDF7BEF955
:104E3400C9E723686FF080021A61204600F01DF96B
:104E4400C7E723686FF040021A612046FFF759FF55
:104E5400C5E723686FF020021A61204600F00CF9C0
:104E6400C3E700000368274A90420ED0B0F1804F98
:104E74000BD0A2F57C42904207D002F580629042AA
:104E840003D002F58062904203D123F070034A6894
:104E940013431C4A90421AD0B0F1804F17D0A2F5A8
:104EA4007C42904213D002F5806290420FD002F50A
:104EB400806290420BD002F59A32904207D002F5FC
:104EC4008062904203D002F58062904203D123F4C1
:104ED4004073CA68134323F080034A6913438A6802
:104EE400C2620A688262074A904207D0026842F0AE
:104EF4000402026001224261036070470A6902638E
:104F0400F4E700BF0000014040B310B5044690F838
:104F14003D30F3B1022384F83D30214651F8040BAF
:104F2400FFF7A0FF012384F8463084F83E3084F86C
:104F34003F3084F8403084F8413084F8423084F8BB
:104F4400433084F8443084F8453084F83D30002000
:104F540010BD80F83C30FEF7D1FFDBE7012070473D
:104F640010B4846824F47F4C42EA03220A4342EAE0
:104F74000C0282605DF8044B704790F83C30012BC2
:104F840078D010B50446012380F83C30022380F821
:104F94003D300268936823F47F4323F077039360E2
:104FA4000B68602B4CD023D8402B54D011D8202B25
:104FB40003D00AD80BB1102B05D119462068FFF78E
:104FC40058FE002028E0012026E0302BF5D00120F7
:104FD40022E0502B0AD1CA6849680068FFF722FE14
:104FE40050212068FFF745FE002015E0012013E062
:104FF400B3F5805F3AD0B3F5005F14D0702B37D18E
:10500400CB684A6889680068FFF7AAFF226893683A
:1050140043F0770393600020012384F83D3000239C
:1050240084F83C3010BDCB684A6889680068FFF793
:1050340097FF2268936843F4804393600020EBE772
:10504400CA6849680068FFF700FE60212068FFF71E
:1050540010FE0020E0E7CA6849680068FFF7E2FD37
:1050640040212068FFF705FE0020D5E70020D3E7A4
:105074000120D1E7022070477047704708B5FFF759
:10508400AFFAFEE7FEE7FEE7FEE7FEE7704770478C
:10509400704708B5FDF78AFC08BD08B50220FEF785
:1050A4006BF908BD08B54FF40070FEF765F908BD4B
:1050B40008B50248FFF726FE08BD00BF80040020A3
:1050C40008B50248FFF71EFE08BD00BF38040020E3
:1050D40008B50248FFF716FE08BD00BFF003002024
:1050E40008B54FF48040FEF747F94FF40040FEF74F
:1050F40043F908BD08B50248FDF756FF08BD00BFD7
:10510400C8040020034AD2F8883043F47003C2F87C
:105114008830704700ED00E008B500F025F908BDBF
:1051240008B500F0D7F908BD08B500F0DDF908BDF1
:1051340008B500F01FFA08BD08B500F073FA08BD01
:1051440000B587B08DF80F003223009301230DF1D1
:1051540017020DF10F010448FFF737FC9DF8170003
:1051640007B05DF804FB00BF8005002070B506465B
:10517400FDF728FC0546FF20FFF7E2FF0446FF2861
:1051840004D0FDF71FFC401BB042F4D3FF2C14BF26
:105194000020012070BD70B506460D46002404E0D1
:1051A400FF20FFF7CDFF30550134AC42F8D370BD7A
:1051B40008B5012210210348FEF7CFF8FF20FFF7BE
:1051C400BFFF08BD0000024010B5002210210948AD
:1051D400FEF7C3F8FF20FFF7B3FF4FF4FA70FFF7B1
:1051E400C5FF10B10124204610BD0446FFF7E0FFBF
:1051F400F9E700BF0000024038B504460D4610F040
:10520400800F1DD10C2C04D0FFF7D2FFFFF7DCFF79
:10521400B0B344F04000FFF793FF280EFFF790FF70
:10522400C5F30740FFF78CFFC5F30720FFF788FF9E
:10523400E8B2FFF785FF64B1082C1BD0012009E018
:1052440000F07F0400213720FFF7D6FF0128D9D9C9
:105254000FE09520FFF774FF0C2C0DD00A24FF20DB
:10526400FFF76EFF10F0800F03D0631E13F0FF04EE
:10527400F5D138BD8720EDE7FF20FFF761FFEDE7AB
:10528400FF20F6E708B54FF0FF338AB20146024823
:10529400FFF7B9FA08BD00BF8005002038B5054600
:1052A4000C464FF4FA70FFF761FF00B938BD204691
:1052B400FFF746FFFD2C01D10120F7E74FF4007101
:1052C4002846FFF7DFFFFF20FFF73AFFFF20FFF735
:1052D40037FFFF20FFF734FF00F01F00052801D13E
:1052E4000120E3E70020E1E710B50446FDF76AFB7F
:1052F400024B1860024B1C6010BD00BF380B00202D
:10530400340B002008B5FDF75DFB054B1B68C01A84
:10531400044B1B6898422CBF0020012008BD00BF2D
:10532400380B0020340B002070B505460E46C8200B
:10533400FFF7DAFFFF20FFF703FF0446FF2803D13E
:10534400FFF7E0FF0028F5D1FE2C01D0002070BD4E
:1053540031462846FFF71FFFFF20FFF7F1FEFF202D
:10536400FFF7EEFE0120F2E7002840F0AB80564B39
:105374001B7813F0020F09D170B582B0534B1A6831
:10538400136843F0380313600A2408E04E4B18787E
:10539400C0B27047FF20FFF7D3FE013CE4B2002CFB
:1053A400F8D100210846FFF727FF0546012817D04A
:1053B400474B1C70FFF7FCFE002C7FD0434B1A6850
:1053C400136823F0380343F0100313603E4A137844
:1053D40003F0FE0313703C4B1878C0B202B070BDEA
:1053E4004FF47A70FFF780FF4FF4D5710820FFF770
:1053F40003FF01283ED1254609E0FF20FFF7A0FE68
:1054040005F108036B4403F8040C0135EDB2032DD8
:10541400F3D99DF80630012BCAD19DF80730AA2B89
:10542400C6D1FFF76FFF30B14FF08041A920FFF7DD
:10543400E3FE0028F5D1FFF765FF08B90446B7E796
:1054440000213A20FFF7D8FE054650B1B0E7FF200F
:10545400FFF776FE05F108036B4403F8040C0135ED
:10546400EDB2032DF3D99DF8043013F0400F23D08F
:105474000C249DE70021A920FFF7BEFE01280ED9C8
:105484002E46FFF73FFF28B100212846FFF7B4FE60
:105494000028F6D1FFF736FF20B9044688E7022634
:1054A400A925EEE74FF400711020FFF7A5FE0028B0
:1054B4007FF47EAF34467BE7042479E7024B012274
:1054C4001A7088E7012070472C0000208005002016
:1054D4003C0B002018B9034B1878C0B27047012068
:1054E400704700BF2C000020002839D138B50D4684
:1054F4001C46002B36D01D4B1B7813F0010F33D103
:105504001B4B1B7813F0080F00D15202012C18D04A
:1055140011461220FFF770FE68B94FF40071284657
:10552400FFF702FF18B105F50075013CF5D1002124
:105534000C20FFF761FEFFF73BFE201E18BF012081
:1055440038BD11461120FFF757FE0028F3D14FF460
:1055540000712846FFF7E8FE0028ECD00024EAE7B3
:10556400042070470420EBE70320E9E72C00002027
:105574003C0B0020002848D170B50D4616461C4649
:10558400002B44D0254B1B7813F0010F41D1234B42
:105594001B7813F0040F3ED1214B1B7813F0080F36
:1055A40000D15602012C1BD013F0060F26D1314630
:1055B4001920FFF721FE68B9FC212846FFF76EFE8B
:1055C40018B105F50075013CF6D1FD210020FFF767
:1055D40065FEC0B1FFF7ECFD201E18BF012070BDB1
:1055E40031461820FFF708FE0028F3D1FE21284693
:1055F400FFF754FE0028EDD00024EBE72146972066
:10560400FFF7FAFDD3E70124E4E704207047042000
:10561400E5E70320E3E70220E1E700BF2C000020D8
:105624003C0B002070B584B0002840F004810D4686
:105634001646834B1B7813F0010F40F0FE800429BB
:1056440000F2ED80DFE811F005000C00EB005400DF
:10565400AF00FFF7B9FD002840F0E380012406E025
:1056640000210920FFF7C8FD044628B12C46FFF7A6
:105674009FFD204604B070BD10216846FFF754FE1C
:10568400002800F0D0809DF800309B09012B1FD02A
:105694009DF8052002F00F029DF80A3002EBD312A8
:1056A4009DF809305B0003F006031A449DF80810C6
:1056B4009DF807309B0003EB91139DF806108902B7
:1056C40001F440610B440133073A93403360CEE761
:1056D4009DF809309DF8082003EB02239DF807206C
:1056E400120402F47C12134401339B023360BEE7BC
:1056F400544B1B7813F0040F20D000218D20FFF7AA
:105704007BFD08B10124B2E7FF20FFF719FD10214A
:105714006846FFF709FE78B90124A8E7FF20FFF7E0
:105724000FFD013CE4B2002CF8D19DF80A201209C7
:105734001023934033609AE73024F4E700210920D2
:10574400FFF75AFD054608B1012490E71021684689
:10575400FFF7EAFD002868D03A4B1C7814F00204E5
:1057640011D09DF80A305B0003F07E039DF80B20F6
:1057740003EBD21301339DF80D209209013A9340B3
:1057840033602C4673E79DF80A20C2F384029DF827
:105794000B10CB0003F0180303EB5113013302FB8E
:1057A4000333336063E7274B1B7813F0060F01D1F3
:1057B40001245CE76A460B21FFF734FFB8BB9DF870
:1057C40000309B0904D19DF80A3013F0400F30D00B
:1057D400316874681B4B1B7813F0080F01D1490220
:1057E40064022020FFF708FD08B101243FE72146A9
:1057F4002120FFF701FD08B1012438E7002126200C
:10580400FFF7FAFC044608B1012430E747F23050B0
:10581400FFF7ACFC00287FF42AAF012427E7042417
:1058240025E72C4623E72C4621E701241FE7012422
:105834001DE701241BE704241BE7032419E700BF29
:105844002C0000203C0B0020DFF834D0FFF75AFC7A
:105854000C480D490D4A002302E0D458C4500433C7
:10586400C4188C42F9D30A4A0A4C002301E013609D
:105874000432A242FBD300F02BF8FCF7E1FE7047A0
:10588400008001200000002030000020F4600008A7
:1058940030000020400B0020FEE702440346934200
:1058A40000D1704703F8011BF9E710B56AB101395B
:1058B400841810F8012B11F8013F9A4203D1A04239
:1058C40001D0002AF5D1D01A10BD1046FCE7000023
:1058D40070B50D4D0D4C641BA4100026A64209D1D1
:1058E4000B4D0C4C00F084F9641BA4100026A64256
:1058F40005D170BD55F8043B98470136EEE755F8DD
:10590400043B98470136F2E7EC600008EC600008BD
:10591400EC600008F06000080A44914200F1FF3393
:1059240000D1704710B511F8014B03F8014F9142B3
:10593400F9D110BD2DE9F047089D0E4604460F46E7
:10594400002B4AD194468C45B2FA82F260D942B116
:10595400C2F12003974020FA03F30CFA02FC1F4320
:1059640094404FEA1C4E1FFA8CF6B7FBFEF1230C51
:105974000EFB117743EA074301FB06F098420AD96C
:105984001CEB030301F1FF3780F01581984240F2CC
:105994001281023963441B1AA4B2B3FBFEF00EFB5E
:1059A400103344EA034400FB06F6A6420AD91CEB72
:1059B400040400F1FF3380F00081A64240F2FD8030
:1059C4006444023840EA0140A41B00211DB1D440C4
:1059D4000023C5E90043BDE8F0878B4205D90DB12A
:1059E400C5E9000100210846F5E7B3FA83F100296F
:1059F40046D1B34202D3824200F2F580841A66EBA8
:105A0400030201201746002DE5D0C5E90047E2E76F
:105A1400002A40F09380A1EB0C034FEA1C471FFAC5
:105A24008CFE0121B3FBF7F607FB1630230C43EA87
:105A340000430EFB06F0984208D91CEB030306F161
:105A4400FF3802D2984200F2D08046461B1AA4B214
:105A5400B3FBF7F007FB103344EA03440EFB00FEEC
:105A6400A64508D91CEB040400F1FF3302D2A64575
:105A740000F2B6801846A4EB0E0440EA0640A5E7FF
:105A8400C1F120078B4022FA07FC4CEA030C06FA0A
:105A940001FE20FA07F426FA07F344EA0E0400FA9A
:105AA40001F84FEA1C404FEA1449B3FBF0FE1FFA19
:105AB4008CF600FB1E3349EA03430EFB06F99945B5
:105AC40002FA01F20BD91CEB03030EF1FF3A80F04A
