:020000040800F2
:1000000000800120ED420008A13A0008A93A00084A
:10001000AB3A0008AD3A0008AF3A00080000000013
:10002000000000000000000000000000B13A0008DD
:10003000B33A000800000000B53A0008B73A0008DB
:100040003D4300083D4300083D4300083D43000890
:100050003D4300083D4300083D4300083D43000880
:100060003D4300083D4300083D4300083D43000870
:100070003D4300083D4300083D4300083D43000860
:100080003D4300083D4300083D43000800000000D8
:10009000000000000000000000000000BF3A00085F
:1000A0003D4300083D430008CD3A00083D430008A9
:1000B0003D4300083D4300083D4300083D43000820
:1000C0003D4300083D4300083D4300083D43000810
:1000D0003D4300083D4300083D4300080000000088
:1000E0003D4300083D4300083D4300080000000078
:1000F0000000000000000000000000003D43000878
:10010000000000003D4300083D4300083D43000857
:1001100000000000000000000000000000000000DF
:10012000DD3A00083D4300083D4300083D43000818
:100130003D43000800000000000000000000000037
:100140000000000000000000000000003D43000827
:100150003D4300083D4300083D4300083D4300087F
:100160003D4300083D43000800000000000000007F
:10017000000000000000000000000000000000007F
:10018000000000003D4300080000000000000000E7
:040190003D430008E3
:1001A00010F8012B11F8013B012A28BF9A42F7D021
:1001B000D01A7047034613F8012B002AFBD1181AF6
:1001C000013870470000000000000000000000003F
:1001D00001F0FF01102A2BDB10F0070F08D010F8F8
:1001E000013B013A8B422DD010F0070F42B3F6D1FC
:1001F000F0B441EA012141EA014122F007047FF015
:1002000000070023F0E80256083C85EA010586EA6B
:10021000010685FA47F5A3FA87F586FA47F6A5FAA7
:1002200087F68EB9EED1F0BC01F0FF0102F00702B3
:1002300032B110F8013B013A83EA010313B1F8D15E
:100240000020704701387047002D06BF354603383F
:10025000073815F0010F07D1013015F4807F02BF78
:10026000013015F4C03F0130F0BC0138704700BFC9
:100270007BB972B90029BEBF00204FF0004106E0F3
:1002800008BF00281CBF6FF000414FF0FF3000F0A6
:1002900057B8ADF1080C6DE904CE002909DB002B3D
:1002A0001ADB07F05BFBDDF804E0DDE9022304B0B4
:1002B0007047404261EB4101002B1BDB07F04EFB16
:1002C000DDF804E0DDE9022304B0404261EB4101C6
:1002D000524263EB43037047524263EB430307F020
:1002E0003DFBDDF804E0DDE9022304B0404261EBB0
:1002F00041017047524263EB430307F02FFBDDF8E7
:1003000004E0DDE9022304B0524263EB430370478B
:1003100053B94AB9002908BF00281CBF4FF0FF316C
:100320004FF0FF3000F00CB8ADF1080C6DE904CED1
:1003300007F014FBDDF804E0DDE9022304B07047A8
:10034000704700BF10B5054C237833B9044B13B187
:100350000448AFF300800123237010BD000100208A
:1003600000000000187C000808B5034B1BB10349CE
:100370000348AFF3008008BD000000000401002026
:10038000187C000838B50446006800F060FA206860
:1003900000F074FA05460121206800F043FA28466F
:1003A00038BD70B504460E4615460021006800F0C1
:1003B00039FA46F08001206800F049FA29462068A1
:1003C00000F045FA0121206800F02CFA70BD012BE5
:1003D0001BD9F8B505460C4617461E460021006895
:1003E00000F020FA2146286800F031FA002405E0E8
:1003F000286800F043FA38550134E4B2B442F7D328
:100400000121286800F00EFAF8BD7047012B1CD9B5
:10041000F8B505460C4617461E460021006800F058
:1004200001FA44F08001286800F011FA002405E088
:10043000395D286800F00BFA0134E4B2B442F7D316
:100440000121286800F0EEF9F8BD704710B50446A8
:1004500009220121FFF7A5FF0123A37510BD10B5E7
:10046000044608220121FFF79CFF0023A37510BD5D
:1004700008B588220121FFF794FF08BD30B583B08D
:100480000446FFF7ECFF0F2000F016FA2046FFF7B6
:10049000EFFFA568E368D904554A0023E80441EA60
:1004A0005531FFF735FFC0F307438DF80430C0F333
:1004B00007238DF805308DF80600032301AA0621D5
:1004C0002046FFF7A3FF122239212046FFF769FFDC
:1004D000237C484AD25C09212046FFF762FF0B22A9
:1004E00011462046FFF75DFF23220C212046FFF72F
:1004F00058FF637C404AD35C062B42D0A37C3F4A22
:10050000D25C1201D2B2E37C3D49CB5C5B00DBB232
:100510001A4402F0FE021D212046FFF742FF637CD1
:10052000354AD25C1201D2B2237D3649CB5C9B00A6
:10053000DBB21A4402F0FC021E212046FFF731FF15
:10054000042226212046FFF72CFF08221F212046E7
:10055000FFF727FF002220212046FFF722FF082275
:1005600021212046FFF71DFF012241212046FFF7F0
:1005700018FF002384F817312046FFF767FF03B008
:1005800030BDA37C1D4AD25C1201D2B2E37C1C496F
:10059000CB5C5B00DBB21A44D2B20132D2B21D2175
:1005A0002046FFF7FEFE637C134AD25C1201D2B2F2
:1005B000237D1449CB5C9B00DBB21A44D2B20332D8
:1005C000D2B21E212046FFF7ECFE31212046FFF774
:1005D000D9FE00F0F80242F0050231212046FFF773
:1005E000E0FE0C2237212046FFF7DBFEA8E700BF24
:1005F0000048E801587C0008507C0008447C000852
:10060000407C00083C7C000808B5FF221221FFF75F
:10061000C8FE08BD70B505460E4614464175FFF785
:100620002DFF84224D212846FFF7BBFEFF22242107
:100630002846FFF7B6FE012240212846FFF7B1FE0B
:100640003F2211212846FFF7ACFE2846FFF7DCFFCA
:10065000324622212846FFF7A4FE0F212846FFF745
:1006600091FE02460D212846FFF79BFE8D220121B7
:100670002846FFF796FE002385F8173106E003238E
:10068000AB75012070BD012000F016F91821284635
:10069000FFF778FE10F0040FF1D1013CF3D1286888
:1006A00000F00EF92846FFF7E9FE0020EAE770B5F2
:1006B0000446006800F01AF910B994F8170170BDEB
:1006C00004F117064FF480720021304603F075FFE5
:1006D00010212046FFF756FE02460D212046FFF767
:1006E00060FE637C63B9657D2B463246002120465F
:1006F000FFF76DFE84F817512046FFF785FFDCE712
:1007000013212046FFF73EFE0546EDE770B505468E
:100710000E4614464175FFF7B1FE87224D2128464B
:10072000FFF73FFE002224212846FFF73AFE412230
:1007300040212846FFF735FE2846FFF765FFF722E0
:1007400011212846FFF72DFE324622212846FFF7C9
:1007500028FE0E212846FFF715FE02460D212846E9
:10076000FFF71FFE22212846FFF70CFE864209D024
:10077000013CF7D1286800F0A3F82846FFF77EFE79
:10078000002002E00223AB75012070BD70B5054664
:100790001C4613460A460021FFF738FE8B22012132
:1007A0002846FFF7FEFD0FE012212846FFF7EAFD7D
:1007B0002846FFF729FF2846FFF748FE0126304666
:1007C00070BD012000F078F8286800F08FF8064628
:1007D0000028E9D1013CF4D1286800F071F82846DE
:1007E000FFF74CFEEBE770B5044616461D46006861
:1007F00000F022F8A660E5609DF8103023749DF8A3
:10080000143063749DF81830A3749DF81C30E374A1
:100810009DF8203023759DF8243063752046FFF73E
:100820002DFE70BD08B5012914BF00220122018AE6
:10083000406901F064FA08BD10B504460121FFF7D4
:10084000F1FF01222188606801F059FA10BD10B54E
:1008500082B004468DF807100021FFF7E3FF4FF444
:100860007A7301220DF10701A06902F09AFDA069D7
:1008700002F0A3FF0128FAD102B010BD10B584B078
:10088000044600218DF80F108DF80E10FFF7CAFFF7
:100890004FF47A73009301230DF10E020DF10F0155
:1008A000A06902F060FEA06902F087FF0128FAD17A
:1008B0009DF80E0004B010BD08B500F0EBFE08BDB9
:1008C00010B504460121FFF7ADFF002221886068C2
:1008D00001F015FA0120FFF7EFFF0122218860687F
:1008E00001F00DFA6420FFF7E7FF10BD08B501899C
:1008F000C06801F0FDF9012814BF0020012008BDE7
:1009000008B50349034800F033F8034B187008BDDD
:100910001C0100202C00002020010020134B5B7ADA
:1009200013BB10B5044603F0FF00104B93F809C049
:100930005FFA8CFC4FF0000E03F80CE093F809C04E
:1009400003EB8C0CCCF804405C7A1C4422725A7A7B
:10095000541CE4B25C7230320A703A234B702F237D
:100960008B7081F803E010BD012070472401002046
:1009700008B50022FFF7D2FF08BD00F00F03000901
:1009800000EB800003EB4000C0B27047064BA3FBB6
:100990000023DA08134602EB8202A0EB420040EA91
:1009A0000310C0B2704700BFCDCCCCCC2DE9F041D4
:1009B0008AB000240594069407940894099401943D
:1009C000424B1A6B42F004021A631A6B02F00402E3
:1009D0000192019A02941A6B42F080021A631A6B18
:1009E00002F080020292029A03941A6B42F0010212
:1009F0001A631A6B02F001020392039A04941A6BB1
:100A000042F002021A631B6B03F002030493049B7F
:100A1000DFF8C48022464FF40051404601F06FF9E0
:100A20002B4D01221021284601F069F9294F224659
:100A30004FF48051384601F062F922464FF480614C
:100A4000284601F05CF94FF4005305930126069601
:100A50000794089405A9404601F066F81023059311
:100A6000069607944FF00208CDF8208005A9284685
:100A700001F05AF84FF48053059306960794CDF889
:100A8000208005A9384601F04FF84FF40073059314
:100A90004FF488130693079405A9284601F044F8FB
:100AA0004FF48063059306960794089405A9284699
:100AB00001F03AF822462146172000F053FE172095
:100AC00000F060FE0AB0BDE8F08100BF00380240CF
:100AD00000000240000402400008024000B583B05C
:100AE00000210191094B1A6B42F480021A631B6BBF
:100AF00003F480030193019B0A46382000F032FE84
:100B0000382000F03FFE03B05DF804FB00380240DF
:100B10002DE9F0438DB0064600238DF82F304FF0BD
:100B2000FF330293012301930DF12F02009207225C
:100B3000D02101F01BFD9DF82F30AB2B00F08880F9
:100B4000454A08AB07CA83E80700444A05AB07CA11
:100B500003C31A70002400E001340B2C0DDC04EBFD
:100B60004400032208A93E4B184403F02EFD002840
:100B7000F2D1E4B20134E4B200E001241C20FFF71A
:100B800005FF8DF813004FF0FF38CDF808800125E0
:100B900001950DF1130700972B460022D021304616
:100BA00001F032FC1920FFF7F1FE8DF81300CDF8AB
:100BB0000880019500972B462A46D021304601F047
:100BC00023FC0C20FFF7E2FE8DF81300CDF808801F
:100BD000019500972B460222D021304601F014FCEB
:100BE0001A20FFF7D3FE81468DF81300CDF8088058
:100BF000019500972B460422D021304601F004FCD9
:100C00002046FFF7C3FE8DF81300CDF8088001954C
:100C100000972B460522D021304601F0F5FB8DF8D8
:100C20001390CDF80880019500972B460622D0211D
:100C3000304601F0E9FBAB238DF81330CDF8088086
:100C4000019500972B460722D021304601F0DCFBAE
:100C50000DB0BDE8F08300BFF0830008FC830008FE
:100C6000C883000800B58BB0A0F26C700690013903
:100C70000591049203939DF8303002939DF834302F
:100C800001934FF0FF33099301A803F093FE0BB0DB
:100C90005DF804FB2DE9F04186B005464FF0FF36C4
:100CA0000296012401940DF11703009323460622B6
:100CB000D02101F05BFC029601940DF11603009324
:100CC00023460522D021284601F050FC02960194CB
:100CD0000DF11503009323460422D021284601F08C
:100CE00045FC0296019405AB009323460222D021D5
:100CF000284601F03BFC029601940DF1130300938A
:100D000023462246D021284601F030FC0296019469
:100D10000DF11203009323460022D021284601F052
:100D200025FC9DF81700FFF728FE04468DF81700F4
:100D30009DF8160000F01F00FFF71FFE05468DF816
:100D400016009DF8150000F03F00FFF716FE06465E
:100D50008DF815009DF8140000F03F00FFF70DFE20
:100D600007468DF814009DF8130000F07F00FFF790
:100D700004FE80468DF813009DF8120000F07F00FD
:100D8000FFF7FBFD8DF812000190CDF800803B4687
:100D90003246294604F5FA60FFF764FF06B0BDE865
:100DA000F081000010B5144601EB81014900C0EB51
:100DB000C00001F0FE01C0B200F014FC054A01239E
:100DC00006CA204600F0F6FB034B186800F0A4FAB0
:100DD00010BD00BF000000201800002008B5026808
:100DE000044B9A4200D008BD4FF40051024800F075
:100DF0008CFFF8E7004801400008024008B5422196
:100E0000FFF7C0FA122814BF0020012008BD00001F
:100E100070B586B01A4C2046FFF70EFD2046FFF74E
:100E20004FFD642000F036FC1648FFF7E7FF20B9BD
:100E3000154B00221A7006B070BD124D642605963F
:100E400000230493039307230293012401940323B3
:100E5000009309A3D3E900232846FFF7C4FC4FF40D
:100E6000FA6231462846FFF7D5FB074B1C70204637
:100E7000E1E700BFAFF30080D8B9D119000000004E
:100E800088020020700100203201002038B504469D
:100E9000FFF790F9C3B2194A1370013BDBB2312B53
:100EA00001D9002038BD1648FFF7A8FF18B9154B27
:100EB00000221A70F6E74FF4FA62104B19781048C6
:100EC000FFF724FCC0B2104B18700028EAD00C4D7C
:100ED0004FF4FA63094A127821462846FFF756FC78
:100EE000094C20704FF4FA6264212846FFF792FB08
:100EF00020780028D6D00120D4E700BF3901002097
:100F000070010020320100206E01002010B50E4853
:100F1000FFF7CDFB0D4B187068B90B4C0F21204625
:100F2000FFF730FA02460D212046FFF73AFA204635
:100F3000FFF76AFB10BD02460549064804F073FF3F
:100F4000054B01221A70E8E7700100203A010020E9
:100F5000870100203C01002031010020B0F5007F16
:100F600000D0704708B5FFF7D1FF08BD72B6FEE7A5
:100F700008B50A480A4B03600A4B436000238360AC
:100F8000C3604FF48042026143618361C3610362C5
:100F900001F05CF900B908BDFFF7E8FFA4040020E8
:100FA00000540040801A060008B50948094B036048
:100FB00046F2A7134360002383604FF47A72C26045
:100FC0000361836102F03EFD00B908BDFFF7CEFF6B
:100FD000A40200200048014008B50A480A4B0360FB
:100FE0000A4B436000238360C3604FF48042026178
:100FF00043618361C361036201F028F900B908BD50
:10100000FFF7B4FF5004002000580040A086010004
:1010100008B50A480A4B03600A4B4360002383600B
:10102000C3604FF48042026143618361C361036224
:1010300001F00CF900B908BDFFF798FFFC03002090
:10104000005C0040A086010008B50D480D4B036010
:101050004FF48273436000238360C3600361436184
:101060004FF4007282613822C2610362436283627C
:101070000A23C36202F036F900B908BDFFF776FF14
:10108000A40300200030014008B50D480D4B03605B
:101090004FF48273436000238360C3600361436144
:1010A0004FF400728261C3610362436283620A2368
:1010B000C36202F017F900B908BDFFF757FF00BF80
:1010C0004C0300200038004000B595B030220021CC
:1010D00008A803F072FA0023039304930593069380
:1010E000079301931A4A116C41F080511164126CFC
:1010F00002F080520192019A029316490A6822F482
:10110000404242F400420A600A6802F440420292FD
:10111000029A012208924FF4803209920E9308A895
:1011200001F00EFD80B90F230393012304930021E6
:1011300005910691079103A801F058FF30B901F01D
:10114000FBFE15B05DF804FBFFF710FFFFF70EFF85
:10115000003802400070004030B589B000F06EFAEF
:10116000FFF7B2FFFFF722FCFFF7B8FCFFF700FF25
:10117000FFF71AFFFFF730FFFFF74AFFFFF764FFA3
:10118000FFF7BEFBFFF780FF3F4B404ADA604FF4AA
:10119000007199603E4959614FF4805119615A605C
:1011A0004FF480621A603B4A12689A613A4A1360AF
:1011B000FFF72EFE394B186800F0D8F8C343384AC1
:1011C0001370384B1868FFF7A3FC374B186802F010
:1011D000F7FA39E0334B1868FFF75CFD0090002305
:1011E0000193684603F004FA0346304A122103A82B
:1011F00004F0B2FA2A4B1B7853B303AA0021084625
:10120000FFF7D0FD24E02A4C2A4D23782A4A0421F6
:10121000284603F057F9237883F0010303F0010314
:1012200023702A4605211120FFF7BCFD14E0234856
:10123000FFF72CFE14E0224A04210020FFF7B2FD44
:101240004FF47A7000F026FA1E4B1B78002BC1D1A8
:10125000134B1B78002BD6D11B4B1B78002BE6D1F0
:10126000194B1B78194A122103A803F02BF903AA82
:1012700001210020FFF796FD154B1A78084B1B78CB
:101280001A42D8D1DCE700BF8802002000000240EB
:10129000000402401000002070010020180000200F
:1012A00030010020140000200C00002008840008F9
:1012B00038010020340100201C840008208400082C
:1012C0003C01002008000020320100202884000892
:1012D0003101002000B587B08DF817100A23029362
:1012E000012301930DF1170200920022782101F0F1
:1012F0008BF807B05DF804FB002303E0FF21054AEB
:10130000D1540133B3F5806F03D20028F6D10146E2
:10131000F5E770470005002030B585B0054600248C
:101320001DE0A4F15001C9B22846FFF7D3FF002108
:101330002846FFF7CFFF10212846FFF7CBFF642395
:10134000029380230193084B03EBC4130093012302
:1013500040227821284601F057F80134E4B2072CE6
:10136000DFD905B030BD00BF0005002038B5044608
:10137000642000F08FF9AE212046FFF7ABFF054651
:1013800020212046FFF7A6FF054410212046FFF745
:10139000A1FF0544B0212046FFF79CFF0544C8216A
:1013A0002046FFF797FF054400212046FFF792FFF4
:1013B000054410212046FFF78DFF054440212046BB
:1013C000FFF788FF054481212046FFF783FF05448E
:1013D000FF212046FFF77EFF0544A1212046FFF7AD
:1013E00079FF0544A6212046FFF774FF0544A82194
:1013F0002046FFF76FFF05443F212046FFF76AFFB5
:101400000544A4212046FFF765FF0544D32120466B
:10141000FFF760FF054400212046FFF75BFF05440E
:10142000D5212046FFF756FF0544F0212046FFF75F
:1014300051FF0544D9212046FFF74CFF05442221E6
:101440002046FFF747FF0544DA212046FFF742FF19
:10145000054412212046FFF73DFF0544DB212046CD
:10146000FFF738FF054420212046FFF733FF0544EE
:101470008D212046FFF72EFF054414212046FFF75B
:1014800029FF0544AF212046FFF724FFE84201D0A1
:10149000012038BD0020FFF72FFF2046FFF73CFF5B
:1014A000034B00201880588001225A71F1E700BFD9
:1014B000F804002010F0800F25D13F2923D810B464
:1014C000114B1B7913B1B2FA82F25209012A0FD0E3
:1014D000CB0800EBC3100D4C225C01F00701012387
:1014E0008B40DB435BB2134023545DF8044B7047E1
:1014F000CB0800EBC310054C235C01F007018A40C8
:1015000013432354F1E77047F8040020000500203E
:101510002DE9F04782B0814602A800E9060098460E
:10152000234B1B889DF8006033447F2B3BDC204B12
:101530005B889DF801A053443F2B36DC00251FE05B
:101540001B4B1888598829442044B8FA88F252095C
:10155000C9B2C0B2FFF7AEFF0134A6420FD907FAF5
:1015600004F313F4004FEBD0114B18885988294429
:1015700020444246C9B2C0B2FFF79CFFECE70135F8
:10158000AA4508D9A9F1200303FB0A53019A32F8AE
:1015900013700024E1E7064A138833441380484659
:1015A00002B0BDE8F0870020FAE70020F8E700BFAE
:1015B000F804002030B583B0044602A800E9060014
:1015C0001D4600E00134207848B12B4602AA12E9FA
:1015D0000600FFF79DFF024620788242F2D003B05A
:1015E00030BD0000014B188059807047F80400207E
:1015F00010B504460E4B1A784FF47A73B3FBF2F32E
:101600000C4A1068B0FBF3F000F0C0F868B90F2C7A
:1016100001D901200AE0002221464FF0FF3000F0FE
:10162000A1F8054B1C60002000E0012010BD00BFA8
:101630001C000020280000202000002008B50B4BD3
:101640001A6842F400721A601A6842F480621A60E2
:101650001A6842F480721A60032000F071F80F20BB
:10166000FFF7C6FF01F0FEF8002008BD003C024075
:10167000034A1168034B1B780B441360704700BF8B
:10168000000900201C000020014B1868704700BFB3
:101690000009002038B50446FFF7F6FF0546B4F10F
:1016A000FF3F02D0044B1B781C44FFF7EDFF401BAB
:1016B000A042FAD338BD00BF1C000020002807DB81
:1016C00000F01F02400901239340024A42F82030F3
:1016D000704700BF00E100E0002808DB0901C9B243
:1016E00000F1604000F5614080F80013704700F0A1
:1016F0000F000901C9B2014B1954704714ED00E005
:1017000000B500F00700C0F1070CBCF1040F28BFC2
:101710004FF0040C031D062B0FD9C31E4FF0FF3EE4
:101720000EFA0CF021EA000199400EFA03FE22EABB
:101730000E0241EA02005DF804FB0023EEE7000020
:10174000074AD36823F4E0631B041B0C000200F477
:10175000E060034343F0BF6343F40033D36070475A
:1017600000ED00E010B50446054BD868C0F3022038
:10177000FFF7C6FF01462046FFF7AEFF10BD00BFD2
:1017800000ED00E008B5FFF799FF08BD0138B0F1A2
:10179000807F0BD24FF0E0235861054AF02182F898
:1017A00023100020986107221A61704701207047BA
:1017B00000ED00E010B40368D9B210390A4AA2FB68
:1017C00001421209094CA25CC2655F2907D96FF377
:1017D000090304338365806D5DF8044B70476FF334
:1017E00009038365F7E700BFABAAAAAA3084000803
:1017F000836A826992B9012B0AD0022B02D00BB105
:1018000000207047C36A13F0807F28D10020704702
:10181000C36AB3F1C07F24D000207047B2F5005FE7
:1018200009D0022B25D9032B25D1C36A13F0807F61
:1018300023D100207047032B03D8DFE803F0140402
:10184000140A00207047C36A13F0807F0DD1002076
:101850007047C36AB3F1C07F09D0002070470120F0
:101860007047012070470120704701207047012018
:10187000704701207047002070470120704700002A
:1018800070B50446FFF700FF002C5BD0054602232D
:1018900084F83530002384F834302268136823F04C
:1018A0000103136023681A6812F0010F0AD0FFF7D2
:1018B000EBFE431B052BF5D920236365032084F839
:1018C000350070BD1A68204911406268A068024363
:1018D000E06802432069024360690243A069024351
:1018E000E0690243206A02430A43616A04291ED068
:1018F0001A602668756925F00705636A1D43042B85
:1019000007D1A36A1D43E36A1BB12046FFF770FFAE
:1019100090B975612046FFF74DFFE26D3F2393407C
:10192000836000206065012384F83530C9E7E16AEF
:10193000206B01430A43DBE740236365012084F801
:101940003500BEE70120BCE73F8010F0F0B583B062
:10195000044600230193724B1D68724BA3FB0535AF
:10196000AD0A876D3E68C26D08239340334210D0A4
:1019700003681A6812F0040F0BD01A6822F00402F0
:101980001A60C26D08239340BB60436D43F00103AE
:101990004365E26D01239340334209D022685269C6
:1019A00012F0800F04D0BB60636D43F002036365E7
:1019B000E26D04239340334209D02268126812F08A
:1019C000020F04D0BB60636D43F004036365E26DF6
:1019D00010239340334224D02268126812F0080F7B
:1019E0001FD0BB6023681A6812F4802F0DD01B68CB
:1019F00013F4002F04D1236C9BB12046984710E0CC
:101A0000A36C73B1204698470BE01A6812F4807FEC
:101A100003D11A6822F008021A60236C0BB1204629
:101A20009847E26D20239340334255D022681268D4
:101A300012F0100F50D0BB6094F83530DBB2052B9C
:101A40000ED023681A6812F4802F33D01B6813F469
:101A5000002F2AD1636C002B3ED0204698473BE0F4
:101A60002268136823F0160313602268536923F079
:101A700080035361236CA3B12268136823F0080329
:101A80001360E26D3F239340BB60012384F835303F
:101A9000002384F83430236D002B3FD02046984734
:101AA0003CE0A36C002BE7D1EBE7E36BA3B120464E
:101AB000984711E01A6812F4807F09D11A6822F061
:101AC00010021A60012384F83530002384F8343082
:101AD000E36B0BB120469847636DFBB1636D13F068
:101AE000010F17D0052384F835302268136823F0DE
:101AF00001031360019B01330193AB4204D82368B7
:101B00001B6813F0010FF5D1012384F83530002351
:101B100084F83430E36C0BB12046984703B0F0BD35
:101B200028000020B5814E1B00230F2B00F2D78028
:101B300070B582B065E085684FEA430E032404FA6D
:101B40000EF425EA0405CC6804FA0EF42C438460F4
:101B5000446824EA02044A68C2F300129A4022430D
:101B600042605CE0DC08083450F8242003F00705EC
:101B7000AD004FF00F0E0EFA05FE22EA0E0E0A69B6
:101B8000AA4042EA0E0240F824205CE0042200E071
:101B9000002202FA0EF22A430234514D45F8242065
:101BA000504A94686FEA0C0224EA0C054E6816F459
:101BB000801F01D04CEA04054A4CA560E46802EAA3
:101BC00004054E6816F4001F01D04CEA0405454C8C
:101BD000E560646802EA04054E6816F4003F01D02F
:101BE0004CEA04053F4C6560246822404D6815F4BA
:101BF000803F01D04CEA04023A4C226001330F2BA3
:101C00006BD801229A400C6804EA020C32EA040400
:101C1000F4D14C6804F00304013C012C8BD94A68D0
:101C200002F00302032A09D0C4685D000322AA401F
:101C300024EA02048A68AA402243C2604A6802F089
:101C40000302022A8ED004684FEA430E032202FAEE
:101C50000EF224EA02044A6802F0030202FA0EF2CB
:101C6000224302604A6812F4403FC7D0002201922A
:101C70001D4A546C44F480445464526C02F4804213
:101C80000192019A9C08A51C154A52F8255003F0B0
:101C9000030E4FEA8E0E0F2202FA0EF225EA02051B
:101CA000124A90423FF474AF02F5806290420ED027
:101CB00002F5806290420CD002F5806290420AD018
:101CC00002F5806290423FF461AF072261E7012292
:101CD0005FE702225DE703225BE702B070BD704759
:101CE00000380140003C0140003802400000024042
:101CF0000369194201D001207047002070470AB1E2
:101D000081617047090481617047436901EA0302F8
:101D100021EA030141EA02418161704708B5054BA0
:101D20005B69034200D108BD024B5861FFF716F909
:101D3000F9E700BF003C014003685A6912F4806F64
:101D400001D1002070476FF480625A610023036361
:101D5000202280F83D2080F83E30026C42F00402E0
:101D6000026480F83C30012070472DE9F0410646BE
:101D70000C46174698463BE0FFF786FC069BC01AC8
:101D8000404502D8B8F1000F32D1012D18D0336888
:101D90009B6924EA03039BB2B3FA83F35B099F4276
:101DA00026D100233363202286F83D2086F83E307A
:101DB000326C42F02002326486F83C30012027E089
:101DC00033685B6924EA03039BB2B3FA83F35B09CC
:101DD000E5E733685B6924EA030C1FFA8CFCBCFA64
:101DE0008CFC4FEA5C1C674511D1B8F1FF3FC3D1B1
:101DF000C4F30745012DECD033689B6924EA030C3A
:101E00001FFA8CFCBCFA8CFC4FEA5C1CEBE7002050
:101E1000BDE8F0812DE9F84305460E469046994607
:101E200053E01A6842F400721A602B686FF4806203
:101E30005A6100232B63202285F83D2085F83E302F
:101E40002A6C42F004022A6485F83C3001204AE002
:101E5000FFF71AFCA0EB0900404502D8B8F1000FCB
:101E600033D1012F17D02B689B6926EA03039BB25D
:101E7000003B18BF012343B300232B63202285F8C6
:101E80003D2085F83E302A6C42F020022A6485F815
:101E90003C30012027E02B685B6926EA03039BB2F4
:101EA000003B18BF0123E6E72B689C6926EA04047F
:101EB000A4B2003C18BF0124A4B12B685A6912F4E3
:101EC000806FAED1B8F1FF3FC2D1C6F30747012FF3
:101ED000EAD12B685C6926EA0404A4B2003C18BF6E
:101EE0000124E9E70020BDE8F88370B504460D46FB
:101EF000164623685B6913F0800F21D12046FFF757
:101F00001BFFF8B9B5F1FF3FF3D0FFF7BDFB801B16
:101F1000A84201D8002DECD123685B6913F0800F33
:101F2000E7D100232363202284F83D2084F83E304B
:101F3000226C42F02002226484F83C30012000E050
:101F4000002070BD0120FCE72DE9F04385B0044678
:101F50000D4691461F46DDF830800D9E03681968D6
:101F600041F4807119600096434600224FF0011140
:101F7000FFF7FBFE60B9236805F0FE051D613346DF
:101F8000424626492046FFF745FF68B1012008E098
:101F900023681B6813F4807F02D04FF4007323641E
:101FA000032005B0BDE8F0830023039323685A693A
:101FB00003929B690393039B324641462046FFF7F9
:101FC00094FF30B9012F0FD123685FFA89F61E61A3
:101FD000E7E7236C042B01D00120E2E722681368B5
:101FE00043F400731360F7E723684FEA19221A617C
:101FF000324641462046FFF778FF20B923685FFA52
:1020000089F61E61CDE7236C042B01D00120C8E7BF
:102010002268136843F400731360F7E702000100BD
:102020002DE9F04784B004460D46164699460C9FAC
:10203000DDF834800268136843F48063136003683A
:10204000196841F480711960CDF800803B46002288
:102050004FF00111FFF789FE70B95FFA85FA236826
:1020600005F0FE051D6143463A4641492046FFF70B
:10207000D1FE68B1012008E023681B6813F4807F5B
:1020800002D04FF400732364032004B0BDE8F0874E
:102090000023039323685A6903929B690393039B6C
:1020A000424639462046FFF720FF80B9B9F1010FBB
:1020B00018D12368F6B21E61424639462046FFF722
:1020C00014FF68B3236C042B24D00120DDE7236CBC
:1020D000042B01D00120D8E72268136843F4007371
:1020E0001360F7E72368320A1A61424639462046F0
:1020F000FFF7FBFE18B92368F6B21E61DCE7236C1C
:10210000042B01D00120C0E72268136843F4007358
:102110001360F7E72268136843F400731360D4E791
:102120002268136843F480731360CDF800803B4647
:1021300000224FF001112046FFF717FE68B9226810
:102140004AF00103136143463A4609492046FFF726
:1021500061FE002899D0012097E723681B6813F4DB
:10216000807F02D04FF40073236403208DE700BF0B
:102170000200010070B504460D46164623685B69EF
:1021800013F0040F21D12046FFF7D6FDF8B9B5F1C1
:10219000FF3FF3D0FFF778FA801BA84201D8002D4B
:1021A000ECD123685B6913F0040FE7D100232363AC
:1021B000202284F83D2084F83E30226C42F0200238
:1021C000226484F83C30012000E0002070BD012032
:1021D000FCE770B504460D46164614E06FF0100299
:1021E0005A6100232363202284F83D2084F83E3086
:1021F000226C226484F83C30012025E023685B696E
:1022000013F0400F10D02368586910F0400F1AD116
:10221000586910F0100FE1D1FFF736FA801BA84281
:10222000ECD8002DEFD1E9E700232363202284F8C6
:102230003D2084F83E30226C42F02002226484F873
:102240003C30012000E0002070BD0000002800F0BC
:10225000CC8070B5044690F83D30002B77D0242315
:1022600084F83D302268136823F00103136022686C
:10227000136843F4004313602268136823F4004397
:10228000136000F069FF62685A4B9A4264D85A4B57
:1022900098428CBF00230123002B40F0A8805749AF
:1022A000A1FB00318B0C25686A6822F03F0242EAEC
:1022B00091426A6021680A6A22F03F0266684D4DC9
:1022C000AE424FD8013313430B622168CA6922F42E
:1022D0004F4222F0FF026568464B9D424CD8431E98
:1022E0006D00B3FBF5F3013340F6FC70034278D088
:1022F000C3F30B031A43CA6121680B6823F0C003C0
:10230000E269206A024313430B6021688B6823F45F
:10231000034323F0FF032269E068024313438B6009
:102320002168CB6823F0FF036269A069024313436D
:10233000CB602268136843F001031360002020641F
:10234000202384F83D30206384F83E0070BD80F87F
:102350003C3000F0A3FA82E7294B98428CBF00235F
:10236000012399E74FF4967505FB03F3254DA5FB73
:1023700003539B090133A6E7A668BEB9431E05EBCC
:10238000450CB3FBFCF30133C3F30B03B3FA83F344
:102390005B0943BBC6B9431E05EB4505B3FBF5F32B
:1023A0000133C3F30B0343F40043A3E7431E05EBE0
:1023B000850C0CEB8C0CB3FBFCF30133C3F30B0368
:1023C000B3FA83F35B09E4E7431E05EB850505EBF0
:1023D0008505B3FBF5F30133C3F30B0343F440432B
:1023E00088E7042386E7012384E701207047012062
:1023F000ACE700BFA08601007F841E0083DE1B4384
:10240000FF083D00D34D62102DE9F04383B0044630
:102410000F46904699460C9EFFF736F9054694F80C
:102420003D00C0B2202803D0022003B0BDE8F083F5
:102430000095192301224B492046FFF796FC0028FE
:1024400040F0898094F83C30012B00F08680012315
:1024500084F83C3023681A6812F0010F03D11A681F
:1024600042F001021A602268136823F400631360CB
:10247000212384F83D30402384F83E300023236438
:102480000A9B6362BDF82C306385638D2385364BD0
:10249000E362019500964B46424639462046FFF7D7
:1024A00053FD00285BD1238D002B35D02A463146C1
:1024B0002046FFF71AFD20BB626A236812781A6172
:1024C000626A531C6362218D013989B22185638D53
:1024D0009BB2013B9BB263852368586910F0040FDF
:1024E000E1D00029DFD052781A61636A0133636258
:1024F000238D013B2385638D9BB2013B9BB263859A
:10250000D1E7236C042B01D001208EE722681368E9
:1025100043F400731360F7E72A4631462046FFF77D
:1025200029FE50B1236C042B01D001207DE72268E5
:10253000136843F400731360F7E72268136843F4E9
:1025400000731360202384F83D30002384F83E306C
:1025500084F83C3069E7022067E7022065E7012044
:1025600063E700BF020010000000FFFF2DE9F04309
:1025700087B004460F4690469946109EFFF784F8B0
:10258000054694F83D00C0B2202804D00227384602
:1025900007B0BDE8F0830095192301228849204641
:1025A000FFF7E3FB002840F04D8194F83C30012B0D
:1025B00000F04A81012384F83C3023681A6812F045
:1025C000010F03D11A6842F001021A6022681368F1
:1025D00023F400631360222384F83D30402384F801
:1025E0003E30002323640E9B6362BDF83C3063855C
:1025F000638D2385734BE362019500964B464246FB
:1026000039462046FFF70CFD0746002840F01E81A2
:10261000238D5BB9029323685A6902929A690292E8
:10262000029A1A6842F400721A6075E0012B0AD00F
:10263000022B1AD00023059323685A6905929B69DF
:102640000593059B68E02268136823F48063136098
:102650000023039323685A6903929A690392039AA9
:102660001A6842F400721A6056E02268136823F474
:10267000806313602268136843F4006313600023CF
:10268000049323685A6904929B690493049B43E072
:102690002A4631462046FFF79CFD002840F0D880AE
:1026A00023681A69636A1A70636A01336362238D4F
:1026B000013B2385638D9BB2013B9BB263852BE07D
:1026C00000953346002240492046FFF74EFB002884
:1026D00040F0C0802268136843F4007313602368DD
:1026E0001A69636A1A70626A531C6362238D013B24
:1026F0002385638D9BB2013B9BB2638523681B6975
:102700005370636A01336362238D013B2385638DBC
:102710009BB2013B9BB26385238D002B00F0898027
:10272000032B53D8012BB3D0022BC9D000953346CD
:10273000002225492046FFF718FB002840F08C8036
:102740002268136823F48063136023681A69636A3C
:102750001A70636A01336362238D013B2385638DA5
:102760009BB2013B9BB2638500953346002216491C
:102770002046FFF7FAFA002870D12268136843F464
:102780000073136023681A69636A1A70626A531CC3
:102790006362238D013B2385638D9BB2013B9BB21A
:1027A000638523681B695370636A01336362238DF9
:1027B000013B2385638D9BB2013B9BB26385ABE7F5
:1027C000020010000000FFFF040001002A4631460D
:1027D0002046FFF7FEFC002842D123681A69636A8D
:1027E0001A70636A01336362228D013A92B22285C4
:1027F000638D9BB2013B9BB263852368596911F0DD
:10280000040F89D0032A0FD023681A69636A1A70EB
:10281000636A01336362238D013B2385638D9BB221
:10282000013B9BB2638577E71A6822F480621A60E5
:10283000EAE7202384F83D30002384F83E3084F812
:102840003C30A4E60227A2E60227A0E601279EE686
:1028500001279CE601279AE6012798E6012796E6DC
:10286000012794E682B0002100910B4B5A6C42F490
:1028700080425A645A6C02F480420092009A01919C
:102880001A6C42F080521A641B6C03F0805301935F
:10289000019B02B0704700BF003802402DE9F041B3
:1028A0008CB000230793089309930A930B93036852
:1028B0004D4A934208D04D4A934228D04C4A934205
:1028C00058D00CB0BDE8F08100250095494C236B31
:1028D00043F002032363236B03F002030093009B86
:1028E000C02307931223089303230A9304230B9313
:1028F00007A94148FFF718F90195236C43F4001329
:102900002364236C03F400130193019BD9E7002592
:102910000295384C236B43F002032363236B03F0CF
:1029200002030293029B4FF4806307934FF0120857
:10293000CDF8208003270A9704230B932E4E07A976
:102940003046FFF7F1F808230793CDF8208009956A
:102950000A9709230B9307A93046FFF7E5F803957B
:10296000236C43F480032364236C03F480030393F8
:10297000039BA6E7002504951E4C236B43F001033F
:102980002363236B03F001030493049B0595236BDE
:1029900043F002032363236B03F002030593059BBB
:1029A0004FF4807307931227089703260A9604238F
:1029B0000B9307A91148FFF7B7F81023079308975F
:1029C00009950A9609230B9307A90B48FFF7ACF862
:1029D0000695236C43F400032364236C03F4000383
:1029E0000693069B6DE700BF00540040005800406E
:1029F000005C004000380240000402400000024039
:102A000030B58BB000230593069307930893099381
:102A10000368344A934204D0334A93423ED00BB009
:102A200030BD044600250195304B5A6C42F480526B
:102A30005A645A6C02F480520192019A02951A6B00
:102A400042F001021A631B6B03F001030293029B25
:102A5000E023059302230693032308930523099398
:102A600005A92348FFF760F82248234B03604FF085
:102A7000C06343608560C5604FF480630361456156
:102A80008561C56105624562FEF7FAFE18B9194B0A
:102A9000E3649C63C3E7FEF769FAF8E7002103915A
:102AA000124B1A6C42F480421A641A6C02F480428F
:102AB0000392039A04911A6B42F002021A631B6B91
:102AC00003F002030493049B4FF460430593022335
:102AD0000693032308930523099305A90748FFF7E5
:102AE00023F89CE7003001400038004000380240E5
:102AF00000000240EC02002010640240000402408A
:102B000002680E4B9A4200D0704700B583B0002196
:102B1000019103F570435A6C42F480225A645B6C55
:102B200003F480230193019B0A461A20FEF71AFE44
:102B30001A20FEF727FE03B05DF804FB00480140B1
:102B4000002800F0E08170B582B00446036813F0FD
:102B5000010F3BD09F4B9B6803F00C03042B2CD040
:102B60009C4B9B6803F00C03082B21D06368B3F5E2
:102B7000803F4FD0B3F5A02F52D0964B1A6822F465
:102B800080321A601A6822F480221A606368002B6F
:102B900050D0FEF779FD05468E4B1B6813F4003FBD
:102BA00014D1FEF771FD401B6428F5D90320B1E173
:102BB000884B5B6813F4800FD8D0864B1B6813F4E6
:102BC000003F03D06368002B00F09F81236813F05F
:102BD000020F54D07F4B9B6813F00C0F3ED07D4BFF
:102BE0009B6803F00C03082B33D0E368002B68D0FC
:102BF000794B01221A60FEF747FD0546754B1B68AD
:102C000013F0020F54D1FEF73FFD401B0228F5D907
:102C100003207FE16F4A136843F480331360B5E704
:102C20006C4B1A6842F480221A601A6842F48032AF
:102C30001A60ABE7FEF728FD0546664B1B6813F4E8
:102C4000003FC3D0FEF720FD401B6428F5D90320C8
:102C500060E1604B5B6813F4800FC6D15D4B1B686D
:102C600013F0020F03D0E368012B40F05081594A62
:102C7000136823F0F803216943EAC1031360236852
:102C800013F0080F42D063696BB3534B0122C3F8B2
:102C9000802EFEF7F9FC05464E4B5B6F13F0020FDA
:102CA00034D1FEF7F1FC401B0228F5D9032031E1B5
:102CB000484A136823F0F803216943EAC10313600B
:102CC000DDE7454B00221A60FEF7DEFC0546414B6E
:102CD0001B6813F0020FD2D0FEF7D6FC401B02286F
:102CE000F5D9032016E13C4B0022C3F8802EFEF7F5
:102CF000CBFC0546374B5B6F13F0020F06D0FEF797
:102D0000C3FC401B0228F5D9032003E1236813F01C
:102D1000040F77D02F4B1B6C13F0805F33D100234F
:102D200001932C4B1A6C42F080521A641B6C03F016
:102D300080530193019B0125284B1B6813F4807F6E
:102D400023D0A368012B34D0052B38D0214B1A6F28
:102D500022F001021A671A6F22F004021A67A368B0
:102D6000002B3DD0FEF790FC06461A4B1B6F13F06C
:102D7000020F46D1FEF788FC801B41F2883398424F
:102D8000F3D90320C6E00025D6E7144A136843F4BC
:102D900080731360FEF778FC0646104B1B6813F433
:102DA000807FCED1FEF770FC801B0228F5D903206E
:102DB000B0E0084A136F43F001031367CFE7054BF8
:102DC0001A6F42F004021A671A6F42F001021A6782
:102DD000C5E700BF003802400000474200700040D5
:102DE000FEF752FC0646524B1B6F13F0020F08D041
:102DF000FEF74AFC801B41F288339842F3D9032046
:102E000088E0EDB9A369002B00F08380484A9268FE
:102E100002F00C02082A51D0022B17D0454B002299
:102E20001A66FEF731FC0446414B1B6813F0007F25
:102E300042D0FEF729FC001B0228F5D9032069E0E7
:102E40003B4A136C23F080531364DBE7394B0022B9
:102E50001A66FEF719FC0546354B1B6813F0007F18
:102E600006D0FEF711FC401B0228F5D9032051E0E3
:102E7000E369226A1343626A43EA8213A26A520830
:102E8000013A43EA0243E26A43EA0263284A536092
:102E9000284B01221A66FEF7F7FB0446244B1B68F9
:102EA00013F0007F06D1FEF7EFFB001B0228F5D9D7
:102EB00003202FE000202DE000202BE0012B2BD061
:102EC0001B4B5B6803F48001E269914226D103F059
:102ED0003F02216A8A4223D1616A47F6C0721A40D2
:102EE000B2EB811F1ED103F44031A26A5208013AAD
:102EF000B1EB024F18D103F07063E26AB3EB026FDB
:102F000014D1002006E001207047012002E00120DA
:102F100000E0002002B070BD0120FBE70120F9E7CE
:102F20000120F7E70120F5E70120F3E70120F1E7B1
:102F30000038024000004742014B0122DA6470472A
:102F40000000474208B5264B9B6803F00C03042B96
:102F500041D0082B41D1224B5A6802F03F025B68F6
:102F600013F4800F12D01E4B5968C1F388111D480D
:102F70000023A1FB0001FDF7CBF9194B5B68C3F3FC
:102F8000014301335B00B0FBF3F008BD144B5868FC
:102F9000C0F388104FEA401CBCEB000C6EEB0E0E29
:102FA0004FEA8E1343EA9C634FEA8C11B1EB0C019C
:102FB00063EB0E03DB0043EA5173C90011EB000C15
:102FC00043F10003990200234FEA8C2041EA9C510F
:102FD000FDF79EF9D1E70348D7E70348D5E700BFDF
:102FE0000038024040787D010024F400002800F001
:102FF0009B8070B50D4604464F4B1B6803F00703DA
:103000008B4208D2CBB24C4A1370136803F007030B
:103010008B4240F08B80236813F0020F17D013F01F
:10302000040F04D0454A936843F4E0539360236847
:1030300013F0080F04D0414A936843F4604393604F
:103040003E4A936823F0F003A1680B439360236822
:1030500013F0010F32D06368012B21D09A1E012A90
:1030600025D9364A126812F0020F61D033498A68B6
:1030700022F0030213438B60FEF706FB06462F4B3C
:103080009B6803F00C036268B3EB820F16D0FEF767
:10309000FBFA801B41F288339842F0D9032042E0CA
:1030A000264A126812F4003FE0D101203BE0234A97
:1030B000126812F0007FD9D1012034E01E4B1B684A
:1030C00003F00703AB4207D9EAB21B4B1A701B6827
:1030D00003F00703AB422DD1236813F0040F06D091
:1030E000164A936823F4E053E1680B439360236826
:1030F00013F0080F07D0114A936823F46043216945
:1031000043EAC1039360FFF71DFF0C4B9B68C3F3B9
:1031100003130B4AD35CD8400A4B18600A4B18685B
:10312000FEF766FA002070BD012070470120FAE723
:103130000120F8E70120F6E7003C02400038024099
:10314000408400082800002020000020014B18685F
:10315000704700BF2800002008B5FFF7F7FF044BB9
:103160009B68C3F38223034AD35CD84008BD00BFE9
:1031700000380240388400087047000008B5064B4C
:10318000DB6813F0800F00D108BDFFF7F5FF024B9D
:1031900080229A73F8E700BF003802402DE9F0471B
:1031A00082B00546884617461E46FEF76DFA0A9B12
:1031B0001B1A03EB0609FEF767FA8246284B1B68C9
:1031C000C3F3CB3309FB03F301932B689C6838EA04
:1031D00004040CBF01230023BB423DD0B6F1FF3FE6
:1031E000F3D0FEF751FAA0EB0A00484503D2019B49
:1031F00073BB9946E9E72A68536823F0E0035360FC
:103200006B68B3F5827F0BD0AB6AB3F5005F14D067
:10321000012385F85130002385F8503003201CE04D
:10322000AB68B3F5004F02D0B3F5806FECD12A68DC
:10323000136823F040031360E6E72A68136823F459
:10324000005313602A68136843F400531360DFE7E8
:10325000019B013B0193B8E7002002B0BDE8F08775
:103260002800002070B584B004460D461646009232
:103270000B4601220221FFF791FFD0B9174B1B68C3
:10328000174AA2FB03235B0D4FF47A7202FB03F390
:1032900003936368B3F5827F11D0039B3BB1039B1B
:1032A000013B039323689B6813F0800FF5D104B0B2
:1032B00070BD636D43F0200363650320F7E700965C
:1032C0002B46002280212046FFF768FF0028EED021
:1032D000636D43F0200363650320E8E728000020C6
:1032E000819F5E1600285AD010B50446436A33B950
:1032F0004368B3F5827F05D00023C36102E0002359
:10330000036143610023A36294F85130002B40D045
:10331000022384F851302268136823F040031360BD
:10332000636803F48273A26802F404421343E26800
:1033300002F400621343226902F00202134362693D
:1033400002F001021343A26902F400721343E2691E
:1033500002F038021343226A02F080021343A26A89
:1033600002F40052216813430B60638B03F00403E3
:10337000626A02F01002216813434B602268D3692D
:1033800023F40063D36100206065012384F8513089
:1033900010BD84F850302046FFF732FBB8E701201B
:1033A00070472DE9F04383B00446894690461D4698
:1033B000FEF76AF994F85160F6B2012E40F0CC8025
:1033C0000746B9F1000F00F0C880B8F1000F00F017
:1033D000C48094F85030012B00F0C380012384F89E
:1033E0005030032384F8513000236365C4F83090D3
:1033F000A4F83480A4F83680A363A387E3876364CA
:103400002364A368B3F5004F1ED023681A6812F036
:10341000400F03D11A6842F040021A60E368B3F526
:10342000006F1CD0636813B1B8F1010F5FD1226B3C
:10343000236812781A73236B01332363E38E9BB2E4
:10344000013B9BB2E38652E02268136823F04003FD
:1034500013602268136843F480431360D5E7636800
:1034600013B1B8F1010F15D1226B23681288DA600D
:10347000236B02332363E38E9BB2013B9BB2E38653
:1034800008E0FEF701F9C01BA84202D3B5F1FF3FE7
:1034900015D1A5B1E38E9BB2002B42D023689A6868
:1034A00012F0020FEDD0226B1288DA60236B023328
:1034B0002363E38E9BB2013B9BB2E386EAE70123E1
:1034C00084F85130002384F85030032645E0226B05
:1034D00012781A73236B01332363B4F836C01FFAD2
:1034E0008CFC0CF1FF3C1FFA8CFCA4F836C0E38E78
:1034F0009BB2B3B123689A6812F0020FE7D1FEF7CE
:10350000C3F8C01BA84202D3B5F1FF3F01D1002D83
:10351000EDD1012384F85130002384F85030032684
:103520001BE03A4629462046FFF79CFE08B12023BF
:103530006365A36833B901932368DA6801929B68D5
:103540000193019B012384F85130002384F850300B
:10355000636D13B9002600E00226304603B0BDE8D3
:10356000F0830226F9E72DE9F04383B0044688464C
:1035700091461F460A9DFEF787F8064694F851309B
:10358000DBB26268012B0AD0B2F5827F40F0058180
:10359000A268002A40F00581042B40F00481B8F1B4
:1035A000000F00F00281B9F1000F00F00081002F40
:1035B00000F0FF8094F85030012B00F0FC800123D4
:1035C00084F8503094F85130DBB2042B02D005233C
:1035D00084F8513000236365C4F83890E787A787E3
:1035E000C4F83080E786A7862364636423681A687A
:1035F00012F0400F03D11A6842F040021A60E368EB
:10360000B3F5006F11D063680BB1012F0BD1226BA2
:10361000236812781A73236B01332363E38E9BB202
:10362000013B9BB2E386012771E063680BB1012F78
:103630000BD1226B23681288DA60236B0233236379
:10364000E38E9BB2013B9BB2E38601271BE023681C
:103650009A6812F0010F0ED0E28F92B25AB1DA6876
:10366000A36B1A80A36B0233A363E38F9BB2013B6E
:103670009BB2E3870127FEF707F8801BA84202D31D
:10368000B5F1FF3F1ED1E38E9BB21BB9E38F9BB216
:10369000002B62D023689A6812F0020FD7D0E28E16
:1036A00092B2002AD3D0002FD1D0226B1288DA60D8
:1036B000236B02332363E38E9BB2013B9BB2E38611
:1036C0000027C4E7012384F85130002384F85030E8
:1036D000032063E023689A6812F0010F0ED0E28F96
:1036E00092B25AB1DA68A36B1A70A36B0133A36369
:1036F000E38F9BB2013B9BB2E3870127FDF7C4FF39
:10370000831BAB4202D3B5F1FF3F1ED1EDB1E38E77
:103710009BB213B9E38F9BB2FBB123689A6812F096
:10372000020FD7D0E28E92B2002AD3D0002FD1D090
:10373000226B12781A73236B01332363E38E9BB2DF
:10374000013B9BB2E3860027C4E7012384F8513094
:10375000002384F85030032020E0324629462046DA
:10376000FFF780FD90B9A36833B901932368DA6845
:1037700001929B680193019B012384F8513000233F
:1037800084F85030636D4BB1012007E0202363655E
:10379000002384F85030012000E0022003B0BDE88F
:1037A000F0830220FAE70220F8E70120F6E7012083
:1037B000F4E70120F2E70220F0E790F851007047AB
:1037C00090F83D30DBB2012B2FD1022380F83D3041
:1037D0000268D36843F00103D3600368154A93423B
:1037E00018D0B3F1804F15D0A2F57C42934211D08E
:1037F00002F5806293420DD002F58062934209D0B7
:1038000002F59A32934205D01A6842F001021A601A
:10381000002070479A6802F00702062A07D01A684B
:1038200042F001021A60002070470120704700201A
:10383000704700BF000001407047704770477047F5
:1038400070B504460368DE681D6915F0020F10D0DC
:1038500016F0020F0DD06FF002021A6101230377F8
:1038600003689B6913F0030F5ED0FFF7E6FF0023A8
:10387000237715F0040F12D016F0040F0FD0236831
:103880006FF004021A610223237723689B6913F403
:10389000407F4FD02046FFF7D0FF0023237715F05D
:1038A000080F12D016F0080F0FD023686FF008022F
:1038B0001A61042323772368DB6913F0030F40D0D8
:1038C0002046FFF7BAFF0023237715F0100F12D020
:1038D00016F0100F0FD023686FF010021A61082342
:1038E00023772368DB6913F4407F31D02046FFF74C
:1038F000A4FF0023237715F0010F02D016F0010F6B
:103900002DD115F0800F02D016F0800F2FD115F0B9
:10391000400F02D016F0400F31D115F0200F02D029
:1039200016F0200F33D170BDFFF786FF2046FFF75A
:1039300085FF9CE72046FFF77FFF2046FFF77EFFCD
:10394000ABE72046FFF778FF2046FFF777FFBAE79F
:103950002046FFF771FF2046FFF770FFC9E7236895
:103960006FF001021A612046FDF738FAC9E72368B3
:103970006FF080021A61204600F091F8C7E72368D3
:103980006FF040021A612046FFF759FFC5E7236830
:103990006FF020021A61204600F080F8C3E70000B3
:1039A0000368274A90420ED0B0F1804F0BD0A2F5A9
:1039B0007C42904207D002F58062904203D002F52B
:1039C0008062904203D123F070034A6813431C4A7B
:1039D00090421AD0B0F1804F17D0A2F57C429042AD
:1039E00013D002F5806290420FD002F580629042BF
:1039F0000BD002F59A32904207D002F580629042D5
:103A000003D002F58062904203D123F44073CA6868
:103A1000134323F080034A6913438A68C2620A6829
:103A20008262074A904207D0026842F004020260B4
:103A300001224261036070470A690263F4E700BF34
:103A40000000014040B310B5044690F83D30F3B19A
:103A5000022384F83D30214651F8040BFFF7A0FF04
:103A6000012384F8463084F83E3084F83F3084F8EF
:103A7000403084F8413084F8423084F8433084F890
:103A8000443084F8453084F83D30002010BD80F883
:103A90003C30FFF735F8DBE701207047704770478F
:103AA00008B5FFF76BFBFEE7FEE7FEE7FEE7FEE784
:103AB00070477047704708B5FDF7DAFD08BD08B5D7
:103AC0004FF40070FEF72AF908BD000008B502485F
:103AD000FFF7B6FE08BD00BFA402002008B50248EB
:103AE000FDF734FF08BD00BFEC0200200120704745
:103AF00008B502F061F9162303604FF0FF3008BDEE
:103B000008B54FF0FF31FFF7F3FFFEE770B50C4645
:103B10001646002506E0AFF30080214601F8010BB0
:103B200001350C46B542F6DB304670BD70B50C462B
:103B30001646002504E014F8010BAFF300800135B0
:103B4000B542F8DB304670BD4FF0FF3070474FF4A0
:103B500000534B60002070470120704700207047E1
:103B600010B503460C4A0D490D48006840B10C4899
:103B700000680344521A934206D8094A136010BDE4
:103B80000748084C0460F2E702F016F90C230360C2
:103B90004FF0FF30F3E700BF008001200004000079
:103BA00008090020880A0020034AD2F8883043F42C
:103BB0007003C2F88830704700ED00E008B500F0EF
:103BC00025F908BD08B500F0D7F908BD08B500F023
:103BD000DDF908BD08B500F01FFA08BD08B500F012
:103BE00073FA08BD00B587B08DF80F00322300933B
:103BF00001230DF117020DF10F010448FFF7B3FC8B
:103C00009DF8170007B05DF804FB00BFA403002077
:103C100070B50646FDF738FD0546FF20FFF7E2FFC9
:103C20000446FF2804D0FDF72FFD401BB042F4D31B
:103C3000FF2C14BF0020012070BD70B506460D4654
:103C4000002404E0FF20FFF7CDFF30550134AC42E3
:103C5000F8D370BD08B5012210210348FEF74FF8D4
:103C6000FF20FFF7BFFF08BD0000024010B5002293
:103C700010210948FEF743F8FF20FFF7B3FF4FF488
:103C8000FA70FFF7C5FF10B10124204610BD0446AD
:103C9000FFF7E0FFF9E700BF0000024038B5044637
:103CA0000D4610F0800F1DD10C2C04D0FFF7D2FF71
:103CB000FFF7DCFFB0B344F04000FFF793FF280E9E
:103CC000FFF790FFC5F30740FFF78CFFC5F3072010
:103CD000FFF788FFE8B2FFF785FF64B1082C1BD01F
:103CE000012009E000F07F0400213720FFF7D6FF14
:103CF0000128D9D90FE09520FFF774FF0C2C0DD0C7
:103D00000A24FF20FFF76EFF10F0800F03D0631E20
:103D100013F0FF04F5D138BD8720EDE7FF20FFF752
:103D200061FFEDE7FF20F6E708B54FF0FF338AB2F9
:103D300001460248FFF735FB08BD00BFA403002081
:103D400038B505460C464FF4FA70FFF761FF00B92D
:103D500038BD2046FFF746FFFD2C01D10120F7E7D3
:103D60004FF400712846FFF7DFFFFF20FFF73AFF0F
:103D7000FF20FFF737FFFF20FFF734FF00F01F00A1
:103D8000052801D10120E3E70020E1E710B5044652
:103D9000FDF77AFC024B1860024B1C6010BD00BF9F
:103DA000100900200C09002008B5FDF76DFC054B3B
:103DB0001B68C01A044B1B6898422CBF00200120CE
:103DC00008BD00BF100900200C09002070B5054691
:103DD0000E46C820FFF7DAFFFF20FFF703FF044677
:103DE000FF2803D1FFF7E0FF0028F5D1FE2C01D01A
:103DF000002070BD31462846FFF71FFFFF20FFF768
:103E0000F1FEFF20FFF7EEFE0120F2E7002840F070
:103E1000AB80564B1B7813F0020F09D170B582B0FE
:103E2000534B1A68136843F0380313600A2408E000
:103E30004E4B1878C0B27047FF20FFF7D3FE013C0D
:103E4000E4B2002CF8D100210846FFF727FF054611
:103E5000012817D0474B1C70FFF7FCFE002C7FD0C9
:103E6000434B1A68136823F0380343F010031360C0
:103E70003E4A137803F0FE0313703C4B1878C0B22F
:103E800002B070BD4FF47A70FFF780FF4FF4D57128
:103E90000820FFF703FF01283ED1254609E0FF2057
:103EA000FFF7A0FE05F108036B4403F8040C01358D
:103EB000EDB2032DF3D99DF80630012BCAD19DF840
:103EC0000730AA2BC6D1FFF76FFF30B14FF080410A
:103ED000A920FFF7E3FE0028F5D1FFF765FF08B939
:103EE0000446B7E700213A20FFF7D8FE054650B157
:103EF000B0E7FF20FFF776FE05F108036B4403F8F7
:103F0000040C0135EDB2032DF3D99DF8043013F004
:103F1000400F23D00C249DE70021A920FFF7BEFE0F
:103F200001280ED92E46FFF73FFF28B10021284671
:103F3000FFF7B4FE0028F6D1FFF736FF20B904469C
:103F400088E70226A925EEE74FF400711020FFF75D
:103F5000A5FE00287FF47EAF34467BE7042479E792
:103F6000024B01221A7088E70120704740000020B0
:103F7000A40300201409002018B9034B1878C0B21C
:103F800070470120704700BF40000020002839D151
:103F900038B50D461C46002B36D01D4B1B7813F050
:103FA000010F33D11B4B1B7813F0080F00D15202C5
:103FB000012C18D011461220FFF770FE68B94FF49B
:103FC00000712846FFF702FF18B105F50075013CA6
:103FD000F5D100210C20FFF761FEFFF73BFE201E0C
:103FE00018BF012038BD11461120FFF757FE0028E9
:103FF000F3D14FF400712846FFF7E8FE0028ECD01B
:104000000024EAE7042070470420EBE70320E9E7F7
:104010004000002014090020002848D170B50D464A
:1040200016461C46002B44D0254B1B7813F0010F7D
:1040300041D1234B1B7813F0040F3ED1214B1B7849
:1040400013F0080F00D15602012C1BD013F0060FFD
:1040500026D131461920FFF721FE68B9FC212846F8
:10406000FFF76EFE18B105F50075013CF6D1FD2194
:104070000020FFF765FEC0B1FFF7ECFD201E18BF62
:10408000012070BD31461820FFF708FE0028F3D14B
:10409000FE212846FFF754FE0028EDD00024EBE770
:1040A00021469720FFF7FAFDD3E70124E4E7042037
:1040B00070470420E5E70320E3E70220E1E700BFC3
:1040C000400000201409002070B584B0002840F0A2
:1040D00004810D461646834B1B7813F0010F40F008
:1040E000FE80042900F2ED80DFE811F005000C00ED
:1040F000EB005400AF00FFF7B9FD002840F0E3806B
:10410000012406E000210920FFF7C8FD044628B17C
:104110002C46FFF79FFD204604B070BD1021684675
:10412000FFF754FE002800F0D0809DF800309B0976
:10413000012B1FD09DF8052002F00F029DF80A30D8
:1041400002EBD3129DF809305B0003F006031A441A
:104150009DF808109DF807309B0003EB91139DF824
:104160000610890201F440610B440133073A934081
:104170003360CEE79DF809309DF8082003EB022359
:104180009DF80720120402F47C12134401339B02B1
:104190003360BEE7544B1B7813F0040F20D000218E
:1041A0008D20FFF77BFD08B10124B2E7FF20FFF768
:1041B00019FD10216846FFF709FE78B90124A8E728
:1041C000FF20FFF70FFD013CE4B2002CF8D19DF871
:1041D0000A2012091023934033609AE73024F4E751
:1041E00000210920FFF75AFD054608B1012490E798
:1041F00010216846FFF7EAFD002868D03A4B1C788A
:1042000014F0020411D09DF80A305B0003F07E0325
:104210009DF80B2003EBD21301339DF80D2092097A
:10422000013A934033602C4673E79DF80A20C2F3AD
:1042300084029DF80B10CB0003F0180303EB51131D
:10424000013302FB0333336063E7274B1B7813F022
:10425000060F01D101245CE76A460B21FFF734FF0A
:10426000B8BB9DF800309B0904D19DF80A3013F0CB
:10427000400F30D0316874681B4B1B7813F0080F67
:1042800001D1490264022020FFF708FD08B1012492
:104290003FE721462120FFF701FD08B1012438E75F
:1042A00000212620FFF7FAFC044608B1012430E77C
:1042B00047F23050FFF7ACFC00287FF42AAF01240E
:1042C00027E7042425E72C4623E72C4621E7012491
:1042D0001FE701241DE701241BE704241BE7032437
:1042E00019E700BF4000002014090020DFF834D097
:1042F000FFF75AFC0C480D490D4A002302E0D45840
:10430000C4500433C4188C42F9D30A4A0A4C00231F
:1043100001E013600432A242FBD301F053FDFCF72D
:104320001BFF7047008001200000002000010020DA
:10433000248A000800010020880A0020FEE700000F
:10434000002310B50446C0E90033C0E9043383609C
:1043500081814366C2818361194608225C3000F086
:104360002CF90D4B63620D4BA3620D4BE3620D4BB9
:1043700023630D4B24629C4206D003F168029442F1
:1043800002D0D0339C4205D104F15800BDE8104062
:1043900001F03CBD10BD00BF314500085745000885
:1043A0008F450008B345000818090020024A034958
:1043B000034800F069B800BF44000020FD68000811
:1043C0005C00002041680C4B994210B5044601D0B6
:1043D00002F094FAA168094B994202D0204602F0FB
:1043E0008DFAE168064B994204D02046BDE81040A2
:1043F00002F084BA10BD00BF180900208009002017
:10440000E809002010B50B4B0B4C0C4A1A602046F3
:1044100000220421FFF794FF04F168000122092122
:10442000FFF78EFF04F1D0000222BDE810401221F8
:10443000FFF786BF500A002018090020AD4300088E
:10444000014801F0E5BC00BF7F0A0020014801F0EF
:10445000E1BC00BF7F0A002010B50446FFF7F0FF63
:10446000236A1BB1BDE81040FFF7F0BF044B236285
:10447000044B1B68002BF5D1FFF7C4FFF2E700BF28
:10448000C5430008500A00202DE9F8430746884636
:1044900014460026D4E90195B9F1010905D524682F
:1044A000002CF7D13046BDE8F883AB89012B07D942
:1044B000B5F90E30013303D029463846C0470643CC
:1044C0006835E9E70CB430B5184B0C1E1D689DB07B
:1044D00008DA8B232B604FF0FF301DB0BDE8304071
:1044E00002B070474FF40273ADF814304FF0000380
:1044F0001B9314BF04F1FF332346049307934FF635
:10450000FF7302900690ADF81630209A21AB02A9F5
:104510002846019301F0E6FE431CBCBF8B232B60B1
:10452000002CDAD0029B00221A70D6E75800002037
:1045300010B50C46B1F90E1001F01AFC0028ABBF03
:10454000636DA3891B1823F48053ACBF6365A381FB
:1045500010BD002070472DE9F0411F468B89DB0517
:1045600005460C46164605D5B1F90E100223002269
:1045700001F0ECFBA389B4F90E1023F48053A3815E
:1045800032463B462846BDE8F04101F003BC10B579
:104590000C46B1F90E1001F0D9FB431CA38915BFDD
:1045A000606523F4805343F48053A38118BFA38133
:1045B00010BDB1F90E1001F0B9BB0244034693429D
:1045C00000D1704703F8011BF9E710B56AB1013952
:1045D000841810F8012B11F8013F9A4203D1A04230
:1045E00001D0002AF5D1D01A10BD1046FCE700001A
:1045F00038B50B4B1D686B6B044653B9242001F092
:10460000DDFC0246686320B9064B0748322101F001
:104610001DFC696B2046BDE8384000F007B800BFBC
:104620005800002050840008678400082DE9F041FC
:104630000C46074602F0E2F921460546384602F0EC
:10464000E1F943699907044603F26C7806D16422C4
:1046500098FBF2F302FB1383002B71D14FF4C87265
:1046600098FBF2F302FB1383B3FA83F35B095E4218
:10467000644B06F030061E4401F024F901F02EF9D7
:10468000614B1B68002B6AD06B6843455AD1D7E950
:1046900000232F68D5E90801002F5BD1824273EB1C
:1046A00001015EDB012323622B6D61684FF46162BF
:1046B00093FBF2F002FB10333C2293FBF2F502FB7A
:1046C000153223689B1AA2682360491B121A3B2BE0
:1046D0006160A26051DD013161603C3B2360636831
:1046E0003B2B50DD0132A2603C3B6360A368172B7B
:1046F0004FDDE2690132E261A2690132072AA8BFF7
:104700000022A261E268183B0132A3602369E260E3
:1047100056F823108A420EDD0B2BA2EB0102E26059
:1047200003F1010209BF636922610022013302BF64
:1047300022616361E26101F0CBF82046BDE8F081BF
:10474000012394E7404601F009F800289FD14FF07B
:10475000FF3304E0824273EB010102DA002323629B
:1047600009E0D5E9120182428B41B4BF0123002345
:104770002362002B98D1AB6A97E7002BAFDA01399F
:1047800061603C33AAE7002BB0DA013AA2603C3307
:10479000ABE7002BCFDAE269013AE261A269013AA4
:1047A00048BF0622A261E2681833013AE260A360C2
:1047B000002AC0D12369013B05D42361236956F83F
:1047C0002330E360B7E70B23236163695A1E6261FC
:1047D000920703F26B7305D1642193FBF1F201FBA5
:1047E000123262B94FF4C87293FBF2F102FB11333B
:1047F000B3FA83F35B0903F5B673E361DEE70123E4
:10480000F9E700BFB4870008740A0020F7B5016813
:104810003B29044611D93C22684601F035FB019A38
:1048200063680099002A0B446360BBBF3C3203F10C
:10483000FF3322602260B8BF636061683B2911D9F1
:104840003C22684601F020FB019AA3680099002AE7
:104850000B44A360BBBF3C3203F1FF336260626074
:10486000B8BFA360A168172911D91822684601F0C2
:104870000BFB019AE3680099002A0B44E360BBBF7D
:10488000183203F1FF33A260A260B8BFE360216970
:104890000B2911D90C22684601F0F6FA019A6369D6
:1048A0000099002A0B446361BBBF0C3203F1FF3354
:1048B00022612261B8BF636163699A071CD16421D8
:1048C00093FBF1F201FB1232C2B903F26C734FF4A5
:1048D000C87293FBF2F102FB1133002B0CBF1D23B6
:1048E0001C23E268002A0BDC314D0B206421E668B2
:1048F000002E30DD03B0F0BD1C23F2E71D23F0E7EE
:104900002B4DD4E90312012A14BF55F82200184692
:104910008142EFDD0132091A0C2AE1602261F0D1F7
:10492000636900215A1C2161910762613CD16421B5
:1049300092FBF1F001FB1022002A37D103F26D73D4
:104940004FF4C87293FBF2F102FB1133002B0CBF42
:104950001D231C23D5E72269013A2261013216D1B9
:1049600063695A1E9707C4E9040219D192FBF1F753
:1049700001FB1722B2B903F26B734FF4C87293FBB9
:10498000F2F702FB1733002B0CBF1D231C232269F7
:10499000012A14BF55F822201A463244E260A6E7E5
:1049A0001C23F4E71D23F2E71C23AAE71D23A8E735
:1049B000848700082DE9F04F85B0074602F01EF805
:1049C00081463846FFF722FFD7E900433C2202FB2D
:1049D0000344BB687D694FF4616202FB0344D7E97D
:1049E0000363C04A52F82320013E012B164411DD17
:1049F000A9070FD1642295FBF2F302FB135343B9CD
:104A000005F26C734FF4C87293FBF2F102FB1133A1
:104A100003B9013605F51C53103344F62062934266
:104A2000FE6100F26A81462D40F38E80462340F2FB
:104A30006D1C64214FF4C8709A077FD193FBF1F28B
:104A400001FB1232002A7CD103F26C7292FBF0FE61
:104A500000FB1E22002A0CBF4FF4B77262460133DE
:104A60009D421644E8D1A04B4FEAE478C6FB0348C8
:104A700000F028FF00F032FF9C4B1B68002B00F079
:104A80004381D7F820A078695346012BA8BF0123A2
:104A90000193D9F8043000F26C70834240F09680A4
:104AA000D9E90821D9F85000D9F84CC0131A03935A
:104AB000D9F848300293029AD9F8283061EBE07BAC
:104AC000B2EB030E6CEBE371744578EB010280F2FC
:104AD0008580D9F80020002A00F08D80039A944246
:104AE00078EB0B02C0F20D81744578EB0101B4BF85
:104AF0004FF0010B4FF0000BBAF1000F80F28780EE
:104B0000BBF1010F40F00281D9F850301C1948EB7D
:104B1000E3784FF0010B00F0DBFE0436072396FB31
:104B2000F3F3C3EBC303F61A00F1E580C7F820B036
:104B3000BE612046414605B0BDE8F08F40F26D12DF
:104B40008DE74FF4B7728AE78DD0452340F26D1C94
:104B500064214FF4C87012E062BB93FBF1F201FBD9
:104B6000123252BB03F26C7292FBF0FE00FB1E226B
:104B7000002A0CBF4FF4B7726246B61A013B9D4241
:104B800003F00302E8DBDAB9642295FBF2F302FBDF
:104B90001353C3B905F26C734FF4C87293FBF2F16F
:104BA00002FB1133002B40F26D1308BF4FF4B773B3
:104BB000F61A58E740F26D12DFE74FF4B772DCE700
:104BC00040F26D13F4E74FF4B773F1E700F0C6FD60
:104BD00000287FF465AFDDF804B091E7029A121A5D
:104BE00002924FEAE0726CEB020C029A944278EB6C
:104BF0000C0CF0DB6DE7039A944278EB0B02FFF6A6
:104C000073AFBAF1000FFFF67FAF4FF0010B019ABF
:104C100082EA0B0ABAF1010F7FF472AFBBF1000F09
:104C200037D01B1A3A681A441C193A603846FA6899
:104C3000019248EBE378FFF7E9FDFB68019A9B1AC4
:104C40003FF45EAF012B26DCB3F1FF3FA8BF9A46CD
:104C5000FB691AEB0303564426D56B1E99071DD139
:104C6000642293FBF2F102FB1133D3B94FF4C87302
:104C700005F26B7595FBF3F203FB1255002D40F224
:104C80006D1318BF4FF4B673FB6139E74FF0000B9B
:104C9000BDE7C31AC6E74FF0FF3AD9E74FF4B67342
:104CA000F2E740F26D13EFE7AA0717D1642195FBF5
:104CB000F1F201FB1252DAB94FF4C87205F26C75C9
:104CC00095FBF2F102FB1155002D40F26D1208BF69
:104CD0004FF4B7729342A8BF9B1AD5E740F26D120A
:104CE000F8E700BF5487000880510100740A0020D3
:104CF0004FF4B772EEE7073618E74FF0FF34A046DF
:104D000017E7BAF1000FC1DA4FF0000BD9F82830DD
:104D10001C1948EBE378FEE64269002A40F26C7306
:104D2000A8BF6FF063031344920705D1642193FB7E
:104D3000F1F201FB1232CAB94FF4C87293FBF2F1DF
:104D400002FB1133B3FA83F35B09D0E9060240009A
:104D500000EB0210184441F2A263984227D011DC04
:104D600001280ADCC043C00F404270470123ECE732
:104D7000104BC34043F3000070470A381728F7D997
:104D80000020704741F2B463984206DC41F2B163FF
:104D90009842D4BF002001207047A0F5B6500238D9
:104DA0001528EDD8044BC34003F0010070470120E3
:104DB000704700BFCF00CC001F002A002DE9F04F44
:104DC0008FB01E46002307460D4602931C461378FB
:104DD000002B00F0AA84252B1FD192F80190B9F185
:104DE000300F24D0B9F12B0F21D002F101084FF080
:104DF000000998F80020313A082A1BD80A224046B8
:104E000006A901F009FADDF81880024698F80010AA
:104E1000452911D108F1010810E0691EA14240F2B4
:104E20005D813B55013204F1010A5446CFE702F19E
:104E30000208DEE70022E9E74F29EBD098F80000EE
:104E4000A0F12501552900F24981DFE811F066043F
:104E50004701470147014701470147014701470112
:104E60004701470147014701470147014701470102
:104E700047014701470147014701470147014701F2
:104E80004701470147017500A300DC0028014701E5
:104E90005901CB014E0255024701470147016D02FE
:104EA0004701470178024701A80230033A0366032D
:104EB0006E03D403D800EA033C04470147014701CD
:104EC00047014701470156008D00BA001D011D0131
:104ED00047017E018D00470166024E0255026A02BB
:104EE0006F0247017802A102D000B10232035903D8
:104EF000A003CB03D400DC03FF03B369AD4A18332E
:104F000052F823B05846FBF755F90BF1FF3B04EB81
:104F1000000A6B1EA24507D198F80030002B00F064
:104F2000058408F1010280E7A34240F2D7801BF814
:104F3000012F3A550134EDE7B2699E4B03EB820332
:104F4000D3F87CB05846FBF735F90BF1FF3B04EB87
:104F5000000A6B1EA245DFD0A34240F2BF801BF8BF
:104F6000012F3A550134F5E7924B326953F822B0DC
:104F70005846FBF71FF90BF1FF3B04EB000A6B1ED1
:104F8000A245C9D0A34240F2A9801BF8012F3A558F
:104F90000134F5E73369874A0C3352F823B0584699
:104FA000FBF708F90BF1FF3B04EB000A6B1EA2456F
:104FB000B2D0A34240F292801BF8012F3A5501343F
:104FC000F5E77C4BD3F8A0A05046FBF7F3F89AF82E
:104FD0000030002B00F03D8333465246291B381920
:104FE000FFF7ECFE002879DD04EB000A94E7714B33
:104FF000D3F8E4A0E8E76F4BD3F89CA0E4E76D4B4F
:10500000D3F898A0E0E7D6F814A06B498A45ACBF66
:105010004FF0000B4FF0010BBAF1000F12DB6420D0
:105020009AFBF0F01330B9F1000F15D0632828DD9A
:10503000624B6349B9F12B0F0CBF9C468C46DFF8DD
:105040009CE10DE00AF26C70039200F0FAFE64211C
:10505000039A90FBF1F0E6E7DFF864C1DFF880E146
:10506000584B0190022A2CBFCBEB0201CBF102017D
:10507000514A00919245A8BF63467246291B3819D0
:1050800023E0DFF83CC1DAE74F49504AF36864286F
:1050900018BF0A46291B3819FFF714FA17E0706980
:1050A0003369002803F1010A07EB040BF368A5EB51
:1050B000040919DB642290FBF2FC02FB1C00444A49
:1050C000CDE90030494653465846FFF7FBF9002822
:1050D00004DB00EB040A55453FF61EAF4FF0000A13
:1050E00050460FB0BDE8F08F00F26C70039300F0F3
:1050F000A8FE6422039B90FBF2FC0CFB1200DEE78F
:1051000025218DF81810B9F1000F0BD0052A8DF864
:10511000199017D80DF11A002E4900F07CFE334685
:1051200006AA5BE72B238DF8193004232A4A1E2197
:105130000DF11A00FFF7C6F90028EBDD0DF11A0397
:105140001844E9E7931FE5D0F0E73046FFF7E4FDA8
:1051500082467069002811DB642390FBF3F203FBA5
:105160001200642382449AFBF3F203FB12AA9A44CE
:10517000BAFBF3F203FB12A3144A8BE700F26C7044
:1051800000F05FFE6423BAF1000F90FBF3F202FB24
:10519000130007DA7269A3F2CF739A42B8BF4FF0D7
:1051A000010ADEE7DDD07269034B9A42B8BF4FF0C7
:1051B000FF3AD6E71488000894F8FFFFF984000846
:1051C000048700084B870008FB8400080985000855
:1051D000FF840008128500080E850008F18400088D
:1051E000EA8400087169BA4805928142ACBF002385
:1051F00001233046CDE90331FFF78EFD0499059A6E
:105200000029824642DB4FF0640B91FBFBFB0BF164
:10521000130B7069002846DB4FF0640C90FBFCFE1A
:105220000CFB1E00BAF1000F4CDA7169A94B9942D0
:1052300003DA4FF0010ACDF80CA08244BAF1FF3F27
:105240004BD10BF1FF3B4FF0630A039B642101FB41
:105250000BAA002B40F0EB81B9F12B0F04D142F2E5
:105260000F718A4500F2698206A925200870B9F1FC
:10527000000F40F0E781481C9749039200F0CBFDF6
:10528000039ACDF800A0134606AA8CE001F26C70D8
:105290000592049100F0D5FD4FF0640CDDE9041295
:1052A00090FBFCFBB5E700F26C70CDE9042100F047
:1052B000C8FD4FF0640CDDE9042190FBFCFE0EFB01
:1052C0001C00AFE7B9D0824B9942B4BF0123002341
:1052D0000393B8BF4FF0FF3AAFE7BAF1640F04BFD2
:1052E0000BF1010B4FF0000AAFE77C497C4AB36831
:1052F0006B2818BF0A46CDE6B36863B10C2B04D007
:105300000C2193FBF1F201FB12337549734A4928D2
:1053100018BF0A46BEE60C23F7E7F369714A01336A
:10532000B8E63369013327E7736825E76B1E9C42B3
:10533000BFF4D4AE04F1010A0A233B55ECE5B3688F
:105340000B2B694BD4BF0022012203EB8203D3F85D
:10535000A4B05846FAF72EFF04EB000A63480BF19D
:10536000FF3B691EA2453FF4D7ADA1427FF6B6AE22
:1053700098F800201BF8013F502A06D1C25C02F0C9
:105380000302012A08BF2033DBB23B550134E9E7B1
:105390000322336993FBF2F3554A01337AE67368CB
:1053A0000093B368534A291B3819FFF78BF88EE630
:1053B000336A002B78DB00F085FA029B0BB900F012
:1053C0008DFA01F01BFB336A002BD4BF00220122AF
:1053D000282302FB0333C358C3F1000A00F078FA14
:1053E000012302937269B2F145034FEAE27C6CF14A
:1053F000000CBCF1000FA5EB040107EB040002DA7E
:1054000003334CF1000C9B0843EA8C7302F1FF3E1E
:105410004FF0640B4FEAAC0C9EFBFBFEB3EB0E03AC
:105420006CEBEE7C4FF4C87B02F22B1E9EFBFBFE66
:1054300013EB0E034CEBEE7C463A40F26D1E0EFB76
:1054400002F29B184CEBE27CF269D6F804B09B1890
:105450004FF0180E4CEBE27CA3FB0E230EFB0C333B
:10546000D6F808C012EB0C0243EBEC734FF03C0C87
:10547000A2FB0C2E0CFB03EE12EB0B034EEBEB72BC
:10548000A3FB0CE30CFB0233D6F800C01EEB0C02AE
:1054900043EBEC73B2EB0A0263EBEA73CDE9002352
:1054A000154AFFF70FF812E64FF0000A9AE7336843
:1054B00062E66B1E9C42BFF411AE04F1010A09239F
:1054C0003BE73368019373680093B3680B4AD5E5F3
:1054D00094F8FFFF95F8FFFF1A850008098500087A
:1054E000FB8400081E850008148800081189000844
:1054F0002385000832850008288500082D850008CE
:105500006B1E9C42BFF4EAADB3691BB9372304F1AB
:10551000010A12E73033DBB2F9E7F369B269073306
:105520009B1A072293FBF2F326E63046FFF7F4FBC3
:10553000B26932B1013A0028F36926DC03D10A339B
:10554000EEE70622F7E7D21A7369002B40F26B717F
:10555000A8BF6FF064010B44990705D1642093FB49
:10556000F0F100FB113171B94FF4C87193FBF1F008
:1055700001FB1033B3FA83F35B09D21A042ACCBFC0
:1055800034233523F8E50123F7E70123F4E56C49DB
:10559000039206A800F03FFC06A8FAF70BFE06AB44
:1055A00003EB000A0AF1010AD346B9F1000F09D052
:1055B000039A03F80090052A01D9931F06D1614987
:1055C0005846AAE506AA2B23135404230EA95E4AC3
:1055D000A1EB0A015046FEF775FF0028C8BF0AEB91
:1055E000000BECE76B1E9C42BFF478ADB36904F18D
:1055F000010A3033A1E6B2691AB1013AF3690733FF
:105600008EE70622FAE77069002805DB642390FB29
:10561000F3F202FB1303AFE500F26C7000F011FC33
:10562000F4E771694948814209DAA0EB010A2D21AA
:105630008DF8181002B1013A0DF1190115E601F2C9
:105640006C7A09E63023881C4B7015E6336A002B10
:1056500001DAA24660E400F035F9029B0BB900F0D4
:105660003DF901F0CBF9336A002BD4BF00220122AF
:10567000282302FB033307EB040AC358C3F10009D4
:1056800000F026F93C2399FBF3F000F092FC3C2358
:10569000A5EB040B90FBF3F202FB130000902C4AE5
:1056A0004FF461635946504699FBF3F3FEF70AFF46
:1056B0000028FFF613AD00EB040A55457FF60EAD4A
:1056C0000123029328E4336A002BC2DB00F0FAF8CE
:1056D000029B0BB900F002F9336A1E4A002BD4BFBB
:1056E00000230123A24652F823904846FAF762FDB0
:1056F00009F1FF3920446B1E504502D100F0E8F853
:10570000DEE7534506D919F8012F07F80A200AF1F8
:10571000010AF1E700F0DCF8E0E46B1E9C42BFF404
:10572000DDAC04F1010A252307E6A246002D3FF473
:10573000D7AC002307F80A30D2E4494678E700BF27
:105740003C8500089A8600080E85000894F8FFFF43
:105750004485000850000020FFF730BB2DE9F843D6
:10576000044601F04BF940F2B1739C4240F3A38030
:105770006FF4F6616518A4F2B27340F26D12AD10C9
:1057800002FB03556FF4C8666FF06302A4F26D73F9
:1057900093FBF2F31D44A319484E44604FF4C872C2
:1057A0000146B3FBF2F300F150071D440B7AD1F828
:1057B00014C04A2B38D1A20705EB0C0306D14FF0D9
:1057C000640E94FBFEF20EFB124232B94FF4C87E17
:1057D00094FBFEF20EFB12421ABBBCF13B0FD4BF8E
:1057E0004FF0000C4FF0010C6344013B8A694FEA13
:1057F000E27CC3FB062C8B6AD2184CEBE373C1E945
:10580000082328318F42D1D1D0E90843D0E91212C0
:105810008C429341B4BF0123002303600120BDE803
:10582000F8834FF0000CDFE7442B02D105EB0C03AB
:10583000DCE7A30705D1642294FBF2F302FB1343D8
:1058400093BB4FF4C87294FBF2F302FB1343B3FA19
:1058500083F35B09DFF868E0D1F80C905B4203F05A
:1058600030032A464FF00008734408F10108C1458F
:1058700053F828E01ADC02F10408072398FBF3F33D
:10588000C3EBC303A8EB0303BCEB030C0B6903F1ED
:10589000FF3348BF0CF1070CC3EBC3039C44F44532
:1058A00006DA02EB0C03A1E70123D3E77244DCE73D
:1058B000ACF1070CF3E70020B1E700BF8051010015
:1058C000B0870008014800F0A2BA00BF7C0A00209F
:1058D000014800F09EBA00BF7C0A0020014B186806
:1058E00000F002B8580000202DE9F04F8DB00746B7
:1058F00001F084F8BC49BD4D0446384600F052FB27
:10590000064610BBBA4BBB4A1860BB4BA06218607E
:10591000BA4B2065C3E900224A2100220023C4E9D2
:105920000300C4E90500C4E90D00C4E90F00C4E99F
:105930000823C4E912232868217284F8301000F08B
:1059400045FB2E600DB0BDE8F08F2968002940F0BE
:105950008E80286800F03AFB3046FAF72BFC411C99
:10596000384600F05DFB2860002840F08680A24A9F
:10597000DFF88882DFF878A200231360A04ACAF813
:10598000003000200021C8E90022C4E90333C4E943
:105990000533C4E90801C4E90D33C4E90F33C4E990
:1059A00012014A222272A36284F8302023653378E0
:1059B0003A2B08BF013633783C2B62D1751C914AD3
:1059C00091490AAB284600F0D3FF0028BADD0A9BB4
:1059D000DA1E072AB6D8EB5C3E2BB3D102360A9BFF
:1059E000F518F35C2D2B5AD101354FF0FF39002308
:1059F000ADF81E30ADF8203008AF0AABCDE9013765
:105A000003930DF11E03009380490AAB07AA2846B1
:105A100000F0AEFF002895DDBDF81E30BDF8206017
:105A20003C2202FB0366BDF81C304FF4616202FBAE
:105A300003660A9B09FB06F605EB0309EB5C3C2BAE
:105A400040F0EE8009F10105714A6F490AAB284622
:105A500000F08EFF002828DC99F801303E2B24D17D
:105A6000684BA662C8E90033CAF800606AE7FAF733
:105A700097FB00287FF46DAF64E7314600F0CBF967
:105A800075E7604A63490AAB304600F071FF0028B1
:105A90007FF758AF0A9B033B072BA0D952E72B2B6C
:105AA00008BF01354FF00109A1E70A9BDA1E072A5A
:105AB0003FF648AFEB5C3E2B7FF444AF09F102099F
:105AC0000A9B09EB030519F803302D2B40F0B78032
:105AD00001354FF0FF390023ADF81C30ADF81E3012
