:020000040800F2
:1000000000800120957F00080D7700081577000813
:1000100017770008197700081B7700080000000018
:100020000000000000000000000000001D77000834
:100030001F770008000000002177000823770008E0
:10004000E57F0008E57F0008E57F0008E57F000800
:10005000E57F0008E57F0008E57F00082B770008B2
:10006000E57F0008E57F0008E57F0008E57F0008E0
:10007000E57F0008E57F0008E57F0008E57F0008D0
:10008000E57F0008E57F0008E57F0008000000002C
:1000900000000000000000000000000035770008AC
:1000A000417700085177000861770008E57F000874
:1000B000E57F0008E57F0008E57F0008E57F000890
:1000C000E57F0008E57F0008E57F0008E57F000880
:1000D000E57F0008E57F0008E57F000800000000DC
:1000E00071770008E57F0008E57F00080000000048
:1000F000000000000000000000000000E57F000894
:1001000000000000E57F0008E57F0008E57F0008AB
:1001100000000000000000000000000000000000DF
:1001200085770008E57F0008E57F0008E57F000887
:10013000E57F000800000000000000000000000053
:10014000000000000000000000000000E57F000843
:10015000E57F0008E57F0008E57F0008E57F0008EF
:10016000E57F0008E57F00080000000000000000B7
:10017000000000000000000000000000000000007F
:1001800000000000E57F0008000000000000000003
:04019000E57F0008FF
:1001A00010F8012B11F8013B012A28BF9A42F7D021
:1001B000D01A7047034613F8012B002AFBD1181AF6
:1001C000013870470000000000000000000000003F
:1001D00001F0FF01102A2BDB10F0070F08D010F8F8
:1001E000013B013A8B422DD010F0070F42B3F6D1FC
:1001F000F0B441EA012141EA014122F007047FF015
:1002000000070023F0E80256083C85EA010586EA6B
:10021000010685FA47F5A3FA87F586FA47F6A5FAA7
:1002200087F68EB9EED1F0BC01F0FF0102F00702B3
:1002300032B110F8013B013A83EA010313B1F8D15E
:100240000020704701387047002D06BF354603383F
:10025000073815F0010F07D1013015F4807F02BF78
:10026000013015F4C03F0130F0BC0138704700BFC9
:100270007BB972B90029BEBF00204FF0004106E0F3
:1002800008BF00281CBF6FF000414FF0FF3000F0A6
:1002900057B8ADF1080C6DE904CE002909DB002B3D
:1002A0001ADB0BF045FADDF804E0DDE9022304B0C7
:1002B0007047404261EB4101002B1BDB0BF038FA29
:1002C000DDF804E0DDE9022304B0404261EB4101C6
:1002D000524263EB43037047524263EB43030BF01C
:1002E00027FADDF804E0DDE9022304B0404261EBC7
:1002F00041017047524263EB43030BF019FADDF8FA
:1003000004E0DDE9022304B0524263EB430370478B
:1003100053B94AB9002908BF00281CBF4FF0FF316C
:100320004FF0FF3000F00CB8ADF1080C6DE904CED1
:100330000BF0FEF9DDF804E0DDE9022304B07047BC
:10034000704700BF10B5054C237833B9044B13B187
:100350000448AFF300800123237010BD0801002082
:1003600000000000ECB9000808B5034B1BB10349BD
:100370000348AFF3008008BD000000000C0100201E
:10038000ECB9000838B50446006800F0F3F92068BD
:1003900000F007FA05460121206800F0D6F928464A
:1003A00038BD70B504460E4615460021006800F0C1
:1003B000CCF946F08001206800F0DCF9294620687D
:1003C00000F0D8F90121206800F0BFF970BD012BC1
:1003D0001BD9F8B505460C4617461E460021006895
:1003E00000F0B3F92146286800F0C4F9002405E0C4
:1003F000286800F0D6F938550134E4B2B442F7D396
:100400000121286800F0A1F9F8BD7047012B1CD923
:10041000F8B505460C4617461E460021006800F058
:1004200094F944F08001286800F0A4F9002405E064
:10043000395D286800F09EF90134E4B2B442F7D384
:100440000121286800F081F9F8BD704710B5044615
:1004500089220121FFF7A5FF0123A37510BD10B567
:10046000044608220121FFF79CFF0023A37510BD5D
:1004700008B588220121FFF794FF08BD30B583B08D
:100480000446FFF7ECFF0F2000F0A9F92046FFF724
:10049000EFFFA568E368D904554A0023E80441EA60
:1004A0005531FFF735FFC0F307438DF80430C0F333
:1004B00007238DF805308DF80600032301AA0621D5
:1004C0002046FFF7A3FF122239212046FFF769FFDC
:1004D000237C484AD25C09212046FFF762FF0B22A9
:1004E00011462046FFF75DFF23220C212046FFF72F
:1004F00058FF637C404AD35C062B42D0A37C3F4A22
:10050000D25C1201D2B2E37C3D49CB5C5B00DBB232
:100510001A4402F0FE021D212046FFF742FF637CD1
:10052000354AD25C1201D2B2237D3649CB5C9B00A6
:10053000DBB21A4402F0FC021E212046FFF731FF15
:10054000042226212046FFF72CFF08221F212046E7
:10055000FFF727FF002220212046FFF722FF082275
:1005600021212046FFF71DFF012241212046FFF7F0
:1005700018FF002384F817312046FFF767FF03B008
:1005800030BDA37C1D4AD25C1201D2B2E37C1C496F
:10059000CB5C5B00DBB21A44D2B20132D2B21D2175
:1005A0002046FFF7FEFE637C134AD25C1201D2B2F2
:1005B000237D1449CB5C9B00DBB21A44D2B20332D8
:1005C000D2B21E212046FFF7ECFE31212046FFF774
:1005D000D9FE00F0F80242F0050231212046FFF773
:1005E000E0FE0C2237212046FFF7DBFEA8E700BF24
:1005F0000048E8012CBA000824BA000818BA00081C
:1006000014BA000810BA000808B5FF221221FFF73B
:10061000C8FE08BD70B505460E4614464175FFF785
:100620002DFF84224D212846FFF7BBFEFF22242107
:100630002846FFF7B6FE012240212846FFF7B1FE0B
:100640003F2211212846FFF7ACFE2846FFF7DCFFCA
:10065000324622212846FFF7A4FE0F212846FFF745
:1006600091FE02460D212846FFF79BFE8D220121B7
:100670002846FFF796FE002385F8173106E003238E
:10068000AB75012070BD012000F0A9F818212846A3
:10069000FFF778FE10F0040FF1D1013CF3D1286888
:1006A00000F0A1F82846FFF7E9FE0020EAE770B560
:1006B0000446006800F0ADF810B994F8170170BD59
:1006C00004F117064FF480720021304607F0C9FD8F
:1006D00010212046FFF756FE02460D212046FFF767
:1006E00060FE637C63B9657D2B463246002120465F
:1006F000FFF76DFE84F817512046FFF785FFDCE712
:1007000013212046FFF73EFE0546EDE770B504468F
:1007100016461D46006800F022F8A660E5609DF8C8
:10072000103023749DF8143063749DF81830A3744E
:100730009DF81C30E3749DF8203023759DF824301B
:1007400063752046FFF79AFE70BD08B5012914BFF6
:1007500000220122018A406904F0BFFB08BD10B5E8
:1007600004460121FFF7F1FF01222188606804F0AF
:10077000B4FB10BD10B582B004468DF807100021FF
:10078000FFF7E3FF4FF47A7301220DF10701A0692F
:1007900006F081FBA06906F08AFD0128FAD102B0BB
:1007A00010BD10B584B0044600218DF80F108DF8EF
:1007B0000E10FFF7CAFF4FF47A73009301230DF177
:1007C0000E020DF10F01A06906F047FCA06906F0CA
:1007D0006EFD0128FAD19DF80E0004B010BD08B5D9
:1007E00003F0B6FE08BD10B504460121FFF7ADFFCA
:1007F00000222188606804F070FB0120FFF7EFFF02
:1008000001222188606804F068FB6420FFF7E7FF9D
:1008100010BD08B50189C06804F058FB012814BF59
:100820000020012008BD00007F2817D931B1FF2822
:1008300013D880380A4B33F81000704700237F2B01
:1008400007D8074A32F81320824202D001339BB204
:10085000F5E703F18000C0B270470020704700BF89
:10086000E0BC0008B0F5805F07D2234B1A88002A4D
:1008700041D090423FD310B506E0204BF6E77346D7
:100880001A88DAB1904219D303F1040E5B88190A71
:10089000DBB203EB020C604504DB0029EFD10EEB69
:1008A0004303EDE7082909D8DFE801F005090F1235
:1008B00015181B1E2100841A3EF8140010BD831A5F
:1008C00003F00103C01A80B2F8E7103880B2F5E7F0
:1008D000203880B2F2E7303880B2EFE71A3880B2C1
:1008E000ECE7083080B2E9E7503880B2E6E7A0F5DF
:1008F000E35080B2E2E77047ECBA000830BA000873
:1009000008B5044B03EB8002526852680344187A1E
:10091000904708BD54030020094B1B5C73B910B508
:100920000446074B03EB8002526812680344187AAE
:10093000904710B9024B01221A5510BD0020704794
:100940005403002038B5044C04EB80056D68AD6895
:100950000444207AA84738BD5403002038B5044C1D
:1009600004EB80056D68ED680444207AA84738BD23
:100970005403002010B5044B03EB80046468246921
:100980000344187AA04710BD5403002008B503495A
:10099000034801F05FFF034B187008BD24010020DD
:1009A00034000020280100200020704742780078A1
:1009B00040EA02207047C378827842EA03224378F3
:1009C00043EA0223007840EA032070470170090AD5
:1009D000417070470170C1F307234370C1F30743AF
:1009E0008370090EC1707047944632B10A780131A4
:1009F00002700130BCF1010CF8D170470170013078
:100A0000013AFBD1704784469CF800000CF1010CC0
:100A10000B780131C01A013A01D00028F4D0704798
:100A2000034600E00133187808B18842FAD17047D4
:100A300030B400252B4601E001250133012B15D8E8
:100A40001A01174CA258002AF6D00468A242F4D129
:100A5000134A02EB0312546882689442EDD1104AA3
:100A600002EB0312946842699442E6D1022B0AD049
:100A7000A1B90B4A02EB03139B89B3F5807F0BD01E
:100A8000002030BC70472DB9022901D01220F8E7B0
:100A90000020F6E70020F4E71020F2E71020F0E74E
:100AA0002C030020002000E00130012804D80301BD
:100AB000034AD358002BF7D1023818BF01207047E2
:100AC0002C03002070B4002300E00133012B13D865
:100AD0001A01234CA45802689442F6D1204A02EB32
:100AE0000312546882689442EFD11D4A02EB03124C
:100AF000946842699442E8D1022B08D0F9B1184AAF
:100B000002EB031292894ABB4FF480721DE000236E
:100B1000012B05D81A01124CA2580AB10133F7E78C
:100B2000022B19D00E4D1C0105EB031206682E5145
:100B3000846854604069906000209081DEE7084A34
:100B400002EB03129289013292B2054901EB0311C3
:100B50008A81581C70BC70470020FBE70020F9E731
:100B60002C0300200138012815D80D4B03EB00138E
:100B70009B89B3F5807F03D043B1013B9BB200E07A
:100B80000023074A02EB0012938133B903010020CE
:100B9000034AD0507047022070470020704700BFC2
:100BA0002C030020002303E05DF8044B7047013361
:100BB000012B11D81A0109498A588242F7D110B481
:100BC0001A0100248C500133012BEDD81A0103497E
:100BD0008A588242F7D1F3E7704700BF2C03002008
:100BE00002398369023B8B4204D94389C06A01FB05
:100BF00003007047002070470268C36A0433490A43
:100C00005289B1FBF2F101E0091A0833186818B1F2
:100C10008142F9D258680844704770B506460D46BF
:100C200001F11A00FFF7C2FE3378032B00D070BD2C
:100C3000044605F11400FFF7B9FE44EA0040F6E768
:100C400070B506460C46154691B204F11A00FFF73E
:100C5000BDFE3378032B00D070BD290C04F11400C5
:100C6000FFF7B4FEF8E700002DE9F04180460E469C
:100C700001F11A00FFF79AFE50BB357825F04005C8
:100C8000013D05EB450305EB83050127002404E046
:100C90004FF6FF73984220D101340C2C0DD8124B23
:100CA000185D3044FFF782FE002FF1D0FE2D12D8E0
:100CB00028F8150007460135EEE7337813F0400FAA
:100CC0000DD0FE2D0DD8002328F81530012000E0AE
:100CD0000020BDE8F0810020FBE70020F9E70120BB
:100CE000F7E70020F5E700BFA0C000082DE9F843B2
:100CF00080460F4691464B730F23CB7200240C7332
:100D0000214607F11A00FFF761FE09F1FF3606EBF5
:100D1000460306EB8306254602E001340C2C11D86D
:100D20004FF6FF739D4202D038F8165001360C4B37
:100D3000185D29463844FFF749FE002DEDD14FF6E6
:100D4000FF75EAE74FF6FF739D4202D038F8163080
:100D50000BB949F0400987F80090BDE8F88300BF5F
:100D6000A0C0000870B582B0054616461C460B228E
:100D7000FFF73AFE052C11D807231FE001310F2998
:100D80000CD803F0010C0CEB44045B0814F4803F16
:100D9000F4D084F4883484F02104EFE73388002B06
:100DA000EAD002360021EAE75A1E08336B4403F802
:100DB000081C21090F2C0AD913460C4604F00F0217
:100DC00002F130013929EFD902F13701ECE77E2138
:100DD00002F108036B4403F8081C002300E0013310
:100DE000934209D2E95C2029F9D105E02020591C61
:100DF000E854072909D80B46072AF7D802F1080159
:100E0000694411F8080C0132F1E702B070BD0146E7
:100E10004FF00B0C0020C30143EA50030A78013164
:100E200052FA83F3D8B2BCF1010CF4D170470146F9
:100E3000006838B1024613781F2B06D93A2B04D02C
:100E40000132F8E74FF0FF3070473A2B01D0002015
:100E5000704710B4034613F8010B3038092808D83E
:100E60009A4202D04FF0FF3005E038B901320A60F3
:100E700001E04FF0FF305DF8044B70474FF0FF305A
:100E8000F9E738B50D46044698B103689BB11A7866
:100E9000A2B18188DA88914203D0092000242C6015
:100EA00038BD5878FFF72CFD10F0010009D12468F7
:100EB000F5E70920F3E71C460920F0E709200024A4
:100EC000EDE709200024EAE72DE9F041C57815B9DE
:100ED0002846BDE8F0810446076B00F13408012381
:100EE0003A4641464078FFF739FD0546A0B9002350
:100EF000E370636AFB1AE2699342E9D2A67808E0DC
:100F0000E3691F4401233A4641466078FFF726FD16
:100F1000013E012EF4D8DBE70125D9E770B5036B5C
:100F20008B4202D10026304670BD04460D46FFF7C5
:100F3000CBFF06460028F6D101232A4604F13401EE
:100F40006078FFF7FFFC10B101264FF0FF352563F5
:100F5000E9E7000038B504460023C3704FF0FF33C3
:100F60000363FFF7DBFF30BB054604F23220FFF7D7
:100F70001DFD4AF6552398421FD194F83430E92BD1
:100F800007D0636B03F0FF130D4A934201D0022593
:100F900014E004F16A00FFF70EFD20F07F40094BDA
:100FA00098420BD004F18600FFF705FD064B9842EE
:100FB00004D0022502E0042500E00325284638BDC0
:100FC000EB00900046415400464154332DE9F04F68
:100FD00085B00D46164600230B60FFF728FF071E5D
:100FE000C0F24681B64B53F82740002C00F04581F3
:100FF0002C6006F0FE06237873B16078FFF780FC62
:1010000010F0010508D1002E00F0338110F0040F1C
:1010100000F02F810A252CE100232370F8B26070C4
:10102000FFF77AFC10F0010540F029811EB110F0A5
:10103000040F40F0268100212046FFF78BFF022895
:101040007ED00027042800F01E81012800F21D81B7
:1010500004F13F00FFF7AAFCB0F5007F40F01781D4
:1010600004F14A00FFF7A2FC064620B904F158003B
:10107000FFF7A1FC0646E66194F84420A270531ED7
:10108000DBB2012B00F2058106FB02F894F84190D7
:10109000A4F80A90B9F1000F00F0FD8009F1FF33C8
:1010A00019EA030F40F0F98004F14500FFF77EFCD8
:1010B0008246208110F00F0F40F0F18004F14700CC
:1010C000FFF774FC834620B904F15400FFF773FC6A
:1010D000834604F14200FFF769FC0246002800F055
:1010E000E08000EB080303EB1A139B45C0F0DB80A4
:1010F000ABEB030BBBFBF9F1CB45C0F0D6804FF651
:10110000F570814234D840F6F57081426AD94FF0CB
:10111000020B2FE0002004AB03EB860343F8100C16
:101120000136032E0ED804F13400330103F5DF73CA
:1011300018440379002BEDD00830FFF73CFCEAE7B8
:101140000026EEE700260AE039462046FFF702FFB8
:1011500001287FF677AF0136032E3FF673AF04AB5D
:1011600003EB860353F8107C002FEDD10320F2E748
:101170004FF0030B01F10209C4F8189027623A44BA
:1011800062623B44E362BBF1030F2ED0BAF1000F61
:1011900000F091804244A262BBF1020F36D009EB0D
:1011A000490309F0010909EB530909F2FF19B6EBEC
:1011B000592FC0F082804FF0FF3363612361802399
:1011C0002371BBF1030F24D084F800B03D4A13888B
:1011D00001339BB21380E3803B4BE3602046FFF773
:1011E000E1FC46E04FF0010BC4E704F15E00FFF7BD
:1011F000DDFB00285BD1BAF1000F5AD104F1600089
:10120000FFF7D9FBA0624FEA8909CEE74FEA490907
:10121000CBE704F16400FFF7C9FB0128D4D1791CA6
:101220002046FFF77BFE0028CED10023237104F275
:101230003220FFF7BBFB4AF655239842C4D104F194
:101240003400FFF7B8FB214B9842BDD104F506707E
:10125000FFF7B1FB1E4B9842B6D104F50770FFF7BC
:10126000AAFB606104F50870FFF7A5FB2061ABE7FE
:101270000B25284605B0BDE8F08F0C25F9E70325BE
:10128000F7E70A25F5E70125F3E70D25F1E70D2539
:10129000EFE70D25EDE70D25EBE70D25E9E70D253A
:1012A000E7E70D25E5E70D25E3E70D25E1E70D254A
:1012B000DFE70D25DDE70D25DBE70D25D9E700BFCD
:1012C000500300204C0300202C01002052526141A9
:1012D000727241612DE9F047012975D907460C4624
:1012E000164683698B4273D90378022B3ED0032BB9
:1012F0004FD0012B6ED101EB5108416A01EB58210F
:10130000FFF70CFE054600285FD107F1340A08F10B
:101310000109C8F3080814F001041DD01AF80830B8
:1013200003F00F0343EA0613DBB20AF80830012387
:10133000FB70796A01EB59213846FFF7EFFD05464E
:10134000002842D1C9F3080944B1C6F307130AF8CB
:1013500009300123FB7038E0F3B2E6E71AF80930F0
:10136000C6F3032223F00F031343F0E7416A01EBB6
:101370001421FFF7D3FD054638BB07F134006400A4
:1013800004F4FF74B1B22044FFF720FB0123FB708B
:101390001BE0416A01EBD411FFF7C0FD0546A0B97F
:1013A00026F0704607F13403A40004F4FE741C44D4
:1013B0002046FFF700FB00F0704131432046FFF765
:1013C00009FB0123FB7000E002252846BDE8F087F9
:1013D0000225FAE70225F8E7F8B50568012954D98E
:1013E0000C46AB698B4252D92B78022B2BD0032BA6
:1013F00039D0012B4DD101EB5106696A01EB562121
:101400002846FFF78BFD10B14FF0FF303EE0771C10
:10141000C6F308062E4496F83460696A01EB57213A
:101420002846FFF77BFDB0BBC7F308072F4497F8AA
:10143000343046EA032014F0010F01D0000925E002
:10144000C0F30B0022E0696A01EB14212846FFF784
:1014500065FD18BB05F13400640004F4FF742044FA
:10146000FFF7A4FA12E0696A01EBD4112846FFF7EE
:1014700055FDB0B905F13400A40004F4FE74204415
:10148000FFF799FA20F0704000E00120F8BD01203C
:10149000FCE70120FAE74FF0FF30F7E74FF0FF30AD
:1014A000F4E74FF0FF30F1E72DE9F041D0F800808C
:1014B000B1F5001F3FD207460E4611F01F0F3DD178
:1014C00041618468E4B998F80030022B01D9D8F85A
:1014D0002840ACB9B8F80830B3EB561F30D9D8F86B
:1014E0002830FB61BC61FB6993B303EB5623FB61BE
:1014F00008F13408C6F308014144396200201BE0BA
:10150000B8F80A506D02AE420FD321463846FFF7B5
:1015100063FF0446B0F1FF3F14D0012814D9D8F876
:101520001830834212D9761BEDE721464046FFF77B
:1015300057FBF861D6E70220BDE8F0810220FBE707
:101540000220F9E70120F7E70220F5E70220F3E7A0
:101550000220F1E72DE9F041054606680F4651B932
:10156000D6F81080B8F1000F12D0B369434511D8F6
:101570004FF001080EE0FFF72FFF0346012847D97F
:10158000B0F1FF3F49D0B269824246D8B84601E087
:101590004FF0010844460CE021462846FFF71CFFA7
:1015A000034678B1012838D0B0F1FF3F35D044452B
:1015B00032D00134B369A342EED8B8F1010F29D972
:1015C0000224E9E74FF0FF3221463046FFF782FE62
:1015D0000346B0B977B9A3B934617269B369023B04
:1015E0009A4201D8013A7261337943F001033371B1
:1015F000234612E0224639463046FFF76BFE03468B
:10160000E9E7012B01D0012307E04FF0FF3304E0AD
:10161000012302E0002300E000231846BDE8F0812A
:10162000F8B50C46056801292ED906461146AB6966
:10163000A3422BD94AB14FF0FF322846FFF74AFEAA
:10164000074610B123E0A24221D927462146304661
:10165000FFF7C2FE0446E0B101281CD0B0F1FF3F05
:101660001BD0002239462846FFF734FE074670B9E2
:101670006B69AA69911E8B42E5D201336B612B79AC
:1016800043F001032B71DEE7022700E00227384612
:10169000F8BD0027FBE70227F9E70127F7E72DE967
:1016A000F04706684569C369002B6CD0044688463C
:1016B0002035B5F5001F68D2C5F308073FB90133DF
:1016C000C361816979B93389B3EB551F07D9656166
:1016D00006F134033B4423620020BDE8F087002379
:1016E000C3610420F9E77389013B13EA5529EED160
:1016F000FFF772FE8246012849D9B0F1FF3F48D07A
:10170000B369834237D8B8F1000F11D0A1692046E0
:10171000FFF720FF824600283DD001283DD0B0F1E0
:10172000FF3F3CD03046FFF7CFFB28B10120D4E784
:101730000023E3610420D0E74FF40072002106F19A
:101740003400FFF75BF951463046FFF749FA306342
:10175000738999450BD20123F3703046FFF7B4FB30
:10176000F8B909F10109336B01333363F0E7336BE7
:10177000A3EB09033363C4F818A051463046FFF7C2
:101780002FFAE061A3E70420A7E70420A5E70220E1
:10179000A3E70120A1E707209FE702209DE70120A2
:1017A0009BE7012099E7F8B504460E46076800213B
:1017B000FFF77AFE0246C0B9002508E00135B542C0
:1017C00013D001212046FFF76AFF024668B9E1699C
:1017D0003846FFF7A3FB024638B9236A1B78E52B8E
:1017E000ECD0002BEAD00025EBE7042A01D010460C
:1017F000F8BD0722FBE72DE9F84304468846076851
:101800004FF0FF094E4604252EE00F2B19D112F0A0
:10181000400F06D091F80D9002F0BF026369236378
:101820001646B24201D0FF2618E04B7B4B4501D053
:10183000FF2613E0F868FFF717FA88B3013EF6B207
:101840000CE026B90846FFF7E2FA48452BD04FF0E6
:10185000FF33236327E0FF2600E0FF260021204618
:10186000FFF71DFF0546F0B9E169E1B13846FFF722
:1018700055FB0546B8B9216A0A789AB1CB7A03F0CC
:101880003F03A371E52AE6D02E2AE6D023F02000FC
:10189000082814BF002001204045B6D0FF26DDE710
:1018A000FF26DBE704250DB10023E3612846BDE8F0
:1018B000F88300002DE9F04F83B007468A46D1F83F
:1018C00000900368DD680024234612E0013619F811
:1018D00006302F2BFAD05C2BF8D04E44CAF80060AB
:1018E0001F2823D84FF0040824E025F81480013481
:1018F00033465E1C19F803001F28EED92F28E6D0C6
:101900005C28E4D0FE2C00F2DF800121FEF78CFF82
:101910008046002800F0DA807F28E6D801466D482E
:10192000FFF77EF80028E0D0062085E04FF00008A1
:1019300000E0013C44B104F10043013B35F81330B1
:10194000202BF6D02E2BF4D0002325F81430002CB9
:1019500000F0BE800B22202107F12400FFF74EF893
:10196000002300E0013335F81320202AFAD02E2A74
:10197000F8D01BB148F0030800E0013C6CB104F161
:101980000042013A35F812202E2AF6D14FF0080B0A
:101990004FF0000ACDF804A00AE0A2464FF0080B71
:1019A0000022019204E04C450BD048F003084B465E
:1019B00003F1010935F81360FEB1202EF5D02E2E6B
:1019C000F1D0DA4510D24C450ED07F2E44D8002EEF
:1019D0004FD148F003085F2607EB0A0383F8246021
:1019E0004B460AF1010AE3E7BBF10B0F27D04C4548
:1019F00001D048F003084C4524D297F82430E52B59
:101A000053D0BBF1080F54D0019B03F00C020C2AF9
:101A100003D003F00303032B01D148F0020818F0B0
:101A2000020F06D1019B03F00303012B46D0042AC9
:101A300047D087F82F80002003B0BDE8F08F48F032
:101A40000308DAE7019B9B00DBB2019323464FF0CA
:101A50000B0B4FF0080AABE700213046FEF7E4FE1F
:101A6000064618B1A0F180061B4B9E5D48F00208A7
:101A7000ADE731461948FEF7D3FF0028A9D1A6F1FA
:101A800041039BB2192B04D8019B43F0020301933D
:101A9000A2E7A6F161039BB2192B9DD8019B43F0ED
:101AA00001030193203EB6B296E7052387F8243060
:101AB000A7E7019B9B00DBB20193A5E748F0100864
:101AC000B5E748F00808B4E70620B5E70620B3E715
:101AD0000620B1E7E0BD0008B0C00008ECBD00087A
:101AE0002DE9F041D0F8008000238B75C369002BED
:101AF0006BD006460C46036BB3F1FF3F16D00023B4
:101B00001D46D8F80C205F1C32F8130058B1002194
:101B1000FEF78AFE30B1FE2D0CD8621990753B4657
:101B20000135EEE7002525440023AB75A57D002295
:101B3000134612E00025F6E7E52317E015B9A018D3
:101B40002E278775A0182E274772013210E010202B
:101B50001CE0A018837501320B460A2B1BD8306A93
:101B6000591CC35C202BF7D0052BE5D00929E5D003
:101B7000A0184372002DEED1A3F14100C0B2192884
:101B8000E7D8306A077B0829E1D808200742E0D06F
:101B90002033DBB2DDE735B9A31800219975336A2C
:101BA0001B7B03B90A46224400235372336ADB7A53
:101BB0002372306A1C30FEF7FEFE2060306A163059
:101BC000FEF7F9FEE080000CA080BDE8F081000087
:101BD0002DE9F04781460F4601F11A00FEF7E6FEB7
:101BE000C8BB3E7806F03F06013E06EB460306EB17
:101BF00083064FF00108002506E000202CE04FF698
:101C0000FF7398422AD101350C2D18D8174B585D17
:101C10003844FEF7CBFE0446B8F1000FEFD0FE2E9D
:101C2000EBD8FEF71FFE804606F1010A39F81600D0
:101C3000FEF718FE8045E0D1A0465646E3E73B7824
:101C400013F0400F0CD0B8F1000F0BD039F816305C
:101C500053B9012000E00020BDE8F0870020FBE739
:101C60000120F9E70120F7E70020F5E7A0C0000810
:101C70002DE9F8430446D0F800800021FFF714FC5A
:101C80000646002864D14FF0FF3323634FF0FF096D
:101C90004F460AE04FF0FF332363FF270021204621
:101CA000FFF7FDFC0646002852D1E1694046FFF7E8
:101CB00035F9064600284BD1256A2B78002B46D0F3
:101CC000EA7A02F03F01A171E52BE3D012F0080F90
:101CD00014D00F29DED194F82F2012F0400FDDD15F
:101CE00013F0400F06D095F80D9003F0BF03626922
:101CF00022631F46BB421AD0FF27CFE70F29EAD045
:101D000027B92846FFF783F8484521D094F82F30AB
:101D100013F0010F06D10B2204F124012846FEF72F
:101D200072FEA8B14FF0FF332363FF27B6E76B7B4A
:101D30004B4501D0FF27B1E72946D8F80C00FFF743
:101D400047FF10B1013FFFB2A8E7FF27A6E704262F
:101D50003046BDE8F88330B583B00446019105688C
:101D600001E001330193019B1A782F2AF9D05C2AF4
:101D7000F7D00022A2601B781F2B1ED901A9204694
:101D8000FFF798FD034600BB2046FFF771FF94F86C
:101D90002F200346E0B912F0040F16D1A37913F0F7
:101DA000100F1CD005F134016369C3F30803194413
:101DB0002846FEF732FFA060E0E7802384F82F304A
:101DC00011462046FFF770FB0346184603B030BDAE
:101DD0000428FAD112F0040FF7D10523F5E7052303
:101DE000F3E700002DE9F04385B0066890F82F3046
:101DF00013F0A00F40F08A800746002400E0013471
:101E0000F36833F81430002BF9D107F124080C22C1
:101E1000414601A8FEF7E8FD9DF80F3013F0010FD1
:101E20001CD0402387F82F30012500E00135632DB9
:101E30000BD82B46F26801A94046FEF793FF3846BF
:101E4000FFF716FF81460028F0D0642D64D0B9F169
:101E5000040F5DD19DF80F3087F82F309DF80F30BB
:101E600013F0020F06D00C342D4BA3FB0434A4084E
:101E7000013400E0012421463846FFF794FC8146F6
:101E8000002845D1013C1CD1B9F1000F40D1F969BE
:101E90003046FFF743F88146002839D1202200213F
:101EA000386AFEF7ABFD0B224146386AFEF79CFD0F
:101EB00097F82F303A6A03F0180313730123F37075
:101EC00026E07969A1EB44113846FFF7EDFA814627
:101ED000F0B94046FEF79BFF0546F9693046FFF72B
:101EE0001DF881460028CFD12B46E2B2396AF0684E
:101EF000FEF7FCFE0123F37000213846FFF7CFFB0D
:101F000081460028C0D1013CE7D1BDE74FF006096A
:101F1000484605B0BDE8F0834FF00709F8E700BF79
:101F20004FECC44E70B50446FEF7CEFF054648B9E7
:101F30002378032B08D0002211466078FEF71AFDA3
:101F400000B10125284670BD2379012BF3D104F19E
:101F500034064FF4007200213046FEF74FFD4AF67A
:101F6000552104F23220FEF731FD0F493046FEF7CD
:101F700031FD0E4904F50670FEF72CFD616904F58C
:101F80000770FEF727FD216904F50870FEF722FDB2
:101F9000226A01322263012331466078FEF7DEFCBB
:101FA00000232371C7E700BF525261417272416141
:101FB00070B584B0019000911646039103A8FEF716
:101FC00036FF041E1CDB104B53F8245025B1284665
:101FD000FEF7E8FD00232B70019B0BB100221A7065
:101FE000019B094A42F8243063B1012E02D000203F
:101FF00004B070BD002201A96846FEF7E7FFF7E7CD
:102000000B20F5E70020F3E7500300202DE9F04313
:1020100091B00191002800F005811446064602F0B7
:102020003F073A4602A901A8FEF7D0FF054628B1AE
:1020300000233360284611B0BDE8F083029B039370
:10204000019903A8FFF787FE054660B99DF93B306B
:10205000002B52DB14F03E0F14BF0121002103A816
:10206000FEF7E6FC054614F01C0F5CD0002D50D0A6
:10207000042D44D047F00807002DD9D117F0080FE0
:1020800061D0FEF791FC044601460B980E30FEF736
:10209000A1FC21460B981630FEF79CFC0B9B2022DE
:1020A000DA72DDF80880DDF82C9049464046FEF7EC
:1020B000B4FD0446002249464046FEF7C1FD00211A
:1020C0000B981C30FEF786FC029B0122DA70002C74
:1020D00039D0029BD3F830800022214603A8FFF7B5
:1020E0009FFA05460028A3D141460298FEF716FF45
:1020F0000546013C029B1C6125E00625B3E7FEF77F
:10210000D1FC08B91225B5E703A8FFF76BFE054619
:10211000B0E79DF8123013F0110F13D114F0040F33
:10212000AAD0082584E7002D82D19DF8123013F043
:10213000100F73D114F0020F05D013F0010F02D06D
:10214000072575E70725002D7FF472AF17F0080FFC
:1021500001D047F04007029B1B6B73620B9BB3627D
:10216000012F94BF0021012103A8FEF7ABFC3061D1
:1021700008B902255CE7029CDDF82C804146204628
:10218000FEF74BFDB06008F11C00FEF714FCF06098
:102190000021F1623460E388B38037757175316274
:1021A000B16106F130084FF400724046FEF726FC9C
:1021B00017F0200F2ED0F46864B3B461029B5F89DE
:1021C0007F02B16801E00225E41B65B9BC420AD96F
:1021D0003046FFF701F901460128F4D9B0F1FF3F7D
:1021E000F2D10125F0E7F161002D7FF421AFC4F3B6
:1021F00008037BB1029F3846FEF7F2FC08B90225BE
:1022000016E700EB54223262012341467878FEF74C
:1022100099FB28B9002D3FF40DAF09E7042507E726
:10222000012505E7092505E72DE9F04F85B00446AE
:102230000E46174698460023C8F8003003A9FEF75B
:1022400020FE0190002840F0AE80637D0193002BBA
:1022500040F0A980237D13F0010F00F0C380E568F2
:10226000A369ED1ABD4262D33D4660E0E36A1BB14B
:102270002046FEF7C1FC6AE0E1692046FFF7ACF8B2
:1022800065E04FF0020A84F815A0CDF804A08AE0BA
:102290004FF0010A84F815A0CDF804A083E04FF0B8
:1022A000020A84F815A0CDF804A07CE094F914305B
:1022B000002B02DB4FEA4A272FE0206AA0EB09003F
:1022C0005045F7D24FF4007204F1300106EB402084
:1022D000FEF78AFBEEE7226A4A450DD094F91430E6
:1022E000002B64DB01234A4604F130010398407857
:1022F000FEF728FB00286ED1C4F82090A369C3F331
:102300000803C3F50077BD4200D22F4604F1300127
:102310003A4619443046FEF767FB3E44A3693B4406
:10232000A361D8F800303B44C8F80030ED1B002D05
:1023300039D0A169C1F30803002BDFD1039B5F896A
:10234000013F17EA512708D100298FD1A068012841
:1023500097D9B0F1FF3F9BD0E061DDF80CB0E169A7
:102360005846FEF73DFC8146002898D0B9444FEA14
:10237000552AB5F5007FAED307EB0A03BBF80A2058
:10238000934201D9A2EB070A53464A4631469BF8CD
:102390000100FEF7D7FA002888D04FF0010A84F830
:1023A00015A0CDF804A0019805B0BDE8F08F012379
:1023B00004F130019BF80100FEF7D0FA20B9237D2B
:1023C00003F07F0323758DE74FF0010A84F815A011
:1023D000CDF804A0E7E74FF0010A84F815A0CDF886
:1023E00004A0E0E707230193DDE72DE9F04F85B076
:1023F00004460E46154698460023C8F8003003A947
:10240000FEF73FFD0190002849D1637D0193002B29
:1024100045D1237D13F0020F00F0E280A369EB4267
:10242000C0F0B080DD43ADE0E36A002B3BD0204636
:10243000FEF7E2FB002800F0CE80012838D0B0F192
:10244000FF3F3CD0E061A36803B9A06094F9143069
:10245000002B3BDBDDF80CB0E1695846FEF7C0FB12
:102460008146002847D0B9444FEA552AB5F5007F88
:102470005DD307EB0A03BBF80A20934201D9A2EB14
:10248000070A53464A4631469BF80100FEF766FAB2
:10249000C0B34FF0010A84F815A0CDF804A001984C
:1024A00005B0BDE8F08FE1692046FFF753F8C1E7BA
:1024B0004FF0020A84F815A0CDF804A0EFE74FF022
:1024C000010A84F815A0CDF804A0E8E70123226AE8
:1024D00004F1300103984078FEF740FA20B9237DDB
:1024E00003F07F032375B5E74FF0010A84F815A0C8
:1024F000CDF804A0D3E74FF0020A84F815A0CDF878
:1025000004A0CCE7216AA1EB0901514502D34FEAAF
:102510004A2728E04FF4007206EB412104F1300015
:10252000FEF762FA237D03F07F032375EFE7236A4A
:102530004B4503D0A269E3689A423BD3C4F820908C
:10254000A369C3F30803C3F50077BD4200D22F4649
:1025500004F130003A4631461844FEF745FA237D2F
:1025600063F07F0323753E44A3693B44A361E268A3
:10257000934238BF1346E360D8F800303B44C8F8B4
:102580000030ED1B3DB3A169C1F30803002BD7D187
:10259000039B5F89013F17EA51277FF457AF00295A
:1025A0007FF442AFA06800287FF447AF2046FEF7D3
:1025B000D1FF3FE701234A4604F130019BF80100B7
:1025C000FEF7C0F90028B9D04FF0010A84F815A031
:1025D000CDF804A063E7237D43F0400323755EE755
:1025E000072301935BE770B582B0044601A9FEF7AB
:1025F00048FC70B9237D13F0400F0AD013F0800F10
:1026000009D1FEF7D1F90546616A0198FEF786FC0B
:1026100078B102B070BD0123226A04F13001019843
:102620004078FEF79BF940BB237D03F07F032375C1
:10263000E7E7A66AF37A43F02003F372A268314613
:102640002068FEF7FDFAE16806F11C00FEF7C2F90A
:10265000294606F11600FEF7BDF9002106F1120029
:10266000FEF7B4F9019B0122DA700198FFF75AFCDA
:10267000237D23F040032375CBE70120C9E710B584
:1026800082B00446FFF7AFFF08B102B010BD01A948
:102690002046FEF7F6FB0028F7D12069FEF762FA24
:1026A0000028F2D12060F0E730B585B00191002814
:1026B0003FD00546002203A901A8FEF787FC044687
:1026C00020B100232B60204605B030BD039B2B605A
:1026D00001992846FFF73FFB044618BB95F92F30B8
:1026E000002B08DBAB7913F0100F1AD0296A03987E
:1026F000FEF793FAA860039BDB88AB800021284695
:10270000FEF7D2FE044668B9AB6813B900232B610B
:1027100008E000212846FEF7D5F9286110B91224F7
:1027200002E00524042C02D0002CCCD0C9E70524FB
:10273000C7E70924C7E710B582B0044601A9FEF730
:10274000A0FB20B9236923B908B90023236002B094
:1027500010BD1846FEF706FAF6E770B582B00446DB
:102760000D4601A9FEF78DFB0646C0B995B10021C3
:102770002046FFF740F8042800D098B929462046A3
:10278000FFF7AEF900212046FEF789FF042806D0A6
:10279000064604E000212046FEF786FE0646304647
:1027A00002B070BD0646FAE72DE9F04182B08046DE
:1027B0000E4617460446002501E0A4466446731EF3
:1027C000AB4213DD6B46012201A93846FFF72CFD11
:1027D000009B012B0AD19DF804300D2BEDD0A446AF
:1027E0000CF8013B01350A2BE8D164460023237025
:1027F0001DB1404602B0BDE8F0810020FAE70000BC
:10280000134B5B7A13BB10B5044603F0FF00104B6B
:1028100093F809C05FFA8CFC4FF0000E03F80CE04F
:1028200093F809C003EB8C0CCCF804405C7A1C4490
:1028300022725A7A541CE4B25C7230320A703A2323
:102840004B702F238B7081F803E010BD012070477F
:102850005403002008B50022FFF7D2FF08BD00F0A6
:102860000F03000900EB800003EB4000C0B270478B
:10287000064BA3FB0023DA08134602EB8202A0EB0F
:10288000420040EA0310C0B2704700BFCDCCCCCCB0
:102890002DE9F0438BB00024059406940794089426
:1028A00009940194564B1A6B42F004021A631A6B96
:1028B00002F004020192019A02941A6B42F0800223
:1028C0001A631A6B02F080020292029A03941A6B46
:1028D00042F001021A631A6B02F001020392039A9A
:1028E00004941A6B42F002021A631B6B03F002039A
:1028F0000493049B434F22464FF40051384602F0A4
:10290000ECFA414D01221021284602F0E6FADFF8E8
:10291000FC8001224FF48051404602F0DEFA22464C
:102920004FF48061284602F0D8FA4FF40053059323
:10293000012606960794089405A9384602F0E2F9A4
:102940004FF4404305934FF40419CDF818900796BF
:1029500005A9384602F0D6F902270597CDF8189058
:10296000079605A9284602F0CDF908230593069499
:10297000079605A9284602F0C5F910230593069687
:102980000794089705A9284602F0BCF94FF4805334
:10299000059306960794089705A9404602F0B2F9F8
:1029A0004FF4007305934FF488130693079405A919
:1029B000284602F0A7F94FF4806305930696079422
:1029C000089405A9284602F09DF9224621460720D1
:1029D00001F0B6FF072001F0C3FF22462146172071
:1029E00001F0AEFF172001F0BBFF22462146282050
:1029F00001F0A6FF282001F0B3FF0BB0BDE8F08383
:102A0000003802400008024000000240000402407A
:102A100000B583B000210191094B1A6B42F480028A
:102A20001A631B6B03F480030193019B0A46382051
:102A300001F086FF382001F093FF03B05DF804FB3E
:102A40000038024008B564230322D02104480068FE
:102A500003F01CFB08B9012008BD0020FCE700BF03
:102A60001800002008B501460A2301220348006827
:102A700003F00CFBB0FA80F0400908BD20000020F4
:102A800008B50821024802F021FA024B187008BD6F
:102A9000000002407203002010B584B004460C4BC5
:102AA00093E803000290ADF80C1002A8FDF782FB3A
:102AB0004FF0FF33009383B202AA21460548006815
:102AC00002F07CFE40F2145001F042FD04B010BD53
:102AD000F4BD00082000002010B584B004460A4B65
:102AE000039303A8FDF766FB4FF0FF33009383B217
:102AF00003AA21460548006802F060FE40F2145027
:102B000001F026FD04B010BD43616C0020000020E0
:102B100010B584B004465223ADF80C3003A8FDF77D
:102B200049FB4FF0FF33009383B203AA21460348C9
:102B3000006802F043FE04B010BD00BF200000207A
:102B400010B584B004460A4B93E803000290ADF838
:102B50000C1002A8FDF72EFB4FF0FF33009383B259
:102B600002AA21460348006802F028FE04B010BD06
:102B7000FCBD0008200000202DE9F04F89B006467A
:102B80000A78303A4B78303BC2EB421002EB8002BD
:102B900003EB830303EB8304A40004EBC204A4B29D
:102BA0008B78303B03EB830304EB4304A4B2CB7874
:102BB0001C44A4B2303CA4B24A798B79303A02EB7F
:102BC000820203EB4203DBB2303BDBB205930B7AAC
:102BD0004F7A303B03EB830307EB4307FFB2303FF1
:102BE000FFB2CB7A91F80C80303B03EB830308EB08
:102BF00043085FFA88F8A8F130085FFA88F88B7B01
:102C000091F80F90303B03EB830309EB43095FFA24
:102C100089F9A9F130095FFA89F94B7C887C303B4E
:102C200003EB830300EB4300C0B23038C0B2FFF7C0
:102C30001FFE8DF81F004FF0FF3BCDF808B00125B7
:102C400001950DF11F0ACDF800A02B460022D021DE
:102C5000304602F0EDFF4846FFF70AFE8DF81F00F0
:102C6000CDF808B00195CDF800A02B462A46D0211A
:102C7000304602F0DDFF4046FFF7FAFD8DF81F00F9
:102C8000CDF808B00195CDF800A02B460222D02146
:102C9000304602F0CDFF3846FFF7EAFD8DF81F0001
:102CA000CDF808B00195CDF800A02B460422D02124
:102CB000304602F0BDFF0598FFF7DAFD8DF81F00E2
:102CC000CDF808B00195CDF800A02B460522D02103
:102CD000304602F0ADFF144BA3FB04235B096422D2
:102CE00002FB1340C0B2FFF7C3FD8DF81F00CDF803
:102CF00008B00195CDF800A02B460622D021304621
:102D000002F096FFAB238DF81F30CDF808B0019587
:102D1000CDF800A02B460722D021304602F088FFD4
:102D200009B0BDE8F08F00BF1F85EB51F0B589B049
:102D300007460E465223ADF81C3007A8FDF73AFAB5
:102D40004FF0FF33009383B207AA31461948006859
:102D500002F034FD4FF4167001F0FAFB00246423F6
:102D60000093112302AA3146124D286802F0E2FDB9
:102D70009DF80830FE2B06D10134E4B2142001F096
:102D8000E7FB092CEBD99DF80800012802D00020B0
:102D900009B0F0BDDDF80940DDF80D10DDF81120B7
:102DA000DDF815303C607960BA60FB6000233B744D
:102DB000EEE700BF2000002000B58BB0A0F26C70E1
:102DC000069001390591049203939DF830300293E7
:102DD0009DF8343001934FF0FF33099301A805F0BB
:102DE000D3FC0BB05DF804FB2DE9F04186B005463D
:102DF0004FF0FF360296012401940DF11703009362
:102E000023460622D02102F0C5FF029601940DF15F
:102E10001603009323460522D021284602F0BAFF6C
:102E2000029601940DF11503009323460422D0214C
:102E3000284602F0AFFF0296019405AB00932346AB
:102E40000222D021284602F0A5FF029601940DF13E
:102E50001303009323462246D021284602F09AFF0E
:102E6000029601940DF11203009323460022D02113
:102E7000284602F08FFF9DF81700FFF7F0FC04468C
:102E80008DF817009DF8160000F01F00FFF7E7FC13
:102E900005468DF816009DF8150000F03F00FFF77D
:102EA000DEFC06468DF815009DF8140000F03F008A
:102EB000FFF7D5FC07468DF814009DF8130000F0CD
:102EC0007F00FFF7CCFC80468DF813009DF81200C0
:102ED00000F07F00FFF7C3FC8DF812000190CDF8E1
:102EE00000803B463246294604F5FA60FFF764FF4E
:102EF00006B0BDE8F081000030B5ADF2D44D054616
:102F0000FFF7BEFD434B1C781CB920460DF2D44D93
:102F100030BD08950023099308A805F053FA04462C
:102F200003463D4A28213D4806F000FB23463C4A23
:102F3000142103A806F0FAFA01223A49A7A8FFF7DC
:102F400037F8044608B10024DFE70A2233491BA8FA
:102F5000FFF75CF8002850D11E9B002B53D0324B5A
:102F6000009303AB314A3C210BA805F0FFF80BA8F6
:102F7000FDF720F902461AAB0BA91BA8FFF735FA9B
:102F80002B4B009303AB2B4A3C210BA805F0EEF82A
:102F90000BA8FDF70FF902461AAB0BA91BA8FFF708
:102FA00024FA254B009303AB244A3C210BA805F0DF
:102FB000DDF80BA8FDF7FEF802461AAB0BA91BA81B
:102FC000FFF713FA1E4B009303AB1E4A3C210BA8DC
:102FD00005F0CCF80BA8FDF7EDF802461AAB0BA9EB
:102FE0001BA8FFF702FA1BA8FFF749FB00220D49B7
:102FF0001046FEF7DDFF012487E70022094910464D
:10300000FEF7D6FF81E71AAB12220F491BA8FFF784
:10301000ECF9A4E77203002004BE00087C03002042
:1030200024BE000864BE0008FC0300204CBE00085B
:10303000E803002058BE0008D403002068BE000842
:10304000C003002074BE000838BE000810B5144646
:1030500001EB81014900C0EBC00001F0FE01C0B2EC
:1030600001F01EFA054A012306CA204601F000FAC3
:10307000034B186801F0AEF810BD00BF000000203F
:103080001C00002038B50024954B1C70954B1C701B
:10309000C220FFF73DFDCC20FFF73AFDC420FFF72B
:1030A00037FDCE20FFF734FD204601F083F88E4A2D
:1030B00021462046FFF7CAFF8C4A01212046FFF730
:1030C000C5FF8B4A02212046FFF7C0FF844B1B78C7
:1030D000002B3DD1834B1B78002BF7D00024804B75
:1030E0001C70804B1C70204601F064F8814A214618
:1030F0002046FFF7ABFF804A01212046FFF7A6FFDD
:103100007E4A02212046FFF7A1FF7D4A0521204685
:10311000FFF79CFF724B1B78002B40F09980794D94
:10312000C4212846FFF702FE774CCE212046FFF748
:10313000FDFD2A4603210020FFF788FF22460421D7
:103140000020FFF783FF674B1B78002BE2D036E0AF
:103150000024634B1C70634B1C70204601F02AF85E
:103160006A4A21462046FFF771FF634A0121204643
:10317000FFF76CFF614A02212046FFF767FF604AB4
:1031800005212046FFF762FF554B1B78CBB9604DF8
:10319000C2212846FFF7CAFD5E4CCC212046FFF72E
:1031A000C5FD2A4603210020FFF750FF22460421D7
:1031B0000020FFF74BFF4B4B1B78002BE4D0002087
:1031C00038BD484B1B78002BF9D1C220FFF764FCB7
:1031D0000024434B1C70434B1C70204600F0EAFF58
:1031E0004A4A21462046FFF731FF4B4A012120463B
:1031F000FFF72CFF414A02212046FFF727FF404AF4
:1032000005212046FFF722FF354B1B78C3B9404DFF
:10321000C2212846FFF78AFD3E4CCC212046FFF70D
:1032200085FD2A4603210020FFF710FF22460421D6
:103230000020FFF70BFF2B4B1B78002BE4D0BEE7E1
:10324000284B1B78002BBAD1C220FFF745FC3DE785
:10325000244B1B78002BB2D1C420FFF71DFC0024A7
:103260001F4B1C701F4B1C70204600F0A3FF214A0F
:1032700021462046FFF7EAFE274A01212046FFF7B4
:10328000E5FE1E4A02212046FFF7E0FE1C4A05210A
:103290002046FFF7DBFE124B1B78C3B9194DC42142
:1032A0002846FFF743FD184CCE212046FFF73EFD90
:1032B0002A4603210020FFF7C9FE224604210020F0
:1032C000FFF7C4FE074B1B78002BE4D077E7054BD4
:1032D0001B78002B7FF473AFC420FFF7FDFBF5E6EE
:1032E0007A0300207903002084BE000890BE000805
:1032F000A0BE0008ECBE0008C0BE0008C8BE0008A2
:10330000D8BE0008D4030020C0030020B0BE0008CF
:10331000FC030020E8030020E4BE000808B54FF4D9
:10332000FA6264210148FDF775F908BDB004002078
:1033300010B5044602680E4B9A4207D023680D4A26
:1033400093420CD00C4A93420DD010BD4FF4005163
:103350000A4801F0C8FD0A4B01221A70EEE7094A3B
:1033600001211170EEE7084B01221A70EDE700BF52
:103370000048014000440140004001400008024074
:10338000730300206D0300206C03002008B5422168
:10339000FCF7F8FF122814BF0020012008BD000030
:1033A00010B586B0164C2046FDF7D9F92046FDF73A
:1033B0001AFA642001F0CCF81248FFF7E7FF20B9B1
:1033C000114B00221A7006B010BD64230593002330
:1033D000049303930723029304230193012400948D
:1033E00005A3D3E900230748FDF790F9FFF796FFFF
:1033F000054B1C702046E6E7D8B9D1190000000043
:10340000C8050020B00400207703002070B50646F0
:10341000FCF7D0FEC5B26B1EDBB2632B01D90020D6
:1034200070BD274C87224D212046FCF7BAFF0022B1
:1034300024212046FCF7B5FF412240212046FCF71D
:10344000B0FF2046FDF7E0F8F72211212046FCF7F7
:10345000A8FF2A4622212046FCF7A3FF0E21204682
:10346000FCF790FF02460D212046FCF79AFF02234D
:10347000A3752B46324600212046FCF7C7FF8B225E
:1034800001212046FCF78DFF01F05CF800F6B8340E
:103490000B4B1868FDF7BDF928B901F053F8A042AD
:1034A000F6D90020BCE7064C2046FDF7ADF889228E
:1034B00001212046FCF775FF0120A075B0E700BF91
:1034C000B004002010B5FFF7A1FF0446FFF726FF68
:1034D000204610BD2DE9F041ADF5D86D844B1E7826
:1034E00026B930460DF5D86DBDE8F081012281493D
:1034F0000DF28C40FEF75CFD064608B10026F0E7B1
:103500007D490DF58B60FFF7CFF808B900269FE0E5
:10351000002278491046FEF74BFDE2E713223946B8
:1035200012A804F0C9FE2EE00F22294602A804F0DA
:10353000C3FE44AA3C211CA8FFF736F900284AD054
:103540001CAC6E49204604F094FE4FF0000804F8CD
:1035500000806B4D2946204604F0C2FE07462946EE
:10356000404604F0BDFE04462946404604F0B8FE3D
:103570000546002FDDD0002CDBD00028D9D09DF8E7
:103580004830002BCAD05F492046FCF709FE0028CE
:10359000CAD05D492046FCF703FE80B15B49204656
:1035A000FCF7FEFD88B15A492046FCF7F9FD0028DA
:1035B000BFD10F2229460EA804F07EFEB9E70F22E4
:1035C000294606A804F078FEB3E70F2229460AA888
:1035D00004F072FEADE744A8FFF751F800241794F9
:1035E000189419941A941B94132212A917A804F082
:1035F00063FE224603E017AB5F219954013217ABFB
:103600009B5C53B1203BDBB21A2BF7D8414921FA1E
:1036100003F313F0010FEED1F0E717AC019406AB02
:10362000009302AB3C4A64212BA804F09FFD2BA819
:10363000FFF7ECFE01940EAB00930AAB374A64210E
:103640002BA804F093FD2BA8FFF7E0FE0136B6B2DD
:10365000D0A90DF58B60FFF780F8002833D19DF8D5
:103660005633002B2FD09DF8483313F0100FEFD1B5
:103670002B490DF2563004F08FFE0028E8D00122CD
:103680000DF2563144A8FEF7C1FC0028E0D100231A
:103690001293139314931593169302930393049325
:1036A000059306930793089309930A930B930C933E
:1036B0000D930E930F931093119344AA3C211CA8D1
:1036C000FFF772F835E70DF58B60FFF734F800224D
:1036D00008491046FEF76CFC3346124A64212BA8B9
:1036E00004F044FD2BA8FFF7EDFEF6B2F9E600BFAB
:1036F0007203002064BE0008FCBE00080CBF000876
:1037000010BF000814BF00081CBF000824BF000839
:103710002CBF00080120000434BF000860BF00086F
:1037200000BF00088CBF000838B50C48FCF7BFFF8D
:1037300080B10446312800D93124094D2246094977
:10374000284606F05AFA00232B55074B1C70074BEE
:1037500001221A700148FCF757FF38BDB004002061
:1037600078040020C70400207404002076030020A1
:1037700038B50446B0F5007F08D0B4F5804F0CD0C2
:10378000B4F5004F1FD0022C31D038BD224B9B7DA9
:10379000032BF2D1FFF7C8FFEFE700F0D3FE054699
:1037A0001E4B1B68C31AB3F5FA7FE9D94FF40051D9
:1037B0001B4801F098FB194B1D600123194A137037
:1037C000194A1370DCE700F0BDFE0546174B1B6875
:1037D000C31AB3F5FA7FD6D94FF40051104801F05F
:1037E00082FB124B1D60124B01221A70CBE700F0D6
:1037F000A9FE04460F4B1B68C31AB3F5FA7FC4D960
:103800004FF40051064801F06EFB0A4B1C600A4B56
:1038100001221A70B9E700BFB0040020680300203D
:10382000000802407B03002078030020640300208E
:103830007A030020600300207903002072B6FEE7BF
:1038400008B50A480A4B03600A4B436000238360B3
:10385000C3604FF48042026143618361C3610362CC
:1038600001F0CEFE00B908BDFFF7E8FF8008002098
:1038700000540040801A060008B50948094B03604F
:1038800046F2A7134360002383604FF47A72C2604C
:103890000361836103F080FE00B908BDFFF7CEFF2E
:1038A000E40500200048014008B50A480A4B0360BF
:1038B0000A4B436000238360C3604FF4804202617F
:1038C00043618361C361036201F09AFE00B908BDE0
:1038D000FFF7B4FF2C08002000580040A08601002C
:1038E00008B50A480A4B03600A4B43600023836013
:1038F000C3604FF48042026143618361C36103622C
:1039000001F07EFE00B908BDFFF798FFD807002040
:10391000005C0040A086010008B50D480D4B036017
:103920004FF48273436000238360C360036143618B
:103930004FF4007282613822C26103624362836283
:103940000A23C36203F048FA00B908BDFFF776FF07
:10395000740700200030014008B50D480D4B03608E
:103960004FF48273436000238360C360036143614B
:103970004FF400728261C3610362436283620A236F
:10398000C36203F029FA00B908BDFFF757FF00BF73
:103990001C0700200038004008B50948094B0360A7
:1039A00046F2A71343600023836047F22F52C260A0
:1039B0000361836103F0F0FD00B908BDFFF73EFF2E
:1039C0002C0600200044014000B585B00023009380
:1039D0000193029303930F480F4A026046F2A71225
:1039E0004260836041F28732C2600361836103F009
:1039F000D3FD50B94FF4805300936946054803F056
:103A000004FE20B905B05DF804FBFFF717FFFFF7D0
:103A100015FF00BF740600200040014008B50748AC
:103A2000074B03600523436040F6FF73836002F099
:103A3000F7FB00B908BDFFF701FF00BFCC0700206E
:103A40000030004000B585B000230093019302933D
:103A500003931348134A0260436083600361037653
:103A600080F82030C362104A8262C3600122C261C2
:103A700080F83030426100F019FE68B902230093EB
:103A800001230193002302936946054800F03AFEA2
:103A900020B905B05DF804FBFFF7D0FEFFF7CEFEBE
:103AA000D4080020002001400100000F00B595B0AF
:103AB0003022002108A804F0D4FB002303930493D0
:103AC00005930693079301931B4A116C41F08051B3
:103AD0001164126C02F080520192019A029317490C
:103AE0000A6822F4404242F400420A600A6802F482
:103AF00040420292029A092208924FF480320992BF
:103B000001220D920E9308A802F094FD80B90F23B4
:103B1000039301230493002105910691079103A8C3
:103B200002F0DEFF30B902F081FF15B05DF804FB52
:103B3000FFF784FEFFF782FE00380240007000406D
:103B400030B591B000F0D8FCFFF7B0FFFEF7A0FE53
:103B5000FEF75EFFFFF774FEFFF78EFEFFF7A4FE91
:103B6000FFF7BEFEFFF7D8FEFCF710FFFFF7F4FEED
:103B7000FFF712FFFFF728FFFFF750FFFFF762FF85
:103B800040F2DC5000F0E4FC844B854ADA604FF4EC
:103B900000719960834959614FF4805119615A60ED
:103BA0004FF480621A60804A12689A617F4A1360FB
:103BB000FFF7F6FB7E4B186800F036FBB0FA80F397
:103BC0005B097C4A1370FEF73DFF7B4B1870C220E7
:103BD000FEF748FF794B1870CC20FEF743FF784B77
:103BE0001870C420FEF73EFF764B1870CE20FEF70B
:103BF00039FF754B1870FEF743FF744B186803F0DC
:103C000089FB734B186803F085FB724B186803F04F
:103C100081FB4FF47A7000F09BFC6F4802F02EFBA2
:103C200096E1FFF72FFA00206C4B18706C4B187060
:103C30006C4B18706C4B187000F0BCFA98E16B4B31
:103C40001868FFF7D1F806900023079306A804F040
:103C5000B9FB0346664A12210BA805F067FC8FE109
:103C60000BAA00210846FFF7F1F9624C624B1B7862
:103C70000593554B1B780493524B1B780393504B81
:103C80001B7802934D4B1B7801934B4B1B78009391
:103C90005A4B1B785A4A1421204604F067FA2246F0
:103CA00001210020FFF7D2F9564A02210020FFF738
:103CB000CDF9554A02210720FFF7C8F9534A0321DD
:103CC0000020FFF7C3F9524A03210720FFF7BEF98E
:103CD000504B00221A70414B1B78ABB9404B1B78FC
:103CE000DBB9404B1B78002B00F052814A4A05217A
:103CF0000620FFF7ABF9FFF7EDFB484B02221A70E5
:103D0000384B00221A7043E1454A05210620FFF78F
:103D10009DF9324B00221A703AE1424A05210620F1
:103D2000FFF794F92F4B00221A7031E13E4A3F4BC6
:103D30001B6813801B0C9370384B00221A703C4B8D
:103D400001221A703EE1384A3A4B1B6813801B0C63
:103D50009370324B00221A70354B01221A7031E1F8
:103D6000314A354B1B6813801B0C93702B4B002280
:103D70001A7027E12C4A05210F20FFF767F92C4B19
:103D800000221A7023E12D4A04210020FFF75EF97A
:103D90002B4A04210020FFF759F920E1C805002033
:103DA000000002400004024014000020B004002083
:103DB0001C00002075030020740300207103002004
:103DC000700300206F0300206E030020100000200D
:103DD0000C00002008000020CC0700207B030020FE
:103DE0007A030020790300207803002018000020C7
:103DF000A4BF0008A4030020720300207703002062
:103E0000B8BF0008FC030020E8030020D403002012
:103E1000C003002073030020D4BF0008B8030020B3
:103E200020BF000830BF0008BC030020DCBF000832
:103E3000B9030020E0BF0008E4BF0008E8BF0008A5
:103E4000780400209A48FFF73DFB9A4B02221A7033
:103E5000994B00221A70994B1B78002B55D0984B28
:103E60001B78002B40F0EF80964B1B78002B40F026
:103E7000EE80954B1B78002B40F0ED80934B1B7828
:103E8000002B40F0EC804FF4167000F061FB8C4B7F
:103E90001B78002B40F0E7808A4B1B78002B40F00A
:103EA000E780894B1B78002B40F0E780874B1B781D
:103EB000002B40F0E780824B1B78002B40F0E7801E
:103EC000804B1B78002B40F0E6807F4B1B78002B4B
:103ED00040F0E5807D4B1B78002B40F0E4807C4B6C
:103EE0001B7823B17B4B1B78002B40F021817A4B50
:103EF0001B7823B1764B1B78002B00F039816F4B78
:103F000000221A706B4B01221A70744B1B78E3B1BC
:103F1000734C744B0093744B744A6421204604F034
:103F200025F92046FFF772FA714B0093714B724AE4
:103F30006421204604F01AF92046FFF7C3FA5D4BCE
:103F400002221A70654B00221A706C4802F096F932
:103F5000FEF796FD5A4B1B7853B15B4B1B783BB178
:103F6000674B1B7823B15C4B1B78002B7FF459AE59
:103F7000584B1B7823B1634B1B78002B7FF45FAE4B
:103F8000554B1B7823B15F4B1B78002B7FF468AE39
:103F9000514B1B78DBB1474B1B78022B3FF4C6AE6D
:103FA000032B3FF4D0AE012B7FF4DAAE564A574BC9
:103FB0001B6813801B0C93703E4B00221A70544BED
:103FC00001221A70524B1B78002B7FF4D3AE3A4B70
:103FD0001B7823B1404B1B78002B7FF4D4AE364BBB
:103FE0001B78002B3FF437AF4A494B48FCF7D8F811
:103FF00000283FF427AF49494748FCF7D1F8E0B122
:1040000008224749444804F045F900287FF420AFCE
:1040100006AC444D0FCD0FC42B6824F8023B1B0C9B
:10402000237006A9404B1868FEF7A6FD3F48FFF72E
:1040300049FA204B02221A700AE7FFF74BFA1D4B90
:1040400002221A7004E7C220FEF762FD0CE7CC20C2
:10405000FEF75EFD0DE7C420FEF75AFD0EE7CE2009
:10406000FEF756FD0FE7C2211F48FEF75FFE13E77C
:10407000CC211C48FEF75AFE13E7C4211D48FEF769
:1040800055FE13E7CE211A48FEF750FE13E7C22073
:10409000FEF756FD14E7CC20FEF752FD15E7C420CD
:1040A000FEF74EFD16E7CE20FEF74AFD17E700BFEC
:1040B00008C00008B8030020760300206C0300202D
:1040C00071030020700300206F0300206E030020A6
:1040D0007203002074030020750300206D0300208C
:1040E00010040020E8030020FC03002050C000085A
:1040F000C0030020D403002078C00008CC070020B3
:104100007803002073030020BC030020D8BF000800
:10411000B9030020FCBF00087804002020C000087C
:1041200030C0000884040020180000203CC00008B3
:10413000124802F0A3F8124B1868FEF755FEFEF77E
:10414000DBFE50B10F4B1B78002B3FF4D0AE0E4A74
:1041500005210020FEF77AFFC9E60A4B1B78002BE9
:104160003FF4C5AE094A05210020FEF76FFFBEE609
:10417000064A05210020FEF769FFC0E6CC070020B3
:10418000180000207503002048C000084CC000083B
:1041900000B587B08DF817100A230293012301930D
:1041A0000DF1170200920022782101F041FD07B0C5
:1041B0005DF804FB002303E0FF21054AD1540133DD
:1041C000B3F5806F03D20028F6D10146F5E77047BA
:1041D0002409002030B585B0054600241DE0A4F177
:1041E0005001C9B22846FFF7D3FF00212846FFF748
:1041F000CFFF10212846FFF7CBFF642302938023D3
:104200000193084B03EBC413009301234022782150
:10421000284601F00DFD0134E4B2072CDFD905B0CA
:1042200030BD00BF2409002038B50446642000F0EA
:104230008FF9AE212046FFF7ABFF0546202120462F
:10424000FFF7A6FF054410212046FFF7A1FF054414
:10425000B0212046FFF79CFF0544C8212046FFF708
:1042600097FF054400212046FFF792FF05441021E7
:104270002046FFF78DFF054440212046FFF788FFC9
:10428000054481212046FFF783FF0544FF21204696
:10429000FFF77EFF0544A1212046FFF779FF054483
:1042A000A6212046FFF774FF0544A8212046FFF70A
:1042B0006FFF05443F212046FFF76AFF0544A42114
:1042C0002046FFF765FF0544D3212046FFF760FF36
:1042D000054400212046FFF75BFF0544D521204619
:1042E000FFF756FF0544F0212046FFF751FF054434
:1042F000D9212046FFF74CFF054422212046FFF735
:1043000047FF0544DA212046FFF742FF054412210A
:104310002046FFF73DFF0544DB212046FFF738FF2D
:10432000054420212046FFF733FF05448D21204618
:10433000FFF72EFF054414212046FFF729FF05440F
:10434000AF212046FFF724FFE84201D0012038BD0D
:104350000020FFF72FFF2046FFF73CFF034B002014
:104360001880588001225A71F1E700BF1C09002013
:1043700010F0800F25D13F2923D810B4114B1B79A1
:1043800013B1B2FA82F25209012A0FD0CB0800EB26
:10439000C3100D4C225C01F0070101238B40DB436D
:1043A0005BB2134023545DF8044B7047CB0800EB1D
:1043B000C310054C235C01F007018A4013432354CA
:1043C000F1E770471C090020240900202DE9F0477F
:1043D00082B0814602A800E906009846234B1B885C
:1043E0009DF8006033447F2B3BDC204B5B889DF8BD
:1043F00001A053443F2B36DC00251FE01B4B1888DF
:10440000598829442044B8FA88F25209C9B2C0B286
:10441000FFF7AEFF0134A6420FD907FA04F313F4F5
:10442000004FEBD0114B188859882944204442464C
:10443000C9B2C0B2FFF79CFFECE70135AA4508D925
:10444000A9F1200303FB0A53019A32F813700024E8
:10445000E1E7064A138833441380484602B0BDE8BA
:10446000F0870020FAE70020F8E700BF1C090020D1
:1044700030B583B0044602A800E906001D4600E0FE
:104480000134207848B12B4602AA12E90600FFF752
:104490009DFF024620788242F2D003B030BD00007A
:1044A000014B1880598070471C09002010B5044644
:1044B0000E4B1A784FF47A73B3FBF2F30C4A106880
:1044C000B0FBF3F000F050FA68B90F2C01D90120CD
:1044D0000AE0002221464FF0FF3000F031FA054B90
:1044E0001C60002000E0012010BD00BF240000205F
:1044F000300000202800002008B50B4B1A6842F459
:1045000000721A601A6842F480621A601A6842F4F3
:1045100080721A60032000F001FA0F20FFF7C6FF37
:1045200001F0B2FE002008BD003C0240034A1168C1
:10453000034B1B780B441360704700BF240D002011
:1045400024000020014B1868704700BF240D002094
:1045500038B50446FFF7F6FF0546B4F1FF3F02D039
:10456000044B1B781C44FFF7EDFF401BA042FAD31D
:1045700038BD00BF240000204A4B5A6822F4403264
:104580005A605A6841680A435A600268536823F4C3
:104590008073536002685368016943EA01235360E2
:1045A0000268536823F0407353600268536881685F
:1045B0000B4353600268936823F4006393600268BE
:1045C0009368C1680B439360826A374B9A4257D015
:1045D0000268936823F07063936002689368816A4D
:1045E0000B4393600268936823F040539360026822
:1045F0009368C16A0B4393600268936823F00203D7
:10460000936002689368017E43EA4103936090F8E7
:104610002030002B3FD00268536843F4006353609E
:104620000268536823F46043536001684B68426A30
:10463000013A43EA42334B600268D36A23F47003C1
:10464000D3620168CB6AC269013A43EA0253CB6282
:104650000268936823F4007393600268936890F88B
:10466000301043EA412393600268936823F4806327
:10467000936002689368416943EA812393607047BD
:104680000268936823F0706393600268936823F074
:1046900040539360B0E70268536823F400635360AB
:1046A000CAE700BF002301400100000F38B310B576
:1046B0000446036C43B1236C13F0100F0BD00120A0
:1046C000002384F83C3010BD01F0FAFD0023636440
:1046D00084F83C30EFE7236C23F4885323F0020383
:1046E00043F0020323642046FFF746FF0020606486
:1046F000236C23F0030343F001032364E0E701206C
:104700007047000030B482B00022019290F83C2043
:10471000012A00F0B6800346012280F83C200A6896
:10472000092A40D90468E06892B202EB42021E3ABC
:104730004FF0070C0CFA02F220EA0202E2601C6859
:10474000E0680A8802EB42021E3A8D6805FA02F21E
:104750000243E2604A68062A3CD81C68606B02EBA0
:104760008202053A4FF01F0C0CFA02F220EA020214
:1047700062631C68606B4A6802EB8202053AB1F81A
:1047800000C00CFA02F20243626318683E4A90428B
:1047900050D018683C4A904255D0002083F83C0025
:1047A00002B030BC70470468206992B202EB42024A
:1047B0004FF0070C0CFA02F220EA020222611C6898
:1047C00020690A8802EB42028D6805FA02F2024370
:1047D0002261BFE70C2A16D81D68286B02EB820203
:1047E000233A1F2404FA02F220EA02022A631D6817
:1047F000286B4A6802EB8202233A0C8804FA02F220
:1048000002432A63C1E71D68E86A02EB8202413A6B
:104810001F2404FA02F220EA0202EA621D68E86A32
:104820004A6802EB8202413A0C8804FA02F202431F
:10483000EA62AAE70A68122AABD11448426842F435
:1048400080024260A5E70A68103A012AA5D80F48FD
:10485000426842F4000242600A68102A9DD10C4A64
:1048600012680C49A1FB0212920C02EB8202520068
:10487000019202E0019A013A0192019A002AF9D1CB
:104880008BE702208CE700BF00200140002301409D
:104890003000002083DE1B43002807DB00F01F02EE
:1048A000400901239340024A42F82030704700BF7C
:1048B00000E100E0002808DB0901C9B200F1604016
:1048C00000F5614080F80013704700F00F00090107
:1048D000C9B2014B1954704714ED00E000B500F067
:1048E0000700C0F1070CBCF1040F28BF4FF0040C07
:1048F000031D062B0FD9C31E4FF0FF3E0EFA0CF01E
:1049000021EA000199400EFA03FE22EA0E0241EA72
:1049100002005DF804FB0023EEE70000074AD368BD
:1049200023F4E0631B041B0C000200F4E06003436B
:1049300043F0BF6343F40033D360704700ED00E001
:1049400010B50446054BD868C0F30220FFF7C6FF38
:1049500001462046FFF7AEFF10BD00BF00ED00E0AE
:1049600008B5FFF799FF08BD0138B0F1807F0BD281
:104970004FF0E0235861054AF02182F8231000200F
:10498000986107221A6170470120704700ED00E02E
:1049900010B40368D9B210390A4AA2FB01421209C5
:1049A000094CA25CC2655F2907D96FF30903043380
:1049B0008365806D5DF8044B70476FF30903836571
:1049C000F7E700BFABAAAAAA9CC80008836A82695D
:1049D00092B9012B0AD0022B02D00BB100207047F4
:1049E000C36A13F0807F28D100207047C36AB3F1F7
:1049F000C07F24D000207047B2F5005F09D0022BA1
:104A000025D9032B25D1C36A13F0807F23D1002041
:104A10007047032B03D8DFE803F01404140A0020C6
:104A20007047C36A13F0807F0DD100207047C36ABE
:104A3000B3F1C07F09D000207047012070470120EA
:104A40007047012070470120704701207047012006
:104A500070470020704701207047000070B5044681
:104A6000FFF770FD002C5BD00546022384F835303B
:104A7000002384F834302268136823F001031360A4
:104A800023681A6812F0010F0AD0FFF75BFD431B81
:104A9000052BF5D920236365032084F8350070BD0C
:104AA0001A68204911406268A0680243E068024326
:104AB0002069024360690243A0690243E06902433E
:104AC000206A02430A43616A04291ED01A602668DC
:104AD000756925F00705636A1D43042B07D1A36A96
:104AE0001D43E36A1BB12046FFF770FF90B9756163
:104AF0002046FFF74DFFE26D3F2393408360002087
:104B00006065012384F83530C9E7E16A206B014311
:104B10000A43DBE740236365012084F83500BEE7E4
:104B20000120BCE73F8010F0F0B583B004460023BD
:104B30000193724B1D68724BA3FB0535AD0A876D5F
:104B40003E68C26D08239340334210D003681A6850
:104B500012F0040F0BD01A6822F004021A60C26D22
:104B600008239340BB60436D43F001034365E26D4E
:104B700001239340334209D02268526912F0800F1A
:104B800004D0BB60636D43F002036365E26D0423F0
:104B90009340334209D02268126812F0020F04D009
:104BA000BB60636D43F004036365E26D10239340C3
:104BB000334224D02268126812F0080F1FD0BB6065
:104BC00023681A6812F4802F0DD01B6813F4002F8D
:104BD00004D1236C9BB12046984710E0A36C73B1BD
:104BE000204698470BE01A6812F4807F03D11A68B8
:104BF00022F008021A60236C0BB120469847E26D40
:104C000020239340334255D02268126812F0100FCF
:104C100050D0BB6094F83530DBB2052B0ED0236842
:104C20001A6812F4802F33D01B6813F4002F2AD196
:104C3000636C002B3ED0204698473BE02268136807
:104C400023F0160313602268536923F08003536135
:104C5000236CA3B12268136823F008031360E26D8C
:104C60003F239340BB60012384F83530002384F850
:104C70003430236D002B3FD0204698473CE0A36C96
:104C8000002BE7D1EBE7E36BA3B12046984711E097
:104C90001A6812F4807F09D11A6822F010021A6093
:104CA000012384F83530002384F83430E36B0BB1F2
:104CB00020469847636DFBB1636D13F0010F17D069
:104CC000052384F835302268136823F0010313604C
:104CD000019B01330193AB4204D823681B6813F096
:104CE000010FF5D1012384F83530002384F83430E6
:104CF000E36C0BB12046984703B0F0BD30000020B4
:104D0000B5814E1B00230F2B00F2D78070B582B007
:104D100065E085684FEA430E032404FA0EF425EAA1
:104D20000405CC6804FA0EF42C438460446824EA39
:104D300002044A68C2F300129A40224342605CE0D7
:104D4000DC08083450F8242003F00705AD004FF0CC
:104D50000F0E0EFA05FE22EA0E0E0A69AA4042EA7A
:104D60000E0240F824205CE0042200E0002202FA57
:104D70000EF22A430234514D45F82420504A9468DB
:104D80006FEA0C0224EA0C054E6816F4801F01D06D
:104D90004CEA04054A4CA560E46802EA04054E6842
:104DA00016F4001F01D04CEA0405454CE560646828
:104DB00002EA04054E6816F4003F01D04CEA0405EF
:104DC0003F4C6560246822404D6815F4803F01D057
:104DD0004CEA04023A4C226001330F2B6BD80122BB
:104DE0009A400C6804EA020C32EA0404F4D14C68DC
:104DF00004F00304013C012C8BD94A6802F0030241
:104E0000032A09D0C4685D000322AA4024EA0204F0
:104E10008A68AA402243C2604A6802F00302022A5A
:104E20008ED004684FEA430E032202FA0EF224EAFF
:104E300002044A6802F0030202FA0EF22243026000
:104E40004A6812F4403FC7D0002201921D4A546CB8
:104E500044F480445464526C02F480420192019AFA
:104E60009C08A51C154A52F8255003F0030E4FEA82
:104E70008E0E0F2202FA0EF225EA0205124A904225
:104E80003FF474AF02F5806290420ED002F580626A
:104E900090420CD002F5806290420AD002F5806206
:104EA00090423FF461AF072261E701225FE70222EF
:104EB0005DE703225BE702B070BD70470038014038
:104EC000003C0140003802400000024003691942E2
:104ED00001D001207047002070470AB181617047FE
:104EE000090481617047436901EA030221EA030171
:104EF00041EA02418161704708B5054B5B69034295
:104F000000D108BD024B5861FEF732FCF9E700BF43
:104F1000003C014003685A6912F4806F01D10020FF
:104F200070476FF480625A6100230363202280F887
:104F30003D2080F83E30026C42F00402026480F8AA
:104F40003C30012070472DE9F04106460C461746DB
:104F500098463BE0FFF7F6FA069BC01A404502D898
:104F6000B8F1000F32D1012D18D033689B6924EAC3
:104F700003039BB2B3FA83F35B099F4226D100235C
:104F80003363202286F83D2086F83E30326C42F0B2
:104F90002002326486F83C30012027E033685B69E8
:104FA00024EA03039BB2B3FA83F35B09E5E73368B2
:104FB0005B6924EA030C1FFA8CFCBCFA8CFC4FEAF8
:104FC0005C1C674511D1B8F1FF3FC3D1C4F307455D
:104FD000012DECD033689B6924EA030C1FFA8CFC8A
:104FE000BCFA8CFC4FEA5C1CEBE70020BDE8F081CA
:104FF0002DE9F84305460E469046994653E01A6857
:1050000042F400721A602B686FF480625A610023C8
:105010002B63202285F83D2085F83E302A6C42F033
:1050200004022A6485F83C3001204AE0FFF78AFA3E
:10503000A0EB0900404502D8B8F1000F33D1012F91
:1050400017D02B689B6926EA03039BB2003B18BF6D
:10505000012343B300232B63202285F83D2085F8EC
:105060003E302A6C42F020022A6485F83C30012050
:1050700027E02B685B6926EA03039BB2003B18BF5D
:105080000123E6E72B689C6926EA0404A4B2003CED
:1050900018BF0124A4B12B685A6912F4806FAED1F5
:1050A000B8F1FF3FC2D1C6F30747012FEAD12B6801
:1050B0005C6926EA0404A4B2003C18BF0124E9E7B5
:1050C0000020BDE8F8830000F0B583B004460D462B
:1050D00016461F46C36A082B0DD0012B0BD013F5C3
:1050E000803F08D0036B122B0AD10268136843F487
:1050F0008073136004E02268136843F480731360C4
:105100000097334600224FF001112046FFF71BFFA6
:1051100080B92369B3F5804F16D1236805F0FE05E9
:105120001D613B46324613492046FFF761FFF8B93F
:1051300003B0F0BD23681B6813F4807F02D04FF4E6
:10514000007323640320F3E7EB11226803F00603E6
:1051500043F0F00313613B46324607492046FFF710
:1051600047FF18B92368EDB21D61DAE70120DFE7D8
:105170000120DDE702000100080001002DE9F041F7
:1051800084B004460D4616461F46C26A01680B6885
:1051900043F480630B60082A0DD0012A0BD012F56E
:1051A000803F08D0036B112B0AD10268136843F4C7
:1051B0008073136004E02268136843F48073136003
:1051C0000097334600224FF001112046FFF7BBFE47
:1051D00098B92369B3F5804F19D1236845F00105CB
:1051E000EDB21D613B4632462A492046FFF700FFDB
:1051F00000284CD104B0BDE8F08123681B6813F48B
:10520000807F02D04FF4007323640320F2E74FEA5B
:10521000E51808F00608236848F0F0021A613B46DA
:1052200032461D492046FFF7E3FE08B10120E1E7C1
:105230002368EDB21D613B46324616492046FFF712
:10524000D7FE08B10120D5E70022039223685969EF
:105250000391996903910399196841F48071196068
:10526000009733464FF001112046FFF76CFE20B93E
:10527000226848F0F1031361B4E723681B6813F454
:10528000807F02D04FF4007323640320B2E7012033
:10529000B0E700BF020001000800010070B504463D
:1052A0000D46164623685B6913F0800F21D1204616
:1052B000FFF730FEF8B9B5F1FF3FF3D0FFF742F941
:1052C000801BA84201D8002DECD123685B6913F044
:1052D000800FE7D100232363202284F83D2084F847
:1052E0003E30226C42F02002226484F83C300120DF
:1052F00000E0002070BD0120FCE700002DE9F04334
:1053000085B004460D4691461F46DDF830800D9E5F
:105310000368196841F480711960009643460022C1
:105320004FF00111FFF70FFE60B9236805F0FE058D
:105330001D613346424626492046FFF759FE68B1B3
:10534000012008E023681B6813F4807F02D04FF42B
:1053500000732364032005B0BDE8F08300230393AA
:1053600023685A6903929B690393039B3246414623
:105370002046FFF793FF30B9012F0FD123685FFA62
:1053800089F61E61E7E7236C042B01D00120E2E7D8
:105390002268136843F400731360F7E723684FEA49
:1053A00019221A61324641462046FFF777FF20B99D
:1053B00023685FFA89F61E61CDE7236C042B01D0C8
:1053C0000120C8E72268136843F400731360F7E70D
:1053D000020001002DE9F04784B004460D46164650
:1053E00099460C9FDDF834800268136843F48063AB
:1053F00013600368196841F480711960CDF800806A
:105400003B4600224FF00111FFF79DFD70B95FFA96
:1054100085FA236805F0FE051D6143463A46414979
:105420002046FFF7E5FD68B1012008E023681B680E
:1054300013F4807F02D04FF400732364032004B080
:10544000BDE8F0870023039323685A6903929B69A0
:105450000393039B424639462046FFF71FFF80B95E
:10546000B9F1010F18D12368F6B21E6142463946E0
:105470002046FFF713FF68B3236C042B24D00120D0
:10548000DDE7236C042B01D00120D8E722681368E4
:1054900043F400731360F7E72368320A1A61424647
:1054A00039462046FFF7FAFE18B92368F6B21E61A6
:1054B000DCE7236C042B01D00120C0E722681368CD
:1054C00043F400731360F7E72268136843F4007332
:1054D0001360D4E72268136843F480731360CDF837
:1054E00000803B4600224FF001112046FFF72BFDC4
:1054F00068B922684AF00103136143463A460949F4
:105500002046FFF775FD002899D0012097E7236812
:105510001B6813F4807F02D04FF4007323640320D0
:105520008DE700BF0200010070B504460D46164627
:1055300023685B6913F0040F21D12046FFF7EAFCD2
:10554000F8B9B5F1FF3FF3D0FEF7FCFF801BA8428E
:1055500001D8002DECD123685B6913F0040FE7D16B
:1055600000232363202284F83D2084F83E30226CFF
:1055700042F02002226484F83C30012000E0002048
:1055800070BD0120FCE770B504460D46164614E0D8
:105590006FF010025A6100232363202284F83D201B
:1055A00084F83E30226C226484F83C30012025E0EF
:1055B00023685B6913F0400F10D02368586910F01E
:1055C000400F1AD1586910F0100FE1D1FEF7BAFF61
:1055D000801BA842ECD8002DEFD1E9E7002323631C
:1055E000202284F83D2084F83E30226C42F02002D4
:1055F000226484F83C30012000E0002070BD0000EF
:10560000002800F0CC8070B5044690F83D30002BA7
:1056100077D0242384F83D302268136823F00103F7
:1056200013602268136843F4004313602268136810
:1056300023F40043136001F009FB62685A4B9A425D
:1056400064D85A4B98428CBF00230123002B40F0B2
:10565000A8805749A1FB00318B0C25686A6822F0AD
:105660003F0242EA91426A6021680A6A22F03F02E0
:1056700066684D4DAE424FD8013313430B6221682B
:10568000CA6922F44F4222F0FF026568464B9D42F0
:105690004CD8431E6D00B3FBF5F3013340F6FC70AC
:1056A000034278D0C3F30B031A43CA6121680B6825
:1056B00023F0C003E269206A024313430B602168B0
:1056C0008B6823F4034323F0FF032269E06802435D
:1056D00013438B602168CB6823F0FF036269A069E4
:1056E00002431343CB602268136843F00103136045
:1056F00000202064202384F83D30206384F83E009D
:1057000070BD80F83C3000F00FFE82E7294B9842D4
:105710008CBF0023012399E74FF4967505FB03F333
:10572000254DA5FB03539B090133A6E7A668BEB927
:10573000431E05EB450CB3FBFCF30133C3F30B0332
:10574000B3FA83F35B0943BBC6B9431E05EB4505BA
:10575000B3FBF5F30133C3F30B0343F40043A3E7B7
:10576000431E05EB850C0CEB8C0CB3FBFCF30133F7
:10577000C3F30B03B3FA83F35B09E4E7431E05EBC2
:10578000850505EB8505B3FBF5F30133C3F30B0387
:1057900043F4404388E7042386E7012384E701209C
:1057A00070470120ACE700BFA08601007F841E0087
:1057B00083DE1B43FF083D00D34D62102DE9F0430B
:1057C00085B004460F46914698460C9EFEF7BAFEF9
:1057D000054694F83D00C0B2202804D00227384680
:1057E00005B0BDE8F0830095192301224F492046FA
:1057F000FFF7A9FB002840F0928094F83C30012B81
:1058000000F08F80012384F83C3023681A6812F07E
:10581000010F03D11A6842F001021A60226813686E
:1058200023F400631360212384F83D30102384F8AF
:105830003E3000232364C4F82490A4F82A80638DAA
:1058400023853B4BE3622B46324639462046FFF721
:105850003BFC0746002866D10023039323685A695E
:1058600003929B690393039B11E0236C042B01D0EB
:105870000127B4E72268136843F400731360F7E765
:105880002A4631462046FFF74FFE00282ED1238DB1
:10589000002B36D02A4631462046FFF7FFFC002871
:1058A000E3D1626A236812781A61606A431C6362FA
:1058B000618D89B2013989B26185238D013B9BB22B
:1058C00023852268516911F0040FD9D0002BD7D05D
:1058D00043781361636A01336362638D9BB2013B5A
:1058E0009BB26385238D013B2385C9E7236C042B81
:1058F00001D0012773E72268136843F40073136033
:10590000F7E72268136843F400731360202384F8D8
:105910003D30002384F83E3084F83C305FE70227B6
:105920005DE702275BE7012759E700BF020010008F
:105930000000FFFF2DE9F04387B004460F46914673
:1059400098460E9EFEF7FEFD054694F83D00C0B257
:10595000202804D00227384607B0BDE8F083009520
:105960001923012289492046FFF7EDFA002840F06B
:105970004F8194F83C30012B00F04C81012384F8D6
:105980003C3023681A6812F0010F03D11A6842F004
:1059900001021A602268136823F400631360222353
:1059A00084F83D30102384F83E3000232364C4F88B
:1059B0002490A4F82A80638D2385754BE3622B46DF
:1059C000324639462046FFF7D9FB0746002840F00B
:1059D0002381238D5BB9029323685A6902929A69E5
:1059E0000292029A1A6842F400721A607AE0012B5D
:1059F0000FD0022B1FD02268136843F4806313601A
:105A00000023059323685A6905929B690593059BBA
:105A100068E02268136823F4806313600023039313
:105A200023685A6903929A690392039A1A6842F4A6
:105A300000721A6056E02268136823F480631360D2
:105A40002268136843F400631360002304932368FF
:105A50005A6904929B690493049B43E02A463146A9
:105A60002046FFF790FD002840F0D88023681A698F
:105A7000636A1A70636A01336362238D013B238575
:105A8000638D9BB2013B9BB263852BE0009533464F
:105A9000002240492046FFF756FA002840F0C08017
:105AA0002268136843F40073136023681A69636AF9
:105AB0001A70626A531C6362238D013B2385638DD8
:105AC0009BB2013B9BB2638523681B695370636A79
:105AD00001336362238D013B2385638D9BB2013BC0
