:020000040800F2
:1000000000800120C52E0008F926000801270008FD
:100010000327000805270008072700080000000044
:100020000000000000000000000000000927000898
:100030000B270008000000000D2700080F2700080C
:10004000152F0008152F0008152F0008152F000880
:10005000152F0008152F0008152F0008152F000870
:10006000152F0008152F0008152F0008152F000860
:10007000152F0008152F0008152F0008152F000850
:10008000152F0008152F0008152F0008000000008C
:10009000000000000000000000000000152F000814
:1000A000152F0008152F000819270008152F000824
:1000B000152F0008152F0008152F0008152F000810
:1000C000152F0008152F0008152F0008152F000800
:1000D000152F0008152F0008152F0008000000003C
:1000E000152F0008152F0008152F0008000000002C
:1000F000000000000000000000000000152F0008B4
:1001000000000000152F0008152F0008152F00080B
:1001100000000000000000000000000000000000DF
:1001200029270008152F0008152F0008152F000893
:10013000152F000800000000000000000000000073
:10014000000000000000000000000000152F000863
:10015000152F0008152F0008152F0008152F00086F
:10016000152F0008152F00080000000000000000F7
:10017000000000000000000000000000000000007F
:1001800000000000152F0008000000000000000023
:04019000152F00081F
:1001A00001F0FF01102A2BDB10F0070F08D010F828
:1001B000013B013A8B422DD010F0070F42B3F6D12C
:1001C000F0B441EA012141EA014122F007047FF045
:1001D00000070023F0E80256083C85EA010586EA9C
:1001E000010685FA47F5A3FA87F586FA47F6A5FAD8
:1001F00087F68EB9EED1F0BC01F0FF0102F00702E4
:1002000032B110F8013B013A83EA010313B1F8D18E
:100210000020704701387047002D06BF354603386F
:10022000073815F0010F07D1013015F4807F02BFA8
:10023000013015F4C03F0130F0BC0138704700BFF9
:1002400053B94AB9002908BF00281CBF4FF0FF313D
:100250004FF0FF3000F00CB8ADF1080C6DE904CEA2
:1002600003F0FAFADDF804E0DDE9022304B0704798
:10027000704700BF10B5054C237833B9044B13B158
:100280000448AFF300800123237010BD80000020DC
:1002900000000000143B000808B5034B1BB10349E4
:1002A0000348AFF3008008BD000000008400002078
:1002B000143B000838B50446006800F0C6F9206811
:1002C00000F0DAF905460121206800F0A9F9284676
:1002D00038BD70B504460E4615460021006800F092
:1002E0009FF946F08001206800F0AFF929462068A8
:1002F00000F0ABF90121206800F092F970BD012BEC
:100300001CD9F8B505460C4617461E460021006864
:1003100000F086F944F08001286800F096F9002486
:1003200005E0395D286800F090F90134E4B2B44288
:10033000F7D30121286800F073F9F8BD704710B5B4
:10034000044609220121FFF7C4FF0123A37510BD54
:1003500010B5044608220121FFF7BBFF0023A37557
:1003600010BD08B588220121FFF7B3FF08BD0000CA
:1003700030B583B00446FFF7EBFF0F2000F09AF989
:100380002046FFF7EEFFA568E368D904554A00232D
:10039000E80441EA5531FFF753FFC0F307438DF8F6
:1003A0000430C0F307238DF805308DF806000323D1
:1003B00001AA06212046FFF7A2FF34223921204658
:1003C000FFF787FF237C484AD25C09212046FFF7CC
:1003D00080FF0B2211462046FFF77BFF23220C21D2
:1003E0002046FFF776FF637C404AD35C062B42D061
:1003F000A37C3F4AD25C1201D2B2E37C3D49CB5C84
:100400005B00DBB21A4402F0FE021D212046FFF71A
:1004100060FF637C354AD25C1201D2B2237D36493B
:10042000CB5C9B00DBB21A4402F0FC021E2120468A
:10043000FFF74FFF042226212046FFF74AFF08223C
:100440001F212046FFF745FF002220212046FFF70D
:1004500040FF082221212046FFF73BFF01224121D6
:100460002046FFF736FF002384F817312046FFF7B8
:1004700066FF03B030BDA37C1D4AD25C1201D2B22C
:10048000E37C1C49CB5C5B00DBB21A44D2B2013284
:10049000D2B21D212046FFF71CFF637C134AD25CB9
:1004A0001201D2B2237D1449CB5C9B00DBB21A440B
:1004B000D2B20332D2B21E212046FFF70AFF312109
:1004C0002046FFF7F7FE00F0F80242F00502312166
:1004D0002046FFF7FEFE0C2237212046FFF7F9FEEB
:1004E000A8E700BF0048E801483B0008403B00087F
:1004F000343B0008303B00082C3B000808B5FF22C5
:100500001221FFF7E6FE08BD70B505460E461446FB
:100510004175FFF72DFF87224D212846FFF7D9FEB1
:10052000002224212846FFF7D4FE412240212846FC
:10053000FFF7CFFE2846FFF7E1FFF72211212846FB
:10054000FFF7C7FE324622212846FFF7C2FE0E21E2
:100550002846FFF7AFFE02460D212846FFF7B9FEF9
:1005600022212846FFF7A6FE864209D0013CF7D19A
:10057000286800F0A3F82846FFF7FAFE002002E002
:100580000223AB75012070BD70B505461C461346AD
:100590000A460021FFF7B3FE8B2201212846FFF710
:1005A00098FE0FE012212846FFF784FE2846FFF749
:1005B000A5FF2846FFF7C3FE0126304670BD012087
:1005C00000F078F8286800F08FF806460028E9D196
:1005D000013CF4D1286800F071F82846FFF7C8FE06
:1005E000EBE770B5044616461D46006800F022F899
:1005F000A660E5609DF8103023749DF81430637494
:100600009DF81830A3749DF81C30E3749DF82030D9
:1006100023759DF8243063752046FFF7A9FE70BD51
:1006200008B5012914BF00220122018A406900F0A7
:1006300058FE08BD10B504460121FFF7F1FF012265
:100640002188606800F04DFE10BD10B582B00446F0
:100650008DF807100021FFF7E3FF4FF47A730122B2
:100660000DF10701A06901F0C8FCA06901F0D1FEFD
:100670000128FAD102B010BD10B584B004460021A3
:100680008DF80F108DF80E10FFF7CAFF4FF47A7334
:10069000009301230DF10E020DF10F01A06901F08D
:1006A0008EFDA06901F0B5FE0128FAD19DF80E007B
:1006B00004B010BD08B500F0DFFA08BD10B504465F
:1006C0000121FFF7ADFF00222188606800F009FEDC
:1006D0000120FFF7EFFF01222188606800F001FE92
:1006E0006420FFF7E7FF10BD08B50189C06800F07E
:1006F000F1FD012814BF0020012008BD08B5034901
:10070000034800F033F8034B187008BD9C0000202C
:1007100014000020A0000020134B5B7A13BB10B51F
:10072000044603F0FF00104B93F809C05FFA8CFCFD
:100730004FF0000E03F80CE093F809C003EB8C0CAB
:10074000CCF804405C7A1C4422725A7A541CE4B2FD
:100750005C7230320A703A234B702F238B7081F811
:1007600003E010BD01207047A400002008B500225E
:10077000FFF7D2FF08BD00002DE9F0418AB0002448
:100780000594069407940894099401943E4B1A6BBF
:1007900042F004021A631A6B02F004020192019AF9
:1007A00002941A6B42F080021A631A6B02F0800204
:1007B0000292029A03941A6B42F001021A631A6BB6
:1007C00002F001020392039A04941A6B42F00202AF
:1007D0001A631B6B03F002030493049BDFF8B480DD
:1007E00022464FF40051404600F07BFD274D012288
:1007F0001021284600F075FD254F22464FF4805108
:10080000384600F06EFD22464FF48061284600F025
:1008100068FD4FF40053059301260696079408944B
:1008200005A9404600F072FC102305930696079434
:100830004FF00208CDF8208005A9284600F066FC9C
:100840004FF48053059306960794CDF8208005A9B0
:10085000384600F05BFC4FF4007305934FF48813A7
:100860000693079405A9284600F050FC4FF48063D6
:10087000059306960794089405A9284600F046FCBF
:100880000AB0BDE8F08100BF00380240000002401D
:10089000000402400008024000B583B0002101912D
:1008A000094B1A6B42F480021A631B6B03F480033A
:1008B0000193019B0A46382000F046FA382000F0E8
:1008C00053FA03B05DF804FB0038024008B5026833
:1008D000044B9A4200D008BD4FF40051024800F08A
:1008E00006FDF8E7004801400008024072B6FEE746
:1008F00008B50A480A4B03600A4B43600023836033
:10090000C3604FF48042026143618361C36103624B
:1009100000F0F6FC00B908BDFFF7E8FFF405002081
:1009200000540040801A060008B50948094B0360CE
:1009300046F2A7134360002383604FF47A72C260CB
:100940000361836101F0AAFE00B908BDFFF7CEFF85
:10095000F40300200048014008B50A480A4B036030
:100960000A4B436000238360C3604FF480420261FE
:1009700043618361C361036200F0C2FC00B908BD3A
:10098000FFF7B4FFA005002000580040A08601003A
:1009900008B50A480A4B03600A4B43600023836092
:1009A000C3604FF48042026143618361C3610362AB
:1009B00000F0A6FC00B908BDFFF798FF4C05002029
:1009C000005C0040A086010008B50D480D4B036097
:1009D0004FF48273436000238360C360036143610B
:1009E0004FF4007282613822C26103624362836203
:1009F0000A23C36201F0A2FA00B908BDFFF776FF2F
:100A0000F40400200030014008B50D480D4B036090
:100A10004FF48273436000238360C36003614361CA
:100A20004FF400728261C3610362436283620A23EE
:100A3000C36201F083FA00B908BDFFF757FF00BF9A
:100A40009C0400200038004000B595B03022002101
:100A500008A802F083FA00230393049305930693F6
:100A6000079301931A4A116C41F080511164126C82
:100A700002F080520192019A029316490A6822F408
:100A8000404242F400420A600A6802F44042029284
:100A9000029A012208924FF4803209920E9308A81C
:100AA00000F07AFE80B90F23039301230493002101
:100AB00005910691079103A801F0C4F830B901F03F
:100AC00067F815B05DF804FBFFF710FFFFF70EFFA6
:100AD000003802400070004080B586B000F0A0F8F9
:100AE000FFF7B2FFFFF748FEFFF7D6FEFFF700FF64
:100AF000FFF71AFFFFF730FFFFF74AFFFFF764FF2A
:100B0000FFF7FCFDFFF780FF274B284ADA604FF420
:100B100000719960264959614FF4805119615A60FA
:100B20004FF480621A60234A12689A612248036077
:100B30000A230593002304930393072302930123BD
:100B40000193009316A3D3E90023FFF74AFD1B4B43
:100B5000186801F061FC4FF47A7000F08DF8184CC1
:100B6000184F22681849384602F0D6F9DFF860803D
:100B7000C8F80000104E4FF4FA62C1B23046FFF7D9
:100B8000C3FC124D28604FF4FA6398F800203946F0
:100B90003046FFF7F9FC2860236801332360DAE769
:100BA000400ECF1900000000D803002000000240D2
:100BB0000004024004000020C002002000000020C9
:100BC000B4000020B80000204C3B0008B802002010
:100BD000B000002010B504460E4B1A784FF47A731B
:100BE000B3FBF2F30C4A1068B0FBF3F000F0C0F86E
:100BF00068B90F2C01D901200AE0002221464FF0EC
:100C0000FF3000F0A1F8054B1C60002000E001203F
:100C100010BD00BF08000020100000200C000020C4
:100C200008B50B4B1A6842F400721A601A6842F455
:100C300080621A601A6842F480721A60032000F021
:100C400071F80F20FFF7C6FF00F038FC002008BD48
:100C5000003C0240034A1168034B1B780B441360AD
:100C6000704700BF4806002008000020014B1868AC
:100C7000704700BF4806002038B50446FFF7F6FF6E
:100C80000546B4F1FF3F02D0044B1B781C44FFF72C
:100C9000EDFF401BA042FAD338BD00BF0800002082
:100CA000002807DB00F01F02400901239340024A9D
:100CB00042F82030704700BF00E100E0002808DB68
:100CC0000901C9B200F1604000F5614080F80013ED
:100CD000704700F00F000901C9B2014B1954704769
:100CE00014ED00E000B500F00700C0F1070CBCF106
:100CF000040F28BF4FF0040C031D062B0FD9C31E91
:100D00004FF0FF3E0EFA0CF021EA000199400EFA76
:100D100003FE22EA0E0241EA02005DF804FB002312
:100D2000EEE70000074AD36823F4E0631B041B0CC2
:100D3000000200F4E060034343F0BF6343F4003378
:100D4000D360704700ED00E010B50446054BD8684D
:100D5000C0F30220FFF7C6FF01462046FFF7AEFFB3
:100D600010BD00BF00ED00E008B5FFF799FF08BD1A
:100D70000138B0F1807F0BD24FF0E0235861054A73
:100D8000F02182F823100020986107221A61704731
:100D90000120704700ED00E010B40368D9B21039AB
:100DA0000A4AA2FB01421209094CA25CC2655F29F2
:100DB00007D96FF3090304338365806D5DF8044B35
:100DC00070476FF309038365F7E700BFABAAAAAAD0
:100DD000583B0008836A826992B9012B0AD0022B22
:100DE00002D00BB100207047C36A13F0807F28D176
:100DF00000207047C36AB3F1C07F24D00020704741
:100E0000B2F5005F09D0022B25D9032B25D1C36A87
:100E100013F0807F23D100207047032B03D8DFE835
:100E200003F01404140A00207047C36A13F0807F93
:100E30000DD100207047C36AB3F1C07F09D00020F4
:100E40007047012070470120704701207047012042
:100E50007047012070470120704700207047012033
:100E60007047000070B50446FFF700FF002C5BD010
:100E70000546022384F83530002384F83430226894
:100E8000136823F00103136023681A6812F0010F3E
:100E90000AD0FFF7EBFE431B052BF5D92023636532
:100EA000032084F8350070BD1A682049114062683B
:100EB000A0680243E068024320690243606902437C
:100EC000A0690243E0690243206A02430A43616A5F
:100ED00004291ED01A602668756925F00705636A23
:100EE0001D43042B07D1A36A1D43E36A1BB12046AF
:100EF000FFF770FF90B975612046FFF74DFFE26D77
:100F00003F239340836000206065012384F83530DF
:100F1000C9E7E16A206B01430A43DBE740236365CD
:100F2000012084F83500BEE70120BCE73F8010F0C7
:100F3000F0B583B0044600230193724B1D68724BD9
:100F4000A3FB0535AD0A876D3E68C26D082393404B
:100F5000334210D003681A6812F0040F0BD01A68DD
:100F600022F004021A60C26D08239340BB60436DF7
:100F700043F001034365E26D01239340334209D0FE
:100F80002268526912F0800F04D0BB60636D43F099
:100F900002036365E26D04239340334209D0226863
:100FA000126812F0020F04D0BB60636D43F00403BB
:100FB0006365E26D10239340334224D022681268A7
:100FC00012F0080F1FD0BB6023681A6812F4802F3C
:100FD0000DD01B6813F4002F04D1236C9BB1204665
:100FE000984710E0A36C73B1204698470BE01A684D
:100FF00012F4807F03D11A6822F008021A60236C71
:101000000BB120469847E26D20239340334255D0E0
:101010002268126812F0100F50D0BB6094F835307F
:10102000DBB2052B0ED023681A6812F4802F33D060
:101030001B6813F4002F2AD1636C002B3ED020468E
:1010400098473BE02268136823F016031360226878
:10105000536923F080035361236CA3B122681368A2
:1010600023F008031360E26D3F239340BB6001232C
:1010700084F83530002384F83430236D002B3FD0C2
:10108000204698473CE0A36C002BE7D1EBE7E36BED
:10109000A3B12046984711E01A6812F4807F09D165
:1010A0001A6822F010021A60012384F835300023F8
:1010B00084F83430E36B0BB120469847636DFBB185
:1010C000636D13F0010F17D0052384F835302268C3
:1010D000136823F001031360019B01330193AB42BA
:1010E00004D823681B6813F0010FF5D1012384F89D
:1010F0003530002384F83430E36C0BB12046984738
:1011000003B0F0BD10000020B5814E1B00230F2B53
:1011100000F2D78070B582B065E085684FEA430E73
:10112000032404FA0EF425EA0405CC6804FA0EF44C
:101130002C438460446824EA02044A68C2F3001223
:101140009A40224342605CE0DC08083450F82420D6
:1011500003F00705AD004FF00F0E0EFA05FE22EA70
:101160000E0E0A69AA4042EA0E0240F824205CE012
:10117000042200E0002202FA0EF22A430234514D0A
:1011800045F82420504A94686FEA0C0224EA0C05C2
:101190004E6816F4801F01D04CEA04054A4CA56045
:1011A000E46802EA04054E6816F4001F01D04CEA18
:1011B0000405454CE560646802EA04054E6816F4CF
:1011C000003F01D04CEA04053F4C65602468224092
:1011D0004D6815F4803F01D04CEA04023A4C22607D
:1011E00001330F2B6BD801229A400C6804EA020CE1
:1011F00032EA0404F4D14C6804F00304013C012CED
:101200008BD94A6802F00302032A09D0C4685D0042
:101210000322AA4024EA02048A68AA402243C26048
:101220004A6802F00302022A8ED004684FEA430E95
:10123000032202FA0EF224EA02044A6802F00302D0
:1012400002FA0EF2224302604A6812F4403FC7D00D
:10125000002201921D4A546C44F480445464526C40
:1012600002F480420192019A9C08A51C154A52F88A
:10127000255003F0030E4FEA8E0E0F2202FA0EF2F3
:1012800025EA0205124A90423FF474AF02F58062EB
:1012900090420ED002F5806290420CD002F580623E
:1012A00090420AD002F5806290423FF461AF07227B
:1012B00061E701225FE702225DE703225BE702B0FC
:1012C00070BD704700380140003C014000380240CA
:1012D000000002400369194201D00120704700203C
:1012E00070470AB1816170470904816170474369A1
:1012F00001EA030221EA030141EA024181617047E8
:10130000002800F0CC8070B5044690F83D30002BEA
:1013100077D0242384F83D302268136823F001033A
:1013200013602268136843F4004313602268136853
:1013300023F40043136000F03BFD62685A4B9A426D
:1013400064D85A4B98428CBF00230123002B40F0F5
:10135000A8805749A1FB00318B0C25686A6822F0F0
:101360003F0242EA91426A6021680A6A22F03F0223
:1013700066684D4DAE424FD8013313430B6221686E
:10138000CA6922F44F4222F0FF026568464B9D4233
:101390004CD8431E6D00B3FBF5F3013340F6FC70EF
:1013A000034278D0C3F30B031A43CA6121680B6868
:1013B00023F0C003E269206A024313430B602168F3
:1013C0008B6823F4034323F0FF032269E0680243A0
:1013D00013438B602168CB6823F0FF036269A06927
:1013E00002431343CB602268136843F00103136088
:1013F00000202064202384F83D30206384F83E00E0
:1014000070BD80F83C3000F075F882E7294B9842B7
:101410008CBF0023012399E74FF4967505FB03F376
:10142000254DA5FB03539B090133A6E7A668BEB96A
:10143000431E05EB450CB3FBFCF30133C3F30B0375
:10144000B3FA83F35B0943BBC6B9431E05EB4505FD
:10145000B3FBF5F30133C3F30B0343F40043A3E7FA
:10146000431E05EB850C0CEB8C0CB3FBFCF301333A
:10147000C3F30B03B3FA83F35B09E4E7431E05EB05
:10148000850505EB8505B3FBF5F30133C3F30B03CA
:1014900043F4404388E7042386E7012384E70120DF
:1014A00070470120ACE700BFA08601007F841E00CA
:1014B00083DE1B43FF083D00D34D621082B0002144
:1014C00000910B4B5A6C42F480425A645A6C02F4FD
:1014D00080420092009A01911A6C42F080521A6484
:1014E0001B6C03F080530193019B02B0704700BF57
:1014F000003802402DE9F0418CB000230793089397
:1015000009930A930B9303684D4A934208D04D4ABE
:10151000934228D04C4A934258D00CB0BDE8F08199
:1015200000250095494C236B43F002032363236B92
:1015300003F002030093009BC02307931223089338
:1015400003230A9304230B9307A94148FFF7DEFD09
:101550000195236C43F400132364236C03F40013FC
:101560000193019BD9E700250295384C236B43F08A
:1015700002032363236B03F002030293029B4FF4E5
:10158000806307934FF01208CDF8208003270A9755
:1015900004230B932E4E07A93046FFF7B7FD08230F
:1015A0000793CDF8208009950A9709230B9307A983
:1015B0003046FFF7ABFD0395236C43F480032364AF
:1015C000236C03F480030393039BA6E70025049593
:1015D0001E4C236B43F001032363236B03F00103D1
:1015E0000493049B0595236B43F002032363236B51
:1015F00003F002030593059B4FF4807307931227B2
:10160000089703260A9604230B9307A91148FFF7AE
:101610007DFD10230793089709950A9609230B93DC
:1016200007A90B48FFF772FD0695236C43F40003EE
:101630002364236C03F400030693069B6DE700BF4D
:101640000054004000580040005C00400038024058
:10165000000402400000024030B58BB00023059327
:1016600006930793089309930368344A934204D07E
:10167000334A93423ED00BB030BD0446002501955D
:10168000304B5A6C42F480525A645A6C02F48052C5
:101690000192019A02951A6B42F001021A631B6BC8
:1016A00003F001030293029BE023059302230693B8
:1016B000032308930523099305A92348FFF726FD73
:1016C0002248234B03604FF0C06343608560C560D0
:1016D0004FF48063036145618561C56105624562C0
:1016E000FFF7C0FB18B9194BE3649C63C3E7FFF72E
:1016F000FDF8F8E700210391124B1A6C42F4804286
:101700001A641A6C02F480420392039A04911A6BD1
:1017100042F002021A631B6B03F002030493049B62
:101720004FF4604305930223069303230893052394
:10173000099305A90748FFF7E9FC9CE70030014041
:101740000038004000380240000002403C04002005
:10175000106402400004024002680E4B9A4200D01E
:10176000704700B583B00021019103F570435A6CB6
:1017700042F480225A645B6C03F480230193019B42
:101780000A461A20FFF7E0FA1A20FFF7EDFA03B035
:101790005DF804FB00480140002800F0E08170B5CE
:1017A00082B00446036813F0010F3BD09F4B9B6847
:1017B00003F00C03042B2CD09C4B9B6803F00C0310
:1017C000082B21D06368B3F5803F4FD0B3F5A02F2D
:1017D00052D0964B1A6822F480321A601A6822F4AA
:1017E00080221A606368002B50D0FFF73FFA05464D
:1017F0008E4B1B6813F4003F14D1FFF737FA401BE0
:101800006428F5D90320B1E1884B5B6813F4800F9D
:10181000D8D0864B1B6813F4003F03D06368002BBD
:1018200000F09F81236813F0020F54D07F4B9B6818
:1018300013F00C0F3ED07D4B9B6803F00C03082B7C
:1018400033D0E368002B68D0794B01221A60FFF790
:101850000DFA0546754B1B6813F0020F54D1FFF7C4
:1018600005FA401B0228F5D903207FE16F4A13686F
:1018700043F480331360B5E76C4B1A6842F480225E
:101880001A601A6842F480321A60ABE7FFF7EEF98B
:101890000546664B1B6813F4003FC3D0FFF7E6F91B
:1018A000401B6428F5D9032060E1604B5B6813F4AA
:1018B000800FC6D15D4B1B6813F0020F03D0E368A5
:1018C000012B40F05081594A136823F0F803216935
:1018D00043EAC1031360236813F0080F42D0636921
:1018E0006BB3534B0122C3F8802EFFF7BFF90546B7
:1018F0004E4B5B6F13F0020F34D1FFF7B7F9401B6B
:101900000228F5D9032031E1484A136823F0F8038F
:10191000216943EAC1031360DDE7454B00221A60E9
:10192000FFF7A4F90546414B1B6813F0020FD2D014
:10193000FFF79CF9401B0228F5D9032016E13C4B28
:101940000022C3F8802EFFF791F90546374B5B6FF5
:1019500013F0020F06D0FFF789F9401B0228F5D9D2
:10196000032003E1236813F0040F77D02F4B1B6C87
:1019700013F0805F33D1002301932C4B1A6C42F09B
:1019800080521A641B6C03F080530193019B012564
:10199000284B1B6813F4807F23D0A368012B34D01D
:1019A000052B38D0214B1A6F22F001021A671A6FEB
:1019B00022F004021A67A368002B3DD0FFF756F906
:1019C00006461A4B1B6F13F0020F46D1FFF74EF974
:1019D000801B41F288339842F3D90320C6E00025EA
:1019E000D6E7144A136843F480731360FFF73EF997
:1019F0000646104B1B6813F4807FCED1FFF736F9F3
:101A0000801B0228F5D90320B0E0084A136F43F089
:101A100001031367CFE7054B1A6F42F004021A6700
:101A20001A6F42F001021A67C5E700BF0038024092
:101A30000000474200700040FFF718F90646524B7D
:101A40001B6F13F0020F08D0FFF710F9801B41F253
:101A500088339842F3D9032088E0EDB9A369002BBD
:101A600000F08380484A926802F00C02082A51D0A4
:101A7000022B17D0454B00221A66FFF7F7F80446F1
:101A8000414B1B6813F0007F42D0FFF7EFF8001BBB
:101A90000228F5D9032069E03B4A136C23F08053F8
:101AA0001364DBE7394B00221A66FFF7DFF80546BF
:101AB000354B1B6813F0007F06D0FFF7D7F8401BAB
:101AC0000228F5D9032051E0E369226A1343626AD0
:101AD00043EA8213A26A5208013A43EA0243E26AE5
:101AE00043EA0263284A5360284B01221A66FFF733
:101AF000BDF80446244B1B6813F0007F06D1FFF7A6
:101B0000B5F8001B0228F5D903202FE000202DE0B6
:101B100000202BE0012B2BD01B4B5B6803F48001D2
:101B2000E269914226D103F03F02216A8A4223D121
:101B3000616A47F6C0721A40B2EB811F1ED103F4EE
:101B40004031A26A5208013AB1EB024F18D103F0BA
:101B50007063E26AB3EB026F14D1002006E001204B
:101B60007047012002E0012000E0002002B070BDBB
:101B70000120FBE70120F9E70120F7E70120F5E765
:101B80000120F3E70120F1E700380240000047425E
:101B9000014B0122DA6470470000474208B5264B2A
:101BA0009B6803F00C03042B41D0082B41D1224B3E
:101BB0005A6802F03F025B6813F4800F12D01E4B8C
:101BC0005968C1F388111D480023A1FB0001FEF7ED
:101BD00037FB194B5B68C3F3014301335B00B0FB78
:101BE000F3F008BD144B5868C0F388104FEA401C4E
:101BF000BCEB000C6EEB0E0E4FEA8E1343EA9C63B7
:101C00004FEA8C11B1EB0C0163EB0E03DB0043EAEE
:101C10005173C90011EB000C43F10003990200233A
:101C20004FEA8C2041EA9C51FEF70AFBD1E70348BA
:101C3000D7E70348D5E700BF0038024040787D0170
:101C40000024F400002800F09B8070B50D46044687
:101C50004F4B1B6803F007038B4208D2CBB24C4AB0
:101C60001370136803F007038B4240F08B802368E6
:101C700013F0020F17D013F0040F04D0454A9368F5
:101C800043F4E0539360236813F0080F04D0414AF3
:101C9000936843F4604393603E4A936823F0F003F3
:101CA000A1680B439360236813F0010F32D063687F
:101CB000012B21D09A1E012A25D9364A126812F02A
:101CC000020F61D033498A6822F0030213438B600C
:101CD000FEF7CCFF06462F4B9B6803F00C036268AF
:101CE000B3EB820F16D0FEF7C1FF801B41F28833A1
:101CF0009842F0D9032042E0264A126812F4003FCD
:101D0000E0D101203BE0234A126812F0007FD9D1D4
:101D1000012034E01E4B1B6803F00703AB4207D9D8
:101D2000EAB21B4B1A701B6803F00703AB422DD1BC
:101D3000236813F0040F06D0164A936823F4E05387
:101D4000E1680B439360236813F0080F07D0114A32
:101D5000936823F46043216943EAC1039360FFF76A
:101D60001DFF0C4B9B68C3F303130B4AD35CD84095
:101D70000A4B18600A4B1868FEF72CFF002070BD54
:101D8000012070470120FAE70120F8E70120F6E77B
:101D9000003C024000380240683B00081000002070
:101DA0000C000020014B1868704700BF1000002095
:101DB00008B5FFF7F7FF044B9B68C3F38223034A80
:101DC000D35CD84008BD00BF00380240603B00082B
:101DD0007047000008B5064BDB6813F0800F00D198
:101DE00008BDFFF7F5FF024B80229A73F8E700BFAA
:101DF000003802402DE9F04782B005468846174674
:101E00001E46FEF733FF0A9B1B1A03EB0609FEF77B
:101E10002DFF8246284B1B68C3F3CB3309FB03F32A
:101E200001932B689C6838EA04040CBF012300234B
:101E3000BB423DD0B6F1FF3FF3D0FEF717FFA0EB5A
:101E40000A00484503D2019B73BB9946E9E72A681B
:101E5000536823F0E00353606B68B3F5827F0BD0C7
:101E6000AB6AB3F5005F14D0012385F8513000232D
:101E700085F8503003201CE0AB68B3F5004F02D06A
:101E8000B3F5806FECD12A68136823F04003136028
:101E9000E6E72A68136823F4005313602A6813687E
:101EA00043F400531360DFE7019B013B0193B8E764
:101EB000002002B0BDE8F0871000002070B584B0AB
:101EC00004460D46164600920B4601220221FFF7FA
:101ED00091FFD0B9174B1B68174AA2FB03235B0D78
:101EE0004FF47A7202FB03F303936368B3F5827FC6
:101EF00011D0039B3BB1039B013B039323689B6879
:101F000013F0800FF5D104B070BD636D43F0200372
:101F100063650320F7E700962B46002280212046C8
:101F2000FFF768FF0028EED0636D43F02003636580
:101F30000320E8E710000020819F5E1600285AD099
:101F400010B50446436A33B94368B3F5827F05D0C0
:101F50000023C36102E00023036143610023A36205
:101F600094F85130002B40D0022384F8513022687D
:101F7000136823F040031360636803F48273A2685C
:101F800002F404421343E26802F40062134322693C
:101F900002F002021343626902F001021343A269D4
:101FA00002F400721343E26902F038021343226A1A
:101FB00002F080021343A26A02F400522168134324
:101FC0000B60638B03F00403626A02F01002216865
:101FD00013434B602268D36923F40063D36100206C
:101FE0006065012384F8513010BD84F850302046DC
:101FF000FFF732FBB8E7012070472DE9F04383B0CB
:102000000446894690461D46FEF730FE94F851601E
:10201000F6B2012E40F0CC800746B9F1000F00F077
:10202000C880B8F1000F00F0C48094F85030012B44
:1020300000F0C380012384F85030032384F851302A
:1020400000236365C4F83090A4F83480A4F8368087
:10205000A363A387E38763642364A368B3F5004F96
:102060001ED023681A6812F0400F03D11A6842F09C
:1020700040021A60E368B3F5006F1CD0636813B1C7
:10208000B8F1010F5FD1226B236812781A73236BAA
:1020900001332363E38E9BB2013B9BB2E38652E0A4
:1020A0002268136823F0400313602268136843F426
:1020B00080431360D5E7636813B1B8F1010F15D100
:1020C000226B23681288DA60236B02332363E38E6A
:1020D0009BB2013B9BB2E38608E0FEF7C7FDC01B45
:1020E000A84202D3B5F1FF3F15D1A5B1E38E9BB253
:1020F000002B42D023689A6812F0020FEDD0226BB9
:102100001288DA60236B02332363E38E9BB2013BB8
:102110009BB2E386EAE7012384F85130002384F878
:102120005030032645E0226B12781A73236B01337B
:102130002363B4F836C01FFA8CFC0CF1FF3C1FFA85
:102140008CFCA4F836C0E38E9BB2B3B123689A68C6
:1021500012F0020FE7D1FEF789FDC01BA84202D39F
:10216000B5F1FF3F01D1002DEDD1012384F85130AD
:10217000002384F8503003261BE03A4629462046C7
:10218000FFF79CFE08B120236365A36833B9019370
:102190002368DA6801929B680193019B012384F80C
:1021A0005130002384F85030636D13B9002600E0ED
:1021B0000226304603B0BDE8F0830226F9E72DE998
:1021C000F04383B00446884691461F460A9DFEF7B9
:1021D0004DFD064694F85130DBB26268012B0AD0FF
:1021E000B2F5827F40F00581A268002A40F00581A7
:1021F000042B40F00481B8F1000F00F00281B9F126
:10220000000F00F00081002F00F0FF8094F85030A4
:10221000012B00F0FC80012384F8503094F85130F9
:10222000DBB2042B02D0052384F851300023636510
:10223000C4F83890E787A787C4F83080E786A78678
:102240002364636423681A6812F0400F03D11A688C
:1022500042F040021A60E368B3F5006F11D0636882
:102260000BB1012F0BD1226B236812781A73236BE9
:1022700001332363E38E9BB2013B9BB2E3860127CC
:1022800071E063680BB1012F0BD1226B23681288B8
:10229000DA60236B02332363E38E9BB2013B9BB274
:1022A000E38601271BE023689A6812F0010F0ED025
:1022B000E28F92B25AB1DA68A36B1A80A36B023331
:1022C000A363E38F9BB2013B9BB2E3870127FEF739
:1022D000CDFC801BA84202D3B5F1FF3F1ED1E38E97
:1022E0009BB21BB9E38F9BB2002B62D023689A6824
:1022F00012F0020FD7D0E28E92B2002AD3D0002F74
:10230000D1D0226B1288DA60236B02332363E38E11
:102310009BB2013B9BB2E3860027C4E7012384F80C
:102320005130002384F85030032063E023689A681A
:1023300012F0010F0ED0E28F92B25AB1DA68A36B9D
:102340001A70A36B0133A363E38F9BB2013B9BB273
:10235000E3870127FEF78AFC831BAB4202D3B5F16A
:10236000FF3F1ED1EDB1E38E9BB213B9E38F9BB259
:10237000FBB123689A6812F0020FD7D0E28E92B2B6
:10238000002AD3D0002FD1D0226B12781A73236B7E
:1023900001332363E38E9BB2013B9BB2E3860027AC
:1023A000C4E7012384F85130002384F8503003201F
:1023B00020E0324629462046FFF780FD90B9A36809
:1023C00033B901932368DA6801929B680193019BFA
:1023D000012384F85130002384F85030636D4BB1F1
:1023E000012007E020236365002384F8503001209A
:1023F00000E0022003B0BDE8F0830220FAE70220EB
:10240000F8E70120F6E70120F4E70120F2E70220D7
:10241000F0E790F85100704790F83D30DBB2012BA7
:102420002FD1022380F83D300268D36843F00103C6
:10243000D3600368154A934218D0B3F1804F15D08A
:10244000A2F57C42934211D002F5806293420DD0F6
:1024500002F58062934209D002F59A32934205D088
:102460001A6842F001021A60002070479A6802F070
:102470000702062A07D01A6842F001021A600020FB
:102480007047012070470020704700BF00000140E6
:10249000704770477047704770B504460368DE6840
:1024A0001D6915F0020F10D016F0020F0DD06FF05D
:1024B00002021A610123037703689B6913F0030F7B
:1024C0005ED0FFF7E6FF0023237715F0040F12D04C
:1024D00016F0040F0FD023686FF004021A61022374
:1024E000237723689B6913F4407F4FD02046FFF782
:1024F000D0FF0023237715F0080F12D016F0080F35
:102500000FD023686FF008021A6104232377236831
:10251000DB6913F0030F40D02046FFF7BAFF00231A
:10252000237715F0100F12D016F0100F0FD023687C
:102530006FF010021A61082323772368DB6913F414
:10254000407F31D02046FFF7A4FF0023237715F00A
:10255000010F02D016F0010F2DD115F0800F02D01F
:1025600016F0800F2FD115F0400F02D016F0400F5B
:1025700031D115F0200F02D016F0200F33D170BDED
:10258000FFF786FF2046FFF785FF9CE72046FFF711
:102590007FFF2046FFF77EFFABE72046FFF778FF7F
:1025A0002046FFF777FFBAE72046FFF771FF204686
:1025B000FFF770FFC9E723686FF001021A61204638
:1025C000FEF784F9C9E723686FF080021A6120469C
:1025D00000F091F8C7E723686FF040021A612046C7
:1025E000FFF759FFC5E723686FF020021A61204604
:1025F00000F080F8C3E700000368274A90420ED03D
:10260000B0F1804F0BD0A2F57C42904207D002F58A
:102610008062904203D002F58062904203D123F0A1
:1026200070034A6813431C4A90421AD0B0F1804F9D
:1026300017D0A2F57C42904213D002F580629042FE
:102640000FD002F5806290420BD002F59A32904290
:1026500007D002F58062904203D002F5806290427A
:1026600003D123F44073CA68134323F080034A69FB
:1026700013438A68C2620A688262074A904207D09E
:10268000026842F004020260012242610360704766
:102690000A690263F4E700BF0000014040B310B5CF
:1026A000044690F83D30F3B1022384F83D302146D2
:1026B00051F8040BFFF7A0FF012384F8463084F89B
:1026C0003E3084F83F3084F8403084F8413084F85C
:1026D000423084F8433084F8443084F8453084F83C
:1026E0003D30002010BD80F83C30FFF735F8DBE7C7
:1026F000012070477047704708B5FFF76BFBFEE796
:10270000FEE7FEE7FEE7FEE770477047704708B553
:10271000FEF7A0FA08BD000008B50248FFF7BCFEAE
:1027200008BD00BFF403002008B50248FEF700FC16
:1027300008BD00BF3C04002010B503460C4A0D49FB
:102740000D48006840B10C4800680344521A934297
:1027500006D8094A136010BD0748084C0460F2E728
:1027600000F004FC0C2303604FF0FF30F3E700BFE0
:1027700000800120000400004C060020A807002073
:10278000034AD2F8883043F47003C2F888307047A7
:1027900000ED00E008B500F025F908BD08B500F02F
:1027A000D7F908BD08B500F0DDF908BD08B500F09F
:1027B0001FFA08BD08B500F073FA08BD00B587B070
:1027C0008DF80F003223009301230DF117020DF154
:1027D0000F010448FFF7F3FC9DF8170007B05DF800
:1027E00004FB00BFF404002070B50646FEF73EFA75
:1027F0000546FF20FFF7E2FF0446FF2804D0FEF75E
:1028000035FA401BB042F4D3FF2C14BF0020012046
:1028100070BD70B506460D46002404E0FF20FFF7AA
:10282000CDFF30550134AC42F8D370BD08B501225C
:1028300010210348FEF755FDFF20FFF7BFFF08BD3D
:102840000000024010B5002210210948FEF749FDA2
:10285000FF20FFF7B3FF4FF4FA70FFF7C5FF10B189
:102860000124204610BD0446FFF7E0FFF9E700BF52
:102870000000024038B504460D4610F0800F1DD10F
:102880000C2C04D0FFF7D2FFFFF7DCFFB0B344F00D
:102890004000FFF793FF280EFFF790FFC5F30740B6
:1028A000FFF78CFFC5F30720FFF788FFE8B2FFF7BB
:1028B00085FF64B1082C1BD0012009E000F07F04E3
:1028C00000213720FFF7D6FF0128D9D90FE0952046
:1028D000FFF774FF0C2C0DD00A24FF20FFF76EFFCA
:1028E00010F0800F03D0631E13F0FF04F5D138BD44
:1028F0008720EDE7FF20FFF761FFEDE7FF20F6E718
:1029000008B54FF0FF338AB201460248FFF775FB66
:1029100008BD00BFF404002038B505460C464FF44E
:10292000FA70FFF761FF00B938BD2046FFF746FF98
:10293000FD2C01D10120F7E74FF400712846FFF785
:10294000DFFFFF20FFF73AFFFF20FFF737FFFF20F1
:10295000FFF734FF00F01F00052801D10120E3E755
:102960000020E1E710B50446FEF780F9024B18603D
:10297000024B1C6010BD00BF540600205006002012
:1029800008B5FEF773F9054B1B68C01A044B1B68AA
:1029900098422CBF0020012008BD00BF5406002033
:1029A0005006002070B505460E46C820FFF7DAFF36
:1029B000FF20FFF703FF0446FF2803D1FFF7E0FFE6
:1029C0000028F5D1FE2C01D0002070BD31462846EC
:1029D000FFF71FFFFF20FFF7F1FEFF20FFF7EEFEDE
:1029E0000120F2E7002840F0AB80564B1B7813F033
:1029F000020F09D170B582B0534B1A68136843F0C7
:102A0000380313600A2408E04E4B1878C0B27047B0
:102A1000FF20FFF7D3FE013CE4B2002CF8D10021E7
:102A20000846FFF727FF0546012817D0474B1C70C3
:102A3000FFF7FCFE002C7FD0434B1A68136823F08D
:102A4000380343F0100313603E4A137803F0FE038B
:102A500013703C4B1878C0B202B070BD4FF47A705E
:102A6000FFF780FF4FF4D5710820FFF703FF01281F
:102A70003ED1254609E0FF20FFF7A0FE05F108033F
:102A80006B4403F8040C0135EDB2032DF3D99DF826
:102A90000630012BCAD19DF80730AA2BC6D1FFF70B
:102AA0006FFF30B14FF08041A920FFF7E3FE00280F
:102AB000F5D1FFF765FF08B90446B7E700213A20D2
:102AC000FFF7D8FE054650B1B0E7FF20FFF776FECE
:102AD00005F108036B4403F8040C0135EDB2032D36
:102AE000F3D99DF8043013F0400F23D00C249DE758
:102AF0000021A920FFF7BEFE01280ED92E46FFF7C0
:102B00003FFF28B100212846FFF7B4FE0028F6D188
:102B1000FFF736FF20B9044688E70226A925EEE72D
:102B20004FF400711020FFF7A5FE00287FF47EAF60
:102B300034467BE7042479E7024B01221A7088E7C8
:102B40000120704728000020F404002058060020CF
:102B500018B9034B1878C0B270470120704700BF06
:102B600028000020002839D138B50D461C46002B1E
:102B700036D01D4B1B7813F0010F33D11B4B1B7844
:102B800013F0080F00D15202012C18D01146122068
:102B9000FFF770FE68B94FF400712846FFF702FF97
:102BA00018B105F50075013CF5D100210C20FFF7A7
:102BB00061FEFFF73BFE201E18BF012038BD114605
:102BC0001120FFF757FE0028F3D14FF4007128467B
:102BD000FFF7E8FE0028ECD00024EAE70420704765
:102BE0000420EBE70320E9E7280000205806002036
:102BF000002848D170B50D4616461C46002B44D01F
:102C0000254B1B7813F0010F41D1234B1B7813F098
:102C1000040F3ED1214B1B7813F0080F00D1560250
:102C2000012C1BD013F0060F26D131461920FFF7D7
:102C300021FE68B9FC212846FFF76EFE18B105F5A4
:102C40000075013CF6D1FD210020FFF765FEC0B103
:102C5000FFF7ECFD201E18BF012070BD3146182083
:102C6000FFF708FE0028F3D1FE212846FFF754FEA7
:102C70000028EDD00024EBE721469720FFF7FAFD6E
:102C8000D3E70124E4E7042070470420E5E70320AC
:102C9000E3E70220E1E700BF2800002058060020FB
:102CA00070B584B0002840F004810D461646834B71
:102CB0001B7813F0010F40F0FE80042900F2ED8034
:102CC000DFE811F005000C00EB005400AF00FFF747
:102CD000B9FD002840F0E380012406E0002109202E
:102CE000FFF7C8FD044628B12C46FFF79FFD20469C
:102CF00004B070BD10216846FFF754FE002800F0B4
:102D0000D0809DF800309B09012B1FD09DF8052035
:102D100002F00F029DF80A3002EBD3129DF8093041
:102D20005B0003F006031A449DF808109DF8073075
:102D30009B0003EB91139DF80610890201F440619A
:102D40000B440133073A93403360CEE79DF80930D6
:102D50009DF8082003EB02239DF80720120402F4DB
:102D60007C12134401339B023360BEE7544B1B7843
:102D700013F0040F20D000218D20FFF77BFD08B158
:102D80000124B2E7FF20FFF719FD10216846FFF785
:102D900009FE78B90124A8E7FF20FFF70FFD013CE9
:102DA000E4B2002CF8D19DF80A20120910239340B8
:102DB00033609AE73024F4E700210920FFF75AFD39
:102DC000054608B1012490E710216846FFF7EAFDA7
:102DD000002868D03A4B1C7814F0020411D09DF8FA
:102DE0000A305B0003F07E039DF80B2003EBD21347
:102DF00001339DF80D209209013A934033602C462F
:102E000073E79DF80A20C2F384029DF80B10CB00F3
:102E100003F0180303EB5113013302FB0333336058
:102E200063E7274B1B7813F0060F01D101245CE701
:102E30006A460B21FFF734FFB8BB9DF800309B09B1
:102E400004D19DF80A3013F0400F30D03168746817
:102E50001B4B1B7813F0080F01D14902640220209C
:102E6000FFF708FD08B101243FE721462120FFF7C5
:102E700001FD08B1012438E700212620FFF7FAFC04
:102E8000044608B1012430E747F23050FFF7ACFCAC
:102E900000287FF42AAF012427E7042425E72C46E5
:102EA00023E72C4621E701241FE701241DE7012425
:102EB0001BE704241BE7032419E700BF28000020B8
:102EC00058060020DFF834D0FFF75AFC0C480D49B3
:102ED0000D4A002302E0D458C4500433C4188C4275
:102EE000F9D30A4A0A4C002301E013600432A242DB
:102EF000FBD300F041F8FDF7EFFD704700800120A3
:102F0000000000207C000020BC3B00088000002066
:102F1000A4070020FEE700000EB410B59DB01FAB63
:102F2000029006906FF000410A48079104910A4907
:102F300053F8042B0591002402A9006801931B9407
:102F400000F0A2F9029B1C701DB0BDE8104003B058
:102F5000704700BF2C0000200802FFFF0244034618
:102F6000934200D1704703F8011BF9E7014B186841
:102F7000704700BF2C00002070B50D4D0D4C641B38
:102F8000A4100026A64209D10B4D0C4C00F0C2FD46
:102F9000641BA4100026A64205D170BD55F8043B61
:102FA00098470136EEE755F8043B98470136F2E7BB
:102FB000B43B0008B43B0008B43B0008B83B000831
:102FC000704770470A44914200F1FF3300D17047C7
:102FD00010B511F8014B03F8014F9142F9D110BD22
:102FE00038B50546002941D051F8043C0C1F002B90
:102FF000B8BFE41800F0E0F81D4A136833B9636005
:1030000014602846BDE8384000F0DCB8A34208D977
:10301000206821188B4201BF19685B68091821607C
:10302000EDE71A465B680BB1A342FAD91168501854
:10303000A0420BD120680144501883421160E0D1B6
:1030400018685B68536008441060DAE702D90C2303
:103050002B60D6E7206821188B4204BF19685B6893
:10306000636004BF091821605460CAE738BD00BF1F
:10307000A007002070B50F4E0C463168054611B907
:1030800000F0A4FB30602146284600F09FFB431C63
:1030900003D14FF0FF34204670BDC41C24F003045C
:1030A000A042F8D0211A284600F090FB0130F2D15E
:1030B000EFE700BF9C0700202DE9F843CD1C25F069
:1030C000030508350C2D38BF0C25002D064601DB05
:1030D000A94204D90C2333600020BDE8F883DFF84F
:1030E000D48000F069F8D8F800301C4644BB29466B
:1030F0003046FFF7BFFF431C044658D1D8F80040C4
:103100002746002F43D1002C4BD023683946304648
:1031100004EB030900F05AFB814542D121686D1A86
:1031200029463046FFF7A6FF01303AD023682B44EA
:103130002360D8F800305A6862BBC8F800700FE00E
:103140002268521B20D40B2A17D96119A34225608B
:1031500018BF5960636808BFC8F8001062514B601F
:10316000304600F02FF804F10B00231D20F007007B
:10317000C21A1CBF1B1AA350AFE76268A3420CBF60
:10318000C8F800205A60EBE723466468AEE73C4687
:103190007F68B6E71A465B68A342FBD10023536001
:1031A000DEE70C233360304600F00CF894E705604E
:1031B000D6E700BFA00700200148FFF701BF00BF0E
:1031C000980700200148FFF7FCBE00BF98070020C9
:1031D0002DE9F0478E681F46BE420B6882460C46BA
:1031E00090462DD8B1F90C2012F4906F26D0656965
:1031F000096905EB4505A3EB010905EBD5757B1CBA
:103200004B446D109D4238BF1D46530527D52946B6
:10321000FFF752FF064660B321694A46FFF7D2FE28
:10322000A38923F4906343F08003A3812661656141
:103230004E44A5EB09052660A5603E46BE4200D976
:103240003E4620683246414600F0A6FAA3689B1B22
:10325000A3602368334423600020BDE8F0872A463A
:1032600000F0C4FA06460028E0D121695046FFF775
:10327000B7FE0C23CAF80030A38943F04003A381B2
:103280004FF0FF30E9E700002DE9F04F98468B89B9
:103290001B069DB007460D46144610D50B6973B941
:1032A0004021FFF709FF2860286130B90C233B60FB
:1032B0004FF0FF301DB0BDE8F08F40236B6100235D
:1032C000099320238DF82930CDF80C803023DFF8C6
:1032D0009C818DF82A304FF0010923469A4613F855
:1032E000012B0AB1252AF9D1BAEB040B0BD05B46AE
:1032F000224629463846FFF76BFF013000F0A780D1
:10330000099A5A4409929AF80030002B00F09F80E5
:1033100000234FF0FF32CDE905230AF1010A04939F
:1033200007938DF853301A935446052214F8011B65
:103330004E48FCF735FF049AD8B9D00644BF202385
:103340008DF85330110744BF2B238DF853309AF872
:1033500000302A2B15D0079A544600204FF00A0C53
:10336000214611F8013B303B092B4BD9B0B10792F4
:1033700014E0A0EB080309FA03F313430493A246F5
:10338000D2E7039B191D1B680391002BBBBF5B4257
:1033900042F0020207930793B8BF049223782E2BC2
:1033A0000AD163782A2B32D1039B1A1D1B68039222
:1033B00043EAE37302340593DFF8C0A021780322C7
:1033C0005046FCF7EDFE38B1049BA0EB0A0040220A
:1033D000824013430134049314F8011B24488DF8F0
:1033E00028100622FCF7DCFE002836D0214B1BBB40
:1033F000039B073323F0070308330393099B3344EC
:1034000009936AE70CFB02320C460120A8E700236F
:103410000134059319464FF00A0C204610F8012B91
:10342000303A092A03D9002BC6D00591C4E70CFB1A
:10343000012104460123F0E703AB00932A460E4B1B
:1034400004A93846AFF30080421C0646D6D1AB89AA
:103450005B063FF52DAF09982CE703AB00932A4696
:10346000054B04A9384600F079F8EDE7783B0008F1
:10347000823B000800000000D13100087E3B0008BC
:103480002DE9F047164698468A680B69DDF82090CA
:103490009342B8BF1346336091F8432007460C4669
:1034A0000AB1013333602368990642BF336802339F
:1034B0003360256815F0060506D104F1190AE368A2
:1034C00032689B1AAB4226DC94F843302268003BFA
:1034D00018BF012392062BD404F14302414638461B
:1034E000C84701301ED02368226903F00603042B6D
:1034F00002BFE5683368ED1AA3680CBF25EAE575DD
:1035000000259342C4BF9B1AED1800261A34B54219
:103510001AD1002008E00123524641463846C847E8
:10352000013003D14FF0FF30BDE8F0870135C6E729
:10353000E1185A1C302081F84300224494F84510C9
:1035400082F843100233C7E701232246414638463A
:10355000C8470130E6D00136D9E700002DE9FF4722
:103560000F7E0C9E782F914680460C469A4601F1BC
:10357000430207D8622F0AD8002F00F0D180582FBD
:1035800000F0B88004F1420684F842703AE0A7F1F6
:103590006303152BF6D801A151F823F0F535000887
:1035A000093600088535000885350008853500088E
:1035B000853500080936000885350008853500087E
:1035C00085350008853500080737000833360008C0
:1035D000C136000885350008853500082937000800
:1035E0008535000833360008853500088535000824
:1035F000C936000833681A1D1B68326004F14206A0
:1036000084F8423001239CE033682068191D316042
:10361000060601D51D6803E04506FBD5B3F9005049
:10362000002D03DA2D236D4284F8433058480A23D5
:1036300011E021683368080653F8045B02D4490698
:1036400048BFADB26F2F5248336014BF0A2308231E
:10365000002184F843106668A660002E05DB21680F
:103660002E4321F0040121604BD01646B5FBF3F147
:1036700003FB1157C75D06F8017D2F46BB420D467F
:10368000F4D9082B0BD12368DF0708D523696168BB
:103690009942DEBF302306F8013C06F1FF36921B4B
:1036A0002261CDF800A04B4603AA21464046FFF711
:1036B000E7FE01304AD14FF0FF3004B0BDE8F0879B
:1036C000236843F0200323603248782784F845704C
:1036D000236831681F0651F8045B02D45F0648BFB7
:1036E000ADB23160D90744BF43F0200323601DB160
:1036F0001023ADE72648E9E7236823F02003236081
:10370000F6E71646BDE7336825686169181D306025
:103710002E061B6801D5196002E06806FBD51980EA
:10372000002323611646BCE733681A1D32601E6809
:10373000626800213046FCF733FD08B1801B6060F1
:1037400063682361002384F84330AAE72369324683
:1037500049464046D0470130ADD023689B0713D47B
:10376000E068039B9842B8BF1846A6E7012332469B
:1037700049464046D04701309DD00135E368039962
:103780005B1AAB42F2DCEBE7002504F11906F5E722
:10379000893B00089A3B0008884210B501EB0204FF
:1037A00002D98442234607D8431EA14208D011F80B
:1037B000012B03F8012FF8E7024401468A4200D1A9
:1037C00010BD13F8014D02F8014DF7E738B5064D6D
:1037D0000023044608462B60FEF7AEFF431C02D1CF
:1037E0002B6803B1236038BD940700202DE9F04118
:1037F000074614460D4621B9BDE8F0411146FFF7D2
:103800005BBC2AB9FFF7ECFB25462846BDE8F081F2
:1038100000F01AF88442064602D8B4EB500FF4D8F0
:1038200021463846FFF748FC804608B94546ECE794
:10383000B4422246294628BF3246FFF7C3FB294639
:103840003846FFF7CDFBF1E751F8043C181F002B79
:10385000BCBF0B58C01870472DE9F047089D0E46B5
:1038600004460F46002B4AD194468C45B2FA82F2A8
:1038700060D942B1C2F12003974020FA03F30CFA59
:1038800002FC1F4394404FEA1C4E1FFA8CF6B7FB14
:10389000FEF1230C0EFB117743EA074301FB06F010
:1038A00098420AD91CEB030301F1FF3780F0158120
:1038B000984240F21281023963441B1AA4B2B3FB4E
:1038C000FEF00EFB103344EA034400FB06F6A6426A
:1038D0000AD91CEB040400F1FF3380F00081A642FA
:1038E00040F2FD806444023840EA0140A41B0021FC
:1038F0001DB1D4400023C5E90043BDE8F0878B42E9
:1039000005D90DB1C5E9000100210846F5E7B3FA74
:1039100083F1002946D1B34202D3824200F2F580FE
:10392000841A66EB030201201746002DE5D0C5E995
:103930000047E2E7002A40F09380A1EB0C034FEA36
:103940001C471FFA8CFE0121B3FBF7F607FB16306C
:10395000230C43EA00430EFB06F0984208D91CEB07
:10396000030306F1FF3802D2984200F2D0804646A7
:103970001B1AA4B2B3FBF7F007FB103344EA03446D
:103980000EFB00FEA64508D91CEB040400F1FF3332
:1039900002D2A64500F2B6801846A4EB0E0440EA17
:1039A0000640A5E7C1F120078B4022FA07FC4CEA4C
:1039B000030C06FA01FE20FA07F426FA07F344EA9C
:1039C0000E0400FA01F84FEA1C404FEA1449B3FB19
:1039D000F0FE1FFA8CF600FB1E3349EA03430EFB90
:1039E00006F9994502FA01F20BD91CEB03030EF11B
:1039F000FF3A80F08580994540F28280AEF1020E58
:103A00006344A3EB0909A4B2B9FBF0F300FB1399DB
:103A100044EA094403FB06F6A64208D91CEB040459
:103A200003F1FF3068D2A64266D9023B644443EA00
:103A30000E40A41BA0FB02E6B4427346B14652D32B
:103A40004FD05DB1B8EB030264EB090404FA07F749
:103A500022FA01F31F43CC40C5E9007400214CE772
:103A6000C2F1200120FA01F30CFA02FC26FA01F15E
:103A7000964033434FEA1C471FFA8CFEB1FBF7F028
:103A800007FB1016190C41EA064100FB0EF68E42A8
:103A900004FA02F408D91CEB010100F1FF382DD221
:103AA0008E422BD902386144891B9BB2B1FBF7F6D9
:103AB00007FB161143EA014306FB0EF1994208D9B0
:103AC0001CEB030306F1FF3814D2994212D9023ECF
:103AD00063445B1A46EA004136E73946EDE618468C
:103AE00002E7F045ADD2BEEB020366EB0C060138EF
:103AF000B146A6E74646ECE7034698E74046D3E7DB
:103B0000D6467EE76444023847E708460DE7023EA2
:103B100063442DE7F8B500BFF8BC08BC9E4670476B
:0C3B2000F8B500BFF8BC08BC9E4670471A
:103B2C000100000001020304000102030405060762
:103B3C0008090000060708090A0B0C00FFFCF9F63F
:103B4C0048656C6C6F2025640000000000061016A0
:103B5C000006101600000000010203040000000023
:103B6C00000000000102030406070809232D302B76
:103B7C002000686C4C006566674546470030313262
:103B8C0033343536373839414243444546003031B9
:103B9C003233343536373839616263646566000018
:083BAC00F4C5FF7F01000000D9
:043BB400990200086A
:043BB800750200088A
:103BBC00F40300209C040020010000001000000011
:103BCC000024F400952700089D270008A52700086D
:103BDC00AD270008B52700080100000030000020C8
:103BEC00000000005C060020C40600202C0700200A
:103BFC0000000000000000000000000000000000B9
:103C0C0000000000000000000000000000000000A8
:103C1C000000000000000000000000000000000098
:0C3C2C000000000000000000000000008C
:0400000508002EC5FC
:00000001FF
