:020000040800F2
:10000000008001209D3C00081935000821350008BA
:1000100023350008253500082735000800000000BA
:10002000000000000000000000000000293500086A
:100030002B350008000000002D3500082F35000882
:10004000ED3C0008ED3C0008ED3C0008ED3C0008EC
:10005000ED3C0008ED3C0008ED3C0008ED3C0008DC
:10006000ED3C0008ED3C0008ED3C0008ED3C0008CC
:10007000ED3C0008ED3C0008ED3C0008ED3C0008BC
:10008000ED3C0008ED3C0008ED3C000800000000DD
:10009000000000000000000000000000ED3C00082F
:1000A000ED3C0008ED3C000839350008ED3C000847
:1000B000ED3C0008ED3C0008ED3C0008ED3C00087C
:1000C000ED3C0008ED3C0008ED3C0008ED3C00086C
:1000D000ED3C0008ED3C0008ED3C0008000000008D
:1000E000ED3C0008ED3C0008ED3C0008000000007D
:1000F000000000000000000000000000ED3C0008CF
:1001000000000000ED3C0008ED3C0008ED3C00085C
:1001100000000000000000000000000000000000DF
:1001200049350008ED3C0008ED3C0008ED3C0008B6
:10013000ED3C00080000000000000000000000008E
:10014000000000000000000000000000ED3C00087E
:10015000ED3C0008ED3C0008ED3C0008ED3C0008DB
:10016000ED3C0008ED3C000800000000000000002D
:10017000000000000000000000000000000000007F
:1001800000000000ED3C000800000000000000003E
:04019000ED3C00083A
:1001940053B94AB9002908BF00281CBF4FF0FF31EA
:1001A4004FF0FF3000F00CB8ADF1080C6DE904CE4F
:1001B40003F0C8FDDDF804E0DDE9022304B0704774
:1001C400704700BF10B5054C237833B9044B13B105
:1001D4000448AFF300800123237010BD28000020E1
:1001E400000000000440000808B5034B1BB103499C
:1001F4000348AFF3008008BD000000002C0000207D
:100204000440000808B5044B03EB800252685268AE
:100214000344187A904708BD74000020094B1B5C06
:1002240073B910B50446074B03EB80025268126899
:100234000344187A904710B9024B01221A5510BD95
:10024400002070477400002038B5044C04EB80058E
:100254006D68AD680444207AA84738BD7400002056
:1002640038B5044C04EB80056D68ED680444207ACD
:10027400A84738BD7400002010B5044B03EB80047C
:10028400646824690344187AA04710BD74000020F0
:1002940008B50349034801F04BFA034B187008BD35
:1002A4004400002010000020480000200020704777
:1002B4004278007840EA02207047C378827842EAA4
:1002C4000322437843EA0223007840EA032070477C
:1002D4000170090A417070470170C1F3072343702C
:1002E400C1F307438370090EC1707047944632B15D
:1002F4000A78013102700130BCF1010CF8D1704769
:1003040001700130013AFBD1704784469CF800002B
:100314000CF1010C0B780131C01A013A01D000280C
:10032400F4D07047034600E00133187808B18842DE
:10033400FAD1704730B400252B4601E00125013382
:10034400012B15D81A01174CA258002AF6D00468BC
:10035400A242F4D1134A02EB031254688268944215
:10036400EDD1104A02EB0312946842699442E6D13B
:10037400022B0AD0A1B90B4A02EB03139B89B3F5F4
:10038400807F0BD0002030BC70472DB9022901D0EA
:100394001220F8E70020F6E70020F4E71020F2E747
:1003A4001020F0E74C000020002000E0013001287C
:1003B40004D80301034AD358002BF7D1023818BFDD
:1003C400012070474C00002070B4002300E001338A
:1003D400012B13D81A01234CA45802689442F6D175
:1003E400204A02EB0312546882689442EFD11D4AFA
:1003F40002EB0312946842699442E8D1022B08D0BC
:10040400F9B1184A02EB031292894ABB4FF4807285
:100414001DE00023012B05D81A01124CA2580AB181
:100424000133F7E7022B19D00E4D1C0105EB031223
:1004340006682E5184685460406990600020908161
:10044400DEE7084A02EB03129289013292B20549AF
:1004540001EB03118A81581C70BC70470020FBE734
:100464000020F9E74C0000200138012815D80D4B75
:1004740003EB00139B89B3F5807F03D043B1013BA9
:100484009BB200E00023074A02EB0012938133B9C8
:1004940003010020034AD050704702207047002017
:1004A400704700BF4C000020002303E05DF8044BBC
:1004B40070470133012B11D81A0109498A58824225
:1004C400F7D110B41A0100248C500133012BEDD85C
:1004D4001A0103498A588242F7D1F3E7704700BFF3
:1004E4004C00002002394369023B8B4204D9438902
:1004F400806A01FB03007047002070470268C36AEA
:100504000433490A5289B1FBF2F101E0091A0833B4
:10051400186818B18142F9D258680844704770B518
:1005240006460D4601F11A00FFF7C2FE3378032B8D
:1005340000D070BD044605F11400FFF7B9FE44EA8B
:100544000040F6E770B506460C46154691B204F134
:100554001A00FFF7BDFE3378032B00D070BD290CC1
:1005640004F11400FFF7B4FEF8E700002DE9F84F9A
:1005740081468A460F6800F1240B0B22202158463D
:10058400FFF7BEFE002633464FF008082CE0013585
:100594007B5D2F2BFBD05C2BF9D02F44CAF8007065
:1005A400002E43D099F82430E52B35D0202C37D8B1
:1005B400042389F82F30002028E008264FF00B0888
:1005C40011E014F0800F23D121461948FFF7AAFE49
:1005D40050BBA4F16103DBB2192B01D8203CE4B277
:1005E4000BF8064001362B465D1CFC5C202CD4D94C
:1005F4002F2CCDD05C2CCBD02E2C01D0B045E0D804
:10060400B8F10B0F0ED02E2CD7D00620BDE8F88FF2
:10061400803C084B1C5DD7E7052389F82430C5E7E7
:100624000023C6E70620F1E70620EFE70620EDE702
:100634001C400008504000080146006838B10246DA
:100644001378202B06D93A2B04D00132F8E74FF067
:10065400FF3070473A2B01D00020704710B4034696
:1006640013F8010B3038092808D89A4202D04FF009
:10067400FF3005E038B901320A6001E04FF0FF3085
:100684005DF8044B70474FF0FF30F9E738B50D467D
:10069400044698B103689BB11A78A2B18188DA88BC
:1006A400914203D0092000242C6038BD5878FFF70C
:1006B400A9FD10F0010009D12468F5E70920F3E74A
:1006C4001C460920F0E709200024EDE70920002456
:1006D400EAE72DE9F041C57815B92846BDE8F0816F
:1006E4000446C76A00F1300801233A46414640787F
:1006F400FFF7B6FD0546A0B90023E370236AFB1A91
:10070400A2699342E9D2A67808E0A3691F440123B1
:100714003A4641466078FFF7A3FD013E012EF4D826
:10072400DBE70125D9E770B5C36A8B4202D1002605
:10073400304670BD04460D46FFF7CBFF0646002841
:10074400F6D101232A4604F130016078FFF77CFDDD
:1007540010B101264FF0FF35E562E9E738B50446EC
:100764000023C3704FF0FF33C362FFF7DCFF30BBDD
:10077400054604F22E20FFF79BFD4AF655239842C6
:100784001FD194F83030E92B07D0236B03F0FF130B
:100794000D4A934201D0022514E004F16600FFF7EC
:1007A4008CFD20F07F40094B98420BD004F182006D
:1007B400FFF783FD064B984204D0022502E004258E
:1007C40000E00325284638BDEB0090004641540064
:1007D400464154332DE9F04F85B00D4616460023AB
:1007E4000B60FFF729FF071EC0F24381B44B53F897
:1007F4002740002C00F042812C6006F0FE0623788E
:1008040073B16078FFF7FEFC10F0010508D1002EEB
:1008140000F0308110F0040F00F02C810A2529E14A
:1008240000232370F8B26070FFF7F8FC10F00105A4
:1008340040F026811EB110F0040F40F02381002106
:100844002046FFF78BFF02287ED00027042800F003
:100854001B81012800F21A8104F13B00FFF728FDF7
:10086400B0F5007F40F0148104F14600FFF720FD4D
:10087400064620B904F15400FFF71FFD0646A661A1
:1008840094F84020A270531EDBB2012B00F20281C7
:1008940006FB02F894F83D90A4F80A90B9F1000F11
:1008A40000F0FA8009F1FF3319EA030F40F0F680F3
:1008B40004F14100FFF7FCFC8246208110F00F0F89
:1008C40040F0EE8004F14300FFF7F2FC834620B9C8
:1008D40004F15000FFF7F1FC834604F13E00FFF7FA
:1008E400E7FC0246002800F0DD8000EB080303EB80
:1008F4001A139B45C0F0D880ABEB030BBBFBF9F19B
:10090400CB45C0F0D3804FF6F570814234D840F621
:10091400F570814267D94FF0020B2FE0002004AB41
:1009240003EB860343F8100C0136032E0ED804F1B2
:100934003000330103F5DF7318440379002BEDD045
:100944000830FFF7BAFCEAE70026EEE700260AE0E3
:1009540039462046FFF702FF01287FF677AF0136BC
:10096400032E3FF673AF04AB03EB860353F8107CFE
:10097400002FEDD10320F2E74FF0030B01F1020940
:10098400C4F81490E7613A4422623B44A362BBF189
:10099400030F2BD0BAF1000F00F08E804244626244
:1009A400BBF1020F33D009EB490309F0010909EB4C
:1009B400530909F2FF19B6EB592F7FD34FF0FF33D8
:1009C4002361E36080232371BBF1030F22D084F8F9
:1009D40000B03C4A138801339BB21380E380204665
:1009E400FFF762FD46E04FF0010BC7E704F15A0040
:1009F400FFF75EFC00285BD1BAF1000F5AD104F175
:100A04005C00FFF75AFC60624FEA8909D1E74FEABC
:100A14004909CEE704F16000FFF74AFC0128D6D16A
:100A2400791C2046FFF77FFE0028D0D100232371D4
:100A340004F22E20FFF73CFC4AF655239842C6D117
:100A440004F13000FFF739FC1F4B9842BFD104F585
:100A54000570FFF732FC1D4B9842B8D104F50670BF
:100A6400FFF72BFC206104F50770FFF726FCE0601C
:100A7400ADE70B25284605B0BDE8F08F0C25F9E756
:100A84000325F7E70A25F5E70125F3E70D25F1E747
:100A94000D25EFE70D25EDE70D25EBE70D25E9E73E
:100AA4000D25E7E70D25E5E70D25E3E70D25E1E74E
:100AB4000D25DFE70D25DDE70D25DBE70D25D9E75E
:100AC400700000206C00002052526141727241613A
:100AD4002DE9F047012975D907460C4616464369A6
:100AE4008B4273D90378022B3ED0032B4FD0012BBA
:100AF4006ED101EB5108016A01EB5821FFF713FE97
:100B0400054600285FD107F1300A08F10109C8F34E
:100B1400080814F001041DD01AF8083003F00F037C
:100B240043EA0613DBB20AF808300123FB70396A82
:100B340001EB59213846FFF7F6FD0546002842D15E
:100B4400C9F3080944B1C6F307130AF809300123AD
:100B5400FB7038E0F3B2E6E71AF80930C6F3032273
:100B640023F00F031343F0E7016A01EB1421FFF7AD
:100B7400DAFD054638BB07F13000640004F4FF7465
:100B8400B1B22044FFF7A4FB0123FB701BE0016A10
:100B940001EBD411FFF7C7FD0546A0B926F0704656
:100BA40007F13003A40004F4FE741C442046FFF74C
:100BB40084FB00F0704131432046FFF78DFB012395
:100BC400FB7000E002252846BDE8F0870225FAE71D
:100BD4000225F8E7F8B50568012954D90C466B6974
:100BE4008B4252D92B78022B2BD0032B39D0012BDB
:100BF4004DD101EB5106296A01EB56212846FFF736
:100C040092FD10B14FF0FF303EE0771CC6F30806AA
:100C14002E4496F83060296A01EB57212846FFF7E5
:100C240082FDB0BBC7F308072F4497F8303046EA7B
:100C3400032014F0010F01D0000925E0C0F30B00DC
:100C440022E0296A01EB14212846FFF76CFD18BB4A
:100C540005F13000640004F4FF742044FFF728FB1E
:100C640012E0296A01EBD4112846FFF75CFDB0B904
:100C740005F13000A40004F4FE742044FFF71DFBCA
:100C840020F0704000E00120F8BD0120FCE70120C5
:100C9400FAE74FF0FF30F7E74FF0FF30F4E74FF09B
:100CA400FF30F1E72DE9F041D0F80080B1F5001FE5
:100CB4003FD207460E4611F01F0F3DD141618468B3
:100CC400E4B998F80030022B01D9D8F82440ACB923
:100CD400B8F80830B3EB561F30D9D8F82430FB618C
:100CE400BC61FB6993B303EB5623FB6108F1300845
:100CF400C6F308014144396200201BE0B8F80A50E9
:100D04006D02AE420FD321463846FFF763FF044617
:100D1400B0F1FF3F14D0012814D9D8F8143083421D
:100D240012D9761BEDE721464046FFF7DBFBF8615D
:100D3400D6E70220BDE8F0810220FBE70220F9E7B4
:100D44000120F7E70220F5E70220F3E70220F1E7AC
:100D54002DE9F041054606680F4651B9D6F80C80D6
:100D6400B8F1000F12D07369434511D84FF0010850
:100D74000EE0FFF72FFF0346012847D9B0F1FF3FEC
:100D840049D07269824246D8B84601E04FF0010862
:100D940044460CE021462846FFF71CFF034678B181
:100DA400012838D0B0F1FF3F35D0444532D001346A
:100DB4007369A342EED8B8F1010F29D90224E9E7F7
:100DC4004FF0FF3221463046FFF782FE0346B0B9AA
:100DD40077B9A3B9F46032697369023B9A4201D8C6
:100DE400013A3261337943F001033371234612E04F
:100DF400224639463046FFF76BFE0346E9E7012BEE
:100E040001D0012307E04FF0FF3304E0012302E0A7
:100E1400002300E000231846BDE8F081F8B50C4635
:100E2400056801292ED9064611466B69A3422BD9C0
:100E34004AB14FF0FF322846FFF74AFE074610B189
:100E440023E0A24221D9274621463046FFF7C2FEBD
:100E54000446E0B101281CD0B0F1FF3F1BD00022B2
:100E640039462846FFF734FE074670B92B696A698C
:100E7400911E8B42E5D201332B612B7943F00103A0
:100E84002B71DEE7022700E002273846F8BD002771
:100E9400FBE70227F9E70127F7E72DE9F0470668A2
:100EA4004569C369002B6CD0044688462035B5F5E6
:100EB400001F68D2C5F308073FB90133C3618169D4
:100EC40079B93389B3EB551F07D9656106F130034E
:100ED4003B4423620020BDE8F0870023C361042063
:100EE400F9E77389013B13EA5529EED1FFF772FE46
:100EF4008246012849D9B0F1FF3F48D07369834243
:100F040037D8B8F1000F11D0A1692046FFF720FFB0
:100F1400824600283DD001283DD0B0F1FF3F3CD0AF
:100F24003046FFF7D6FB28B10120D4E70023E36164
:100F34000420D0E74FF40072002106F13000FFF7DF
:100F4400DFF951463046FFF7CDFAF06273899945CF
:100F54000BD20123F3703046FFF7BBFBF8B909F15C
:100F64000109F36A0133F362F0E7F36AA3EB0903BF
:100F7400F362C4F818A051463046FFF7B3FAE061B3
:100F8400A3E70420A7E70420A5E70220A3E70120A4
:100F9400A1E707209FE702209DE701209BE70120AE
:100FA40099E770B5044606680021FFF77BFE054605
:100FB40040B1284670BD00212046FFF76EFF05466C
:100FC4000028F6D1E1693046FFF7ADFB054600285D
:100FD400EFD1206A03787BB1C37A03F03F03A37196
:100FE400C37A13F0080FE6D10B2204F12401FFF7B2
:100FF4008CF90028DFD1DCE70425DAE730B583B0CB
:1010040004460191056801E001330193019B1A78BC
:101014002F2AF9D05C2AF7D00022A2601B781F2B5C
:101024001ED901A92046FFF7A1FA034600BB2046BA
:10103400FFF7B7FF94F82F200346E0B912F0040F2E
:1010440016D1A37913F0100F1CD005F13001636998
:10105400C3F3080319442846FFF761FAA060E0E7E8
:10106400802384F82F3011462046FFF71BFE0346E9
:10107400184603B030BD0428FAD112F0040FF7D19A
:101084000523F5E70523F3E7F8B504460E4607689C
:101094000021FFF707FE0246C0B9002508E001352C
:1010A400B54213D001212046FFF7F7FE024668B986
:1010B400E1693846FFF737FB024638B9236A1B78E3
:1010C400E52BECD0002BEAD00025EBE7042A01D075
:1010D4001046F8BD0722FBE770B5044606680121F7
:1010E400FFF7D2FF054608B1284670BDE1693046D6
:1010F400FFF719FB05460028F6D120220021206ABB
:10110400FFF7FEF80B2204F12401206AFFF7EEF842
:101114000123F370E8E7000070B50446FFF7D9FA3D
:10112400054648B92378032B08D00022114660787D
:10113400FFF7A2F800B10125284670BD2379012BE1
:10114400F3D104F130064FF4007200213046FFF76A
:10115400D7F84AF6552104F22E20FFF7B9F80F49C3
:101164003046FFF7B9F80E4904F50570FFF7B4F8F7
:10117400216904F50670FFF7AFF8E16804F507701C
:10118400FFF7AAF8E2690132E2620123314660788E
:10119400FFF766F800232371C7E700BF525261418D
:1011A4007272416170B584B001900091164603914A
:1011B40003A8FFF741FA041E1CDB104B53F824501C
:1011C40025B12846FFF770F900232B70019B0BB162
:1011D40000221A70019B094A42F8243063B1012E9F
:1011E40002D0002004B070BD002201A96846FFF7B8
:1011F400F1FAF7E70B20F5E70020F3E77000002091
:101204002DE9F04391B00191002800F005811446C6
:10121400064602F03F073A4603A901A8FFF7DAFAA7
:10122400054628B100233360284611B0BDE8F08399
:10123400039B0493019904A8FFF7E0FE054660B9F7
:101244009DF93F30002B52DB14F03E0F14BF0121F7
:10125400002104A8FFF76EF8054614F01C0F5CD0BB
:10126400002D50D0042D44D047F00807002DD9D1CB
:1012740017F0080F61D0FFF719F8044601460C98DF
:101284000E30FFF729F821460C981630FFF724F8A2
:101294000C9B2022DA72DDF80C80DDF83090494690
:1012A4004046FFF73CF90446002249464046FFF712
:1012B40049F900210C981C30FFF70EF8039B01221A
:1012C400DA70002C39D0039BD3F82C8000222146FD
:1012D40004A8FFF7A3FD05460028A3D141460398BF
:1012E400FFF721FA0546013C039BDC6025E0062557
:1012F400B3E7FFF759F808B91225B5E704A8FFF7D3
:10130400EBFE0546B0E79DF8163013F0110F13D12C
:1013140014F0040FAAD0082584E7002D82D19DF88B
:10132400163013F0100F73D114F0020F05D013F020
:10133400010F02D0072575E70725002D7FF472AF52
:1013440017F0080F01D047F04007039BDB6A736274
:101354000C9BB362012F94BF0021012104A8FFF765
:1013640033F8306108B902255CE7039CDDF830806E
:1013740041462046FFF7D3F8B06008F11C00FEF7A1
:101384009CFFF0600021F1623460E388B38037751C
:1013940071753162B16106F130084FF40072404654
:1013A400FEF7AEFF17F0200F2ED0F46864B3B461DB
:1013B400039B5F897F02B16801E00225E41B65B9E4
:1013C400BC420AD93046FFF705FC01460128F4D98E
:1013D400B0F1FF3FF2D10125F0E7F161002D7FF478
:1013E40021AFC4F308037BB1039F3846FFF77AF8B3
:1013F40008B9022516E700EB542232620123414664
:101404007878FEF721FF28B9002D3FF40DAF09E7E6
:10141400042507E7012505E7092505E72DE9F04F30
:1014240085B004460E46154698460023C8F8003099
:1014340003A9FFF72BF90190002849D1637D01939B
:10144400002B45D1237D13F0020F00F0E280A36945
:10145400EB42C0F0B080DD43ADE0E36A002B3BD04B
:101464002046FFF74BF8002800F0CE80012838D042
:10147400B0F1FF3F3CD0E061A36803B9A06094F9E8
:101484001430002B3BDBDDF80CB0E1695846FFF764
:1014940029F88146002847D0B9444FEA552AB5F5C2
:1014A400007F5DD307EB0A03BBF80A20934201D9FE
:1014B400A2EB070A53464A4631469BF80100FEF761
:1014C400CFFEC0B34FF0010A84F815A0CDF804A0F4
:1014D400019805B0BDE8F08FE1692046FFF738FCBC
:1014E400C1E74FF0020A84F815A0CDF804A0EFE795
:1014F4004FF0010A84F815A0CDF804A0E8E7012311
:10150400226A04F1300103984078FEF7A9FE20B95D
:10151400237D03F07F032375B5E74FF0010A84F8B8
:1015240015A0CDF804A0D3E74FF0020A84F815A063
:10153400CDF804A0CCE7216AA1EB0901514502D3FF
:101544004FEA4A2728E04FF4007206EB412104F1E8
:101554003000FEF7CBFE237D03F07F032375EFE716
:10156400236A4B4503D0A269E3689A423BD3C4F88B
:101574002090A369C3F30803C3F50077BD4200D2EA
:101584002F4604F130003A4631461844FEF7AEFEC9
:10159400237D63F07F0323753E44A3693B44A36129
:1015A400E268934238BF1346E360D8F800303B4406
:1015B400C8F80030ED1B3DB3A169C1F30803002B4B
:1015C400D7D1039B5F89013F17EA51277FF457AFB7
:1015D40000297FF442AFA06800287FF447AF20467B
:1015E400FFF7B6FB3FE701234A4604F130019BF8BD
:1015F4000100FEF729FE0028B9D04FF0010A84F853
:1016040015A0CDF804A063E7237D43F040032375C0
:101614005EE7072301935BE770B582B0044601A936
:10162400FFF734F870B9237D13F0400F0AD013F09C
:10163400800F09D1FEF73AFE0546616A0198FFF76B
:1016440072F878B102B070BD0123226A04F130014E
:1016540001984078FEF704FE40BB237D03F07F032E
:101664002375E7E7A66AF37A43F02003F372A268CE
:1016740031462068FEF766FFE16806F11C00FEF7BC
:101684002BFE294606F11600FEF726FE002106F180
:101694001200FEF71DFE019B0122DA700198FFF78C
:1016A4003BFD237D23F040032375CBE70120C9E7ED
:1016B40010B582B00446FFF7AFFF08B102B010BD09
:1016C40001A92046FEF7E2FF0028F7D12069FEF7C2
:1016D400CBFE0028F2D12060F0E70000134B5B7AC8
:1016E40013BB10B5044603F0FF00104B93F809C078
:1016F4005FFA8CFC4FF0000E03F80CE093F809C07D
:1017040003EB8C0CCCF804405C7A1C4422725A7AA9
:10171400541CE4B25C7230320A703A234B702F23AB
:101724008B7081F803E010BD012070477400002025
:1017340008B50022FFF7D2FF08BD0000F0B58BB05A
:101744000024059406940794089409940194264B64
:101754001A6B42F004021A631A6B02F0040201923B
:10176400019A02941A6B42F080021A631A6B02F017
:1017740080020292029A03941A6B42F001021A63E5
:101784001A6B02F001020392039A04941A6B42F05A
:1017940002021A631B6B03F002030493049B134FAE
:1017A40022464FF40051384600F0D6FC104D012279
:1017B4001021284600F0D0FC4FF400530593012675
:1017C40006960794089405A9384600F0E1FB102317
:1017D4000593069607940223089305A9284600F06A
:1017E400D7FB0BB0F0BD00BF003802400008024038
:1017F4000000024000B583B000210191094B1A6B2F
:1018040042F480021A631B6B03F480030193019B6F
:101814000A46382000F0DAF9382000F0E7F903B07E
:101824005DF804FB0038024008B50268044B9A4294
:1018340000D008BD4FF40051024800F093FCF8E7D3
:10184400004801400008024072B6FEE708B50A48A5
:101854000A4B03600A4B436000238360C3604FF468
:101864008042026143618361C361036200F084FCCE
:1018740000B908BDFFF7E8FF28020020005400402B
:10188400801A060008B50948094B036046F2A713FD
:101894004360002383604FF47A72C2600361836102
:1018A40001F00AFE00B908BDFFF7CEFF800000205A
:1018B4000048014008B50A480A4B03600A4B4360DC
:1018C40000238360C3604FF48042026143618361FB
:1018D400C361036200F050FC00B908BDFFF7B4FF18
:1018E400D401002000580040A086010008B50A4831
:1018F4000A4B03600A4B436000238360C3604FF4C8
:101904008042026143618361C361036200F034FC7D
:1019140000B908BDFFF798FF80010020005C00407B
:10192400A086010008B50D480D4B03604FF4827387
:10193400436000238360C360036143614FF400721A
:1019440082613822C2610362436283620A23C362F2
:1019540001F004FA00B908BDFFF776FF2801002062
:101964000030014000B595B03022002108A802F0F3
:10197400BCF90023039304930593069307930193FF
:101984001A4A116C41F080511164126C02F08052B9
:101994000192019A029316490A6822F4404242F4E1
:1019A40000420A600A6802F440420292029A01224A
:1019B40008924FF4803209920E9308A800F0FCFDBF
:1019C40080B90F2303930123049300210591069109
:1019D400079103A801F046F830B900F0E9FF15B00B
:1019E4005DF804FBFFF730FFFFF72EFF00380240DD
:1019F4000070004010B5ADF5916D00F067F8FFF789
:101A0400B1FFFFF79BFEFFF7F5FEFFF71FFFFFF7A0
:101A140039FFFFF74FFFFFF769FFFFF783FFFEF77B
:101A240037FC0122124996A8FFF7BCFB00B1FEE780
:101A34001A2210490AA8FFF7E3FB0DF1080C0E4C1B
:101A44000FCCACE80F0023682CF8023B1B0C8CF87D
:101A5400003001AB132202A90AA8FFF7DFFC0AA891
:101A6400FFF726FE054B186801F0E4FBFEE700BF14
:101A74002C400008304000083C40000800000020D2
:101A840010B504460E4B1A784FF47A73B3FBF2F395
:101A94000C4A1068B0FBF3F000F0ACF868B90F2CF6
:101AA40001D901200AE0002221464FF0FF3000F066
:101AB4008DF8054B1C60002000E0012010BD00BF24
:101AC400040000200C0000200800002008B50B4B87
:101AD4001A6842F400721A601A6842F480621A604A
:101AE4001A6842F480721A60032000F05DF80F2037
:101AF400FFF7C6FF00F01EFC002008BD003C0240BA
:101B0400034A1168034B1B780B441360704700BFF2
:101B14007C02002004000020014B1868704700BFBD
:101B24007C020020002807DB00F01F02400901238B
:101B34009340024A42F82030704700BF00E100E0C1
:101B4400002808DB0901C9B200F1604000F56140DA
:101B540080F80013704700F00F000901C9B2014B6F
:101B64001954704714ED00E000B500F00700C0F10F
:101B7400070CBCF1040F28BF4FF0040C031D062B07
:101B84000FD9C31E4FF0FF3E0EFA0CF021EA0001FC
:101B940099400EFA03FE22EA0E0241EA02005DF8C1
:101BA40004FB0023EEE70000074AD36823F4E06354
:101BB4001B041B0C000200F4E060034343F0BF630A
:101BC40043F40033D360704700ED00E010B50446E1
:101BD400054BD868C0F30220FFF7C6FF0146204634
:101BE400FFF7AEFF10BD00BF00ED00E008B5FFF742
:101BF40099FF08BD0138B0F1807F0BD24FF0E0238C
:101C04005861054AF02182F82310002098610722C8
:101C14001A6170470120704700ED00E010B40368BA
:101C2400D9B210390A4AA2FB01421209094CA25C3A
:101C3400C2655F2907D96FF3090304338365806D97
:101C44005DF8044B70476FF309038365F7E700BF42
:101C5400ABAAAAAAD0400008836A826992B9012B70
:101C64000AD0022B02D00BB100207047C36A13F0D4
:101C7400807F28D100207047C36AB3F1C07F24D08D
:101C840000207047B2F5005F09D0022B25D9032B41
:101C940025D1C36A13F0807F23D100207047032B22
:101CA40003D8DFE803F01404140A00207047C36A61
:101CB40013F0807F0DD100207047C36AB3F1C07F59
:101CC40009D000207047012070470120704701208F
:101CD40070470120704701207047012070470020A1
:101CE400704701207047000070B50446FFF714FFE9
:101CF400002C5BD00546022384F83530002384F899
:101D040034302268136823F00103136023681A68CF
:101D140012F0010F0AD0FFF7FFFE431B052BF5D984
:101D240020236365032084F8350070BD1A682049B8
:101D340011406268A0680243E068024320690243DC
:101D440060690243A0690243E0690243206A0243D6
:101D54000A43616A04291ED01A602668756925F051
:101D64000705636A1D43042B07D1A36A1D43E36A75
:101D74001BB12046FFF770FF90B975612046FFF74D
:101D84004DFFE26D3F239340836000206065012393
:101D940084F83530C9E7E16A206B01430A43DBE785
:101DA40040236365012084F83500BEE70120BCE7C9
:101DB4003F8010F0F0B583B0044600230193724BCA
:101DC4001D68724BA3FB0535AD0A876D3E68C26D75
:101DD40008239340334210D003681A6812F0040FAA
:101DE4000BD01A6822F004021A60C26D08239340D3
:101DF400BB60436D43F001034365E26D01239340EF
:101E0400334209D02268526912F0800F04D0BB60BB
:101E1400636D43F002036365E26D04239340334230
:101E240009D02268126812F0020F04D0BB60636DFF
:101E340043F004036365E26D10239340334224D0DE
:101E44002268126812F0080F1FD0BB6023681A685A
:101E540012F4802F0DD01B6813F4002F04D1236CCF
:101E64009BB12046984710E0A36C73B12046984775
:101E74000BE01A6812F4807F03D11A6822F008027A
:101E84001A60236C0BB120469847E26D20239340DF
:101E9400334255D02268126812F0100F50D0BB6044
:101EA40094F83530DBB2052B0ED023681A6812F48F
:101EB400802F33D01B6813F4002F2AD1636C002BBE
:101EC4003ED0204698473BE02268136823F016036F
:101ED40013602268536923F080035361236CA3B118
:101EE4002268136823F008031360E26D3F239340D4
:101EF400BB60012384F83530002384F83430236D2B
:101F0400002B3FD0204698473CE0A36C002BE7D140
:101F1400EBE7E36BA3B12046984711E01A6812F48B
:101F2400807F09D11A6822F010021A60012384F814
:101F34003530002384F83430E36B0BB120469847E6
:101F4400636DFBB1636D13F0010F17D0052384F8A3
:101F540035302268136823F001031360019B0133B9
:101F64000193AB4204D823681B6813F0010FF5D129
:101F7400012384F83530002384F83430E36C0BB14A
:101F84002046984703B0F0BD0C000020B5814E1BDD
:101F940000230F2B00F2D78070B582B065E085680E
:101FA4004FEA430E032404FA0EF425EA0405CC6830
:101FB40004FA0EF42C438460446824EA02044A6858
:101FC400C2F300129A40224342605CE0DC08083409
:101FD40050F8242003F00705AD004FF00F0E0EFA61
:101FE40005FE22EA0E0E0A69AA4042EA0E0240F8F1
:101FF40024205CE0042200E0002202FA0EF22A43CC
:102004000234514D45F82420504A94686FEA0C027A
:1020140024EA0C054E6816F4801F01D04CEA04052E
:102024004A4CA560E46802EA04054E6816F4001FF1
:1020340001D04CEA0405454CE560646802EA0405F5
:102044004E6816F4003F01D04CEA04053F4C65602D
:10205400246822404D6815F4803F01D04CEA040204
:102064003A4C226001330F2B6BD801229A400C6842
:1020740004EA020C32EA0404F4D14C6804F00304C8
:10208400013C012C8BD94A6802F00302032A09D0CF
:10209400C4685D000322AA4024EA02048A68AA40B4
:1020A4002243C2604A6802F00302022A8ED0046806
:1020B4004FEA430E032202FA0EF224EA02044A68AB
:1020C40002F0030202FA0EF2224302604A6812F49A
:1020D400403FC7D0002201921D4A546C44F480440E
:1020E4005464526C02F480420192019A9C08A51C2B
:1020F400154A52F8255003F0030E4FEA8E0E0F22B4
:1021040002FA0EF225EA0205124A90423FF474AF35
:1021140002F5806290420ED002F5806290420CD0AB
:1021240002F5806290420AD002F5806290423FF448
:1021340061AF072261E701225FE702225DE7032224
:102144005BE702B070BD704700380140003C0140BD
:1021540000380240000002400AB18161704709045E
:1021640081617047436901EA030221EA030141EAFC
:102174000241816170470000002800F0CC8070B5F6
:10218400044690F83D30002B77D0242384F83D306A
:102194002268136823F0010313602268136843F470
:1021A400004313602268136823F40043136000F0B3
:1021B4000FFD62685A4B9A4264D85A4B98428CBFBE
:1021C40000230123002B40F0A8805749A1FB0031D4
:1021D4008B0C25686A6822F03F0242EA91426A60E9
:1021E40021680A6A22F03F0266684D4DAE424FD81C
:1021F400013313430B622168CA6922F44F4222F06F
:10220400FF026568464B9D424CD8431E6D00B3FBEC
:10221400F5F3013340F6FC70034278D0C3F30B03AB
:102224001A43CA6121680B6823F0C003E269206A7B
:10223400024313430B6021688B6823F4034323F0A8
:10224400FF032269E068024313438B602168CB6873
:1022540023F0FF036269A06902431343CB60226841
:10226400136843F00103136000202064202384F8E2
:102274003D30206384F83E0070BD80F83C3000F0AF
:1022840075F882E7294B98428CBF0023012399E714
:102294004FF4967505FB03F3254DA5FB03539B09EA
:1022A4000133A6E7A668BEB9431E05EB450CB3FB94
:1022B400FCF30133C3F30B03B3FA83F35B0943BBAE
:1022C400C6B9431E05EB4505B3FBF5F30133C3F370
:1022D4000B0343F40043A3E7431E05EB850C0CEB0F
:1022E4008C0CB3FBFCF30133C3F30B03B3FA83F39A
:1022F4005B09E4E7431E05EB850505EB8505B3FBA8
:10230400F5F30133C3F30B0343F4404388E7042399
:1023140086E7012384E7012070470120ACE700BF72
:10232400A08601007F841E0083DE1B43FF083D005E
:10233400D34D621082B0002100910B4B5A6C42F4D1
:1023440080425A645A6C02F480420092009A0191CD
:102354001A6C42F080521A641B6C03F08053019390
:10236400019B02B0704700BF003802402DE9F041E4
:102374008CB000230793089309930A930B93036883
:102384004D4A934208D04D4A934228D04C4A934236
:1023940058D00CB0BDE8F08100250095494C236B62
:1023A40043F002032363236B03F002030093009BB7
:1023B400C02307931223089303230A9304230B9344
:1023C40007A94148FFF7E4FD0195236C43F400138A
:1023D4002364236C03F400130193019BD9E70025C4
:1023E4000295384C236B43F002032363236B03F001
:1023F40002030293029B4FF4806307934FF0120889
:10240400CDF8208003270A9704230B932E4E07A9A7
:102414003046FFF7BDFD08230793CDF820800995CA
:102424000A9709230B9307A93046FFF7B1FD0395DB
:10243400236C43F480032364236C03F48003039329
:10244400039BA6E7002504951E4C236B43F0010370
:102454002363236B03F001030493049B0595236B0F
:1024640043F002032363236B03F002030593059BEC
:102474004FF4807307931227089703260A960423C0
:102484000B9307A91148FFF783FD102307930897BF
:1024940009950A9609230B9307A90B48FFF778FDC2
:1024A4000695236C43F400032364236C03F40003B4
:1024B4000693069B6DE700BF00540040005800409F
:1024C400005C00400038024000040240000002406A
:1024D40030B589B0002303930493059306930793BF
:1024E4000268214B9A4201D009B030BD0446002550
:1024F400019503F584335A6C42F480525A645A6C41
:1025040002F480520192019A02951A6B42F0010280
:102514001A631B6B03F001030293029BE0230393F2
:1025240002230493032306930523079303A90F4867
:10253400FFF72EFD0E480F4B03604FF0C06343605E
:102544008560C5604FF48063036145618561C56141
:1025540005624562FFF7C8FB18B9054BE3649C6349
:10256400C2E7FFF771F9F8E70030014000000240CC
:10257400C80000201064024002680E4B9A4200D04A
:10258400704700B583B00021019103F570435A6C84
:1025940042F480225A645B6C03F480230193019B10
:1025A4000A461A20FFF712FB1A20FFF71FFB03B09D
:1025B4005DF804FB00480140002800F0E08170B59C
:1025C40082B00446036813F0010F3BD09F4B9B6815
:1025D40003F00C03042B2CD09C4B9B6803F00C03DE
:1025E400082B21D06368B3F5803F4FD0B3F5A02FFB
:1025F40052D0964B1A6822F480321A601A6822F478
:1026040080221A606368002B50D0FFF785FA0546D4
:102614008E4B1B6813F4003F14D1FFF77DFA401B67
:102624006428F5D90320B1E1884B5B6813F4800F6B
:10263400D8D0864B1B6813F4003F03D06368002B8B
:1026440000F09F81236813F0020F54D07F4B9B68E6
:1026540013F00C0F3ED07D4B9B6803F00C03082B4A
:1026640033D0E368002B68D0794B01221A60FFF75E
:1026740053FA0546754B1B6813F0020F54D1FFF74C
:102684004BFA401B0228F5D903207FE16F4A1368F7
:1026940043F480331360B5E76C4B1A6842F480222C
:1026A4001A601A6842F480321A60ABE7FFF734FA12
:1026B4000546664B1B6813F4003FC3D0FFF72CFAA2
:1026C400401B6428F5D9032060E1604B5B6813F478
:1026D400800FC6D15D4B1B6813F0020F03D0E36873
:1026E400012B40F05081594A136823F0F803216903
:1026F40043EAC1031360236813F0080F42D06369EF
:102704006BB3534B0122C3F8802EFFF705FA05463D
:102714004E4B5B6F13F0020F34D1FFF7FDF9401BF2
:102724000228F5D9032031E1484A136823F0F8035D
:10273400216943EAC1031360DDE7454B00221A60B7
:10274400FFF7EAF90546414B1B6813F0020FD2D09C
:10275400FFF7E2F9401B0228F5D9032016E13C4BB0
:102764000022C3F8802EFFF7D7F90546374B5B6F7D
:1027740013F0020F06D0FFF7CFF9401B0228F5D95A
:10278400032003E1236813F0040F77D02F4B1B6C55
:1027940013F0805F33D1002301932C4B1A6C42F069
:1027A40080521A641B6C03F080530193019B012532
:1027B400284B1B6813F4807F23D0A368012B34D0EB
:1027C400052B38D0214B1A6F22F001021A671A6FB9
:1027D40022F004021A67A368002B3DD0FFF79CF98E
:1027E40006461A4B1B6F13F0020F46D1FFF794F9FC
:1027F400801B41F288339842F3D90320C6E00025B8
:10280400D6E7144A136843F480731360FFF784F91E
:102814000646104B1B6813F4807FCED1FFF77CF97A
:10282400801B0228F5D90320B0E0084A136F43F057
:1028340001031367CFE7054B1A6F42F004021A67CE
:102844001A6F42F001021A67C5E700BF0038024060
:102854000000474200700040FFF75EF90646524B05
:102864001B6F13F0020F08D0FFF756F9801B41F2DB
:1028740088339842F3D9032088E0EDB9A369002B8B
:1028840000F08380484A926802F00C02082A51D072
:10289400022B17D0454B00221A66FFF73DF9044678
:1028A400414B1B6813F0007F42D0FFF735F9001B42
:1028B4000228F5D9032069E03B4A136C23F08053C6
:1028C4001364DBE7394B00221A66FFF725F9054646
:1028D400354B1B6813F0007F06D0FFF71DF9401B32
:1028E4000228F5D9032051E0E369226A1343626A9E
:1028F40043EA8213A26A5208013A43EA0243E26AB3
:1029040043EA0263284A5360284B01221A66FFF700
:1029140003F90446244B1B6813F0007F06D1FFF72C
:10292400FBF8001B0228F5D903202FE000202DE03E
:1029340000202BE0012B2BD01B4B5B6803F48001A0
:10294400E269914226D103F03F02216A8A4223D1EF
:10295400616A47F6C0721A40B2EB811F1ED103F4BC
:102964004031A26A5208013AB1EB024F18D103F088
:102974007063E26AB3EB026F14D1002006E0012019
:102984007047012002E0012000E0002002B070BD89
:102994000120FBE70120F9E70120F7E70120F5E733
:1029A4000120F3E70120F1E700380240000047422C
:1029B400014B0122DA6470470000474208B5264BF8
:1029C4009B6803F00C03042B41D0082B41D1224B0C
:1029D4005A6802F03F025B6813F4800F12D01E4B5A
:1029E4005968C1F388111D480023A1FB0001FDF7BC
:1029F400CFFB194B5B68C3F3014301335B00B0FBAE
:102A0400F3F008BD144B5868C0F388104FEA401C1B
:102A1400BCEB000C6EEB0E0E4FEA8E1343EA9C6384
:102A24004FEA8C11B1EB0C0163EB0E03DB0043EABC
:102A34005173C90011EB000C43F100039902002308
:102A44004FEA8C2041EA9C51FDF7A2FBD1E70348F1
:102A5400D7E70348D5E700BF0038024040787D013E
:102A64000024F400002800F09B8070B50D46044655
:102A74004F4B1B6803F007038B4208D2CBB24C4A7E
:102A84001370136803F007038B4240F08B802368B4
:102A940013F0020F17D013F0040F04D0454A9368C3
:102AA40043F4E0539360236813F0080F04D0414AC1
:102AB400936843F4604393603E4A936823F0F003C1
:102AC400A1680B439360236813F0010F32D063684D
:102AD400012B21D09A1E012A25D9364A126812F0F8
:102AE400020F61D033498A6822F0030213438B60DA
:102AF400FFF712F806462F4B9B6803F00C0362683D
:102B0400B3EB820F16D0FFF707F8801B41F288332E
:102B14009842F0D9032042E0264A126812F4003F9A
:102B2400E0D101203BE0234A126812F0007FD9D1A2
:102B3400012034E01E4B1B6803F00703AB4207D9A6
:102B4400EAB21B4B1A701B6803F00703AB422DD18A
:102B5400236813F0040F06D0164A936823F4E05355
:102B6400E1680B439360236813F0080F07D0114A00
:102B7400936823F46043216943EAC1039360FFF738
:102B84001DFF0C4B9B68C3F303130B4AD35CD84063
:102B94000A4B18600A4B1868FEF772FF002070BDDC
:102BA400012070470120FAE70120F8E70120F6E749
:102BB400003C024000380240E04000080C000020C5
:102BC40008000020014B1868704700BF0C0000206B
:102BD40008B5FFF7F7FF044B9B68C3F38223034A4E
:102BE400D35CD84008BD00BF00380240D84000087C
:102BF4007047000008B5064BDB6813F0800F00D166
:102C040008BDFFF7F5FF024B80229A73F8E700BF77
:102C1400003802402DE9F04782B005468846174641
:102C24001E46FEF779FF0A9B1B1A03EB0609FEF703
:102C340073FF8246284B1B68C3F3CB3309FB03F3B2
:102C440001932B689C6838EA04040CBF0123002319
:102C5400BB423DD0B6F1FF3FF3D0FEF75DFFA0EBE2
:102C64000A00484503D2019B73BB9946E9E72A68E9
:102C7400536823F0E00353606B68B3F5827F0BD095
:102C8400AB6AB3F5005F14D0012385F851300023FB
:102C940085F8503003201CE0AB68B3F5004F02D038
:102CA400B3F5806FECD12A68136823F040031360F6
:102CB400E6E72A68136823F4005313602A6813684C
:102CC40043F400531360DFE7019B013B0193B8E732
:102CD400002002B0BDE8F0870C00002070B584B07D
:102CE40004460D46164600920B4601220221FFF7C8
:102CF40091FFD0B9174B1B68174AA2FB03235B0D46
:102D04004FF47A7202FB03F303936368B3F5827F93
:102D140011D0039B3BB1039B013B039323689B6846
:102D240013F0800FF5D104B070BD636D43F0200340
:102D340063650320F7E700962B4600228021204696
:102D4400FFF768FF0028EED0636D43F0200363654E
:102D54000320E8E70C000020819F5E1600285AD06B
:102D640010B50446436A33B94368B3F5827F05D08E
:102D74000023C36102E00023036143610023A362D3
:102D840094F85130002B40D0022384F8513022684B
:102D9400136823F040031360636803F48273A2682A
:102DA40002F404421343E26802F40062134322690A
:102DB40002F002021343626902F001021343A269A2
:102DC40002F400721343E26902F038021343226AE8
:102DD40002F080021343A26A02F4005221681343F2
:102DE4000B60638B03F00403626A02F01002216833
:102DF40013434B602268D36923F40063D36100203A
:102E04006065012384F8513010BD84F850302046A9
:102E1400FFF75EFBB8E7012070472DE9F04383B06C
:102E24000446894690461D46FEF776FE94F85160A6
:102E3400F6B2012E40F0CC800746B9F1000F00F045
:102E4400C880B8F1000F00F0C48094F85030012B12
:102E540000F0C380012384F85030032384F85130F8
:102E640000236365C4F83090A4F83480A4F8368055
:102E7400A363A387E38763642364A368B3F5004F64
:102E84001ED023681A6812F0400F03D11A6842F06A
:102E940040021A60E368B3F5006F1CD0636813B195
:102EA400B8F1010F5FD1226B236812781A73236B78
:102EB40001332363E38E9BB2013B9BB2E38652E072
:102EC4002268136823F0400313602268136843F4F4
:102ED40080431360D5E7636813B1B8F1010F15D1CE
:102EE400226B23681288DA60236B02332363E38E38
:102EF4009BB2013B9BB2E38608E0FEF70DFEC01BCC
:102F0400A84202D3B5F1FF3F15D1A5B1E38E9BB220
:102F1400002B42D023689A6812F0020FEDD0226B86
:102F24001288DA60236B02332363E38E9BB2013B86
:102F34009BB2E386EAE7012384F85130002384F846
:102F44005030032645E0226B12781A73236B013349
:102F54002363B4F836C01FFA8CFC0CF1FF3C1FFA53
:102F64008CFCA4F836C0E38E9BB2B3B123689A6894
:102F740012F0020FE7D1FEF7CFFDC01BA84202D327
:102F8400B5F1FF3F01D1002DEDD1012384F851307B
:102F9400002384F8503003261BE03A462946204695
:102FA400FFF79CFE08B120236365A36833B901933E
:102FB4002368DA6801929B680193019B012384F8DA
:102FC4005130002384F85030636D13B9002600E0BB
:102FD4000226304603B0BDE8F0830226F9E72DE966
:102FE400F04383B00446884691461F460A9DFEF787
:102FF40093FD064694F85130DBB26268012B0AD087
:10300400B2F5827F40F00581A268002A40F0058174
:10301400042B40F00481B8F1000F00F00281B9F1F3
:10302400000F00F00081002F00F0FF8094F8503072
:10303400012B00F0FC80012384F8503094F85130C7
:10304400DBB2042B02D0052384F8513000236365DE
:10305400C4F83890E787A787C4F83080E786A78646
:103064002364636423681A6812F0400F03D11A685A
:1030740042F040021A60E368B3F5006F11D0636850
:103084000BB1012F0BD1226B236812781A73236BB7
:1030940001332363E38E9BB2013B9BB2E38601279A
:1030A40071E063680BB1012F0BD1226B2368128886
:1030B400DA60236B02332363E38E9BB2013B9BB242
:1030C400E38601271BE023689A6812F0010F0ED0F3
:1030D400E28F92B25AB1DA68A36B1A80A36B0233FF
:1030E400A363E38F9BB2013B9BB2E3870127FEF707
:1030F40013FD801BA84202D3B5F1FF3F1ED1E38E1E
:103104009BB21BB9E38F9BB2002B62D023689A68F1
:1031140012F0020FD7D0E28E92B2002AD3D0002F41
:10312400D1D0226B1288DA60236B02332363E38EDF
:103134009BB2013B9BB2E3860027C4E7012384F8DA
:103144005130002384F85030032063E023689A68E8
:1031540012F0010F0ED0E28F92B25AB1DA68A36B6B
:103164001A70A36B0133A363E38F9BB2013B9BB241
:10317400E3870127FEF7D0FC831BAB4202D3B5F1F2
:10318400FF3F1ED1EDB1E38E9BB213B9E38F9BB227
:10319400FBB123689A6812F0020FD7D0E28E92B284
:1031A400002AD3D0002FD1D0226B12781A73236B4C
:1031B40001332363E38E9BB2013B9BB2E38600277A
:1031C400C4E7012384F85130002384F850300320ED
:1031D40020E0324629462046FFF780FD90B9A368D7
:1031E40033B901932368DA6801929B680193019BC8
:1031F400012384F85130002384F85030636D4BB1BF
:10320400012007E020236365002384F85030012067
:1032140000E0022003B0BDE8F0830220FAE70220B8
:10322400F8E70120F6E70120F4E70120F2E70220A5
:10323400F0E7000090F83D30DBB2012B2FD10223E0
:1032440080F83D300268D36843F00103D36003681B
:10325400154A934218D0B3F1804F15D0A2F57C42A1
:10326400934211D002F5806293420DD002F5806240
:10327400934209D002F59A32934205D01A6842F07B
:1032840001021A60002070479A6802F00702062AB9
:1032940007D01A6842F001021A600020704701202A
:1032A40070470020704700BF00000140704770471E
:1032B4007047704770B504460368DE681D6915F0F1
:1032C400020F10D016F0020F0DD06FF002021A6137
:1032D4000123037703689B6913F0030F5ED0FFF7A4
:1032E400E6FF0023237715F0040F12D016F0040F25
:1032F4000FD023686FF004021A6102232377236836
:103304009B6913F4407F4FD02046FFF7D0FF002382
:10331400237715F0080F12D016F0080F0FD023688A
:103324006FF008021A61042323772368DB6913F022
:10333400030F40D02046FFF7BAFF0023237715F090
:10334400100F12D016F0100F0FD023686FF0100278
:103354001A61082323772368DB6913F4407F31D093
:103364002046FFF7A4FF0023237715F0010F02D0B6
:1033740016F0010F2DD115F0800F02D016F0800F3A
:103384002FD115F0400F02D016F0400F31D115F0B7
:10339400200F02D016F0200F33D170BDFFF786FF47
:1033A4002046FFF785FF9CE72046FFF77FFF204676
:1033B400FFF77EFFABE72046FFF778FF2046FFF7D5
:1033C40077FFBAE72046FFF771FF2046FFF770FF4B
:1033D400C9E723686FF001021A612046FEF724FA58
:1033E400C9E723686FF080021A61204600F091F863
:1033F400C7E723686FF040021A612046FFF759FFC0
:10340400C5E723686FF020021A61204600F080F8B7
:10341400C3E700000368274A90420ED0B0F1804F02
:103424000BD0A2F57C42904207D002F58062904214
:1034340003D002F58062904203D123F070034A68FE
:1034440013431C4A90421AD0B0F1804F17D0A2F512
:103454007C42904213D002F5806290420FD002F574
:10346400806290420BD002F59A32904207D002F566
:103474008062904203D002F58062904203D123F42B
:103484004073CA68134323F080034A6913438A686C
:10349400C2620A688262074A904207D0026842F018
:1034A4000402026001224261036070470A690263F8
:1034B400F4E700BF0000014040B310B5044690F8A3
:1034C4003D30F3B1022384F83D30214651F8040B1A
:1034D400FFF7A0FF012384F8463084F83E3084F8D7
:1034E4003F3084F8403084F8413084F8423084F826
:1034F400433084F8443084F8453084F83D3000206B
:1035040010BD80F83C30FFF737F8DBE70120704747
:103514007047704708B5FFF76DFBFEE7FEE7FEE76F
:10352400FEE7FEE770477047704708B5FEF7E8FA14
:1035340008BD000008B50248FFF7BCFE08BD00BF87
:103544008000002008B50248FEF734FC08BD00BF27
:10355400C8000020034AD2F8883043F47003C2F84C
:103564008830704700ED00E008B500F025F908BD8B
:1035740008B500F0D7F908BD08B500F0DDF908BDBD
:1035840008B500F01FFA08BD08B500F073FA08BDCD
:1035940000B587B08DF80F003223009301230DF19D
:1035A40017020DF10F010448FFF719FD9DF81700EC
:1035B40007B05DF804FB00BF2801002070B5064683
:1035C400FEF7AAFA0546FF20FFF7E2FF0446FF28AC
:1035D40004D0FEF7A1FA401BB042F4D3FF2C14BF71
:1035E4000020012070BD70B506460D46002404E09D
:1035F400FF20FFF7CDFF30550134AC42F8D370BD46
:1036040008B5012210210348FEF7A6FDFF20FFF7AD
:10361400BFFF08BD0000024010B500221021094878
:10362400FEF79AFDFF20FFF7B3FF4FF4FA70FFF7A0
:10363400C5FF10B10124204610BD0446FFF7E0FF8A
:10364400F9E700BF0000024038B504460D4610F00B
:10365400800F1DD10C2C04D0FFF7D2FFFFF7DCFF45
:10366400B0B344F04000FFF793FF280EFFF790FF3C
:10367400C5F30740FFF78CFFC5F30720FFF788FF6A
:10368400E8B2FFF785FF64B1082C1BD0012009E0E4
:1036940000F07F0400213720FFF7D6FF0128D9D995
:1036A4000FE09520FFF774FF0C2C0DD00A24FF20A7
:1036B400FFF76EFF10F0800F03D0631E13F0FF04BA
:1036C400F5D138BD8720EDE7FF20FFF761FFEDE777
:1036D400FF20F6E708B54FF0FF338AB201460248EF
:1036E400FFF79BFB08BD00BF2801002038B5054645
:1036F4000C464FF4FA70FFF761FF00B938BD20465D
:10370400FFF746FFFD2C01D10120F7E74FF40071CC
:103714002846FFF7DFFFFF20FFF73AFFFF20FFF700
:1037240037FFFF20FFF734FF00F01F00052801D109
:103734000120E3E70020E1E710B50446FEF7ECF9C9
:10374400024B1860024B1C6010BD00BF84020020B5
:103754008002002008B5FEF7DFF9054B1B68C01A8C
:10376400044B1B6898422CBF0020012008BD00BFF9
:10377400840200208002002070B505460E46C82051
:10378400FFF7DAFFFF20FFF703FF0446FF2803D10A
:10379400FFF7E0FF0028F5D1FE2C01D0002070BD1A
:1037A40031462846FFF71FFFFF20FFF7F1FEFF20F9
:1037B400FFF7EEFE0120F2E7002840F0AB80564B05
:1037C4001B7813F0020F09D170B582B0534B1A68FD
:1037D400136843F0380313600A2408E04E4B18784A
:1037E400C0B27047FF20FFF7D3FE013CE4B2002CC7
:1037F400F8D100210846FFF727FF0546012817D016
:10380400474B1C70FFF7FCFE002C7FD0434B1A681B
:10381400136823F0380343F0100313603E4A13780F
:1038240003F0FE0313703C4B1878C0B202B070BDB5
:103834004FF47A70FFF780FF4FF4D5710820FFF73B
:1038440003FF01283ED1254609E0FF20FFF7A0FE33
:1038540005F108036B4403F8040C0135EDB2032DA4
:10386400F3D99DF80630012BCAD19DF80730AA2B55
:10387400C6D1FFF76FFF30B14FF08041A920FFF7A9
:10388400E3FE0028F5D1FFF765FF08B90446B7E762
:1038940000213A20FFF7D8FE054650B1B0E7FF20DB
:1038A400FFF776FE05F108036B4403F8040C0135B9
:1038B400EDB2032DF3D99DF8043013F0400F23D05B
:1038C4000C249DE70021A920FFF7BEFE01280ED994
:1038D4002E46FFF73FFF28B100212846FFF7B4FE2C
:1038E4000028F6D1FFF736FF20B9044688E7022600
:1038F400A925EEE74FF400711020FFF7A5FE00287C
:103904007FF47EAF34467BE7042479E7024B01223F
:103914001A7088E701207047240000202801002045
:103924008802002018B9034B1878C0B270470120F0
:10393400704700BF24000020002839D138B50D4657
:103944001C46002B36D01D4B1B7813F0010F33D1CE
:103954001B4B1B7813F0080F00D15202012C18D016
:1039640011461220FFF770FE68B94FF40071284623
:10397400FFF702FF18B105F50075013CF5D10021F0
:103984000C20FFF761FEFFF73BFE201E18BF01204D
:1039940038BD11461120FFF757FE0028F3D14FF42C
:1039A40000712846FFF7E8FE0028ECD00024EAE77F
:1039B400042070470420EBE70320E9E724000020FB
:1039C40088020020002848D170B50D4616461C46D2
:1039D400002B44D0254B1B7813F0010F41D1234B0E
:1039E4001B7813F0040F3ED1214B1B7813F0080F02
:1039F40000D15602012C1BD013F0060F26D13146FC
:103A04001920FFF721FE68B9FC212846FFF76EFE56
:103A140018B105F50075013CF6D1FD210020FFF732
:103A240065FEC0B1FFF7ECFD201E18BF012070BD7C
:103A340031461820FFF708FE0028F3D1FE2128465E
:103A4400FFF754FE0028EDD00024EBE72146972031
:103A5400FFF7FAFDD3E70124E4E7042070470420CC
:103A6400E5E70320E3E70220E1E700BF24000020AC
:103A74008802002070B584B0002840F004810D460F
:103A84001646834B1B7813F0010F40F0FE80042987
:103A940000F2ED80DFE811F005000C00EB005400AB
:103AA400AF00FFF7B9FD002840F0E380012406E0F1
:103AB40000210920FFF7C8FD044628B12C46FFF772
:103AC4009FFD204604B070BD10216846FFF754FEE8
:103AD400002800F0D0809DF800309B09012B1FD0F6
:103AE4009DF8052002F00F029DF80A3002EBD31274
:103AF4009DF809305B0003F006031A449DF8081092
:103B04009DF807309B0003EB91139DF80610890282
:103B140001F440610B440133073A93403360CEE72C
:103B24009DF809309DF8082003EB02239DF8072037
:103B3400120402F47C12134401339B023360BEE787
:103B4400544B1B7813F0040F20D000218D20FFF775
:103B54007BFD08B10124B2E7FF20FFF719FD102116
:103B64006846FFF709FE78B90124A8E7FF20FFF7AC
:103B74000FFD013CE4B2002CF8D19DF80A20120993
:103B84001023934033609AE73024F4E7002109209E
:103B9400FFF75AFD054608B1012490E71021684655
:103BA400FFF7EAFD002868D03A4B1C7814F00204B1
:103BB40011D09DF80A305B0003F07E039DF80B20C2
:103BC40003EBD21301339DF80D209209013A93407F
:103BD40033602C4673E79DF80A20C2F384029DF8F3
:103BE4000B10CB0003F0180303EB5113013302FB5A
:103BF4000333336063E7274B1B7813F0060F01D1BF
:103C040001245CE76A460B21FFF734FFB8BB9DF83B
:103C140000309B0904D19DF80A3013F0400F30D0D6
:103C2400316874681B4B1B7813F0080F01D14902EB
:103C340064022020FFF708FD08B101243FE7214674
:103C44002120FFF701FD08B1012438E700212620D7
:103C5400FFF7FAFC044608B1012430E747F230507C
:103C6400FFF7ACFC00287FF42AAF012427E70424E3
:103C740025E72C4623E72C4621E701241FE70124EE
:103C84001DE701241BE704241BE7032419E700BFF5
:103C94002400002088020020DFF834D0FFF75AFC0B
:103CA4000C480D490D4A002302E0D458C450043393
:103CB400C4188C42F9D30A4A0A4C002301E0136069
:103CC4000432A242FBD300F019F8FDF793FE7047CB
:103CD400008001200000002028000020004100088E
:103CE400280000208C020020FEE702440346934291
:103CF40000D1704703F8011BF9E7000070B50D4DC2
:103D04000D4C641BA4100026A64209D10B4D0C4C8B
:103D140000F076F9641BA4100026A64205D170BDFC
:103D240055F8043B98470136EEE755F8043B9847AD
:103D34000136F2E7F8400008F8400008F8400008AF
:103D4400FC4000082DE9F047089D0E4604460F4646
:103D5400002B4AD194468C45B2FA82F260D942B122
:103D6400C2F12003974020FA03F30CFA02FC1F432C
:103D740094404FEA1C4E1FFA8CF6B7FBFEF1230C5D
:103D84000EFB117743EA074301FB06F098420AD978
:103D94001CEB030301F1FF3780F01581984240F2D8
:103DA4001281023963441B1AA4B2B3FBFEF00EFB6A
:103DB400103344EA034400FB06F6A6420AD91CEB7E
:103DC400040400F1FF3380F00081A64240F2FD803C
:103DD4006444023840EA0140A41B00211DB1D440D0
:103DE4000023C5E90043BDE8F0878B4205D90DB136
:103DF400C5E9000100210846F5E7B3FA83F100297B
:103E040046D1B34202D3824200F2F580841A66EBB3
:103E1400030201201746002DE5D0C5E90047E2E77B
:103E2400002A40F09380A1EB0C034FEA1C471FFAD1
:103E34008CFE0121B3FBF7F607FB1630230C43EA93
:103E440000430EFB06F0984208D91CEB030306F16D
:103E5400FF3802D2984200F2D08046461B1AA4B220
:103E6400B3FBF7F007FB103344EA03440EFB00FEF8
:103E7400A64508D91CEB040400F1FF3302D2A64581
:103E840000F2B6801846A4EB0E0440EA0640A5E70B
:103E9400C1F120078B4022FA07FC4CEA030C06FA16
:103EA40001FE20FA07F426FA07F344EA0E0400FAA6
:103EB40001F84FEA1C404FEA1449B3FBF0FE1FFA25
:103EC4008CF600FB1E3349EA03430EFB06F99945C1
:103ED40002FA01F20BD91CEB03030EF1FF3A80F056
:103EE4008580994540F28280AEF1020E6344A3EBD3
:103EF4000909A4B2B9FBF0F300FB139944EA09449D
:103F040003FB06F6A64208D91CEB040403F1FF30B8
:103F140068D2A64266D9023B644443EA0E40A41B1D
:103F2400A0FB02E6B4427346B14652D34FD05DB112
:103F3400B8EB030264EB090404FA07F722FA01F36D
:103F44001F43CC40C5E9007400214CE7C2F12001B5
:103F540020FA01F30CFA02FC26FA01F196403343ED
:103F64004FEA1C471FFA8CFEB1FBF7F007FB101653
:103F7400190C41EA064100FB0EF68E4204FA02F4E3
:103F840008D91CEB010100F1FF382DD28E422BD948
:103F940002386144891B9BB2B1FBF7F607FB16118B
:103FA40043EA014306FB0EF1994208D91CEB0303D3
:103FB40006F1FF3814D2994212D9023E63445B1AC7
:103FC40046EA004136E73946EDE6184602E7F04591
:103FD400ADD2BEEB020366EB0C060138B146A6E790
:103FE4004646ECE7034698E74046D3E7D6467EE7E5
:103FF4006444023847E708460DE7023E63442DE770
:10400400F8B500BFF8BC08BC9E467047F8B500BFC1
:08401400F8BC08BC9E46704791
:10401C00222A2B2C3A3B3C3D3E3F5B5D7C7F0000D3
:10402C000000000077726974652E747874000000CB
:10403C0061206E65772066696C65206973206D61FF
:10404C00646521004355454141414143454545493E
:10405C00494941414592924F4F4F5555594F554FF4
:10406C009C4F9E9F41494F55A5A5A6A7A8A9AAABB1
:10407C00ACADAEAFB0B1B2B3B4414141B8B9BABB5B
:10408C00BCBDBEBFC0C1C2C3C4C54141C8C9CACBF7
:10409C00CCCDCECFD1D145454549494949D9DADBBB
:1040AC00DCDD49DF4FE14F4F4F4FE6E8E855555502
:1040BC005959EEEFF0F1F2F3F4F5F6F7F8F9FAFBE3
:1040CC00FCFDFEFF00061016000610160000000096
:1040DC0001020304000000000000000001020304C0
:0440EC0006070809B2
:0840F00058FCFF7F01000000F5
:0440F800ED010008CE
:0440FC00C9010008EE
:104100008000002001000000100000000024F400E6
:104110006D350008753500087D35000885350008C7
:084120008D35000801000000CC
:0400000508003C9D16
:00000001FF
