:020000040800F2
:100000000080012031130008F5120008F7120008E3
:10001000F9120008FB120008FD12000800000000A1
:10002000000000000000000000000000FF120008B7
:100030000113000800000000031300080513000866
:100040008113000881130008811300088113000840
:100050008113000881130008811300088113000830
:100060008113000881130008811300088113000820
:100070008113000881130008811300088113000810
:10008000811300088113000881130008000000009C
:1000900000000000000000000000000081130008C4
:1000A00081130008811300080D1300088113000854
:1000B00081130008811300088113000881130008D0
:1000C00081130008811300088113000881130008C0
:1000D000811300088113000881130008000000004C
:1000E000811300088113000881130008000000003C
:1000F0000000000000000000000000008113000864
:10010000000000008113000881130008811300081B
:1001100000000000000000000000000000000000DF
:10012000811300088113000881130008811300085F
:100130008113000800000000000000000000000023
:100140000000000000000000000000008113000813
:10015000811300088113000881130008811300082F
:100160008113000881130008000000000000000057
:10017000000000000000000000000000000000007F
:1001800000000000811300080000000000000000D3
:0401900081130008CF
:1001940053B94AB9002908BF00281CBF4FF0FF31EA
:1001A4004FF0FF3000F00CB8ADF1080C6DE904CE4F
:1001B40001F012F9DDF804E0DDE9022304B0704730
:1001C400704700BF10B5054C237833B9044B13B105
:1001D4000448AFF300800123237010BD0C000020FD
:1001E400000000009816000808B5034B1BB1034932
:1001F4000348AFF3008008BD000000001000002099
:100204009816000830B589B000240394049405942A
:10021400069407940094194B1A6B42F004021A6373
:100224001A6B02F004020092009A01941A6B42F0D5
:1002340080021A631A6B02F080020192019A0294FE
:100244001A6B42F002021A631B6B03F0020302935F
:10025400029B0B4D22464FF40051284600F060FAF1
:100264004FF400530393012304930594069403A9C4
:10027400284600F071F909B030BD00BF00380240D3
:100284000008024008B50268044B9A4200D008BD39
:100294004FF40051024800F049FAF8E700480140E1
:1002A4000008024072B6FEE708B50A480A4B03602C
:1002B4000A4B436000238360C3604FF480420261B1
:1002C40043618361C361036200F03AFA00B908BD77
:1002D400FFF7E8FF7000002000540040801A060079
:1002E40008B50B480B4B036046F2A7134360002389
:1002F40083604FF47A72C2600361836100F0CAFFC5
:1003040018B9034800F084FE08BDFFF7CBFF00BF17
:10031400280000200048014000B595B0302200219B
:1003240008A801F02CF80023039304930593069383
:1003340007930193194A116C41F080511164126CB6
:1003440002F080520192019A029315490A6822F43C
:10035400404242F400420A600A6802F440420292B7
:10036400029A012208924FF4803209920E9308A84F
:1003740000F038FB70B90F23039301230493002189
:1003840005910691079103A800F07CFD20B915B0F2
:100394005DF804FBFFF786FFFFF784FF0038024097
:1003A4000070004008B500F02FF8FFF7B5FFFFF725
:1003B40029FFFFF779FFFFF793FFFEE710B5044627
:1003C4000E4B1A784FF47A73B3FBF2F30C4A1068AD
:1003D400B0FBF3F000F0ACF868B90F2C01D90120A0
:1003E4000AE0002221464FF0FF3000F08DF8054B63
:1003F4001C60002000E0012010BD00BF00000020B0
:10040400080000200400002008B50B4B1A6842F4D1
:1004140000721A601A6842F480621A601A6842F420
:1004240080721A60032000F05DF80F20FFF7C6FF0A
:1004340000F064FA002008BD003C0240034A116841
:10044400034B1B780B441360704700BFC4000020AB
:1004540000000020014B1868704700BFC400002052
:10046400002807DB00F01F02400901239340024AE1
:1004740042F82030704700BF00E100E0002808DBAC
:100484000901C9B200F1604000F5614080F8001331
:10049400704700F00F000901C9B2014B19547047AD
:1004A40014ED00E000B500F00700C0F1070CBCF14A
:1004B400040F28BF4FF0040C031D062B0FD9C31ED5
:1004C4004FF0FF3E0EFA0CF021EA000199400EFABB
:1004D40003FE22EA0E0241EA02005DF804FB002357
:1004E400EEE70000074AD36823F4E0631B041B0C07
:1004F400000200F4E060034343F0BF6343F40033BD
:10050400D360704700ED00E010B50446054BD86891
:10051400C0F30220FFF7C6FF01462046FFF7AEFFF7
:1005240010BD00BF00ED00E008B5FFF799FF08BD5E
:100534000138B0F1807F0BD24FF0E0235861054AB7
:10054400F02182F823100020986107221A61704775
:100554000120704700ED00E000230F2B00F2D7804C
:1005640070B582B065E085684FEA430E032404FA4F
:100574000EF425EA0405CC6804FA0EF42C438460D6
:10058400446824EA02044A68C2F300129A402243EF
:1005940042605CE0DC08083450F8242003F00705CE
:1005A400AD004FF00F0E0EFA05FE22EA0E0E0A6998
:1005B400AA4042EA0E0240F824205CE0042200E053
:1005C400002202FA0EF22A430234514D45F8242047
:1005D400504A94686FEA0C0224EA0C054E6816F43B
:1005E400801F01D04CEA04054A4CA560E46802EA85
:1005F40004054E6816F4001F01D04CEA0405454C6E
:10060400E560646802EA04054E6816F4003F01D010
:100614004CEA04053F4C6560246822404D6815F49B
:10062400803F01D04CEA04023A4C226001330F2B84
:100634006BD801229A400C6804EA020C32EA0404E2
:10064400F4D14C6804F00304013C012C8BD94A68B2
:1006540002F00302032A09D0C4685D000322AA4001
:1006640024EA02048A68AA402243C2604A6802F06B
:100674000302022A8ED004684FEA430E032202FAD0
:100684000EF224EA02044A6802F0030202FA0EF2AD
:10069400224302604A6812F4403FC7D0002201920C
:1006A4001D4A546C44F480445464526C02F48042F5
:1006B4000192019A9C08A51C154A52F8255003F092
:1006C400030E4FEA8E0E0F2202FA0EF225EA0205FD
:1006D400124A90423FF474AF02F5806290420ED009
:1006E40002F5806290420CD002F5806290420AD0FA
:1006F40002F5806290423FF461AF072261E7012274
:100704005FE702225DE703225BE702B070BD70473A
:1007140000380140003C0140003802400000024023
:100724000AB181617047090481617047436901EA34
:10073400030221EA030141EA02418161704700009A
:10074400002800F0CC8070B5044690F83D30002BB2
:1007540077D0242384F83D302268136823F0010302
:1007640013602268136843F400431360226813681B
:1007740023F40043136000F03BFC62685A4B9A4236
:1007840064D85A4B98428CBF00230123002B40F0BD
:10079400A8805749A1FB00318B0C25686A6822F0B8
:1007A4003F0242EA91426A6021680A6A22F03F02EB
:1007B40066684D4DAE424FD8013313430B62216836
:1007C400CA6922F44F4222F0FF026568464B9D42FB
:1007D4004CD8431E6D00B3FBF5F3013340F6FC70B7
:1007E400034278D0C3F30B031A43CA6121680B6830
:1007F40023F0C003E269206A024313430B602168BB
:100804008B6823F4034323F0FF032269E068024367
:1008140013438B602168CB6823F0FF036269A069EE
:1008240002431343CB602268136843F0010313604F
:1008340000202064202384F83D30206384F83E00A7
:1008440070BD80F83C3000F075F882E7294B98427F
:100854008CBF0023012399E74FF4967505FB03F33E
:10086400254DA5FB03539B090133A6E7A668BEB932
:10087400431E05EB450CB3FBFCF30133C3F30B033D
:10088400B3FA83F35B0943BBC6B9431E05EB4505C5
:10089400B3FBF5F30133C3F30B0343F40043A3E7C2
:1008A400431E05EB850C0CEB8C0CB3FBFCF3013302
:1008B400C3F30B03B3FA83F35B09E4E7431E05EBCD
:1008C400850505EB8505B3FBF5F30133C3F30B0392
:1008D40043F4404388E7042386E7012384E70120A7
:1008E40070470120ACE700BFA08601007F841E0092
:1008F40083DE1B43FF083D00D34D621082B000210C
:1009040000910B4B5A6C42F480425A645A6C02F4C4
:1009140080420092009A01911A6C42F080521A644B
:100924001B6C03F080530193019B02B0704700BF1E
:100934000038024030B589B0002303930493059333
:10094400069307930268144B9A4201D009B030BD54
:1009540000250195114C236B43F002032363236BA1
:1009640003F002030193019BC02303931223049316
:10097400032306930423079303A90948FFF7ECFD17
:100984000295236C43F400132364236C03F40013D3
:100994000293029BDAE700BF005400400038024093
:1009A4000004024002680E4B9A4200D0704700B522
:1009B40083B00021019103F570435A6C42F4802204
:1009C4005A645B6C03F480230193019B0A461A204A
:1009D400FFF79AFD1A20FFF7A7FD03B05DF804FBAB
:1009E40000480140002800F0E08170B582B0044660
:1009F400036813F0010F3BD09F4B9B6803F00C037B
:100A0400042B2CD09C4B9B6803F00C03082B21D0A7
:100A14006368B3F5803F4FD0B3F5A02F52D0964B07
:100A24001A6822F480321A601A6822F480221A604A
:100A34006368002B50D0FFF70DFD05468E4B1B68F5
:100A440013F4003F14D1FFF705FD401B6428F5D9CA
:100A54000320B1E1884B5B6813F4800FD8D0864B38
:100A64001B6813F4003F03D06368002B00F09F81E0
:100A7400236813F0020F54D07F4B9B6813F00C0FC4
:100A84003ED07D4B9B6803F00C03082B33D0E36806
:100A9400002B68D0794B01221A60FFF7DBFC054676
:100AA400754B1B6813F0020F54D1FFF7D3FC401BA6
:100AB4000228F5D903207FE16F4A136843F4803399
:100AC4001360B5E76C4B1A6842F480221A601A6806
:100AD40042F480321A60ABE7FFF7BCFC0546664B74
:100AE4001B6813F4003FC3D0FFF7B4FC401B642819
:100AF400F5D9032060E1604B5B6813F4800FC6D125
:100B04005D4B1B6813F0020F03D0E368012B40F028
:100B14005081594A136823F0F803216943EAC10359
:100B24001360236813F0080F42D063696BB3534B0F
:100B34000122C3F8802EFFF78DFC05464E4B5B6FF8
:100B440013F0020F34D1FFF785FC401B0228F5D9BE
:100B5400032031E1484A136823F0F803216943EA8A
:100B6400C1031360DDE7454B00221A60FFF772FCF6
:100B74000546414B1B6813F0020FD2D0FFF76AFC05
:100B8400401B0228F5D9032016E13C4B0022C3F890
:100B9400802EFFF75FFC0546374B5B6F13F0020FA7
:100BA40006D0FFF757FC401B0228F5D9032003E1C8
:100BB400236813F0040F77D02F4B1B6C13F0805F66
:100BC40033D1002301932C4B1A6C42F080521A64E7
:100BD4001B6C03F080530193019B0125284B1B6878
:100BE40013F4807F23D0A368012B34D0052B38D095
:100BF400214B1A6F22F001021A671A6F22F00402C5
:100C04001A67A368002B3DD0FFF724FC06461A4B55
:100C14001B6F13F0020F46D1FFF71CFC801B41F23F
:100C240088339842F3D90320C6E00025D6E7144A56
:100C3400136843F480731360FFF70CFC0646104BF3
:100C44001B6813F4807FCED1FFF704FC801B0228BD
:100C5400F5D90320B0E0084A136F43F0010313678A
:100C6400CFE7054B1A6F42F004021A671A6F42F07D
:100C740001021A67C5E700BF00380240000047427E
:100C840000700040FFF7E6FB0646524B1B6F13F063
:100C9400020F08D0FFF7DEFB801B41F28833984235
:100CA400F3D9032088E0EDB9A369002B00F0838019
:100CB400484A926802F00C02082A51D0022B17D03D
:100CC400454B00221A66FFF7C5FB0446414B1B68DF
:100CD40013F0007F42D0FFF7BDFB001B0228F5D9BB
:100CE400032069E03B4A136C23F080531364DBE771
:100CF400394B00221A66FFF7ADFB0546354B1B68DE
:100D040013F0007F06D0FFF7A5FB401B0228F5D99E
:100D1400032051E0E369226A1343626A43EA8213BF
:100D2400A26A5208013A43EA0243E26A43EA0263CE
:100D3400284A5360284B01221A66FFF78BFB0446AE
:100D4400244B1B6813F0007F06D1FFF783FB001BC5
:100D54000228F5D903202FE000202DE000202BE00D
:100D6400012B2BD01B4B5B6803F48001E269914299
:100D740026D103F03F02216A8A4223D1616A47F6F1
:100D8400C0721A40B2EB811F1ED103F44031A26A33
:100D94005208013AB1EB024F18D103F07063E26AD2
:100DA400B3EB026F14D1002006E00120704701204C
:100DB40002E0012000E0002002B070BD0120FBE74A
:100DC4000120F9E70120F7E70120F5E70120F3E727
:100DD4000120F1E7003802400000474208B5264BE5
:100DE4009B6803F00C03042B41D0082B41D1224B08
:100DF4005A6802F03F025B6813F4800F12D01E4B56
:100E04005968C1F388111D480023A1FB0001FFF7B5
:100E1400BFF9194B5B68C3F3014301335B00B0FBBB
:100E2400F3F008BD144B5868C0F388104FEA401C17
:100E3400BCEB000C6EEB0E0E4FEA8E1343EA9C6380
:100E44004FEA8C11B1EB0C0163EB0E03DB0043EAB8
:100E54005173C90011EB000C43F100039902002304
:100E64004FEA8C2041EA9C51FFF792F9D1E70348FD
:100E7400D7E70348D5E700BF0038024040787D013A
:100E84000024F400002800F09B8070B50D46044651
:100E94004F4B1B6803F007038B4208D2CBB24C4A7A
:100EA4001370136803F007038B4240F08B802368B0
:100EB40013F0020F17D013F0040F04D0454A9368BF
:100EC40043F4E0539360236813F0080F04D0414ABD
:100ED400936843F4604393603E4A936823F0F003BD
:100EE400A1680B439360236813F0010F32D0636849
:100EF400012B21D09A1E012A25D9364A126812F0F4
:100F0400020F61D033498A6822F0030213438B60D5
:100F1400FFF7A0FA06462F4B9B6803F00C036268A8
:100F2400B3EB820F16D0FFF795FA801B41F288339A
:100F34009842F0D9032042E0264A126812F4003F96
:100F4400E0D101203BE0234A126812F0007FD9D19E
:100F5400012034E01E4B1B6803F00703AB4207D9A2
:100F6400EAB21B4B1A701B6803F00703AB422DD186
:100F7400236813F0040F06D0164A936823F4E05351
:100F8400E1680B439360236813F0080F07D0114AFC
:100F9400936823F46043216943EAC1039360FFF734
:100FA4001DFF0C4B9B68C3F303130B4AD35CD8405F
:100FB4000A4B18600A4B1868FFF700FA002070BD4E
:100FC400012070470120FAE70120F8E70120F6E745
:100FD400003C024000380240B81600080800002017
:100FE40004000020014B1868704700BF080000206F
:100FF40008B5FFF7F7FF044B9B68C3F38223034A4A
:10100400D35CD84008BD00BF00380240B0160008C9
:1010140090F83D30DBB2012B2FD1022380F83D3014
:101024000268D36843F00103D3600368154A93420E
:1010340018D0B3F1804F15D0A2F57C42934211D061
:1010440002F5806293420DD002F58062934209D08A
:1010540002F59A32934205D01A6842F001021A60EE
:10106400002070479A6802F00702062A07D01A681F
:1010740042F001021A6000207047012070470020EE
:10108400704700BF000001407047704770477047C9
:1010940070B504460368DE681D6915F0020F10D0B0
:1010A40016F0020F0DD06FF002021A6101230377CC
:1010B40003689B6913F0030F5ED0FFF7E6FF00237C
:1010C400237715F0040F12D016F0040F0FD0236805
:1010D4006FF004021A610223237723689B6913F4D7
:1010E400407F4FD02046FFF7D0FF0023237715F031
:1010F400080F12D016F0080F0FD023686FF0080203
:101104001A61042323772368DB6913F0030F40D0AB
:101114002046FFF7BAFF0023237715F0100F12D0F3
:1011240016F0100F0FD023686FF010021A61082315
:1011340023772368DB6913F4407F31D02046FFF71F
:10114400A4FF0023237715F0010F02D016F0010F3E
:101154002DD115F0800F02D016F0800F2FD115F08D
:10116400400F02D016F0400F31D115F0200F02D0FD
:1011740016F0200F33D170BDFFF786FF2046FFF72E
:1011840085FF9CE72046FFF77FFF2046FFF77EFFA1
:10119400ABE72046FFF778FF2046FFF777FFBAE773
:1011A4002046FFF771FF2046FFF770FFC9E7236869
:1011B4006FF001021A612046FFF764F8C9E723685B
:1011C4006FF080021A61204600F091F8C7E72368A7
:1011D4006FF040021A612046FFF759FFC5E7236804
:1011E4006FF020021A61204600F080F8C3E7000087
:1011F4000368274A90420ED0B0F1804F0BD0A2F57D
:101204007C42904207D002F58062904203D002F5FE
:101214008062904203D123F070034A6813431C4A4E
:1012240090421AD0B0F1804F17D0A2F57C42904280
:1012340013D002F5806290420FD002F58062904292
:101244000BD002F59A32904207D002F580629042A8
:1012540003D002F58062904203D123F44073CA683C
:10126400134323F080034A6913438A68C2620A68FD
:101274008262074A904207D0026842F00402026088
:1012840001224261036070470A690263F4E700BF08
:101294000000014040B310B5044690F83D30F3B16E
:1012A400022384F83D30214651F8040BFFF7A0FFD8
:1012B400012384F8463084F83E3084F83F3084F8C3
:1012C400403084F8413084F8423084F8433084F864
:1012D400443084F8453084F83D30002010BD80F857
:1012E4003C30FFF75FFBDBE7012070477047704736
:1012F400FEE7FEE7FEE7FEE7FEE77047704770474C
:1013040008B5FFF79BF808BD08B50248FFF7C0FE13
:1013140008BD00BF28000020034AD2F8883043F4F7
:101324007003C2F88830704700ED00E0DFF834D075
:10133400FFF7F2FF0C480D490D4A002302E0D45890
:10134400C4500433C4188C42F9D30A4A0A4C00230B
:1013540001E013600432A242FBD300F019F8FFF756
:1013640021F8704700800120000000200C000020BC
:10137400D81600080C000020C8000020FEE7024434
:101384000346934200D1704703F8011BF9E70000BC
:1013940070B50D4D0D4C641BA4100026A64209D156
:1013A4000B4D0C4C00F076F9641BA4100026A642E9
:1013B40005D170BD55F8043B98470136EEE755F862
:1013C400043B98470136F2E7D0160008D01600080F
:1013D400D0160008D41600082DE9F047089D0E46E3
:1013E40004460F46002B4AD194468C45B2FA82F249
:1013F40060D942B1C2F12003974020FA03F30CFAFA
:1014040002FC1F4394404FEA1C4E1FFA8CF6B7FBB4
:10141400FEF1230C0EFB117743EA074301FB06F0B0
:1014240098420AD91CEB030301F1FF3780F01581C0
:10143400984240F21281023963441B1AA4B2B3FBEE
:10144400FEF00EFB103344EA034400FB06F6A6420A
:101454000AD91CEB040400F1FF3380F00081A6429A
:1014640040F2FD806444023840EA0140A41B00219C
:101474001DB1D4400023C5E90043BDE8F0878B4289
:1014840005D90DB1C5E9000100210846F5E7B3FA15
:1014940083F1002946D1B34202D3824200F2F5809F
:1014A400841A66EB030201201746002DE5D0C5E936
:1014B4000047E2E7002A40F09380A1EB0C034FEAD7
:1014C4001C471FFA8CFE0121B3FBF7F607FB16300D
:1014D400230C43EA00430EFB06F0984208D91CEBA8
:1014E400030306F1FF3802D2984200F2D080464648
:1014F4001B1AA4B2B3FBF7F007FB103344EA03440E
:101504000EFB00FEA64508D91CEB040400F1FF33D2
:1015140002D2A64500F2B6801846A4EB0E0440EAB7
:101524000640A5E7C1F120078B4022FA07FC4CEAEC
:10153400030C06FA01FE20FA07F426FA07F344EA3C
:101544000E0400FA01F84FEA1C404FEA1449B3FBB9
:10155400F0FE1FFA8CF600FB1E3349EA03430EFB30
:1015640006F9994502FA01F20BD91CEB03030EF1BB
:10157400FF3A80F08580994540F28280AEF1020EF8
:101584006344A3EB0909A4B2B9FBF0F300FB13997C
:1015940044EA094403FB06F6A64208D91CEB0404FA
:1015A40003F1FF3068D2A64266D9023B644443EAA1
:1015B4000E40A41BA0FB02E6B4427346B14652D3CC
:1015C4004FD05DB1B8EB030264EB090404FA07F7EA
:1015D40022FA01F31F43CC40C5E9007400214CE713
:1015E400C2F1200120FA01F30CFA02FC26FA01F1FF
:1015F400964033434FEA1C471FFA8CFEB1FBF7F0C9
:1016040007FB1016190C41EA064100FB0EF68E4248
:1016140004FA02F408D91CEB010100F1FF382DD2C1
:101624008E422BD902386144891B9BB2B1FBF7F679
:1016340007FB161143EA014306FB0EF1994208D950
:101644001CEB030306F1FF3814D2994212D9023E6F
:1016540063445B1A46EA004136E73946EDE618462C
:1016640002E7F045ADD2BEEB020366EB0C0601388F
:10167400B146A6E74646ECE7034698E74046D3E77B
:10168400D6467EE76444023847E708460DE7023E43
:1016940063442DE7F8B500BFF8BC08BC9E4670470C
:0C16A400F8B500BFF8BC08BC9E467047BB
:1016B0000000000001020304000000000000000020
:0816C0000102030406070809FA
:0816C80014FDFF7F010000008A
:0416D000ED01000820
:0416D400C901000840
:0C16D80001000000100000000024F400DD
:0400000508001331AB
:00000001FF
